{
  "contractName": "Ballots",
  "abi": [
    {
      "inputs": [],
      "stateMutability": "nonpayable",
      "type": "constructor"
    },
    {
      "inputs": [
        {
          "internalType": "string",
          "name": "message",
          "type": "string"
        }
      ],
      "name": "BallotNotClosed",
      "type": "error"
    },
    {
      "inputs": [
        {
          "internalType": "string",
          "name": "message",
          "type": "string"
        }
      ],
      "name": "NotOwner",
      "type": "error"
    },
    {
      "inputs": [],
      "name": "getCurrentBallotStatus",
      "outputs": [
        {
          "internalType": "uint256",
          "name": "",
          "type": "uint256"
        }
      ],
      "stateMutability": "view",
      "type": "function"
    },
    {
      "inputs": [],
      "name": "getCurrentBallot",
      "outputs": [
        {
          "components": [
            {
              "internalType": "uint256",
              "name": "id",
              "type": "uint256"
            },
            {
              "internalType": "string",
              "name": "name",
              "type": "string"
            },
            {
              "internalType": "uint256",
              "name": "status",
              "type": "uint256"
            },
            {
              "internalType": "uint256",
              "name": "currentElectionId",
              "type": "uint256"
            },
            {
              "internalType": "uint256",
              "name": "currentIssueId",
              "type": "uint256"
            },
            {
              "components": [
                {
                  "internalType": "uint256",
                  "name": "id",
                  "type": "uint256"
                },
                {
                  "internalType": "string",
                  "name": "name",
                  "type": "string"
                },
                {
                  "internalType": "uint256",
                  "name": "currentCandidateId",
                  "type": "uint256"
                },
                {
                  "components": [
                    {
                      "internalType": "uint256",
                      "name": "id",
                      "type": "uint256"
                    },
                    {
                      "internalType": "string",
                      "name": "name",
                      "type": "string"
                    },
                    {
                      "internalType": "uint256",
                      "name": "votes",
                      "type": "uint256"
                    }
                  ],
                  "internalType": "struct Ballots.Candidate[]",
                  "name": "candidates",
                  "type": "tuple[]"
                }
              ],
              "internalType": "struct Ballots.Election[]",
              "name": "elections",
              "type": "tuple[]"
            },
            {
              "components": [
                {
                  "internalType": "uint256",
                  "name": "id",
                  "type": "uint256"
                },
                {
                  "internalType": "string",
                  "name": "name",
                  "type": "string"
                },
                {
                  "internalType": "uint256",
                  "name": "forVotes",
                  "type": "uint256"
                },
                {
                  "internalType": "uint256",
                  "name": "againstVotes",
                  "type": "uint256"
                }
              ],
              "internalType": "struct Ballots.Issue[]",
              "name": "issues",
              "type": "tuple[]"
            }
          ],
          "internalType": "struct Ballots.Ballot",
          "name": "",
          "type": "tuple"
        }
      ],
      "stateMutability": "view",
      "type": "function"
    },
    {
      "inputs": [],
      "name": "getAllBallots",
      "outputs": [
        {
          "components": [
            {
              "internalType": "uint256",
              "name": "id",
              "type": "uint256"
            },
            {
              "internalType": "string",
              "name": "name",
              "type": "string"
            },
            {
              "internalType": "uint256",
              "name": "status",
              "type": "uint256"
            },
            {
              "internalType": "uint256",
              "name": "currentElectionId",
              "type": "uint256"
            },
            {
              "internalType": "uint256",
              "name": "currentIssueId",
              "type": "uint256"
            },
            {
              "components": [
                {
                  "internalType": "uint256",
                  "name": "id",
                  "type": "uint256"
                },
                {
                  "internalType": "string",
                  "name": "name",
                  "type": "string"
                },
                {
                  "internalType": "uint256",
                  "name": "currentCandidateId",
                  "type": "uint256"
                },
                {
                  "components": [
                    {
                      "internalType": "uint256",
                      "name": "id",
                      "type": "uint256"
                    },
                    {
                      "internalType": "string",
                      "name": "name",
                      "type": "string"
                    },
                    {
                      "internalType": "uint256",
                      "name": "votes",
                      "type": "uint256"
                    }
                  ],
                  "internalType": "struct Ballots.Candidate[]",
                  "name": "candidates",
                  "type": "tuple[]"
                }
              ],
              "internalType": "struct Ballots.Election[]",
              "name": "elections",
              "type": "tuple[]"
            },
            {
              "components": [
                {
                  "internalType": "uint256",
                  "name": "id",
                  "type": "uint256"
                },
                {
                  "internalType": "string",
                  "name": "name",
                  "type": "string"
                },
                {
                  "internalType": "uint256",
                  "name": "forVotes",
                  "type": "uint256"
                },
                {
                  "internalType": "uint256",
                  "name": "againstVotes",
                  "type": "uint256"
                }
              ],
              "internalType": "struct Ballots.Issue[]",
              "name": "issues",
              "type": "tuple[]"
            }
          ],
          "internalType": "struct Ballots.Ballot[]",
          "name": "",
          "type": "tuple[]"
        }
      ],
      "stateMutability": "view",
      "type": "function"
    },
    {
      "inputs": [
        {
          "internalType": "uint256",
          "name": "_id",
          "type": "uint256"
        }
      ],
      "name": "getBallotById",
      "outputs": [
        {
          "components": [
            {
              "internalType": "uint256",
              "name": "id",
              "type": "uint256"
            },
            {
              "internalType": "string",
              "name": "name",
              "type": "string"
            },
            {
              "internalType": "uint256",
              "name": "status",
              "type": "uint256"
            },
            {
              "internalType": "uint256",
              "name": "currentElectionId",
              "type": "uint256"
            },
            {
              "internalType": "uint256",
              "name": "currentIssueId",
              "type": "uint256"
            },
            {
              "components": [
                {
                  "internalType": "uint256",
                  "name": "id",
                  "type": "uint256"
                },
                {
                  "internalType": "string",
                  "name": "name",
                  "type": "string"
                },
                {
                  "internalType": "uint256",
                  "name": "currentCandidateId",
                  "type": "uint256"
                },
                {
                  "components": [
                    {
                      "internalType": "uint256",
                      "name": "id",
                      "type": "uint256"
                    },
                    {
                      "internalType": "string",
                      "name": "name",
                      "type": "string"
                    },
                    {
                      "internalType": "uint256",
                      "name": "votes",
                      "type": "uint256"
                    }
                  ],
                  "internalType": "struct Ballots.Candidate[]",
                  "name": "candidates",
                  "type": "tuple[]"
                }
              ],
              "internalType": "struct Ballots.Election[]",
              "name": "elections",
              "type": "tuple[]"
            },
            {
              "components": [
                {
                  "internalType": "uint256",
                  "name": "id",
                  "type": "uint256"
                },
                {
                  "internalType": "string",
                  "name": "name",
                  "type": "string"
                },
                {
                  "internalType": "uint256",
                  "name": "forVotes",
                  "type": "uint256"
                },
                {
                  "internalType": "uint256",
                  "name": "againstVotes",
                  "type": "uint256"
                }
              ],
              "internalType": "struct Ballots.Issue[]",
              "name": "issues",
              "type": "tuple[]"
            }
          ],
          "internalType": "struct Ballots.Ballot",
          "name": "",
          "type": "tuple"
        }
      ],
      "stateMutability": "view",
      "type": "function"
    },
    {
      "inputs": [
        {
          "internalType": "string",
          "name": "_name",
          "type": "string"
        }
      ],
      "name": "createBallot",
      "outputs": [],
      "stateMutability": "nonpayable",
      "type": "function"
    },
    {
      "inputs": [],
      "name": "deleteBallot",
      "outputs": [],
      "stateMutability": "nonpayable",
      "type": "function"
    },
    {
      "inputs": [],
      "name": "openCloseBallot",
      "outputs": [],
      "stateMutability": "nonpayable",
      "type": "function"
    },
    {
      "inputs": [
        {
          "internalType": "string[][]",
          "name": "elections",
          "type": "string[][]"
        }
      ],
      "name": "addElections",
      "outputs": [],
      "stateMutability": "nonpayable",
      "type": "function"
    },
    {
      "inputs": [
        {
          "internalType": "string[]",
          "name": "issues",
          "type": "string[]"
        }
      ],
      "name": "addIssues",
      "outputs": [],
      "stateMutability": "nonpayable",
      "type": "function"
    },
    {
      "inputs": [
        {
          "internalType": "uint256[][]",
          "name": "votes",
          "type": "uint256[][]"
        }
      ],
      "name": "vote",
      "outputs": [],
      "stateMutability": "nonpayable",
      "type": "function"
    }
  ],
  "bytecode": "0x608060405260008055600180556002805534801561001c57600080fd5b5033600560006101000a81548173ffffffffffffffffffffffffffffffffffffffff021916908373ffffffffffffffffffffffffffffffffffffffff1602179055506131af8061006d6000396000f3fe608060405234801561001057600080fd5b506004361061009e5760003560e01c8063b0c2a23b11610066578063b0c2a23b14610123578063bb58b0441461013f578063c11296cc1461015b578063d7627ad114610177578063fdad211f146101a75761009e565b80630b8710e4146100a357806322d043d9146100c15780633cfe7fa7146100df57806346a86576146100e957806379df360a14610105575b600080fd5b6100ab6101b1565b6040516100b89190612746565b60405180910390f35b6100c9610673565b6040516100d69190612812565b60405180910390f35b6100e7610b5a565b005b61010360048036038101906100fe919061297d565b610c7f565b005b61010d610e16565b60405161011a91906129d5565b60405180910390f35b61013d60048036038101906101389190612ad6565b610ee7565b005b61015960048036038101906101549190612cef565b6111c2565b005b61017560048036038101906101709190612e19565b611528565b005b610191600480360381019061018c9190612e62565b61191e565b60405161019e9190612812565b60405180910390f35b6101af611ddb565b005b6060600560009054906101000a900473ffffffffffffffffffffffffffffffffffffffff1673ffffffffffffffffffffffffffffffffffffffff163373ffffffffffffffffffffffffffffffffffffffff1614610243576040517ff7251ccf00000000000000000000000000000000000000000000000000000000815260040161023a90612eec565b60405180910390fd5b6004805480602002602001604051908101604052809291908181526020016000905b8282101561066a57838290600052602060002090600702016040518060e0016040529081600082015481526020016001820180546102a290612f3b565b80601f01602080910402602001604051908101604052809291908181526020018280546102ce90612f3b565b801561031b5780601f106102f05761010080835404028352916020019161031b565b820191906000526020600020905b8154815290600101906020018083116102fe57829003601f168201915b5050505050815260200160028201548152602001600382015481526020016004820154815260200160058201805480602002602001604051908101604052809291908181526020016000905b828210156105445783829060005260206000209060040201604051806080016040529081600082015481526020016001820180546103a490612f3b565b80601f01602080910402602001604051908101604052809291908181526020018280546103d090612f3b565b801561041d5780601f106103f25761010080835404028352916020019161041d565b820191906000526020600020905b81548152906001019060200180831161040057829003601f168201915b505050505081526020016002820154815260200160038201805480602002602001604051908101604052809291908181526020016000905b8282101561052d57838290600052602060002090600302016040518060600160405290816000820154815260200160018201805461049290612f3b565b80601f01602080910402602001604051908101604052809291908181526020018280546104be90612f3b565b801561050b5780601f106104e05761010080835404028352916020019161050b565b820191906000526020600020905b8154815290600101906020018083116104ee57829003601f168201915b5050505050815260200160028201548152505081526020019060010190610455565b505050508152505081526020019060010190610367565b50505050815260200160068201805480602002602001604051908101604052809291908181526020016000905b828210156106535783829060005260206000209060040201604051806080016040529081600082015481526020016001820180546105ae90612f3b565b80601f01602080910402602001604051908101604052809291908181526020018280546105da90612f3b565b80156106275780601f106105fc57610100808354040283529160200191610627565b820191906000526020600020905b81548152906001019060200180831161060a57829003601f168201915b505050505081526020016002820154815260200160038201548152505081526020019060010190610571565b505050508152505081526020019060010190610265565b50505050905090565b61067b611f7c565b600560009054906101000a900473ffffffffffffffffffffffffffffffffffffffff1673ffffffffffffffffffffffffffffffffffffffff163373ffffffffffffffffffffffffffffffffffffffff161461070b576040517ff7251ccf00000000000000000000000000000000000000000000000000000000815260040161070290612eec565b60405180910390fd5b600060048054905011610753576040517f08c379a000000000000000000000000000000000000000000000000000000000815260040161074a90612fb9565b60405180910390fd5b60046003548154811061076957610768612fd9565b5b90600052602060002090600702016040518060e00160405290816000820154815260200160018201805461079c90612f3b565b80601f01602080910402602001604051908101604052809291908181526020018280546107c890612f3b565b80156108155780601f106107ea57610100808354040283529160200191610815565b820191906000526020600020905b8154815290600101906020018083116107f857829003601f168201915b5050505050815260200160028201548152602001600382015481526020016004820154815260200160058201805480602002602001604051908101604052809291908181526020016000905b82821015610a3e57838290600052602060002090600402016040518060800160405290816000820154815260200160018201805461089e90612f3b565b80601f01602080910402602001604051908101604052809291908181526020018280546108ca90612f3b565b80156109175780601f106108ec57610100808354040283529160200191610917565b820191906000526020600020905b8154815290600101906020018083116108fa57829003601f168201915b505050505081526020016002820154815260200160038201805480602002602001604051908101604052809291908181526020016000905b82821015610a2757838290600052602060002090600302016040518060600160405290816000820154815260200160018201805461098c90612f3b565b80601f01602080910402602001604051908101604052809291908181526020018280546109b890612f3b565b8015610a055780601f106109da57610100808354040283529160200191610a05565b820191906000526020600020905b8154815290600101906020018083116109e857829003601f168201915b505050505081526020016002820154815250508152602001906001019061094f565b505050508152505081526020019060010190610861565b50505050815260200160068201805480602002602001604051908101604052809291908181526020016000905b82821015610b4d578382906000526020600020906004020160405180608001604052908160008201548152602001600182018054610aa890612f3b565b80601f0160208091040260200160405190810160405280929190818152602001828054610ad490612f3b565b8015610b215780601f10610af657610100808354040283529160200191610b21565b820191906000526020600020905b815481529060010190602001808311610b0457829003601f168201915b505050505081526020016002820154815260200160038201548152505081526020019060010190610a6b565b5050505081525050905090565b600560009054906101000a900473ffffffffffffffffffffffffffffffffffffffff1673ffffffffffffffffffffffffffffffffffffffff163373ffffffffffffffffffffffffffffffffffffffff1614610bea576040517ff7251ccf000000000000000000000000000000000000000000000000000000008152600401610be190612eec565b60405180910390fd5b600054600460035481548110610c0357610c02612fd9565b5b9060005260206000209060070201600201541415610c4e57600154600460035481548110610c3457610c33612fd9565b5b906000526020600020906007020160020181905550610c7d565b600254600460035481548110610c6757610c66612fd9565b5b9060005260206000209060070201600201819055505b565b600560009054906101000a900473ffffffffffffffffffffffffffffffffffffffff1673ffffffffffffffffffffffffffffffffffffffff163373ffffffffffffffffffffffffffffffffffffffff1614610d0f576040517ff7251ccf000000000000000000000000000000000000000000000000000000008152600401610d0690612eec565b60405180910390fd5b60006004805490501480610d4b5750600254600460035481548110610d3757610d36612fd9565b5b906000526020600020906007020160020154145b610d5457600080fd5b600060048054905014610d7a5760036000815480929190610d7490613037565b91905055505b600460018160018154018082558091505003906000526020600020905050600060046001600480549050610dae9190613080565b81548110610dbf57610dbe612fd9565b5b90600052602060002090600702019050600354816000018190555081816001019080519060200190610df2929190611fb9565b50600054816002018190555060008160030181905550600081600401819055505050565b6000600560009054906101000a900473ffffffffffffffffffffffffffffffffffffffff1673ffffffffffffffffffffffffffffffffffffffff163373ffffffffffffffffffffffffffffffffffffffff1614610ea8576040517ff7251ccf000000000000000000000000000000000000000000000000000000008152600401610e9f90612eec565b60405180910390fd5b600060048054905011610eba57600080fd5b600460035481548110610ed057610ecf612fd9565b5b906000526020600020906007020160020154905090565b600560009054906101000a900473ffffffffffffffffffffffffffffffffffffffff1673ffffffffffffffffffffffffffffffffffffffff163373ffffffffffffffffffffffffffffffffffffffff1614610f77576040517ff7251ccf000000000000000000000000000000000000000000000000000000008152600401610f6e90612eec565b60405180910390fd5b60006004805490501480610fb357506000600460035481548110610f9e57610f9d612fd9565b5b90600052602060002090600702016002015414155b15610ff3576040517f5d2d8a4c000000000000000000000000000000000000000000000000000000008152600401610fea90613100565b60405180910390fd5b60005b81518110156111be57600060046003548154811061101757611016612fd9565b5b9060005260206000209060070201600601805490501461106f5760046003548154811061104757611046612fd9565b5b9060005260206000209060070201600401600081548092919061106990613037565b91905055505b60046003548154811061108557611084612fd9565b5b90600052602060002090600702016006016001816001815401808255809150500390600052602060002090505060006004600354815481106110ca576110c9612fd9565b5b906000526020600020906007020160060160016004600354815481106110f3576110f2612fd9565b5b9060005260206000209060070201600601805490506111129190613080565b8154811061112357611122612fd9565b5b9060005260206000209060040201905060046003548154811061114957611148612fd9565b5b906000526020600020906007020160040154816000018190555082828151811061117657611175612fd9565b5b6020026020010151816001019080519060200190611195929190611fb9565b5060008160020181905550600081600301819055505080806111b690613037565b915050610ff6565b5050565b600560009054906101000a900473ffffffffffffffffffffffffffffffffffffffff1673ffffffffffffffffffffffffffffffffffffffff163373ffffffffffffffffffffffffffffffffffffffff1614611252576040517ff7251ccf00000000000000000000000000000000000000000000000000000000815260040161124990612eec565b60405180910390fd5b600161125c610e16565b1461126657600080fd5b60005b815181101561152457600082828151811061128757611286612fd9565b5b60200260200101516000815181106112a2576112a1612fd9565b5b602002602001015114156113a2576004600354815481106112c6576112c5612fd9565b5b90600052602060002090600702016005018282815181106112ea576112e9612fd9565b5b602002602001015160018151811061130557611304612fd9565b5b60200260200101518154811061131e5761131d612fd9565b5b906000526020600020906004020160030182828151811061134257611341612fd9565b5b602002602001015160028151811061135d5761135c612fd9565b5b60200260200101518154811061137657611375612fd9565b5b9060005260206000209060030201600201600081548092919061139890613037565b9190505550611511565b60018282815181106113b7576113b6612fd9565b5b60200260200101516002815181106113d2576113d1612fd9565b5b6020026020010151141561147a576004600354815481106113f6576113f5612fd9565b5b906000526020600020906007020160060182828151811061141a57611419612fd9565b5b602002602001015160018151811061143557611434612fd9565b5b60200260200101518154811061144e5761144d612fd9565b5b9060005260206000209060040201600201600081548092919061147090613037565b9190505550611510565b6004600354815481106114905761148f612fd9565b5b90600052602060002090600702016006018282815181106114b4576114b3612fd9565b5b60200260200101516001815181106114cf576114ce612fd9565b5b6020026020010151815481106114e8576114e7612fd9565b5b9060005260206000209060040201600301600081548092919061150a90613037565b91905055505b5b808061151c90613037565b915050611269565b5050565b600560009054906101000a900473ffffffffffffffffffffffffffffffffffffffff1673ffffffffffffffffffffffffffffffffffffffff163373ffffffffffffffffffffffffffffffffffffffff16146115b8576040517ff7251ccf0000000000000000000000000000000000000000000000000000000081526004016115af90612eec565b60405180910390fd5b600060048054905014806115f4575060006004600354815481106115df576115de612fd9565b5b90600052602060002090600702016002015414155b15611634576040517f5d2d8a4c00000000000000000000000000000000000000000000000000000000815260040161162b90613100565b60405180910390fd5b60005b815181101561191a57600060046003548154811061165857611657612fd9565b5b906000526020600020906007020160050180549050146116b05760046003548154811061168857611687612fd9565b5b906000526020600020906007020160030160008154809291906116aa90613037565b91905055505b6004600354815481106116c6576116c5612fd9565b5b906000526020600020906007020160050160018160018154018082558091505003906000526020600020905050600060046003548154811061170b5761170a612fd9565b5b9060005260206000209060070201600501600160046003548154811061173457611733612fd9565b5b9060005260206000209060070201600501805490506117539190613080565b8154811061176457611763612fd9565b5b9060005260206000209060040201905060046003548154811061178a57611789612fd9565b5b90600052602060002090600702016003015481600001819055508282815181106117b7576117b6612fd9565b5b60200260200101516000815181106117d2576117d1612fd9565b5b60200260200101518160010190805190602001906117f1929190611fb9565b50600081600201819055506000600190505b83838151811061181657611815612fd9565b5b6020026020010151518110156119055760008260030180549050146118505781600201600081548092919061184a90613037565b91905055505b81600301600181600181540180825580915050039060005260206000209050506000826003016001836118839190613080565b8154811061189457611893612fd9565b5b906000526020600020906003020190508484815181106118b7576118b6612fd9565b5b602002602001015182815181106118d1576118d0612fd9565b5b60200260200101518160010190805190602001906118f0929190611fb9565b505080806118fd90613037565b915050611803565b5050808061191290613037565b915050611637565b5050565b611926611f7c565b600560009054906101000a900473ffffffffffffffffffffffffffffffffffffffff1673ffffffffffffffffffffffffffffffffffffffff163373ffffffffffffffffffffffffffffffffffffffff16146119b6576040517ff7251ccf0000000000000000000000000000000000000000000000000000000081526004016119ad90612eec565b60405180910390fd5b600082101580156119cb575060048054905082105b6119d457600080fd5b600482815481106119e8576119e7612fd9565b5b90600052602060002090600702016040518060e001604052908160008201548152602001600182018054611a1b90612f3b565b80601f0160208091040260200160405190810160405280929190818152602001828054611a4790612f3b565b8015611a945780601f10611a6957610100808354040283529160200191611a94565b820191906000526020600020905b815481529060010190602001808311611a7757829003601f168201915b5050505050815260200160028201548152602001600382015481526020016004820154815260200160058201805480602002602001604051908101604052809291908181526020016000905b82821015611cbd578382906000526020600020906004020160405180608001604052908160008201548152602001600182018054611b1d90612f3b565b80601f0160208091040260200160405190810160405280929190818152602001828054611b4990612f3b565b8015611b965780601f10611b6b57610100808354040283529160200191611b96565b820191906000526020600020905b815481529060010190602001808311611b7957829003601f168201915b505050505081526020016002820154815260200160038201805480602002602001604051908101604052809291908181526020016000905b82821015611ca6578382906000526020600020906003020160405180606001604052908160008201548152602001600182018054611c0b90612f3b565b80601f0160208091040260200160405190810160405280929190818152602001828054611c3790612f3b565b8015611c845780601f10611c5957610100808354040283529160200191611c84565b820191906000526020600020905b815481529060010190602001808311611c6757829003601f168201915b5050505050815260200160028201548152505081526020019060010190611bce565b505050508152505081526020019060010190611ae0565b50505050815260200160068201805480602002602001604051908101604052809291908181526020016000905b82821015611dcc578382906000526020600020906004020160405180608001604052908160008201548152602001600182018054611d2790612f3b565b80601f0160208091040260200160405190810160405280929190818152602001828054611d5390612f3b565b8015611da05780601f10611d7557610100808354040283529160200191611da0565b820191906000526020600020905b815481529060010190602001808311611d8357829003601f168201915b505050505081526020016002820154815260200160038201548152505081526020019060010190611cea565b50505050815250509050919050565b600560009054906101000a900473ffffffffffffffffffffffffffffffffffffffff1673ffffffffffffffffffffffffffffffffffffffff163373ffffffffffffffffffffffffffffffffffffffff1614611e6b576040517ff7251ccf000000000000000000000000000000000000000000000000000000008152600401611e6290612eec565b60405180910390fd5b60006004805490501480611ea757506000600460035481548110611e9257611e91612fd9565b5b90600052602060002090600702016002015414155b15611ee7576040517f5d2d8a4c000000000000000000000000000000000000000000000000000000008152600401611ede90613100565b60405180910390fd5b6004805480611ef957611ef8613120565b5b6001900381819060005260206000209060070201600080820160009055600182016000611f26919061203f565b600282016000905560038201600090556004820160009055600582016000611f4e919061207f565b600682016000611f5e91906120a3565b5050905560036000815480929190611f759061314f565b9190505550565b6040518060e00160405280600081526020016060815260200160008152602001600081526020016000815260200160608152602001606081525090565b828054611fc590612f3b565b90600052602060002090601f016020900481019282611fe7576000855561202e565b82601f1061200057805160ff191683800117855561202e565b8280016001018555821561202e579182015b8281111561202d578251825591602001919060010190612012565b5b50905061203b91906120c7565b5090565b50805461204b90612f3b565b6000825580601f1061205d575061207c565b601f01602090049060005260206000209081019061207b91906120c7565b5b50565b50805460008255600402906000526020600020908101906120a091906120e4565b50565b50805460008255600402906000526020600020908101906120c4919061212b565b50565b5b808211156120e05760008160009055506001016120c8565b5090565b5b8082111561212757600080820160009055600182016000612106919061203f565b600282016000905560038201600061211e919061216a565b506004016120e5565b5090565b5b808211156121665760008082016000905560018201600061214d919061203f565b600282016000905560038201600090555060040161212c565b5090565b508054600082556003029060005260206000209081019061218b919061218e565b50565b5b808211156121c1576000808201600090556001820160006121b0919061203f565b60028201600090555060030161218f565b5090565b600081519050919050565b600082825260208201905092915050565b6000819050602082019050919050565b6000819050919050565b612204816121f1565b82525050565b600081519050919050565b600082825260208201905092915050565b60005b83811015612244578082015181840152602081019050612229565b83811115612253576000848401525b50505050565b6000601f19601f8301169050919050565b60006122758261220a565b61227f8185612215565b935061228f818560208601612226565b61229881612259565b840191505092915050565b600081519050919050565b600082825260208201905092915050565b6000819050602082019050919050565b600081519050919050565b600082825260208201905092915050565b6000819050602082019050919050565b600060608301600083015161231360008601826121fb565b506020830151848203602086015261232b828261226a565b915050604083015161234060408601826121fb565b508091505092915050565b600061235783836122fb565b905092915050565b6000602082019050919050565b6000612377826122cf565b61238181856122da565b935083602082028501612393856122eb565b8060005b858110156123cf57848403895281516123b0858261234b565b94506123bb8361235f565b925060208a01995050600181019050612397565b50829750879550505050505092915050565b60006080830160008301516123f960008601826121fb565b5060208301518482036020860152612411828261226a565b915050604083015161242660408601826121fb565b506060830151848203606086015261243e828261236c565b9150508091505092915050565b600061245783836123e1565b905092915050565b6000602082019050919050565b6000612477826122a3565b61248181856122ae565b935083602082028501612493856122bf565b8060005b858110156124cf57848403895281516124b0858261244b565b94506124bb8361245f565b925060208a01995050600181019050612497565b50829750879550505050505092915050565b600081519050919050565b600082825260208201905092915050565b6000819050602082019050919050565b600060808301600083015161252560008601826121fb565b506020830151848203602086015261253d828261226a565b915050604083015161255260408601826121fb565b50606083015161256560608601826121fb565b508091505092915050565b600061257c838361250d565b905092915050565b6000602082019050919050565b600061259c826124e1565b6125a681856124ec565b9350836020820285016125b8856124fd565b8060005b858110156125f457848403895281516125d58582612570565b94506125e083612584565b925060208a019950506001810190506125bc565b50829750879550505050505092915050565b600060e08301600083015161261e60008601826121fb565b5060208301518482036020860152612636828261226a565b915050604083015161264b60408601826121fb565b50606083015161265e60608601826121fb565b50608083015161267160808601826121fb565b5060a083015184820360a0860152612689828261246c565b91505060c083015184820360c08601526126a38282612591565b9150508091505092915050565b60006126bc8383612606565b905092915050565b6000602082019050919050565b60006126dc826121c5565b6126e681856121d0565b9350836020820285016126f8856121e1565b8060005b85811015612734578484038952815161271585826126b0565b9450612720836126c4565b925060208a019950506001810190506126fc565b50829750879550505050505092915050565b6000602082019050818103600083015261276081846126d1565b905092915050565b600060e08301600083015161278060008601826121fb565b5060208301518482036020860152612798828261226a565b91505060408301516127ad60408601826121fb565b5060608301516127c060608601826121fb565b5060808301516127d360808601826121fb565b5060a083015184820360a08601526127eb828261246c565b91505060c083015184820360c08601526128058282612591565b9150508091505092915050565b6000602082019050818103600083015261282c8184612768565b905092915050565b6000604051905090565b600080fd5b600080fd5b600080fd5b600080fd5b7f4e487b7100000000000000000000000000000000000000000000000000000000600052604160045260246000fd5b61288a82612259565b810181811067ffffffffffffffff821117156128a9576128a8612852565b5b80604052505050565b60006128bc612834565b90506128c88282612881565b919050565b600067ffffffffffffffff8211156128e8576128e7612852565b5b6128f182612259565b9050602081019050919050565b82818337600083830152505050565b600061292061291b846128cd565b6128b2565b90508281526020810184848401111561293c5761293b61284d565b5b6129478482856128fe565b509392505050565b600082601f83011261296457612963612848565b5b813561297484826020860161290d565b91505092915050565b6000602082840312156129935761299261283e565b5b600082013567ffffffffffffffff8111156129b1576129b0612843565b5b6129bd8482850161294f565b91505092915050565b6129cf816121f1565b82525050565b60006020820190506129ea60008301846129c6565b92915050565b600067ffffffffffffffff821115612a0b57612a0a612852565b5b602082029050602081019050919050565b600080fd5b6000612a34612a2f846129f0565b6128b2565b90508083825260208201905060208402830185811115612a5757612a56612a1c565b5b835b81811015612a9e57803567ffffffffffffffff811115612a7c57612a7b612848565b5b808601612a89898261294f565b85526020850194505050602081019050612a59565b5050509392505050565b600082601f830112612abd57612abc612848565b5b8135612acd848260208601612a21565b91505092915050565b600060208284031215612aec57612aeb61283e565b5b600082013567ffffffffffffffff811115612b0a57612b09612843565b5b612b1684828501612aa8565b91505092915050565b600067ffffffffffffffff821115612b3a57612b39612852565b5b602082029050602081019050919050565b600067ffffffffffffffff821115612b6657612b65612852565b5b602082029050602081019050919050565b612b80816121f1565b8114612b8b57600080fd5b50565b600081359050612b9d81612b77565b92915050565b6000612bb6612bb184612b4b565b6128b2565b90508083825260208201905060208402830185811115612bd957612bd8612a1c565b5b835b81811015612c025780612bee8882612b8e565b845260208401935050602081019050612bdb565b5050509392505050565b600082601f830112612c2157612c20612848565b5b8135612c31848260208601612ba3565b91505092915050565b6000612c4d612c4884612b1f565b6128b2565b90508083825260208201905060208402830185811115612c7057612c6f612a1c565b5b835b81811015612cb757803567ffffffffffffffff811115612c9557612c94612848565b5b808601612ca28982612c0c565b85526020850194505050602081019050612c72565b5050509392505050565b600082601f830112612cd657612cd5612848565b5b8135612ce6848260208601612c3a565b91505092915050565b600060208284031215612d0557612d0461283e565b5b600082013567ffffffffffffffff811115612d2357612d22612843565b5b612d2f84828501612cc1565b91505092915050565b600067ffffffffffffffff821115612d5357612d52612852565b5b602082029050602081019050919050565b6000612d77612d7284612d38565b6128b2565b90508083825260208201905060208402830185811115612d9a57612d99612a1c565b5b835b81811015612de157803567ffffffffffffffff811115612dbf57612dbe612848565b5b808601612dcc8982612aa8565b85526020850194505050602081019050612d9c565b5050509392505050565b600082601f830112612e0057612dff612848565b5b8135612e10848260208601612d64565b91505092915050565b600060208284031215612e2f57612e2e61283e565b5b600082013567ffffffffffffffff811115612e4d57612e4c612843565b5b612e5984828501612deb565b91505092915050565b600060208284031215612e7857612e7761283e565b5b6000612e8684828501612b8e565b91505092915050565b600082825260208201905092915050565b7f4f6e6c79204f776e6572204d61792043616c6c2046756e6374696f6e00000000600082015250565b6000612ed6601c83612e8f565b9150612ee182612ea0565b602082019050919050565b60006020820190508181036000830152612f0581612ec9565b9050919050565b7f4e487b7100000000000000000000000000000000000000000000000000000000600052602260045260246000fd5b60006002820490506001821680612f5357607f821691505b60208210811415612f6757612f66612f0c565b5b50919050565b7f4e6f2042616c6c6f7420486173204265656e2043726561746564000000000000600082015250565b6000612fa3601a83612e8f565b9150612fae82612f6d565b602082019050919050565b60006020820190508181036000830152612fd281612f96565b9050919050565b7f4e487b7100000000000000000000000000000000000000000000000000000000600052603260045260246000fd5b7f4e487b7100000000000000000000000000000000000000000000000000000000600052601160045260246000fd5b6000613042826121f1565b91507fffffffffffffffffffffffffffffffffffffffffffffffffffffffffffffffff82141561307557613074613008565b5b600182019050919050565b600061308b826121f1565b9150613096836121f1565b9250828210156130a9576130a8613008565b5b828203905092915050565b7f42616c6c6f74204d75737420426520436c6f7365640000000000000000000000600082015250565b60006130ea601583612e8f565b91506130f5826130b4565b602082019050919050565b60006020820190508181036000830152613119816130dd565b9050919050565b7f4e487b7100000000000000000000000000000000000000000000000000000000600052603160045260246000fd5b600061315a826121f1565b9150600082141561316e5761316d613008565b5b60018203905091905056fea264697066735822122006192047ce145663dbb1fab2a7fbe233f25adc79abce9d6dc86a32769bf9a0a064736f6c634300080b0033",
  "immutableReferences": {},
  "source": "// SPDX-License-Identifier: MIT\npragma solidity ^0.8.11;\n\nimport \"./VotingContract.sol\";\n\ncontract Ballots {\n\tstruct Candidate {\n\t\tuint id;\n\t\tstring name;\n\t\tuint votes;\n\t}\n\n\tstruct Election {\n\t\tuint id;\n\t\tstring name;\n\t\tuint currentCandidateId;\n\t\tCandidate[] candidates;\n\t}\n\n\tstruct Issue {\n\t\tuint id;\n\t\tstring name;\n\t\tuint forVotes;\n\t\tuint againstVotes;\n\t}\n\n\tstruct Ballot {\n\t\tuint id;\n\t\tstring name;\n\t\tuint status;\n\t\tuint currentElectionId;\n\t\tuint currentIssueId;\n\t\tElection[] elections;\n\t\tIssue[] issues;\n\t}\n\n\t/// @notice State of ballot variables for Ballot.status\n\tuint CLOSED = 0;\n\tuint OPEN = 1;\n\tuint COMPLETE = 2;\n\n    /// @notice Current Ballot ID\n\tuint currentBallotId;\n    \n    /// @notice List of ballots\n\tBallot[] ballotsList;\n\n\t/// @notice Owner of contract\n    VotingContract owner;\n\n    constructor() {\n        owner = VotingContract(msg.sender);\n    }\n\n\terror NotOwner(string message);\n\terror BallotNotClosed(string message);\n\n    modifier onlyOwner() {\n\t\tif (msg.sender != address(owner)) {\n\t\t\trevert NotOwner(\"Only Owner May Call Function\");\n\t\t}\n\t\t_;\n\t}\n\n\tmodifier ballotClosed() {\n\t\tif (ballotsList.length == 0 || ballotsList[currentBallotId].status != 0) {\n\t\t\trevert BallotNotClosed(\"Ballot Must Be Closed\");\n\t\t}\n\t\t_;\n\t}\n\n\n\n\t// ==============================================================\n\n\t// Functions ====================================================\n\n\t// ==============================================================\n\n\n\n\t// Info Functions ===============================================\n\t\n\t// Get current ballot status\n\tfunction getCurrentBallotStatus() public view onlyOwner returns (uint) {\n\t\trequire(ballotsList.length > 0);\n\t\treturn ballotsList[currentBallotId].status;\n\t}\n\n\t// Get current ballot info\n\tfunction getCurrentBallot() external view onlyOwner returns (Ballot memory) {\n\t\trequire (ballotsList.length > 0, \"No Ballot Has Been Created\");\n\t\treturn ballotsList[currentBallotId];\n\t} \n\n\t// List all ballot ids and names\n\tfunction getAllBallots() external view onlyOwner returns (Ballot[] memory) {\n\t\treturn ballotsList;\n\t}\n\n\t// Get ballot info by id\n\tfunction getBallotById(uint _id) external view onlyOwner returns (Ballot memory) {\n\t\trequire (_id >= 0 && _id < ballotsList.length);\n\t\treturn ballotsList[_id];\n\t} \n\n\t// ==============================================================\n\n\n\n\t// Admin Ballot Functions =======================================\n\n\t// Create ballot\n\tfunction createBallot(string memory _name) external onlyOwner {\n\t\trequire(ballotsList.length == 0 || ballotsList[currentBallotId].status == COMPLETE);\n\t\tif(ballotsList.length != 0) { currentBallotId++; }\n\t\tballotsList.push();\n\t\tBallot storage newBallot = ballotsList[ballotsList.length - 1];\n\n\t\tnewBallot.id = currentBallotId;\n\t\tnewBallot.name = _name;\n\t\tnewBallot.status = CLOSED;\n\t\tnewBallot.currentElectionId = 0;\n\t\tnewBallot.currentIssueId = 0;\n\t}\n\n\t// Delete ballot\n\tfunction deleteBallot() external onlyOwner ballotClosed {\n\t\tballotsList.pop();\n\t\tcurrentBallotId--;\n\t}\n\n\t// Open ballot, close ballot\n\tfunction openCloseBallot() external onlyOwner {\n\t\tif(ballotsList[currentBallotId].status == CLOSED) {\n\t\t\tballotsList[currentBallotId].status = OPEN;\n\t\t} else {\n\t\t\tballotsList[currentBallotId].status = COMPLETE;\n\t\t}\n\t}\n\n\t// ==============================================================\n\n\n\n\t// Admin Election Functions =====================================\n\n\t// Add election\n\tfunction addElections(string[][] memory elections) external onlyOwner ballotClosed {\n\t\tfor (uint i = 0; i < elections.length; i++) {\n\t\t\tif (ballotsList[currentBallotId].elections.length != 0) { ballotsList[currentBallotId].currentElectionId++; }\n\t\t\tballotsList[currentBallotId].elections.push();\n\t\t\tElection storage newElection = ballotsList[currentBallotId].elections[ballotsList[currentBallotId].elections.length - 1];\n\t\t\t\n\t\t\tnewElection.id = ballotsList[currentBallotId].currentElectionId;\n\t\t\tnewElection.name = elections[i][0];\n\t\t\tnewElection.currentCandidateId = 0;\n\n\t\t\tfor (uint c = 1; c < elections[i].length; c++) {\n\t\t\t\tif (newElection.candidates.length != 0) { newElection.currentCandidateId++; }\n\t\t\t\tnewElection.candidates.push();\n\t\t\t\tCandidate storage newCandidate = newElection.candidates[c - 1];\n\t\t\t\tnewCandidate.name = elections[i][c];\n\t\t\t}\n\t\t}\n\t}\n\n\t// ==============================================================\n\n\n\n\t// Admin Issue Functions ========================================\n\n\t// Add issues\n\tfunction addIssues(string[] memory issues) external onlyOwner ballotClosed {\n\t\tfor (uint i = 0; i < issues.length; i++) {\n\t\t\tif (ballotsList[currentBallotId].issues.length != 0) { ballotsList[currentBallotId].currentIssueId++; }\n\t\t\tballotsList[currentBallotId].issues.push();\n\t\t\tIssue storage newIssue = ballotsList[currentBallotId].issues[ballotsList[currentBallotId].issues.length - 1];\n\n\t\t\tnewIssue.id = ballotsList[currentBallotId].currentIssueId;\n\t\t\tnewIssue.name = issues[i];\n\t\t\tnewIssue.forVotes = 0;\n\t\t\tnewIssue.againstVotes = 0;\n\t\t}\n\t}\n\n\t// ==============================================================\n\n\n\n\t// Voter Functions ==============================================\n\n\t// Vote for all\n\t// [ [ TYPE , ID , VOTE ]   ]\n\t// [ [ ELECTION , 0 , VOTE ] ]\n\t// Election = 0, Issue = 1\n\t// uint AGAINST = 0;\n\t// uint FOR = 1;\n\tfunction vote(uint[][] memory votes) external onlyOwner {\n\t\trequire(getCurrentBallotStatus() == 1);\n\n\t\tfor (uint i = 0; i < votes.length; i++) {\n\t\t\t// Vote for election or issue\n\t\t\tif (votes[i][0] == 0) {\n\t\t\t\tballotsList[currentBallotId].elections[votes[i][1]].candidates[votes[i][2]].votes++;\n\t\t\t} else {\n\t\t\t\t// Vote for or against issue\n\t\t\t\tif (votes[i][2] == 1) {\n\t\t\t\t\tballotsList[currentBallotId].issues[votes[i][1]].forVotes++;\n\t\t\t\t} else {\n\t\t\t\t\tballotsList[currentBallotId].issues[votes[i][1]].againstVotes++;\n\t\t\t\t}\n\t\t\t}\n\t\t}\n\n\n\t}\n\n\t// ==============================================================\n\n\n\n\t// Other Functions ==============================================\n\n\t// ==============================================================\n\n\n\n}\n",
  "sourcePath": "/Users/hubertkdayssi/Documents/CS_Projects/voting_app/contracts/Ballots.sol",
  "compiler": {
    "name": "solc",
    "version": "0.8.11+commit.d7f03943.Emscripten.clang"
  },
  "schemaVersion": "3.4.5",
  "updatedAt": "2022-02-23T15:35:11.640Z",
  "devdoc": {
    "kind": "dev",
    "methods": {},
    "version": 1
  },
  "userdoc": {
    "kind": "user",
    "methods": {},
    "version": 1
  }
}