{
  "contractName": "Ballots",
  "abi": [
    {
      "inputs": [],
      "stateMutability": "nonpayable",
      "type": "constructor"
    },
    {
      "inputs": [
        {
          "internalType": "string",
          "name": "message",
          "type": "string"
        }
      ],
      "name": "BallotNotClosed",
      "type": "error"
    },
    {
      "inputs": [
        {
          "internalType": "string",
          "name": "message",
          "type": "string"
        }
      ],
      "name": "NotOwner",
      "type": "error"
    },
    {
      "inputs": [],
      "name": "getCurrentBallotStatus",
      "outputs": [
        {
          "internalType": "uint256",
          "name": "",
          "type": "uint256"
        }
      ],
      "stateMutability": "view",
      "type": "function"
    },
    {
      "inputs": [
        {
          "internalType": "uint256",
          "name": "_id",
          "type": "uint256"
        }
      ],
      "name": "getBallotById",
      "outputs": [
        {
          "components": [
            {
              "internalType": "uint256",
              "name": "id",
              "type": "uint256"
            },
            {
              "internalType": "string",
              "name": "name",
              "type": "string"
            },
            {
              "internalType": "uint256",
              "name": "status",
              "type": "uint256"
            },
            {
              "internalType": "uint256",
              "name": "currentElectionId",
              "type": "uint256"
            },
            {
              "internalType": "uint256",
              "name": "currentIssueId",
              "type": "uint256"
            },
            {
              "components": [
                {
                  "internalType": "uint256",
                  "name": "id",
                  "type": "uint256"
                },
                {
                  "internalType": "string",
                  "name": "name",
                  "type": "string"
                },
                {
                  "internalType": "uint256",
                  "name": "currentCandidateId",
                  "type": "uint256"
                },
                {
                  "components": [
                    {
                      "internalType": "uint256",
                      "name": "id",
                      "type": "uint256"
                    },
                    {
                      "internalType": "string",
                      "name": "name",
                      "type": "string"
                    },
                    {
                      "internalType": "uint256",
                      "name": "votes",
                      "type": "uint256"
                    }
                  ],
                  "internalType": "struct Ballots.Candidate[]",
                  "name": "candidates",
                  "type": "tuple[]"
                }
              ],
              "internalType": "struct Ballots.Election[]",
              "name": "elections",
              "type": "tuple[]"
            },
            {
              "components": [
                {
                  "internalType": "uint256",
                  "name": "id",
                  "type": "uint256"
                },
                {
                  "internalType": "string",
                  "name": "name",
                  "type": "string"
                },
                {
                  "internalType": "uint256",
                  "name": "forVotes",
                  "type": "uint256"
                },
                {
                  "internalType": "uint256",
                  "name": "againstVotes",
                  "type": "uint256"
                },
                {
                  "internalType": "bool",
                  "name": "isPassed",
                  "type": "bool"
                }
              ],
              "internalType": "struct Ballots.Issue[]",
              "name": "issues",
              "type": "tuple[]"
            }
          ],
          "internalType": "struct Ballots.Ballot",
          "name": "",
          "type": "tuple"
        }
      ],
      "stateMutability": "view",
      "type": "function"
    },
    {
      "inputs": [
        {
          "internalType": "string",
          "name": "_name",
          "type": "string"
        }
      ],
      "name": "createBallot",
      "outputs": [],
      "stateMutability": "nonpayable",
      "type": "function"
    },
    {
      "inputs": [],
      "name": "deleteBallot",
      "outputs": [],
      "stateMutability": "nonpayable",
      "type": "function"
    },
    {
      "inputs": [
        {
          "internalType": "string",
          "name": "newName",
          "type": "string"
        }
      ],
      "name": "changeNameBallot",
      "outputs": [],
      "stateMutability": "nonpayable",
      "type": "function"
    },
    {
      "inputs": [],
      "name": "openCloseBallot",
      "outputs": [],
      "stateMutability": "nonpayable",
      "type": "function"
    },
    {
      "inputs": [
        {
          "internalType": "string[]",
          "name": "electionNames",
          "type": "string[]"
        }
      ],
      "name": "addElections",
      "outputs": [],
      "stateMutability": "nonpayable",
      "type": "function"
    },
    {
      "inputs": [
        {
          "internalType": "uint256",
          "name": "_id",
          "type": "uint256"
        }
      ],
      "name": "deleteElectionById",
      "outputs": [],
      "stateMutability": "nonpayable",
      "type": "function"
    },
    {
      "inputs": [
        {
          "internalType": "uint256",
          "name": "_id",
          "type": "uint256"
        },
        {
          "internalType": "string",
          "name": "newName",
          "type": "string"
        }
      ],
      "name": "changeNameElectionById",
      "outputs": [],
      "stateMutability": "nonpayable",
      "type": "function"
    },
    {
      "inputs": [
        {
          "internalType": "uint256",
          "name": "_id",
          "type": "uint256"
        },
        {
          "internalType": "string[]",
          "name": "candidateNames",
          "type": "string[]"
        }
      ],
      "name": "addCandidates",
      "outputs": [],
      "stateMutability": "nonpayable",
      "type": "function"
    }
  ],
  "bytecode": "0x608060405260008055600180556002805534801561001c57600080fd5b5033600560006101000a81548173ffffffffffffffffffffffffffffffffffffffff021916908373ffffffffffffffffffffffffffffffffffffffff1602179055506121f38061006d6000396000f3fe608060405234801561001057600080fd5b506004361061009e5760003560e01c80633cfe7fa7116100665780633cfe7fa71461012f57806346a865761461013957806379df360a14610155578063d7627ad114610173578063fdad211f146101a35761009e565b80630d28fd2d146100a357806328e58f37146100bf57806331a0c16e146100db57806335e1399b146100f7578063389ddfee14610113575b600080fd5b6100bd60048036038101906100b8919061178e565b6101ad565b005b6100d960048036038101906100d491906118f3565b6102f8565b005b6100f560048036038101906100f0919061194f565b610408565b005b610111600480360381019061010c919061197c565b610591565b005b61012d600480360381019061012891906119c5565b610862565b005b6101376109d1565b005b610153600480360381019061014e919061178e565b610af6565b005b61015d610c8d565b60405161016a9190611a30565b60405180910390f35b61018d6004803603810190610188919061194f565b610d5e565b60405161019a9190611f1d565b60405180910390f35b6101ab611236565b005b600560009054906101000a900473ffffffffffffffffffffffffffffffffffffffff1673ffffffffffffffffffffffffffffffffffffffff163373ffffffffffffffffffffffffffffffffffffffff161461023d576040517ff7251ccf00000000000000000000000000000000000000000000000000000000815260040161023490611f9c565b60405180910390fd5b600060048054905014806102795750600060046003548154811061026457610263611fbc565b5b90600052602060002090600702016002015414155b156102b9576040517f5d2d8a4c0000000000000000000000000000000000000000000000000000000081526004016102b090612037565b60405180910390fd5b806004600354815481106102d0576102cf611fbc565b5b906000526020600020906007020160010190805190602001906102f49291906113d7565b5050565b600560009054906101000a900473ffffffffffffffffffffffffffffffffffffffff1673ffffffffffffffffffffffffffffffffffffffff163373ffffffffffffffffffffffffffffffffffffffff1614610388576040517ff7251ccf00000000000000000000000000000000000000000000000000000000815260040161037f90611f9c565b60405180910390fd5b600060048054905014806103c4575060006004600354815481106103af576103ae611fbc565b5b90600052602060002090600702016002015414155b15610404576040517f5d2d8a4c0000000000000000000000000000000000000000000000000000000081526004016103fb90612037565b60405180910390fd5b5050565b600560009054906101000a900473ffffffffffffffffffffffffffffffffffffffff1673ffffffffffffffffffffffffffffffffffffffff163373ffffffffffffffffffffffffffffffffffffffff1614610498576040517ff7251ccf00000000000000000000000000000000000000000000000000000000815260040161048f90611f9c565b60405180910390fd5b600060048054905014806104d4575060006004600354815481106104bf576104be611fbc565b5b90600052602060002090600702016002015414155b15610514576040517f5d2d8a4c00000000000000000000000000000000000000000000000000000000815260040161050b90612037565b60405180910390fd5b60046003548154811061052a57610529611fbc565b5b9060005260206000209060070201600501818154811061054d5761054c611fbc565b5b9060005260206000209060040201600080820160009055600182016000610574919061145d565b600282016000905560038201600061058c919061149d565b505050565b600560009054906101000a900473ffffffffffffffffffffffffffffffffffffffff1673ffffffffffffffffffffffffffffffffffffffff163373ffffffffffffffffffffffffffffffffffffffff1614610621576040517ff7251ccf00000000000000000000000000000000000000000000000000000000815260040161061890611f9c565b60405180910390fd5b6000600480549050148061065d5750600060046003548154811061064857610647611fbc565b5b90600052602060002090600702016002015414155b1561069d576040517f5d2d8a4c00000000000000000000000000000000000000000000000000000000815260040161069490612037565b60405180910390fd5b60005b815181101561085e5760006004600354815481106106c1576106c0611fbc565b5b90600052602060002090600702016005018054905014610719576004600354815481106106f1576106f0611fbc565b5b9060005260206000209060070201600301600081548092919061071390612086565b91905055505b60046003548154811061072f5761072e611fbc565b5b906000526020600020906007020160050160018160018154018082558091505003906000526020600020905050600060046003548154811061077457610773611fbc565b5b9060005260206000209060070201600501600160046003548154811061079d5761079c611fbc565b5b9060005260206000209060070201600501805490506107bc91906120cf565b815481106107cd576107cc611fbc565b5b906000526020600020906004020190506004600354815481106107f3576107f2611fbc565b5b90600052602060002090600702016003015481600001819055508282815181106108205761081f611fbc565b5b602002602001015181600101908051906020019061083f9291906113d7565b506000816002018190555050808061085690612086565b9150506106a0565b5050565b600560009054906101000a900473ffffffffffffffffffffffffffffffffffffffff1673ffffffffffffffffffffffffffffffffffffffff163373ffffffffffffffffffffffffffffffffffffffff16146108f2576040517ff7251ccf0000000000000000000000000000000000000000000000000000000081526004016108e990611f9c565b60405180910390fd5b6000600480549050148061092e5750600060046003548154811061091957610918611fbc565b5b90600052602060002090600702016002015414155b1561096e576040517f5d2d8a4c00000000000000000000000000000000000000000000000000000000815260040161096590612037565b60405180910390fd5b8060046003548154811061098557610984611fbc565b5b906000526020600020906007020160050183815481106109a8576109a7611fbc565b5b906000526020600020906004020160010190805190602001906109cc9291906113d7565b505050565b600560009054906101000a900473ffffffffffffffffffffffffffffffffffffffff1673ffffffffffffffffffffffffffffffffffffffff163373ffffffffffffffffffffffffffffffffffffffff1614610a61576040517ff7251ccf000000000000000000000000000000000000000000000000000000008152600401610a5890611f9c565b60405180910390fd5b600054600460035481548110610a7a57610a79611fbc565b5b9060005260206000209060070201600201541415610ac557600154600460035481548110610aab57610aaa611fbc565b5b906000526020600020906007020160020181905550610af4565b600254600460035481548110610ade57610add611fbc565b5b9060005260206000209060070201600201819055505b565b600560009054906101000a900473ffffffffffffffffffffffffffffffffffffffff1673ffffffffffffffffffffffffffffffffffffffff163373ffffffffffffffffffffffffffffffffffffffff1614610b86576040517ff7251ccf000000000000000000000000000000000000000000000000000000008152600401610b7d90611f9c565b60405180910390fd5b60006004805490501480610bc25750600254600460035481548110610bae57610bad611fbc565b5b906000526020600020906007020160020154145b610bcb57600080fd5b600060048054905014610bf15760036000815480929190610beb90612086565b91905055505b600460018160018154018082558091505003906000526020600020905050600060046001600480549050610c2591906120cf565b81548110610c3657610c35611fbc565b5b90600052602060002090600702019050600354816000018190555081816001019080519060200190610c699291906113d7565b50600054816002018190555060008160030181905550600081600401819055505050565b6000600560009054906101000a900473ffffffffffffffffffffffffffffffffffffffff1673ffffffffffffffffffffffffffffffffffffffff163373ffffffffffffffffffffffffffffffffffffffff1614610d1f576040517ff7251ccf000000000000000000000000000000000000000000000000000000008152600401610d1690611f9c565b60405180910390fd5b600060048054905011610d3157600080fd5b600460035481548110610d4757610d46611fbc565b5b906000526020600020906007020160020154905090565b610d666114c1565b600560009054906101000a900473ffffffffffffffffffffffffffffffffffffffff1673ffffffffffffffffffffffffffffffffffffffff163373ffffffffffffffffffffffffffffffffffffffff1614610df6576040517ff7251ccf000000000000000000000000000000000000000000000000000000008152600401610ded90611f9c565b60405180910390fd5b60008210158015610e0b575060048054905082105b610e1457600080fd5b60048281548110610e2857610e27611fbc565b5b90600052602060002090600702016040518060e001604052908160008201548152602001600182018054610e5b90612132565b80601f0160208091040260200160405190810160405280929190818152602001828054610e8790612132565b8015610ed45780601f10610ea957610100808354040283529160200191610ed4565b820191906000526020600020905b815481529060010190602001808311610eb757829003601f168201915b5050505050815260200160028201548152602001600382015481526020016004820154815260200160058201805480602002602001604051908101604052809291908181526020016000905b828210156110fd578382906000526020600020906004020160405180608001604052908160008201548152602001600182018054610f5d90612132565b80601f0160208091040260200160405190810160405280929190818152602001828054610f8990612132565b8015610fd65780601f10610fab57610100808354040283529160200191610fd6565b820191906000526020600020905b815481529060010190602001808311610fb957829003601f168201915b505050505081526020016002820154815260200160038201805480602002602001604051908101604052809291908181526020016000905b828210156110e657838290600052602060002090600302016040518060600160405290816000820154815260200160018201805461104b90612132565b80601f016020809104026020016040519081016040528092919081815260200182805461107790612132565b80156110c45780601f10611099576101008083540402835291602001916110c4565b820191906000526020600020905b8154815290600101906020018083116110a757829003601f168201915b505050505081526020016002820154815250508152602001906001019061100e565b505050508152505081526020019060010190610f20565b50505050815260200160068201805480602002602001604051908101604052809291908181526020016000905b8282101561122757838290600052602060002090600502016040518060a00160405290816000820154815260200160018201805461116790612132565b80601f016020809104026020016040519081016040528092919081815260200182805461119390612132565b80156111e05780601f106111b5576101008083540402835291602001916111e0565b820191906000526020600020905b8154815290600101906020018083116111c357829003601f168201915b5050505050815260200160028201548152602001600382015481526020016004820160009054906101000a900460ff1615151515815250508152602001906001019061112a565b50505050815250509050919050565b600560009054906101000a900473ffffffffffffffffffffffffffffffffffffffff1673ffffffffffffffffffffffffffffffffffffffff163373ffffffffffffffffffffffffffffffffffffffff16146112c6576040517ff7251ccf0000000000000000000000000000000000000000000000000000000081526004016112bd90611f9c565b60405180910390fd5b60006004805490501480611302575060006004600354815481106112ed576112ec611fbc565b5b90600052602060002090600702016002015414155b15611342576040517f5d2d8a4c00000000000000000000000000000000000000000000000000000000815260040161133990612037565b60405180910390fd5b600480548061135457611353612164565b5b6001900381819060005260206000209060070201600080820160009055600182016000611381919061145d565b6002820160009055600382016000905560048201600090556005820160006113a991906114fe565b6006820160006113b99190611522565b50509055600360008154809291906113d090612193565b9190505550565b8280546113e390612132565b90600052602060002090601f016020900481019282611405576000855561144c565b82601f1061141e57805160ff191683800117855561144c565b8280016001018555821561144c579182015b8281111561144b578251825591602001919060010190611430565b5b5090506114599190611546565b5090565b50805461146990612132565b6000825580601f1061147b575061149a565b601f0160209004906000526020600020908101906114999190611546565b5b50565b50805460008255600302906000526020600020908101906114be9190611563565b50565b6040518060e00160405280600081526020016060815260200160008152602001600081526020016000815260200160608152602001606081525090565b508054600082556004029060005260206000209081019061151f919061159a565b50565b508054600082556005029060005260206000209081019061154391906115e1565b50565b5b8082111561155f576000816000905550600101611547565b5090565b5b8082111561159657600080820160009055600182016000611585919061145d565b600282016000905550600301611564565b5090565b5b808211156115dd576000808201600090556001820160006115bc919061145d565b60028201600090556003820160006115d4919061149d565b5060040161159b565b5090565b5b8082111561163057600080820160009055600182016000611603919061145d565b600282016000905560038201600090556004820160006101000a81549060ff0219169055506005016115e2565b5090565b6000604051905090565b600080fd5b600080fd5b600080fd5b600080fd5b6000601f19601f8301169050919050565b7f4e487b7100000000000000000000000000000000000000000000000000000000600052604160045260246000fd5b61169b82611652565b810181811067ffffffffffffffff821117156116ba576116b9611663565b5b80604052505050565b60006116cd611634565b90506116d98282611692565b919050565b600067ffffffffffffffff8211156116f9576116f8611663565b5b61170282611652565b9050602081019050919050565b82818337600083830152505050565b600061173161172c846116de565b6116c3565b90508281526020810184848401111561174d5761174c61164d565b5b61175884828561170f565b509392505050565b600082601f83011261177557611774611648565b5b813561178584826020860161171e565b91505092915050565b6000602082840312156117a4576117a361163e565b5b600082013567ffffffffffffffff8111156117c2576117c1611643565b5b6117ce84828501611760565b91505092915050565b6000819050919050565b6117ea816117d7565b81146117f557600080fd5b50565b600081359050611807816117e1565b92915050565b600067ffffffffffffffff82111561182857611827611663565b5b602082029050602081019050919050565b600080fd5b600061185161184c8461180d565b6116c3565b9050808382526020820190506020840283018581111561187457611873611839565b5b835b818110156118bb57803567ffffffffffffffff81111561189957611898611648565b5b8086016118a68982611760565b85526020850194505050602081019050611876565b5050509392505050565b600082601f8301126118da576118d9611648565b5b81356118ea84826020860161183e565b91505092915050565b6000806040838503121561190a5761190961163e565b5b6000611918858286016117f8565b925050602083013567ffffffffffffffff81111561193957611938611643565b5b611945858286016118c5565b9150509250929050565b6000602082840312156119655761196461163e565b5b6000611973848285016117f8565b91505092915050565b6000602082840312156119925761199161163e565b5b600082013567ffffffffffffffff8111156119b0576119af611643565b5b6119bc848285016118c5565b91505092915050565b600080604083850312156119dc576119db61163e565b5b60006119ea858286016117f8565b925050602083013567ffffffffffffffff811115611a0b57611a0a611643565b5b611a1785828601611760565b9150509250929050565b611a2a816117d7565b82525050565b6000602082019050611a456000830184611a21565b92915050565b611a54816117d7565b82525050565b600081519050919050565b600082825260208201905092915050565b60005b83811015611a94578082015181840152602081019050611a79565b83811115611aa3576000848401525b50505050565b6000611ab482611a5a565b611abe8185611a65565b9350611ace818560208601611a76565b611ad781611652565b840191505092915050565b600081519050919050565b600082825260208201905092915050565b6000819050602082019050919050565b600081519050919050565b600082825260208201905092915050565b6000819050602082019050919050565b6000606083016000830151611b526000860182611a4b565b5060208301518482036020860152611b6a8282611aa9565b9150506040830151611b7f6040860182611a4b565b508091505092915050565b6000611b968383611b3a565b905092915050565b6000602082019050919050565b6000611bb682611b0e565b611bc08185611b19565b935083602082028501611bd285611b2a565b8060005b85811015611c0e5784840389528151611bef8582611b8a565b9450611bfa83611b9e565b925060208a01995050600181019050611bd6565b50829750879550505050505092915050565b6000608083016000830151611c386000860182611a4b565b5060208301518482036020860152611c508282611aa9565b9150506040830151611c656040860182611a4b565b5060608301518482036060860152611c7d8282611bab565b9150508091505092915050565b6000611c968383611c20565b905092915050565b6000602082019050919050565b6000611cb682611ae2565b611cc08185611aed565b935083602082028501611cd285611afe565b8060005b85811015611d0e5784840389528151611cef8582611c8a565b9450611cfa83611c9e565b925060208a01995050600181019050611cd6565b50829750879550505050505092915050565b600081519050919050565b600082825260208201905092915050565b6000819050602082019050919050565b60008115159050919050565b611d6181611d4c565b82525050565b600060a083016000830151611d7f6000860182611a4b565b5060208301518482036020860152611d978282611aa9565b9150506040830151611dac6040860182611a4b565b506060830151611dbf6060860182611a4b565b506080830151611dd26080860182611d58565b508091505092915050565b6000611de98383611d67565b905092915050565b6000602082019050919050565b6000611e0982611d20565b611e138185611d2b565b935083602082028501611e2585611d3c565b8060005b85811015611e615784840389528151611e428582611ddd565b9450611e4d83611df1565b925060208a01995050600181019050611e29565b50829750879550505050505092915050565b600060e083016000830151611e8b6000860182611a4b565b5060208301518482036020860152611ea38282611aa9565b9150506040830151611eb86040860182611a4b565b506060830151611ecb6060860182611a4b565b506080830151611ede6080860182611a4b565b5060a083015184820360a0860152611ef68282611cab565b91505060c083015184820360c0860152611f108282611dfe565b9150508091505092915050565b60006020820190508181036000830152611f378184611e73565b905092915050565b600082825260208201905092915050565b7f4f6e6c79204f776e6572204d61792043616c6c2046756e6374696f6e00000000600082015250565b6000611f86601c83611f3f565b9150611f9182611f50565b602082019050919050565b60006020820190508181036000830152611fb581611f79565b9050919050565b7f4e487b7100000000000000000000000000000000000000000000000000000000600052603260045260246000fd5b7f42616c6c6f74204d75737420426520436c6f7365640000000000000000000000600082015250565b6000612021601583611f3f565b915061202c82611feb565b602082019050919050565b6000602082019050818103600083015261205081612014565b9050919050565b7f4e487b7100000000000000000000000000000000000000000000000000000000600052601160045260246000fd5b6000612091826117d7565b91507fffffffffffffffffffffffffffffffffffffffffffffffffffffffffffffffff8214156120c4576120c3612057565b5b600182019050919050565b60006120da826117d7565b91506120e5836117d7565b9250828210156120f8576120f7612057565b5b828203905092915050565b7f4e487b7100000000000000000000000000000000000000000000000000000000600052602260045260246000fd5b6000600282049050600182168061214a57607f821691505b6020821081141561215e5761215d612103565b5b50919050565b7f4e487b7100000000000000000000000000000000000000000000000000000000600052603160045260246000fd5b600061219e826117d7565b915060008214156121b2576121b1612057565b5b60018203905091905056fea2646970667358221220af8fd79075ce9565d8ca4f8cbf3a4ec8c6680fea8a7d36547e3a719c664c7f9e64736f6c634300080b0033",
  "immutableReferences": {},
  "source": "// SPDX-License-Identifier: MIT\npragma solidity ^0.8.11;\n\nimport \"./VotingContract.sol\";\nimport \"./Strings.sol\";\n\ncontract Ballots {\n\tstruct Candidate {\n\t\tuint id;\n\t\tstring name;\n\t\tuint votes;\n\t}\n\n\tstruct Election {\n\t\tuint id;\n\t\tstring name;\n\t\tuint currentCandidateId;\n\t\tCandidate[] candidates;\n\t\t//mapping(address => bool) hasVoted;\n\t}\n\n\tstruct Issue {\n\t\tuint id;\n\t\tstring name;\n\t\tuint forVotes;\n\t\tuint againstVotes;\n\t\tbool isPassed;\n\t\t//mapping(address => bool) hasVoted;\n\t}\n\n\tstruct Ballot {\n\t\tuint id;\n\t\tstring name;\n\t\tuint status;\n\t\tuint currentElectionId;\n\t\tuint currentIssueId;\n\t\tElection[] elections;\n\t\tIssue[] issues;\n\t}\n\n\t/// @notice State of ballot variables for Ballot.status\n\tuint CLOSED = 0;\n\tuint OPEN = 1;\n\tuint COMPLETE = 2;\n\n    /// @notice Current Ballot ID\n\tuint currentBallotId;\n    \n    /// @notice List of ballots\n\tBallot[] ballotsList;\n\n\t/// @notice Owner of contract\n    VotingContract owner;\n\n    constructor() {\n        owner = VotingContract(msg.sender);\n    }\n\n\terror NotOwner(string message);\n\terror BallotNotClosed(string message);\n\n    modifier onlyOwner() {\n\t\tif (msg.sender != address(owner)) {\n\t\t\trevert NotOwner(\"Only Owner May Call Function\");\n\t\t}\n\t\t_;\n\t}\n\n\tmodifier ballotClosed() {\n\t\tif (ballotsList.length == 0 || ballotsList[currentBallotId].status != 0) {\n\t\t\trevert BallotNotClosed(\"Ballot Must Be Closed\");\n\t\t}\n\t\t_;\n\t}\n\n\n\n\t// ==============================================================\n\n\t// Functions ====================================================\n\n\t// ==============================================================\n\n\n\n\t// Info Functions ===============================================\n\t\n\t// Get current ballot status\n\tfunction getCurrentBallotStatus() external view onlyOwner returns (uint) {\n\t\trequire(ballotsList.length > 0);\n\t\treturn ballotsList[currentBallotId].status;\n\t}\n\n\t// Get current ballot info\n\n\t// List all ballot ids and names\n\n\t// Get ballot info by id\n\tfunction getBallotById(uint _id) external view onlyOwner returns (Ballot memory) {\n\t\trequire (_id >= 0 && _id < ballotsList.length);\n\t\treturn ballotsList[_id];\n\t} \n\n\t// ==============================================================\n\n\n\n\t// Admin Ballot Functions =======================================\n\n\t// Create ballot\n\tfunction createBallot(string memory _name) external onlyOwner {\n\t\trequire(ballotsList.length == 0 || ballotsList[currentBallotId].status == COMPLETE);\n\t\tif(ballotsList.length != 0) { currentBallotId++; }\n\t\tballotsList.push();\n\t\tBallot storage newBallot = ballotsList[ballotsList.length - 1];\n\n\t\tnewBallot.id = currentBallotId;\n\t\tnewBallot.name = _name;\n\t\tnewBallot.status = CLOSED;\n\t\tnewBallot.currentElectionId = 0;\n\t\tnewBallot.currentIssueId = 0;\n\t}\n\n\t// Delete ballot\n\tfunction deleteBallot() external onlyOwner ballotClosed {\n\t\tballotsList.pop();\n\t\tcurrentBallotId--;\n\t}\n\n\t// Change name of ballot\n\tfunction changeNameBallot(string memory newName) external onlyOwner ballotClosed {\n\t\tballotsList[currentBallotId].name = newName;\n\t}\n\n\t// Open ballot, close ballot\n\tfunction openCloseBallot() external onlyOwner {\n\t\tif(ballotsList[currentBallotId].status == CLOSED) {\n\t\t\tballotsList[currentBallotId].status = OPEN;\n\t\t} else {\n\t\t\tballotsList[currentBallotId].status = COMPLETE;\n\t\t}\n\t}\n\n\t// ==============================================================\n\n\n\n\t// Admin Election Functions =====================================\n\n\t// Add election\n\tfunction addElections(string[] memory electionNames) external onlyOwner ballotClosed {\n\t\tfor (uint i = 0; i < electionNames.length; i++) {\n\t\t\tif (ballotsList[currentBallotId].elections.length != 0) { ballotsList[currentBallotId].currentElectionId++; }\n\t\t\tballotsList[currentBallotId].elections.push();\n\t\t\tElection storage newElection = ballotsList[currentBallotId].elections[ballotsList[currentBallotId].elections.length - 1];\n\t\t\t\n\t\t\tnewElection.id = ballotsList[currentBallotId].currentElectionId;\n\t\t\tnewElection.name = electionNames[i];\n\t\t\tnewElection.currentCandidateId = 0;\n\t\t}\n\t}\n\n\t// Delete election\n\t/// @dev Leaves space in elections array\n\tfunction deleteElectionById(uint _id) external onlyOwner ballotClosed {\n\t\tdelete ballotsList[currentBallotId].elections[_id];\n\t}\n\n\t// Change name of election\n\tfunction changeNameElectionById(uint _id, string memory newName) external onlyOwner ballotClosed {\n\t\tballotsList[currentBallotId].elections[_id].name = newName;\n\t}\n\n\t// Add candidates\n\tfunction addCandidates(uint _id, string[] memory candidateNames) external onlyOwner ballotClosed {\n\n\t}\n\n\t// Delete candidate\n\n\t// ==============================================================\n\n\n\n\t// Admin Issue Functions ========================================\n\n\t// Add issue\n\n\t// Delete issue\n\n\t// Change name of issue\n\n\t// ==============================================================\n\n\n\n\t// Voter Functions ==============================================\n\n\t// Vote status\n\n\t// Vote for issue\n\n\t// Vote for election\n\n\t// Vote for all\n\n\t// ==============================================================\n\n\n\n\t// Other Functions ==============================================\n\n\t// ==============================================================\n\n\n\n}\n",
  "sourcePath": "/Users/hubertkdayssi/Documents/CS_Projects/voting_app/contracts/Ballots.sol",
  "compiler": {
    "name": "solc",
    "version": "0.8.11+commit.d7f03943.Emscripten.clang"
  },
  "schemaVersion": "3.4.5",
  "updatedAt": "2022-02-22T15:37:05.304Z",
  "devdoc": {
    "kind": "dev",
    "methods": {
      "deleteElectionById(uint256)": {
        "details": "Leaves space in elections array"
      }
    },
    "version": 1
  },
  "userdoc": {
    "kind": "user",
    "methods": {},
    "version": 1
  }
}