{
  "contractName": "Ballots",
  "abi": [
    {
      "inputs": [],
      "stateMutability": "nonpayable",
      "type": "constructor"
    },
    {
      "inputs": [
        {
          "internalType": "string",
          "name": "message",
          "type": "string"
        }
      ],
      "name": "BallotNotClosed",
      "type": "error"
    },
    {
      "inputs": [
        {
          "internalType": "string",
          "name": "message",
          "type": "string"
        }
      ],
      "name": "NotOwner",
      "type": "error"
    },
    {
      "inputs": [],
      "name": "getCurrentBallotStatus",
      "outputs": [
        {
          "internalType": "uint256",
          "name": "",
          "type": "uint256"
        }
      ],
      "stateMutability": "view",
      "type": "function"
    },
    {
      "inputs": [
        {
          "internalType": "uint256",
          "name": "_id",
          "type": "uint256"
        }
      ],
      "name": "getBallotById",
      "outputs": [
        {
          "components": [
            {
              "internalType": "uint256",
              "name": "id",
              "type": "uint256"
            },
            {
              "internalType": "string",
              "name": "name",
              "type": "string"
            },
            {
              "internalType": "uint256",
              "name": "status",
              "type": "uint256"
            },
            {
              "internalType": "uint256",
              "name": "currentElectionId",
              "type": "uint256"
            },
            {
              "internalType": "uint256",
              "name": "currentIssueId",
              "type": "uint256"
            },
            {
              "components": [
                {
                  "internalType": "uint256",
                  "name": "id",
                  "type": "uint256"
                },
                {
                  "internalType": "string",
                  "name": "name",
                  "type": "string"
                },
                {
                  "internalType": "uint256",
                  "name": "currentCandidateId",
                  "type": "uint256"
                },
                {
                  "components": [
                    {
                      "internalType": "uint256",
                      "name": "id",
                      "type": "uint256"
                    },
                    {
                      "internalType": "string",
                      "name": "name",
                      "type": "string"
                    },
                    {
                      "internalType": "uint256",
                      "name": "votes",
                      "type": "uint256"
                    }
                  ],
                  "internalType": "struct Ballots.Candidate[]",
                  "name": "candidates",
                  "type": "tuple[]"
                }
              ],
              "internalType": "struct Ballots.Election[]",
              "name": "elections",
              "type": "tuple[]"
            },
            {
              "components": [
                {
                  "internalType": "uint256",
                  "name": "id",
                  "type": "uint256"
                },
                {
                  "internalType": "string",
                  "name": "name",
                  "type": "string"
                },
                {
                  "internalType": "uint256",
                  "name": "forVotes",
                  "type": "uint256"
                },
                {
                  "internalType": "uint256",
                  "name": "againstVotes",
                  "type": "uint256"
                },
                {
                  "internalType": "bool",
                  "name": "isPassed",
                  "type": "bool"
                }
              ],
              "internalType": "struct Ballots.Issue[]",
              "name": "issues",
              "type": "tuple[]"
            }
          ],
          "internalType": "struct Ballots.Ballot",
          "name": "",
          "type": "tuple"
        }
      ],
      "stateMutability": "view",
      "type": "function"
    },
    {
      "inputs": [
        {
          "internalType": "string",
          "name": "_name",
          "type": "string"
        }
      ],
      "name": "createBallot",
      "outputs": [],
      "stateMutability": "nonpayable",
      "type": "function"
    },
    {
      "inputs": [],
      "name": "deleteBallot",
      "outputs": [],
      "stateMutability": "nonpayable",
      "type": "function"
    },
    {
      "inputs": [
        {
          "internalType": "string",
          "name": "newName",
          "type": "string"
        }
      ],
      "name": "changeNameBallot",
      "outputs": [],
      "stateMutability": "nonpayable",
      "type": "function"
    },
    {
      "inputs": [],
      "name": "openCloseBallot",
      "outputs": [],
      "stateMutability": "nonpayable",
      "type": "function"
    },
    {
      "inputs": [
        {
          "internalType": "string[][]",
          "name": "elections",
          "type": "string[][]"
        }
      ],
      "name": "addElections",
      "outputs": [],
      "stateMutability": "nonpayable",
      "type": "function"
    },
    {
      "inputs": [
        {
          "internalType": "uint256",
          "name": "_id",
          "type": "uint256"
        }
      ],
      "name": "deleteElectionById",
      "outputs": [],
      "stateMutability": "nonpayable",
      "type": "function"
    },
    {
      "inputs": [
        {
          "internalType": "uint256",
          "name": "_id",
          "type": "uint256"
        },
        {
          "internalType": "string",
          "name": "newName",
          "type": "string"
        }
      ],
      "name": "changeNameElectionById",
      "outputs": [],
      "stateMutability": "nonpayable",
      "type": "function"
    },
    {
      "inputs": [
        {
          "internalType": "uint256",
          "name": "_id",
          "type": "uint256"
        },
        {
          "internalType": "string[]",
          "name": "candidateNames",
          "type": "string[]"
        }
      ],
      "name": "addCandidates",
      "outputs": [],
      "stateMutability": "nonpayable",
      "type": "function"
    }
  ],
  "bytecode": "0x608060405260008055600180556002805534801561001c57600080fd5b5033600560006101000a81548173ffffffffffffffffffffffffffffffffffffffff021916908373ffffffffffffffffffffffffffffffffffffffff1602179055506123f98061006d6000396000f3fe608060405234801561001057600080fd5b506004361061009e5760003560e01c806346a865761161006657806346a865761461011d57806379df360a14610139578063c11296cc14610157578063d7627ad114610173578063fdad211f146101a35761009e565b80630d28fd2d146100a357806328e58f37146100bf57806331a0c16e146100db578063389ddfee146100f75780633cfe7fa714610113575b600080fd5b6100bd60048036038101906100b891906118b3565b6101ad565b005b6100d960048036038101906100d49190611a18565b6102f8565b005b6100f560048036038101906100f09190611a74565b610408565b005b610111600480360381019061010c9190611aa1565b610591565b005b61011b610700565b005b610137600480360381019061013291906118b3565b610825565b005b6101416109bc565b60405161014e9190611b0c565b60405180910390f35b610171600480360381019061016c9190611c08565b610a8d565b005b61018d60048036038101906101889190611a74565b610e83565b60405161019a9190612123565b60405180910390f35b6101ab61135b565b005b600560009054906101000a900473ffffffffffffffffffffffffffffffffffffffff1673ffffffffffffffffffffffffffffffffffffffff163373ffffffffffffffffffffffffffffffffffffffff161461023d576040517ff7251ccf000000000000000000000000000000000000000000000000000000008152600401610234906121a2565b60405180910390fd5b6000600480549050148061027957506000600460035481548110610264576102636121c2565b5b90600052602060002090600702016002015414155b156102b9576040517f5d2d8a4c0000000000000000000000000000000000000000000000000000000081526004016102b09061223d565b60405180910390fd5b806004600354815481106102d0576102cf6121c2565b5b906000526020600020906007020160010190805190602001906102f49291906114fc565b5050565b600560009054906101000a900473ffffffffffffffffffffffffffffffffffffffff1673ffffffffffffffffffffffffffffffffffffffff163373ffffffffffffffffffffffffffffffffffffffff1614610388576040517ff7251ccf00000000000000000000000000000000000000000000000000000000815260040161037f906121a2565b60405180910390fd5b600060048054905014806103c4575060006004600354815481106103af576103ae6121c2565b5b90600052602060002090600702016002015414155b15610404576040517f5d2d8a4c0000000000000000000000000000000000000000000000000000000081526004016103fb9061223d565b60405180910390fd5b5050565b600560009054906101000a900473ffffffffffffffffffffffffffffffffffffffff1673ffffffffffffffffffffffffffffffffffffffff163373ffffffffffffffffffffffffffffffffffffffff1614610498576040517ff7251ccf00000000000000000000000000000000000000000000000000000000815260040161048f906121a2565b60405180910390fd5b600060048054905014806104d4575060006004600354815481106104bf576104be6121c2565b5b90600052602060002090600702016002015414155b15610514576040517f5d2d8a4c00000000000000000000000000000000000000000000000000000000815260040161050b9061223d565b60405180910390fd5b60046003548154811061052a576105296121c2565b5b9060005260206000209060070201600501818154811061054d5761054c6121c2565b5b90600052602060002090600402016000808201600090556001820160006105749190611582565b600282016000905560038201600061058c91906115c2565b505050565b600560009054906101000a900473ffffffffffffffffffffffffffffffffffffffff1673ffffffffffffffffffffffffffffffffffffffff163373ffffffffffffffffffffffffffffffffffffffff1614610621576040517ff7251ccf000000000000000000000000000000000000000000000000000000008152600401610618906121a2565b60405180910390fd5b6000600480549050148061065d57506000600460035481548110610648576106476121c2565b5b90600052602060002090600702016002015414155b1561069d576040517f5d2d8a4c0000000000000000000000000000000000000000000000000000000081526004016106949061223d565b60405180910390fd5b806004600354815481106106b4576106b36121c2565b5b906000526020600020906007020160050183815481106106d7576106d66121c2565b5b906000526020600020906004020160010190805190602001906106fb9291906114fc565b505050565b600560009054906101000a900473ffffffffffffffffffffffffffffffffffffffff1673ffffffffffffffffffffffffffffffffffffffff163373ffffffffffffffffffffffffffffffffffffffff1614610790576040517ff7251ccf000000000000000000000000000000000000000000000000000000008152600401610787906121a2565b60405180910390fd5b6000546004600354815481106107a9576107a86121c2565b5b90600052602060002090600702016002015414156107f4576001546004600354815481106107da576107d96121c2565b5b906000526020600020906007020160020181905550610823565b60025460046003548154811061080d5761080c6121c2565b5b9060005260206000209060070201600201819055505b565b600560009054906101000a900473ffffffffffffffffffffffffffffffffffffffff1673ffffffffffffffffffffffffffffffffffffffff163373ffffffffffffffffffffffffffffffffffffffff16146108b5576040517ff7251ccf0000000000000000000000000000000000000000000000000000000081526004016108ac906121a2565b60405180910390fd5b600060048054905014806108f157506002546004600354815481106108dd576108dc6121c2565b5b906000526020600020906007020160020154145b6108fa57600080fd5b600060048054905014610920576003600081548092919061091a9061228c565b91905055505b60046001816001815401808255809150500390600052602060002090505060006004600160048054905061095491906122d5565b81548110610965576109646121c2565b5b906000526020600020906007020190506003548160000181905550818160010190805190602001906109989291906114fc565b50600054816002018190555060008160030181905550600081600401819055505050565b6000600560009054906101000a900473ffffffffffffffffffffffffffffffffffffffff1673ffffffffffffffffffffffffffffffffffffffff163373ffffffffffffffffffffffffffffffffffffffff1614610a4e576040517ff7251ccf000000000000000000000000000000000000000000000000000000008152600401610a45906121a2565b60405180910390fd5b600060048054905011610a6057600080fd5b600460035481548110610a7657610a756121c2565b5b906000526020600020906007020160020154905090565b600560009054906101000a900473ffffffffffffffffffffffffffffffffffffffff1673ffffffffffffffffffffffffffffffffffffffff163373ffffffffffffffffffffffffffffffffffffffff1614610b1d576040517ff7251ccf000000000000000000000000000000000000000000000000000000008152600401610b14906121a2565b60405180910390fd5b60006004805490501480610b5957506000600460035481548110610b4457610b436121c2565b5b90600052602060002090600702016002015414155b15610b99576040517f5d2d8a4c000000000000000000000000000000000000000000000000000000008152600401610b909061223d565b60405180910390fd5b60005b8151811015610e7f576000600460035481548110610bbd57610bbc6121c2565b5b90600052602060002090600702016005018054905014610c1557600460035481548110610bed57610bec6121c2565b5b90600052602060002090600702016003016000815480929190610c0f9061228c565b91905055505b600460035481548110610c2b57610c2a6121c2565b5b9060005260206000209060070201600501600181600181540180825580915050039060005260206000209050506000600460035481548110610c7057610c6f6121c2565b5b90600052602060002090600702016005016001600460035481548110610c9957610c986121c2565b5b906000526020600020906007020160050180549050610cb891906122d5565b81548110610cc957610cc86121c2565b5b90600052602060002090600402019050600460035481548110610cef57610cee6121c2565b5b9060005260206000209060070201600301548160000181905550828281518110610d1c57610d1b6121c2565b5b6020026020010151600081518110610d3757610d366121c2565b5b6020026020010151816001019080519060200190610d569291906114fc565b50600081600201819055506000600190505b838381518110610d7b57610d7a6121c2565b5b602002602001015151811015610e6a576000826003018054905014610db557816002016000815480929190610daf9061228c565b91905055505b8160030160018160018154018082558091505003906000526020600020905050600082600301600183610de891906122d5565b81548110610df957610df86121c2565b5b90600052602060002090600302019050848481518110610e1c57610e1b6121c2565b5b60200260200101518281518110610e3657610e356121c2565b5b6020026020010151816001019080519060200190610e559291906114fc565b50508080610e629061228c565b915050610d68565b50508080610e779061228c565b915050610b9c565b5050565b610e8b6115e6565b600560009054906101000a900473ffffffffffffffffffffffffffffffffffffffff1673ffffffffffffffffffffffffffffffffffffffff163373ffffffffffffffffffffffffffffffffffffffff1614610f1b576040517ff7251ccf000000000000000000000000000000000000000000000000000000008152600401610f12906121a2565b60405180910390fd5b60008210158015610f30575060048054905082105b610f3957600080fd5b60048281548110610f4d57610f4c6121c2565b5b90600052602060002090600702016040518060e001604052908160008201548152602001600182018054610f8090612338565b80601f0160208091040260200160405190810160405280929190818152602001828054610fac90612338565b8015610ff95780601f10610fce57610100808354040283529160200191610ff9565b820191906000526020600020905b815481529060010190602001808311610fdc57829003601f168201915b5050505050815260200160028201548152602001600382015481526020016004820154815260200160058201805480602002602001604051908101604052809291908181526020016000905b8282101561122257838290600052602060002090600402016040518060800160405290816000820154815260200160018201805461108290612338565b80601f01602080910402602001604051908101604052809291908181526020018280546110ae90612338565b80156110fb5780601f106110d0576101008083540402835291602001916110fb565b820191906000526020600020905b8154815290600101906020018083116110de57829003601f168201915b505050505081526020016002820154815260200160038201805480602002602001604051908101604052809291908181526020016000905b8282101561120b57838290600052602060002090600302016040518060600160405290816000820154815260200160018201805461117090612338565b80601f016020809104026020016040519081016040528092919081815260200182805461119c90612338565b80156111e95780601f106111be576101008083540402835291602001916111e9565b820191906000526020600020905b8154815290600101906020018083116111cc57829003601f168201915b5050505050815260200160028201548152505081526020019060010190611133565b505050508152505081526020019060010190611045565b50505050815260200160068201805480602002602001604051908101604052809291908181526020016000905b8282101561134c57838290600052602060002090600502016040518060a00160405290816000820154815260200160018201805461128c90612338565b80601f01602080910402602001604051908101604052809291908181526020018280546112b890612338565b80156113055780601f106112da57610100808354040283529160200191611305565b820191906000526020600020905b8154815290600101906020018083116112e857829003601f168201915b5050505050815260200160028201548152602001600382015481526020016004820160009054906101000a900460ff1615151515815250508152602001906001019061124f565b50505050815250509050919050565b600560009054906101000a900473ffffffffffffffffffffffffffffffffffffffff1673ffffffffffffffffffffffffffffffffffffffff163373ffffffffffffffffffffffffffffffffffffffff16146113eb576040517ff7251ccf0000000000000000000000000000000000000000000000000000000081526004016113e2906121a2565b60405180910390fd5b6000600480549050148061142757506000600460035481548110611412576114116121c2565b5b90600052602060002090600702016002015414155b15611467576040517f5d2d8a4c00000000000000000000000000000000000000000000000000000000815260040161145e9061223d565b60405180910390fd5b60048054806114795761147861236a565b5b60019003818190600052602060002090600702016000808201600090556001820160006114a69190611582565b6002820160009055600382016000905560048201600090556005820160006114ce9190611623565b6006820160006114de9190611647565b50509055600360008154809291906114f590612399565b9190505550565b82805461150890612338565b90600052602060002090601f01602090048101928261152a5760008555611571565b82601f1061154357805160ff1916838001178555611571565b82800160010185558215611571579182015b82811115611570578251825591602001919060010190611555565b5b50905061157e919061166b565b5090565b50805461158e90612338565b6000825580601f106115a057506115bf565b601f0160209004906000526020600020908101906115be919061166b565b5b50565b50805460008255600302906000526020600020908101906115e39190611688565b50565b6040518060e00160405280600081526020016060815260200160008152602001600081526020016000815260200160608152602001606081525090565b508054600082556004029060005260206000209081019061164491906116bf565b50565b50805460008255600502906000526020600020908101906116689190611706565b50565b5b8082111561168457600081600090555060010161166c565b5090565b5b808211156116bb576000808201600090556001820160006116aa9190611582565b600282016000905550600301611689565b5090565b5b80821115611702576000808201600090556001820160006116e19190611582565b60028201600090556003820160006116f991906115c2565b506004016116c0565b5090565b5b80821115611755576000808201600090556001820160006117289190611582565b600282016000905560038201600090556004820160006101000a81549060ff021916905550600501611707565b5090565b6000604051905090565b600080fd5b600080fd5b600080fd5b600080fd5b6000601f19601f8301169050919050565b7f4e487b7100000000000000000000000000000000000000000000000000000000600052604160045260246000fd5b6117c082611777565b810181811067ffffffffffffffff821117156117df576117de611788565b5b80604052505050565b60006117f2611759565b90506117fe82826117b7565b919050565b600067ffffffffffffffff82111561181e5761181d611788565b5b61182782611777565b9050602081019050919050565b82818337600083830152505050565b600061185661185184611803565b6117e8565b90508281526020810184848401111561187257611871611772565b5b61187d848285611834565b509392505050565b600082601f83011261189a5761189961176d565b5b81356118aa848260208601611843565b91505092915050565b6000602082840312156118c9576118c8611763565b5b600082013567ffffffffffffffff8111156118e7576118e6611768565b5b6118f384828501611885565b91505092915050565b6000819050919050565b61190f816118fc565b811461191a57600080fd5b50565b60008135905061192c81611906565b92915050565b600067ffffffffffffffff82111561194d5761194c611788565b5b602082029050602081019050919050565b600080fd5b600061197661197184611932565b6117e8565b905080838252602082019050602084028301858111156119995761199861195e565b5b835b818110156119e057803567ffffffffffffffff8111156119be576119bd61176d565b5b8086016119cb8982611885565b8552602085019450505060208101905061199b565b5050509392505050565b600082601f8301126119ff576119fe61176d565b5b8135611a0f848260208601611963565b91505092915050565b60008060408385031215611a2f57611a2e611763565b5b6000611a3d8582860161191d565b925050602083013567ffffffffffffffff811115611a5e57611a5d611768565b5b611a6a858286016119ea565b9150509250929050565b600060208284031215611a8a57611a89611763565b5b6000611a988482850161191d565b91505092915050565b60008060408385031215611ab857611ab7611763565b5b6000611ac68582860161191d565b925050602083013567ffffffffffffffff811115611ae757611ae6611768565b5b611af385828601611885565b9150509250929050565b611b06816118fc565b82525050565b6000602082019050611b216000830184611afd565b92915050565b600067ffffffffffffffff821115611b4257611b41611788565b5b602082029050602081019050919050565b6000611b66611b6184611b27565b6117e8565b90508083825260208201905060208402830185811115611b8957611b8861195e565b5b835b81811015611bd057803567ffffffffffffffff811115611bae57611bad61176d565b5b808601611bbb89826119ea565b85526020850194505050602081019050611b8b565b5050509392505050565b600082601f830112611bef57611bee61176d565b5b8135611bff848260208601611b53565b91505092915050565b600060208284031215611c1e57611c1d611763565b5b600082013567ffffffffffffffff811115611c3c57611c3b611768565b5b611c4884828501611bda565b91505092915050565b611c5a816118fc565b82525050565b600081519050919050565b600082825260208201905092915050565b60005b83811015611c9a578082015181840152602081019050611c7f565b83811115611ca9576000848401525b50505050565b6000611cba82611c60565b611cc48185611c6b565b9350611cd4818560208601611c7c565b611cdd81611777565b840191505092915050565b600081519050919050565b600082825260208201905092915050565b6000819050602082019050919050565b600081519050919050565b600082825260208201905092915050565b6000819050602082019050919050565b6000606083016000830151611d586000860182611c51565b5060208301518482036020860152611d708282611caf565b9150506040830151611d856040860182611c51565b508091505092915050565b6000611d9c8383611d40565b905092915050565b6000602082019050919050565b6000611dbc82611d14565b611dc68185611d1f565b935083602082028501611dd885611d30565b8060005b85811015611e145784840389528151611df58582611d90565b9450611e0083611da4565b925060208a01995050600181019050611ddc565b50829750879550505050505092915050565b6000608083016000830151611e3e6000860182611c51565b5060208301518482036020860152611e568282611caf565b9150506040830151611e6b6040860182611c51565b5060608301518482036060860152611e838282611db1565b9150508091505092915050565b6000611e9c8383611e26565b905092915050565b6000602082019050919050565b6000611ebc82611ce8565b611ec68185611cf3565b935083602082028501611ed885611d04565b8060005b85811015611f145784840389528151611ef58582611e90565b9450611f0083611ea4565b925060208a01995050600181019050611edc565b50829750879550505050505092915050565b600081519050919050565b600082825260208201905092915050565b6000819050602082019050919050565b60008115159050919050565b611f6781611f52565b82525050565b600060a083016000830151611f856000860182611c51565b5060208301518482036020860152611f9d8282611caf565b9150506040830151611fb26040860182611c51565b506060830151611fc56060860182611c51565b506080830151611fd86080860182611f5e565b508091505092915050565b6000611fef8383611f6d565b905092915050565b6000602082019050919050565b600061200f82611f26565b6120198185611f31565b93508360208202850161202b85611f42565b8060005b8581101561206757848403895281516120488582611fe3565b945061205383611ff7565b925060208a0199505060018101905061202f565b50829750879550505050505092915050565b600060e0830160008301516120916000860182611c51565b50602083015184820360208601526120a98282611caf565b91505060408301516120be6040860182611c51565b5060608301516120d16060860182611c51565b5060808301516120e46080860182611c51565b5060a083015184820360a08601526120fc8282611eb1565b91505060c083015184820360c08601526121168282612004565b9150508091505092915050565b6000602082019050818103600083015261213d8184612079565b905092915050565b600082825260208201905092915050565b7f4f6e6c79204f776e6572204d61792043616c6c2046756e6374696f6e00000000600082015250565b600061218c601c83612145565b915061219782612156565b602082019050919050565b600060208201905081810360008301526121bb8161217f565b9050919050565b7f4e487b7100000000000000000000000000000000000000000000000000000000600052603260045260246000fd5b7f42616c6c6f74204d75737420426520436c6f7365640000000000000000000000600082015250565b6000612227601583612145565b9150612232826121f1565b602082019050919050565b600060208201905081810360008301526122568161221a565b9050919050565b7f4e487b7100000000000000000000000000000000000000000000000000000000600052601160045260246000fd5b6000612297826118fc565b91507fffffffffffffffffffffffffffffffffffffffffffffffffffffffffffffffff8214156122ca576122c961225d565b5b600182019050919050565b60006122e0826118fc565b91506122eb836118fc565b9250828210156122fe576122fd61225d565b5b828203905092915050565b7f4e487b7100000000000000000000000000000000000000000000000000000000600052602260045260246000fd5b6000600282049050600182168061235057607f821691505b6020821081141561236457612363612309565b5b50919050565b7f4e487b7100000000000000000000000000000000000000000000000000000000600052603160045260246000fd5b60006123a4826118fc565b915060008214156123b8576123b761225d565b5b60018203905091905056fea26469706673582212209756cde7ce5e5255e9d629bebb9caee234aa2b5ee7a9775dbaf329b9eac8402164736f6c634300080b0033",
  "immutableReferences": {},
  "source": "// SPDX-License-Identifier: MIT\npragma solidity ^0.8.11;\n\nimport \"./VotingContract.sol\";\nimport \"./Strings.sol\";\n\ncontract Ballots {\n\tstruct Candidate {\n\t\tuint id;\n\t\tstring name;\n\t\tuint votes;\n\t}\n\n\tstruct Election {\n\t\tuint id;\n\t\tstring name;\n\t\tuint currentCandidateId;\n\t\tCandidate[] candidates;\n\t\t//mapping(address => bool) hasVoted;\n\t}\n\n\tstruct Issue {\n\t\tuint id;\n\t\tstring name;\n\t\tuint forVotes;\n\t\tuint againstVotes;\n\t\tbool isPassed;\n\t\t//mapping(address => bool) hasVoted;\n\t}\n\n\tstruct Ballot {\n\t\tuint id;\n\t\tstring name;\n\t\tuint status;\n\t\tuint currentElectionId;\n\t\tuint currentIssueId;\n\t\tElection[] elections;\n\t\tIssue[] issues;\n\t}\n\n\t/// @notice State of ballot variables for Ballot.status\n\tuint CLOSED = 0;\n\tuint OPEN = 1;\n\tuint COMPLETE = 2;\n\n    /// @notice Current Ballot ID\n\tuint currentBallotId;\n    \n    /// @notice List of ballots\n\tBallot[] ballotsList;\n\n\t/// @notice Owner of contract\n    VotingContract owner;\n\n    constructor() {\n        owner = VotingContract(msg.sender);\n    }\n\n\terror NotOwner(string message);\n\terror BallotNotClosed(string message);\n\n    modifier onlyOwner() {\n\t\tif (msg.sender != address(owner)) {\n\t\t\trevert NotOwner(\"Only Owner May Call Function\");\n\t\t}\n\t\t_;\n\t}\n\n\tmodifier ballotClosed() {\n\t\tif (ballotsList.length == 0 || ballotsList[currentBallotId].status != 0) {\n\t\t\trevert BallotNotClosed(\"Ballot Must Be Closed\");\n\t\t}\n\t\t_;\n\t}\n\n\n\n\t// ==============================================================\n\n\t// Functions ====================================================\n\n\t// ==============================================================\n\n\n\n\t// Info Functions ===============================================\n\t\n\t// Get current ballot status\n\tfunction getCurrentBallotStatus() external view onlyOwner returns (uint) {\n\t\trequire(ballotsList.length > 0);\n\t\treturn ballotsList[currentBallotId].status;\n\t}\n\n\t// Get current ballot info\n\n\t// List all ballot ids and names\n\n\t// Get ballot info by id\n\tfunction getBallotById(uint _id) external view onlyOwner returns (Ballot memory) {\n\t\trequire (_id >= 0 && _id < ballotsList.length);\n\t\treturn ballotsList[_id];\n\t} \n\n\t// ==============================================================\n\n\n\n\t// Admin Ballot Functions =======================================\n\n\t// Create ballot\n\tfunction createBallot(string memory _name) external onlyOwner {\n\t\trequire(ballotsList.length == 0 || ballotsList[currentBallotId].status == COMPLETE);\n\t\tif(ballotsList.length != 0) { currentBallotId++; }\n\t\tballotsList.push();\n\t\tBallot storage newBallot = ballotsList[ballotsList.length - 1];\n\n\t\tnewBallot.id = currentBallotId;\n\t\tnewBallot.name = _name;\n\t\tnewBallot.status = CLOSED;\n\t\tnewBallot.currentElectionId = 0;\n\t\tnewBallot.currentIssueId = 0;\n\t}\n\n\t// Delete ballot\n\tfunction deleteBallot() external onlyOwner ballotClosed {\n\t\tballotsList.pop();\n\t\tcurrentBallotId--;\n\t}\n\n\t// Change name of ballot\n\tfunction changeNameBallot(string memory newName) external onlyOwner ballotClosed {\n\t\tballotsList[currentBallotId].name = newName;\n\t}\n\n\t// Open ballot, close ballot\n\tfunction openCloseBallot() external onlyOwner {\n\t\tif(ballotsList[currentBallotId].status == CLOSED) {\n\t\t\tballotsList[currentBallotId].status = OPEN;\n\t\t} else {\n\t\t\tballotsList[currentBallotId].status = COMPLETE;\n\t\t}\n\t}\n\n\t// ==============================================================\n\n\n\n\t// Admin Election Functions =====================================\n\n\t// Add election\n\tfunction addElections(string[][] memory elections) external onlyOwner ballotClosed {\n\t\tfor (uint i = 0; i < elections.length; i++) {\n\t\t\tif (ballotsList[currentBallotId].elections.length != 0) { ballotsList[currentBallotId].currentElectionId++; }\n\t\t\tballotsList[currentBallotId].elections.push();\n\t\t\tElection storage newElection = ballotsList[currentBallotId].elections[ballotsList[currentBallotId].elections.length - 1];\n\t\t\t\n\t\t\tnewElection.id = ballotsList[currentBallotId].currentElectionId;\n\t\t\tnewElection.name = elections[i][0];\n\t\t\tnewElection.currentCandidateId = 0;\n\n\t\t\tfor (uint c = 1; c < elections[i].length; c++) {\n\t\t\t\tif (newElection.candidates.length != 0) { newElection.currentCandidateId++; }\n\t\t\t\tnewElection.candidates.push();\n\t\t\t\tCandidate storage newCandidate = newElection.candidates[c - 1];\n\t\t\t\tnewCandidate.name = elections[i][c];\n\t\t\t}\n\t\t}\n\t}\n\n\t// Delete election\n\t/// @dev Leaves space in elections array\n\tfunction deleteElectionById(uint _id) external onlyOwner ballotClosed {\n\t\tdelete ballotsList[currentBallotId].elections[_id];\n\t}\n\n\t// Change name of election\n\tfunction changeNameElectionById(uint _id, string memory newName) external onlyOwner ballotClosed {\n\t\tballotsList[currentBallotId].elections[_id].name = newName;\n\t}\n\n\t// Add candidates\n\tfunction addCandidates(uint _id, string[] memory candidateNames) external onlyOwner ballotClosed {\n\n\t}\n\n\t// Delete candidate\n\n\t// ==============================================================\n\n\n\n\t// Admin Issue Functions ========================================\n\n\t// Add issue\n\n\t// Delete issue\n\n\t// Change name of issue\n\n\t// ==============================================================\n\n\n\n\t// Voter Functions ==============================================\n\n\t// Vote status\n\n\t// Vote for issue\n\n\t// Vote for election\n\n\t// Vote for all\n\n\t// ==============================================================\n\n\n\n\t// Other Functions ==============================================\n\n\t// ==============================================================\n\n\n\n}\n",
  "sourcePath": "/Users/hubertkdayssi/Documents/CS_Projects/voting_app/contracts/Ballots.sol",
  "compiler": {
    "name": "solc",
    "version": "0.8.11+commit.d7f03943.Emscripten.clang"
  },
  "schemaVersion": "3.4.5",
  "updatedAt": "2022-02-22T21:20:23.781Z",
  "devdoc": {
    "kind": "dev",
    "methods": {
      "deleteElectionById(uint256)": {
        "details": "Leaves space in elections array"
      }
    },
    "version": 1
  },
  "userdoc": {
    "kind": "user",
    "methods": {},
    "version": 1
  }
}