{
  "contractName": "Ballots",
  "abi": [
    {
      "inputs": [],
      "stateMutability": "nonpayable",
      "type": "constructor"
    },
    {
      "inputs": [
        {
          "internalType": "string",
          "name": "message",
          "type": "string"
        }
      ],
      "name": "BallotNotClosed",
      "type": "error"
    },
    {
      "inputs": [
        {
          "internalType": "string",
          "name": "message",
          "type": "string"
        }
      ],
      "name": "NotOwner",
      "type": "error"
    },
    {
      "inputs": [],
      "name": "getCurrentBallotStatus",
      "outputs": [
        {
          "internalType": "uint256",
          "name": "",
          "type": "uint256"
        }
      ],
      "stateMutability": "view",
      "type": "function"
    },
    {
      "inputs": [
        {
          "internalType": "uint256",
          "name": "_id",
          "type": "uint256"
        }
      ],
      "name": "getBallotById",
      "outputs": [
        {
          "internalType": "uint256",
          "name": "",
          "type": "uint256"
        },
        {
          "internalType": "string",
          "name": "",
          "type": "string"
        },
        {
          "internalType": "uint256",
          "name": "",
          "type": "uint256"
        }
      ],
      "stateMutability": "view",
      "type": "function"
    },
    {
      "inputs": [
        {
          "internalType": "string",
          "name": "_name",
          "type": "string"
        }
      ],
      "name": "createBallot",
      "outputs": [],
      "stateMutability": "nonpayable",
      "type": "function"
    },
    {
      "inputs": [],
      "name": "deleteBallot",
      "outputs": [],
      "stateMutability": "nonpayable",
      "type": "function"
    },
    {
      "inputs": [
        {
          "internalType": "string",
          "name": "newName",
          "type": "string"
        }
      ],
      "name": "changeNameBallot",
      "outputs": [],
      "stateMutability": "nonpayable",
      "type": "function"
    },
    {
      "inputs": [],
      "name": "openCloseBallot",
      "outputs": [],
      "stateMutability": "nonpayable",
      "type": "function"
    },
    {
      "inputs": [
        {
          "internalType": "string[]",
          "name": "electionNames",
          "type": "string[]"
        }
      ],
      "name": "addElections",
      "outputs": [],
      "stateMutability": "nonpayable",
      "type": "function"
    },
    {
      "inputs": [
        {
          "internalType": "uint256",
          "name": "_id",
          "type": "uint256"
        }
      ],
      "name": "deleteElectionById",
      "outputs": [],
      "stateMutability": "nonpayable",
      "type": "function"
    },
    {
      "inputs": [
        {
          "internalType": "uint256",
          "name": "_id",
          "type": "uint256"
        },
        {
          "internalType": "string",
          "name": "newName",
          "type": "string"
        }
      ],
      "name": "changeNameElectionById",
      "outputs": [],
      "stateMutability": "nonpayable",
      "type": "function"
    },
    {
      "inputs": [
        {
          "internalType": "uint256",
          "name": "_id",
          "type": "uint256"
        },
        {
          "internalType": "string[]",
          "name": "candidateNames",
          "type": "string[]"
        }
      ],
      "name": "addCandidates",
      "outputs": [],
      "stateMutability": "nonpayable",
      "type": "function"
    }
  ],
  "bytecode": "0x608060405234801561001057600080fd5b5033600260006101000a81548173ffffffffffffffffffffffffffffffffffffffff021916908373ffffffffffffffffffffffffffffffffffffffff160217905550611a2e806100616000396000f3fe608060405234801561001057600080fd5b506004361061009e5760003560e01c80633cfe7fa7116100665780633cfe7fa71461012f57806346a865761461013957806379df360a14610155578063d7627ad114610173578063fdad211f146101a55761009e565b80630d28fd2d146100a357806328e58f37146100bf57806331a0c16e146100db57806335e1399b146100f7578063389ddfee14610113575b600080fd5b6100bd60048036038101906100b89190611408565b6101af565b005b6100d960048036038101906100d4919061156d565b6102fa565b005b6100f560048036038101906100f091906115c9565b61040a565b005b610111600480360381019061010c91906115f6565b610593565b005b61012d6004803603810190610128919061163f565b610863565b005b6101376109d2565b005b610153600480360381019061014e9190611408565b610af3565b005b61015d610c84565b60405161016a91906116aa565b60405180910390f35b61018d600480360381019061018891906115c9565b610d55565b60405161019c9392919061174d565b60405180910390f35b6101ad610eee565b005b600260009054906101000a900473ffffffffffffffffffffffffffffffffffffffff1673ffffffffffffffffffffffffffffffffffffffff163373ffffffffffffffffffffffffffffffffffffffff161461023f576040517ff7251ccf000000000000000000000000000000000000000000000000000000008152600401610236906117d7565b60405180910390fd5b6000600180549050148061027b57506000600160005481548110610266576102656117f7565b5b90600052602060002090600702016002015414155b156102bb576040517f5d2d8a4c0000000000000000000000000000000000000000000000000000000081526004016102b290611872565b60405180910390fd5b806001600054815481106102d2576102d16117f7565b5b906000526020600020906007020160010190805190602001906102f692919061108e565b5050565b600260009054906101000a900473ffffffffffffffffffffffffffffffffffffffff1673ffffffffffffffffffffffffffffffffffffffff163373ffffffffffffffffffffffffffffffffffffffff161461038a576040517ff7251ccf000000000000000000000000000000000000000000000000000000008152600401610381906117d7565b60405180910390fd5b600060018054905014806103c6575060006001600054815481106103b1576103b06117f7565b5b90600052602060002090600702016002015414155b15610406576040517f5d2d8a4c0000000000000000000000000000000000000000000000000000000081526004016103fd90611872565b60405180910390fd5b5050565b600260009054906101000a900473ffffffffffffffffffffffffffffffffffffffff1673ffffffffffffffffffffffffffffffffffffffff163373ffffffffffffffffffffffffffffffffffffffff161461049a576040517ff7251ccf000000000000000000000000000000000000000000000000000000008152600401610491906117d7565b60405180910390fd5b600060018054905014806104d6575060006001600054815481106104c1576104c06117f7565b5b90600052602060002090600702016002015414155b15610516576040517f5d2d8a4c00000000000000000000000000000000000000000000000000000000815260040161050d90611872565b60405180910390fd5b60016000548154811061052c5761052b6117f7565b5b9060005260206000209060070201600501818154811061054f5761054e6117f7565b5b90600052602060002090600502016000808201600090556001820160006105769190611114565b600282016000905560038201600061058e9190611154565b505050565b600260009054906101000a900473ffffffffffffffffffffffffffffffffffffffff1673ffffffffffffffffffffffffffffffffffffffff163373ffffffffffffffffffffffffffffffffffffffff1614610623576040517ff7251ccf00000000000000000000000000000000000000000000000000000000815260040161061a906117d7565b60405180910390fd5b6000600180549050148061065f5750600060016000548154811061064a576106496117f7565b5b90600052602060002090600702016002015414155b1561069f576040517f5d2d8a4c00000000000000000000000000000000000000000000000000000000815260040161069690611872565b60405180910390fd5b60005b815181101561085f576001600054815481106106c1576106c06117f7565b5b9060005260206000209060070201600501600181600181540180825580915050039060005260206000209050506000600160005481548110610706576107056117f7565b5b90600052602060002090600702016005016001806000548154811061072e5761072d6117f7565b5b90600052602060002090600702016005018054905061074d91906118c1565b8154811061075e5761075d6117f7565b5b906000526020600020906005020190506000600160005481548110610786576107856117f7565b5b906000526020600020906007020160050180549050146107de576001600054815481106107b6576107b56117f7565b5b906000526020600020906007020160030160008154809291906107d8906118f5565b91905055505b6001600054815481106107f4576107f36117f7565b5b9060005260206000209060070201600301548160000181905550828281518110610821576108206117f7565b5b602002602001015181600101908051906020019061084092919061108e565b5060008160020181905550508080610857906118f5565b9150506106a2565b5050565b600260009054906101000a900473ffffffffffffffffffffffffffffffffffffffff1673ffffffffffffffffffffffffffffffffffffffff163373ffffffffffffffffffffffffffffffffffffffff16146108f3576040517ff7251ccf0000000000000000000000000000000000000000000000000000000081526004016108ea906117d7565b60405180910390fd5b6000600180549050148061092f5750600060016000548154811061091a576109196117f7565b5b90600052602060002090600702016002015414155b1561096f576040517f5d2d8a4c00000000000000000000000000000000000000000000000000000000815260040161096690611872565b60405180910390fd5b80600160005481548110610986576109856117f7565b5b906000526020600020906007020160050183815481106109a9576109a86117f7565b5b906000526020600020906005020160010190805190602001906109cd92919061108e565b505050565b600260009054906101000a900473ffffffffffffffffffffffffffffffffffffffff1673ffffffffffffffffffffffffffffffffffffffff163373ffffffffffffffffffffffffffffffffffffffff1614610a62576040517ff7251ccf000000000000000000000000000000000000000000000000000000008152600401610a59906117d7565b60405180910390fd5b6000600160005481548110610a7a57610a796117f7565b5b9060005260206000209060070201600201541415610ac35760018060005481548110610aa957610aa86117f7565b5b906000526020600020906007020160020181905550610af1565b6002600160005481548110610adb57610ada6117f7565b5b9060005260206000209060070201600201819055505b565b600260009054906101000a900473ffffffffffffffffffffffffffffffffffffffff1673ffffffffffffffffffffffffffffffffffffffff163373ffffffffffffffffffffffffffffffffffffffff1614610b83576040517ff7251ccf000000000000000000000000000000000000000000000000000000008152600401610b7a906117d7565b60405180910390fd5b60006001805490501480610bbe57506002600160005481548110610baa57610ba96117f7565b5b906000526020600020906007020160020154145b610bc757600080fd5b600180816001815401808255809150500390600052602060002090505060006001808080549050610bf891906118c1565b81548110610c0957610c086117f7565b5b90600052602060002090600702019050600060018054905014610c3e57600080815480929190610c38906118f5565b91905055505b600054816000018190555081816001019080519060200190610c6192919061108e565b506000816002018190555060008160030181905550600081600401819055505050565b6000600260009054906101000a900473ffffffffffffffffffffffffffffffffffffffff1673ffffffffffffffffffffffffffffffffffffffff163373ffffffffffffffffffffffffffffffffffffffff1614610d16576040517ff7251ccf000000000000000000000000000000000000000000000000000000008152600401610d0d906117d7565b60405180910390fd5b600060018054905011610d2857600080fd5b600160005481548110610d3e57610d3d6117f7565b5b906000526020600020906007020160020154905090565b600060606000600260009054906101000a900473ffffffffffffffffffffffffffffffffffffffff1673ffffffffffffffffffffffffffffffffffffffff163373ffffffffffffffffffffffffffffffffffffffff1614610deb576040517ff7251ccf000000000000000000000000000000000000000000000000000000008152600401610de2906117d7565b60405180910390fd5b60008410158015610e00575060018054905084105b610e0957600080fd5b8360018581548110610e1e57610e1d6117f7565b5b906000526020600020906007020160010160018681548110610e4357610e426117f7565b5b906000526020600020906007020160020154818054610e619061196d565b80601f0160208091040260200160405190810160405280929190818152602001828054610e8d9061196d565b8015610eda5780601f10610eaf57610100808354040283529160200191610eda565b820191906000526020600020905b815481529060010190602001808311610ebd57829003601f168201915b505050505091509250925092509193909250565b600260009054906101000a900473ffffffffffffffffffffffffffffffffffffffff1673ffffffffffffffffffffffffffffffffffffffff163373ffffffffffffffffffffffffffffffffffffffff1614610f7e576040517ff7251ccf000000000000000000000000000000000000000000000000000000008152600401610f75906117d7565b60405180910390fd5b60006001805490501480610fba57506000600160005481548110610fa557610fa46117f7565b5b90600052602060002090600702016002015414155b15610ffa576040517f5d2d8a4c000000000000000000000000000000000000000000000000000000008152600401610ff190611872565b60405180910390fd5b600180548061100c5761100b61199f565b5b60019003818190600052602060002090600702016000808201600090556001820160006110399190611114565b6002820160009055600382016000905560048201600090556005820160006110619190611178565b600682016000611071919061119c565b50509055600080815480929190611087906119ce565b9190505550565b82805461109a9061196d565b90600052602060002090601f0160209004810192826110bc5760008555611103565b82601f106110d557805160ff1916838001178555611103565b82800160010185558215611103579182015b828111156111025782518255916020019190600101906110e7565b5b50905061111091906111c0565b5090565b5080546111209061196d565b6000825580601f106111325750611151565b601f01602090049060005260206000209081019061115091906111c0565b5b50565b508054600082556003029060005260206000209081019061117591906111dd565b50565b50805460008255600502906000526020600020908101906111999190611214565b50565b50805460008255600602906000526020600020908101906111bd919061125b565b50565b5b808211156111d95760008160009055506001016111c1565b5090565b5b80821115611210576000808201600090556001820160006111ff9190611114565b6002820160009055506003016111de565b5090565b5b80821115611257576000808201600090556001820160006112369190611114565b600282016000905560038201600061124e9190611154565b50600501611215565b5090565b5b808211156112aa5760008082016000905560018201600061127d9190611114565b600282016000905560038201600090556004820160006101000a81549060ff02191690555060060161125c565b5090565b6000604051905090565b600080fd5b600080fd5b600080fd5b600080fd5b6000601f19601f8301169050919050565b7f4e487b7100000000000000000000000000000000000000000000000000000000600052604160045260246000fd5b611315826112cc565b810181811067ffffffffffffffff82111715611334576113336112dd565b5b80604052505050565b60006113476112ae565b9050611353828261130c565b919050565b600067ffffffffffffffff821115611373576113726112dd565b5b61137c826112cc565b9050602081019050919050565b82818337600083830152505050565b60006113ab6113a684611358565b61133d565b9050828152602081018484840111156113c7576113c66112c7565b5b6113d2848285611389565b509392505050565b600082601f8301126113ef576113ee6112c2565b5b81356113ff848260208601611398565b91505092915050565b60006020828403121561141e5761141d6112b8565b5b600082013567ffffffffffffffff81111561143c5761143b6112bd565b5b611448848285016113da565b91505092915050565b6000819050919050565b61146481611451565b811461146f57600080fd5b50565b6000813590506114818161145b565b92915050565b600067ffffffffffffffff8211156114a2576114a16112dd565b5b602082029050602081019050919050565b600080fd5b60006114cb6114c684611487565b61133d565b905080838252602082019050602084028301858111156114ee576114ed6114b3565b5b835b8181101561153557803567ffffffffffffffff811115611513576115126112c2565b5b80860161152089826113da565b855260208501945050506020810190506114f0565b5050509392505050565b600082601f830112611554576115536112c2565b5b81356115648482602086016114b8565b91505092915050565b60008060408385031215611584576115836112b8565b5b600061159285828601611472565b925050602083013567ffffffffffffffff8111156115b3576115b26112bd565b5b6115bf8582860161153f565b9150509250929050565b6000602082840312156115df576115de6112b8565b5b60006115ed84828501611472565b91505092915050565b60006020828403121561160c5761160b6112b8565b5b600082013567ffffffffffffffff81111561162a576116296112bd565b5b6116368482850161153f565b91505092915050565b60008060408385031215611656576116556112b8565b5b600061166485828601611472565b925050602083013567ffffffffffffffff811115611685576116846112bd565b5b611691858286016113da565b9150509250929050565b6116a481611451565b82525050565b60006020820190506116bf600083018461169b565b92915050565b600081519050919050565b600082825260208201905092915050565b60005b838110156116ff5780820151818401526020810190506116e4565b8381111561170e576000848401525b50505050565b600061171f826116c5565b61172981856116d0565b93506117398185602086016116e1565b611742816112cc565b840191505092915050565b6000606082019050611762600083018661169b565b81810360208301526117748185611714565b9050611783604083018461169b565b949350505050565b7f4f6e6c79204f776e6572204d61792043616c6c2046756e6374696f6e00000000600082015250565b60006117c1601c836116d0565b91506117cc8261178b565b602082019050919050565b600060208201905081810360008301526117f0816117b4565b9050919050565b7f4e487b7100000000000000000000000000000000000000000000000000000000600052603260045260246000fd5b7f42616c6c6f74204d75737420426520436c6f7365640000000000000000000000600082015250565b600061185c6015836116d0565b915061186782611826565b602082019050919050565b6000602082019050818103600083015261188b8161184f565b9050919050565b7f4e487b7100000000000000000000000000000000000000000000000000000000600052601160045260246000fd5b60006118cc82611451565b91506118d783611451565b9250828210156118ea576118e9611892565b5b828203905092915050565b600061190082611451565b91507fffffffffffffffffffffffffffffffffffffffffffffffffffffffffffffffff82141561193357611932611892565b5b600182019050919050565b7f4e487b7100000000000000000000000000000000000000000000000000000000600052602260045260246000fd5b6000600282049050600182168061198557607f821691505b602082108114156119995761199861193e565b5b50919050565b7f4e487b7100000000000000000000000000000000000000000000000000000000600052603160045260246000fd5b60006119d982611451565b915060008214156119ed576119ec611892565b5b60018203905091905056fea264697066735822122010d758096d8cac3d500dfb42f2156c125768bd277e70db3da21d5f8881f3c5d864736f6c634300080b0033",
  "immutableReferences": {},
  "source": "// SPDX-License-Identifier: MIT\npragma solidity ^0.8.11;\n\nimport \"./VotingContract.sol\";\nimport \"./Strings.sol\";\n\ncontract Ballots {\n\tstruct Candidate {\n\t\tuint id;\n\t\tstring name;\n\t\tuint votes;\n\t}\n\n\tstruct Election {\n\t\tuint id;\n\t\tstring name;\n\t\tuint currentCandidateId;\n\t\tCandidate[] candidates;\n\t\tmapping(address => bool) hasVoted;\n\t}\n\n\tstruct Issue {\n\t\tuint id;\n\t\tstring name;\n\t\tuint forVotes;\n\t\tuint againstVotes;\n\t\tbool isPassed;\n\t\tmapping(address => bool) hasVoted;\n\t}\n\n\tstruct Ballot {\n\t\tuint id;\n\t\tstring name;\n\t\tuint status;\n\t\tuint currentElectionId;\n\t\tuint currentIssueId;\n\t\tElection[] elections;\n\t\tIssue[] issues;\n\t}\n\n\t/// @notice State of ballot variables for Ballot.status\n\tuint constant CLOSED = 0;\n\tuint constant OPEN = 1;\n\tuint constant COMPLETE = 2;\n\n    /// @notice Current Ballot ID\n\tuint currentBallotId;\n    \n    /// @notice List of ballots\n\tBallot[] ballotsList;\n\n\t/// @notice Owner of contract\n    VotingContract owner;\n\n    constructor() {\n        owner = VotingContract(msg.sender);\n    }\n\n\terror NotOwner(string message);\n\terror BallotNotClosed(string message);\n\n    modifier onlyOwner() {\n\t\tif (msg.sender != address(owner)) {\n\t\t\trevert NotOwner(\"Only Owner May Call Function\");\n\t\t}\n\t\t_;\n\t}\n\n\tmodifier ballotClosed() {\n\t\tif (ballotsList.length == 0 || ballotsList[currentBallotId].status != 0) {\n\t\t\trevert BallotNotClosed(\"Ballot Must Be Closed\");\n\t\t}\n\t\t_;\n\t}\n\n\n\n\t// ==============================================================\n\n\t// Functions ====================================================\n\n\t// ==============================================================\n\n\n\n\t// Info Functions ===============================================\n\t\n\t// Get current ballot status\n\tfunction getCurrentBallotStatus() external view onlyOwner returns (uint) {\n\t\trequire(ballotsList.length > 0);\n\t\treturn ballotsList[currentBallotId].status;\n\t}\n\n\t// Get current ballot info\n\n\t// List all ballot ids and names\n\n\t// Get ballot info by id\n\tfunction getBallotById(uint _id) external view onlyOwner returns (\n\t\tuint, \n\t\tstring memory,\n\t\tuint//,\n\t\t//string[][] memory\n\t) {\n\t\trequire (_id >= 0 && _id < ballotsList.length);\n\t\t// string[][] memory electionsList;\n\n\t\t// for (uint i = 0; i < ballotsList[_id].elections.length; i++) {\n\n\t\t// }\n\n\t\treturn (\n\t\t\t_id, \n\t\t\tballotsList[_id].name, \n\t\t\tballotsList[_id].status\n\t\t);\n\t} \n\n\n\t// ==============================================================\n\n\n\n\t// Admin Ballot Functions =======================================\n\n\t// Create ballot\n\tfunction createBallot(string memory _name) external onlyOwner {\n\t\trequire(ballotsList.length == 0 || ballotsList[currentBallotId].status == COMPLETE);\n\t\tballotsList.push();\n\t\tBallot storage newBallot = ballotsList[ballotsList.length - 1];\n\t\tif(ballotsList.length != 0) { currentBallotId++; }\n\n\t\tnewBallot.id = currentBallotId;\n\t\tnewBallot.name = _name;\n\t\tnewBallot.status = CLOSED;\n\t\tnewBallot.currentElectionId = 0;\n\t\tnewBallot.currentIssueId = 0;\n\t}\n\n\t// Delete ballot\n\tfunction deleteBallot() external onlyOwner ballotClosed {\n\t\tballotsList.pop();\n\t\tcurrentBallotId--;\n\t}\n\n\t// Change name of ballot\n\tfunction changeNameBallot(string memory newName) external onlyOwner ballotClosed {\n\t\tballotsList[currentBallotId].name = newName;\n\t}\n\n\t// Open ballot, close ballot\n\tfunction openCloseBallot() external onlyOwner {\n\t\tif(ballotsList[currentBallotId].status == CLOSED) {\n\t\t\tballotsList[currentBallotId].status = OPEN;\n\t\t} else {\n\t\t\tballotsList[currentBallotId].status = COMPLETE;\n\t\t}\n\t}\n\n\t// ==============================================================\n\n\n\n\t// Admin Election Functions =====================================\n\n\t// Add election\n\tfunction addElections(string[] memory electionNames) external onlyOwner ballotClosed {\n\t\tfor (uint i = 0; i < electionNames.length; i++) {\n\t\t\tballotsList[currentBallotId].elections.push();\n\t\t\tElection storage newElection = ballotsList[currentBallotId].elections[ballotsList[currentBallotId].elections.length - 1];\n\t\t\tif (ballotsList[currentBallotId].elections.length != 0) { ballotsList[currentBallotId].currentElectionId++; }\n\t\t\t\n\t\t\tnewElection.id = ballotsList[currentBallotId].currentElectionId;\n\t\t\tnewElection.name = electionNames[i];\n\t\t\tnewElection.currentCandidateId = 0;\n\t\t}\n\t}\n\n\t// Delete election\n\t/// @dev Leaves space in elections array\n\tfunction deleteElectionById(uint _id) external onlyOwner ballotClosed {\n\t\tdelete ballotsList[currentBallotId].elections[_id];\n\t}\n\n\t// Change name of election\n\tfunction changeNameElectionById(uint _id, string memory newName) external onlyOwner ballotClosed {\n\t\tballotsList[currentBallotId].elections[_id].name = newName;\n\t}\n\n\t// Add candidates\n\tfunction addCandidates(uint _id, string[] memory candidateNames) external onlyOwner ballotClosed {\n\n\t}\n\n\t// Delete candidate\n\n\t// ==============================================================\n\n\n\n\t// Admin Issue Functions ========================================\n\n\t// Add issue\n\n\t// Delete issue\n\n\t// Change name of issue\n\n\t// ==============================================================\n\n\n\n\t// Voter Functions ==============================================\n\n\t// Vote status\n\n\t// Vote for issue\n\n\t// Vote for election\n\n\t// Vote for all\n\n\t// ==============================================================\n\n\n\n\t// Other Functions ==============================================\n\n\t// ==============================================================\n\n\n\n}\n",
  "sourcePath": "/Users/hubertkdayssi/Documents/CS_Projects/voting_app/contracts/Ballots.sol",
  "compiler": {
    "name": "solc",
    "version": "0.8.11+commit.d7f03943.Emscripten.clang"
  },
  "schemaVersion": "3.4.5",
  "updatedAt": "2022-02-21T17:25:11.674Z",
  "devdoc": {
    "kind": "dev",
    "methods": {
      "deleteElectionById(uint256)": {
        "details": "Leaves space in elections array"
      }
    },
    "version": 1
  },
  "userdoc": {
    "kind": "user",
    "methods": {},
    "version": 1
  }
}