{
  "contractName": "Ballots",
  "abi": [
    {
      "inputs": [],
      "stateMutability": "nonpayable",
      "type": "constructor"
    },
    {
      "inputs": [
        {
          "internalType": "string",
          "name": "message",
          "type": "string"
        }
      ],
      "name": "BallotNotClosed",
      "type": "error"
    },
    {
      "inputs": [
        {
          "internalType": "string",
          "name": "message",
          "type": "string"
        }
      ],
      "name": "NotOwner",
      "type": "error"
    },
    {
      "inputs": [],
      "name": "getCurrentBallotStatus",
      "outputs": [
        {
          "internalType": "uint256",
          "name": "",
          "type": "uint256"
        }
      ],
      "stateMutability": "view",
      "type": "function"
    },
    {
      "inputs": [
        {
          "internalType": "uint256",
          "name": "_id",
          "type": "uint256"
        }
      ],
      "name": "getBallotById",
      "outputs": [
        {
          "components": [
            {
              "internalType": "uint256",
              "name": "id",
              "type": "uint256"
            },
            {
              "internalType": "string",
              "name": "name",
              "type": "string"
            },
            {
              "internalType": "uint256",
              "name": "status",
              "type": "uint256"
            },
            {
              "internalType": "uint256",
              "name": "currentElectionId",
              "type": "uint256"
            },
            {
              "internalType": "uint256",
              "name": "currentIssueId",
              "type": "uint256"
            },
            {
              "components": [
                {
                  "internalType": "uint256",
                  "name": "id",
                  "type": "uint256"
                },
                {
                  "internalType": "string",
                  "name": "name",
                  "type": "string"
                },
                {
                  "internalType": "uint256",
                  "name": "currentCandidateId",
                  "type": "uint256"
                },
                {
                  "components": [
                    {
                      "internalType": "uint256",
                      "name": "id",
                      "type": "uint256"
                    },
                    {
                      "internalType": "string",
                      "name": "name",
                      "type": "string"
                    },
                    {
                      "internalType": "uint256",
                      "name": "votes",
                      "type": "uint256"
                    }
                  ],
                  "internalType": "struct Ballots.Candidate[]",
                  "name": "candidates",
                  "type": "tuple[]"
                }
              ],
              "internalType": "struct Ballots.Election[]",
              "name": "elections",
              "type": "tuple[]"
            },
            {
              "components": [
                {
                  "internalType": "uint256",
                  "name": "id",
                  "type": "uint256"
                },
                {
                  "internalType": "string",
                  "name": "name",
                  "type": "string"
                },
                {
                  "internalType": "uint256",
                  "name": "forVotes",
                  "type": "uint256"
                },
                {
                  "internalType": "uint256",
                  "name": "againstVotes",
                  "type": "uint256"
                }
              ],
              "internalType": "struct Ballots.Issue[]",
              "name": "issues",
              "type": "tuple[]"
            }
          ],
          "internalType": "struct Ballots.Ballot",
          "name": "",
          "type": "tuple"
        }
      ],
      "stateMutability": "view",
      "type": "function"
    },
    {
      "inputs": [
        {
          "internalType": "string",
          "name": "_name",
          "type": "string"
        }
      ],
      "name": "createBallot",
      "outputs": [],
      "stateMutability": "nonpayable",
      "type": "function"
    },
    {
      "inputs": [],
      "name": "deleteBallot",
      "outputs": [],
      "stateMutability": "nonpayable",
      "type": "function"
    },
    {
      "inputs": [],
      "name": "openCloseBallot",
      "outputs": [],
      "stateMutability": "nonpayable",
      "type": "function"
    },
    {
      "inputs": [
        {
          "internalType": "string[][]",
          "name": "elections",
          "type": "string[][]"
        }
      ],
      "name": "addElections",
      "outputs": [],
      "stateMutability": "nonpayable",
      "type": "function"
    },
    {
      "inputs": [
        {
          "internalType": "string[]",
          "name": "issues",
          "type": "string[]"
        }
      ],
      "name": "addIssues",
      "outputs": [],
      "stateMutability": "nonpayable",
      "type": "function"
    }
  ],
  "bytecode": "0x608060405260008055600180556002805534801561001c57600080fd5b5033600560006101000a81548173ffffffffffffffffffffffffffffffffffffffff021916908373ffffffffffffffffffffffffffffffffffffffff160217905550611e748061006d6000396000f3fe608060405234801561001057600080fd5b506004361061007d5760003560e01c8063b0c2a23b1161005b578063b0c2a23b146100c6578063c11296cc146100e2578063d7627ad1146100fe578063fdad211f1461012e5761007d565b80633cfe7fa71461008257806346a865761461008c57806379df360a146100a8575b600080fd5b61008a610138565b005b6100a660048036038101906100a191906113cb565b61025d565b005b6100b06103f4565b6040516100bd919061142d565b60405180910390f35b6100e060048036038101906100db919061152e565b6104c5565b005b6100fc60048036038101906100f79190611658565b6105d4565b005b610118600480360381019061011391906116cd565b6109ca565b6040516101259190611b9e565b60405180910390f35b610136610e87565b005b600560009054906101000a900473ffffffffffffffffffffffffffffffffffffffff1673ffffffffffffffffffffffffffffffffffffffff163373ffffffffffffffffffffffffffffffffffffffff16146101c8576040517ff7251ccf0000000000000000000000000000000000000000000000000000000081526004016101bf90611c1d565b60405180910390fd5b6000546004600354815481106101e1576101e0611c3d565b5b906000526020600020906007020160020154141561022c5760015460046003548154811061021257610211611c3d565b5b90600052602060002090600702016002018190555061025b565b60025460046003548154811061024557610244611c3d565b5b9060005260206000209060070201600201819055505b565b600560009054906101000a900473ffffffffffffffffffffffffffffffffffffffff1673ffffffffffffffffffffffffffffffffffffffff163373ffffffffffffffffffffffffffffffffffffffff16146102ed576040517ff7251ccf0000000000000000000000000000000000000000000000000000000081526004016102e490611c1d565b60405180910390fd5b60006004805490501480610329575060025460046003548154811061031557610314611c3d565b5b906000526020600020906007020160020154145b61033257600080fd5b600060048054905014610358576003600081548092919061035290611c9b565b91905055505b60046001816001815401808255809150500390600052602060002090505060006004600160048054905061038c9190611ce4565b8154811061039d5761039c611c3d565b5b906000526020600020906007020190506003548160000181905550818160010190805190602001906103d0929190611028565b50600054816002018190555060008160030181905550600081600401819055505050565b6000600560009054906101000a900473ffffffffffffffffffffffffffffffffffffffff1673ffffffffffffffffffffffffffffffffffffffff163373ffffffffffffffffffffffffffffffffffffffff1614610486576040517ff7251ccf00000000000000000000000000000000000000000000000000000000815260040161047d90611c1d565b60405180910390fd5b60006004805490501161049857600080fd5b6004600354815481106104ae576104ad611c3d565b5b906000526020600020906007020160020154905090565b600560009054906101000a900473ffffffffffffffffffffffffffffffffffffffff1673ffffffffffffffffffffffffffffffffffffffff163373ffffffffffffffffffffffffffffffffffffffff1614610555576040517ff7251ccf00000000000000000000000000000000000000000000000000000000815260040161054c90611c1d565b60405180910390fd5b600060048054905014806105915750600060046003548154811061057c5761057b611c3d565b5b90600052602060002090600702016002015414155b156105d1576040517f5d2d8a4c0000000000000000000000000000000000000000000000000000000081526004016105c890611d64565b60405180910390fd5b50565b600560009054906101000a900473ffffffffffffffffffffffffffffffffffffffff1673ffffffffffffffffffffffffffffffffffffffff163373ffffffffffffffffffffffffffffffffffffffff1614610664576040517ff7251ccf00000000000000000000000000000000000000000000000000000000815260040161065b90611c1d565b60405180910390fd5b600060048054905014806106a05750600060046003548154811061068b5761068a611c3d565b5b90600052602060002090600702016002015414155b156106e0576040517f5d2d8a4c0000000000000000000000000000000000000000000000000000000081526004016106d790611d64565b60405180910390fd5b60005b81518110156109c657600060046003548154811061070457610703611c3d565b5b9060005260206000209060070201600501805490501461075c5760046003548154811061073457610733611c3d565b5b9060005260206000209060070201600301600081548092919061075690611c9b565b91905055505b60046003548154811061077257610771611c3d565b5b90600052602060002090600702016005016001816001815401808255809150500390600052602060002090505060006004600354815481106107b7576107b6611c3d565b5b906000526020600020906007020160050160016004600354815481106107e0576107df611c3d565b5b9060005260206000209060070201600501805490506107ff9190611ce4565b815481106108105761080f611c3d565b5b9060005260206000209060040201905060046003548154811061083657610835611c3d565b5b906000526020600020906007020160030154816000018190555082828151811061086357610862611c3d565b5b602002602001015160008151811061087e5761087d611c3d565b5b602002602001015181600101908051906020019061089d929190611028565b50600081600201819055506000600190505b8383815181106108c2576108c1611c3d565b5b6020026020010151518110156109b15760008260030180549050146108fc578160020160008154809291906108f690611c9b565b91905055505b816003016001816001815401808255809150500390600052602060002090505060008260030160018361092f9190611ce4565b815481106109405761093f611c3d565b5b9060005260206000209060030201905084848151811061096357610962611c3d565b5b6020026020010151828151811061097d5761097c611c3d565b5b602002602001015181600101908051906020019061099c929190611028565b505080806109a990611c9b565b9150506108af565b505080806109be90611c9b565b9150506106e3565b5050565b6109d26110ae565b600560009054906101000a900473ffffffffffffffffffffffffffffffffffffffff1673ffffffffffffffffffffffffffffffffffffffff163373ffffffffffffffffffffffffffffffffffffffff1614610a62576040517ff7251ccf000000000000000000000000000000000000000000000000000000008152600401610a5990611c1d565b60405180910390fd5b60008210158015610a77575060048054905082105b610a8057600080fd5b60048281548110610a9457610a93611c3d565b5b90600052602060002090600702016040518060e001604052908160008201548152602001600182018054610ac790611db3565b80601f0160208091040260200160405190810160405280929190818152602001828054610af390611db3565b8015610b405780601f10610b1557610100808354040283529160200191610b40565b820191906000526020600020905b815481529060010190602001808311610b2357829003601f168201915b5050505050815260200160028201548152602001600382015481526020016004820154815260200160058201805480602002602001604051908101604052809291908181526020016000905b82821015610d69578382906000526020600020906004020160405180608001604052908160008201548152602001600182018054610bc990611db3565b80601f0160208091040260200160405190810160405280929190818152602001828054610bf590611db3565b8015610c425780601f10610c1757610100808354040283529160200191610c42565b820191906000526020600020905b815481529060010190602001808311610c2557829003601f168201915b505050505081526020016002820154815260200160038201805480602002602001604051908101604052809291908181526020016000905b82821015610d52578382906000526020600020906003020160405180606001604052908160008201548152602001600182018054610cb790611db3565b80601f0160208091040260200160405190810160405280929190818152602001828054610ce390611db3565b8015610d305780601f10610d0557610100808354040283529160200191610d30565b820191906000526020600020905b815481529060010190602001808311610d1357829003601f168201915b5050505050815260200160028201548152505081526020019060010190610c7a565b505050508152505081526020019060010190610b8c565b50505050815260200160068201805480602002602001604051908101604052809291908181526020016000905b82821015610e78578382906000526020600020906004020160405180608001604052908160008201548152602001600182018054610dd390611db3565b80601f0160208091040260200160405190810160405280929190818152602001828054610dff90611db3565b8015610e4c5780601f10610e2157610100808354040283529160200191610e4c565b820191906000526020600020905b815481529060010190602001808311610e2f57829003601f168201915b505050505081526020016002820154815260200160038201548152505081526020019060010190610d96565b50505050815250509050919050565b600560009054906101000a900473ffffffffffffffffffffffffffffffffffffffff1673ffffffffffffffffffffffffffffffffffffffff163373ffffffffffffffffffffffffffffffffffffffff1614610f17576040517ff7251ccf000000000000000000000000000000000000000000000000000000008152600401610f0e90611c1d565b60405180910390fd5b60006004805490501480610f5357506000600460035481548110610f3e57610f3d611c3d565b5b90600052602060002090600702016002015414155b15610f93576040517f5d2d8a4c000000000000000000000000000000000000000000000000000000008152600401610f8a90611d64565b60405180910390fd5b6004805480610fa557610fa4611de5565b5b6001900381819060005260206000209060070201600080820160009055600182016000610fd291906110eb565b600282016000905560038201600090556004820160009055600582016000610ffa919061112b565b60068201600061100a919061114f565b505090556003600081548092919061102190611e14565b9190505550565b82805461103490611db3565b90600052602060002090601f016020900481019282611056576000855561109d565b82601f1061106f57805160ff191683800117855561109d565b8280016001018555821561109d579182015b8281111561109c578251825591602001919060010190611081565b5b5090506110aa9190611173565b5090565b6040518060e00160405280600081526020016060815260200160008152602001600081526020016000815260200160608152602001606081525090565b5080546110f790611db3565b6000825580601f106111095750611128565b601f0160209004906000526020600020908101906111279190611173565b5b50565b508054600082556004029060005260206000209081019061114c9190611190565b50565b508054600082556004029060005260206000209081019061117091906111d7565b50565b5b8082111561118c576000816000905550600101611174565b5090565b5b808211156111d3576000808201600090556001820160006111b291906110eb565b60028201600090556003820160006111ca9190611216565b50600401611191565b5090565b5b80821115611212576000808201600090556001820160006111f991906110eb565b60028201600090556003820160009055506004016111d8565b5090565b5080546000825560030290600052602060002090810190611237919061123a565b50565b5b8082111561126d5760008082016000905560018201600061125c91906110eb565b60028201600090555060030161123b565b5090565b6000604051905090565b600080fd5b600080fd5b600080fd5b600080fd5b6000601f19601f8301169050919050565b7f4e487b7100000000000000000000000000000000000000000000000000000000600052604160045260246000fd5b6112d88261128f565b810181811067ffffffffffffffff821117156112f7576112f66112a0565b5b80604052505050565b600061130a611271565b905061131682826112cf565b919050565b600067ffffffffffffffff821115611336576113356112a0565b5b61133f8261128f565b9050602081019050919050565b82818337600083830152505050565b600061136e6113698461131b565b611300565b90508281526020810184848401111561138a5761138961128a565b5b61139584828561134c565b509392505050565b600082601f8301126113b2576113b1611285565b5b81356113c284826020860161135b565b91505092915050565b6000602082840312156113e1576113e061127b565b5b600082013567ffffffffffffffff8111156113ff576113fe611280565b5b61140b8482850161139d565b91505092915050565b6000819050919050565b61142781611414565b82525050565b6000602082019050611442600083018461141e565b92915050565b600067ffffffffffffffff821115611463576114626112a0565b5b602082029050602081019050919050565b600080fd5b600061148c61148784611448565b611300565b905080838252602082019050602084028301858111156114af576114ae611474565b5b835b818110156114f657803567ffffffffffffffff8111156114d4576114d3611285565b5b8086016114e1898261139d565b855260208501945050506020810190506114b1565b5050509392505050565b600082601f83011261151557611514611285565b5b8135611525848260208601611479565b91505092915050565b6000602082840312156115445761154361127b565b5b600082013567ffffffffffffffff81111561156257611561611280565b5b61156e84828501611500565b91505092915050565b600067ffffffffffffffff821115611592576115916112a0565b5b602082029050602081019050919050565b60006115b66115b184611577565b611300565b905080838252602082019050602084028301858111156115d9576115d8611474565b5b835b8181101561162057803567ffffffffffffffff8111156115fe576115fd611285565b5b80860161160b8982611500565b855260208501945050506020810190506115db565b5050509392505050565b600082601f83011261163f5761163e611285565b5b813561164f8482602086016115a3565b91505092915050565b60006020828403121561166e5761166d61127b565b5b600082013567ffffffffffffffff81111561168c5761168b611280565b5b6116988482850161162a565b91505092915050565b6116aa81611414565b81146116b557600080fd5b50565b6000813590506116c7816116a1565b92915050565b6000602082840312156116e3576116e261127b565b5b60006116f1848285016116b8565b91505092915050565b61170381611414565b82525050565b600081519050919050565b600082825260208201905092915050565b60005b83811015611743578082015181840152602081019050611728565b83811115611752576000848401525b50505050565b600061176382611709565b61176d8185611714565b935061177d818560208601611725565b6117868161128f565b840191505092915050565b600081519050919050565b600082825260208201905092915050565b6000819050602082019050919050565b600081519050919050565b600082825260208201905092915050565b6000819050602082019050919050565b600060608301600083015161180160008601826116fa565b50602083015184820360208601526118198282611758565b915050604083015161182e60408601826116fa565b508091505092915050565b600061184583836117e9565b905092915050565b6000602082019050919050565b6000611865826117bd565b61186f81856117c8565b935083602082028501611881856117d9565b8060005b858110156118bd578484038952815161189e8582611839565b94506118a98361184d565b925060208a01995050600181019050611885565b50829750879550505050505092915050565b60006080830160008301516118e760008601826116fa565b50602083015184820360208601526118ff8282611758565b915050604083015161191460408601826116fa565b506060830151848203606086015261192c828261185a565b9150508091505092915050565b600061194583836118cf565b905092915050565b6000602082019050919050565b600061196582611791565b61196f818561179c565b935083602082028501611981856117ad565b8060005b858110156119bd578484038952815161199e8582611939565b94506119a98361194d565b925060208a01995050600181019050611985565b50829750879550505050505092915050565b600081519050919050565b600082825260208201905092915050565b6000819050602082019050919050565b6000608083016000830151611a1360008601826116fa565b5060208301518482036020860152611a2b8282611758565b9150506040830151611a4060408601826116fa565b506060830151611a5360608601826116fa565b508091505092915050565b6000611a6a83836119fb565b905092915050565b6000602082019050919050565b6000611a8a826119cf565b611a9481856119da565b935083602082028501611aa6856119eb565b8060005b85811015611ae25784840389528151611ac38582611a5e565b9450611ace83611a72565b925060208a01995050600181019050611aaa565b50829750879550505050505092915050565b600060e083016000830151611b0c60008601826116fa565b5060208301518482036020860152611b248282611758565b9150506040830151611b3960408601826116fa565b506060830151611b4c60608601826116fa565b506080830151611b5f60808601826116fa565b5060a083015184820360a0860152611b77828261195a565b91505060c083015184820360c0860152611b918282611a7f565b9150508091505092915050565b60006020820190508181036000830152611bb88184611af4565b905092915050565b600082825260208201905092915050565b7f4f6e6c79204f776e6572204d61792043616c6c2046756e6374696f6e00000000600082015250565b6000611c07601c83611bc0565b9150611c1282611bd1565b602082019050919050565b60006020820190508181036000830152611c3681611bfa565b9050919050565b7f4e487b7100000000000000000000000000000000000000000000000000000000600052603260045260246000fd5b7f4e487b7100000000000000000000000000000000000000000000000000000000600052601160045260246000fd5b6000611ca682611414565b91507fffffffffffffffffffffffffffffffffffffffffffffffffffffffffffffffff821415611cd957611cd8611c6c565b5b600182019050919050565b6000611cef82611414565b9150611cfa83611414565b925082821015611d0d57611d0c611c6c565b5b828203905092915050565b7f42616c6c6f74204d75737420426520436c6f7365640000000000000000000000600082015250565b6000611d4e601583611bc0565b9150611d5982611d18565b602082019050919050565b60006020820190508181036000830152611d7d81611d41565b9050919050565b7f4e487b7100000000000000000000000000000000000000000000000000000000600052602260045260246000fd5b60006002820490506001821680611dcb57607f821691505b60208210811415611ddf57611dde611d84565b5b50919050565b7f4e487b7100000000000000000000000000000000000000000000000000000000600052603160045260246000fd5b6000611e1f82611414565b91506000821415611e3357611e32611c6c565b5b60018203905091905056fea264697066735822122085bc9d92284b7b0a5a4efcc174826606b5deb2cbf6dbcddc6febcd90540d37eb64736f6c634300080b0033",
  "immutableReferences": {},
  "source": "// SPDX-License-Identifier: MIT\npragma solidity ^0.8.11;\n\nimport \"./VotingContract.sol\";\nimport \"./Strings.sol\";\n\ncontract Ballots {\n\tstruct Candidate {\n\t\tuint id;\n\t\tstring name;\n\t\tuint votes;\n\t}\n\n\tstruct Election {\n\t\tuint id;\n\t\tstring name;\n\t\tuint currentCandidateId;\n\t\tCandidate[] candidates;\n\t\t//mapping(address => bool) hasVoted;\n\t}\n\n\tstruct Issue {\n\t\tuint id;\n\t\tstring name;\n\t\tuint forVotes;\n\t\tuint againstVotes;\n\t\t//mapping(address => bool) hasVoted;\n\t}\n\n\tstruct Ballot {\n\t\tuint id;\n\t\tstring name;\n\t\tuint status;\n\t\tuint currentElectionId;\n\t\tuint currentIssueId;\n\t\tElection[] elections;\n\t\tIssue[] issues;\n\t}\n\n\t/// @notice State of ballot variables for Ballot.status\n\tuint CLOSED = 0;\n\tuint OPEN = 1;\n\tuint COMPLETE = 2;\n\n    /// @notice Current Ballot ID\n\tuint currentBallotId;\n    \n    /// @notice List of ballots\n\tBallot[] ballotsList;\n\n\t/// @notice Owner of contract\n    VotingContract owner;\n\n    constructor() {\n        owner = VotingContract(msg.sender);\n    }\n\n\terror NotOwner(string message);\n\terror BallotNotClosed(string message);\n\n    modifier onlyOwner() {\n\t\tif (msg.sender != address(owner)) {\n\t\t\trevert NotOwner(\"Only Owner May Call Function\");\n\t\t}\n\t\t_;\n\t}\n\n\tmodifier ballotClosed() {\n\t\tif (ballotsList.length == 0 || ballotsList[currentBallotId].status != 0) {\n\t\t\trevert BallotNotClosed(\"Ballot Must Be Closed\");\n\t\t}\n\t\t_;\n\t}\n\n\n\n\t// ==============================================================\n\n\t// Functions ====================================================\n\n\t// ==============================================================\n\n\n\n\t// Info Functions ===============================================\n\t\n\t// Get current ballot status\n\tfunction getCurrentBallotStatus() external view onlyOwner returns (uint) {\n\t\trequire(ballotsList.length > 0);\n\t\treturn ballotsList[currentBallotId].status;\n\t}\n\n\t// Get current ballot info\n\n\t// List all ballot ids and names\n\n\t// Get ballot info by id\n\tfunction getBallotById(uint _id) external view onlyOwner returns (Ballot memory) {\n\t\trequire (_id >= 0 && _id < ballotsList.length);\n\t\treturn ballotsList[_id];\n\t} \n\n\t// ==============================================================\n\n\n\n\t// Admin Ballot Functions =======================================\n\n\t// Create ballot\n\tfunction createBallot(string memory _name) external onlyOwner {\n\t\trequire(ballotsList.length == 0 || ballotsList[currentBallotId].status == COMPLETE);\n\t\tif(ballotsList.length != 0) { currentBallotId++; }\n\t\tballotsList.push();\n\t\tBallot storage newBallot = ballotsList[ballotsList.length - 1];\n\n\t\tnewBallot.id = currentBallotId;\n\t\tnewBallot.name = _name;\n\t\tnewBallot.status = CLOSED;\n\t\tnewBallot.currentElectionId = 0;\n\t\tnewBallot.currentIssueId = 0;\n\t}\n\n\t// Delete ballot\n\tfunction deleteBallot() external onlyOwner ballotClosed {\n\t\tballotsList.pop();\n\t\tcurrentBallotId--;\n\t}\n\n\t// Open ballot, close ballot\n\tfunction openCloseBallot() external onlyOwner {\n\t\tif(ballotsList[currentBallotId].status == CLOSED) {\n\t\t\tballotsList[currentBallotId].status = OPEN;\n\t\t} else {\n\t\t\tballotsList[currentBallotId].status = COMPLETE;\n\t\t}\n\t}\n\n\t// ==============================================================\n\n\n\n\t// Admin Election Functions =====================================\n\n\t// Add election\n\tfunction addElections(string[][] memory elections) external onlyOwner ballotClosed {\n\t\tfor (uint i = 0; i < elections.length; i++) {\n\t\t\tif (ballotsList[currentBallotId].elections.length != 0) { ballotsList[currentBallotId].currentElectionId++; }\n\t\t\tballotsList[currentBallotId].elections.push();\n\t\t\tElection storage newElection = ballotsList[currentBallotId].elections[ballotsList[currentBallotId].elections.length - 1];\n\t\t\t\n\t\t\tnewElection.id = ballotsList[currentBallotId].currentElectionId;\n\t\t\tnewElection.name = elections[i][0];\n\t\t\tnewElection.currentCandidateId = 0;\n\n\t\t\tfor (uint c = 1; c < elections[i].length; c++) {\n\t\t\t\tif (newElection.candidates.length != 0) { newElection.currentCandidateId++; }\n\t\t\t\tnewElection.candidates.push();\n\t\t\t\tCandidate storage newCandidate = newElection.candidates[c - 1];\n\t\t\t\tnewCandidate.name = elections[i][c];\n\t\t\t}\n\t\t}\n\t}\n\n\t// ==============================================================\n\n\n\n\t// Admin Issue Functions ========================================\n\n\t// Add issues\n\tfunction addIssues(string[] memory issues) external onlyOwner ballotClosed {\n\t\t\n\t}\n\n\t// ==============================================================\n\n\n\n\t// Voter Functions ==============================================\n\n\t// Vote status\n\n\t// Vote for issue\n\n\t// Vote for election\n\n\t// Vote for all\n\n\t// ==============================================================\n\n\n\n\t// Other Functions ==============================================\n\n\t// ==============================================================\n\n\n\n}\n",
  "sourcePath": "/Users/hubertkdayssi/Documents/CS_Projects/voting_app/contracts/Ballots.sol",
  "compiler": {
    "name": "solc",
    "version": "0.8.11+commit.d7f03943.Emscripten.clang"
  },
  "schemaVersion": "3.4.5",
  "updatedAt": "2022-02-23T12:27:11.207Z",
  "devdoc": {
    "kind": "dev",
    "methods": {},
    "version": 1
  },
  "userdoc": {
    "kind": "user",
    "methods": {},
    "version": 1
  }
}