{
  "contractName": "Voters",
  "abi": [
    {
      "inputs": [],
      "stateMutability": "nonpayable",
      "type": "constructor"
    },
    {
      "inputs": [
        {
          "internalType": "string",
          "name": "message",
          "type": "string"
        }
      ],
      "name": "NotOwner",
      "type": "error"
    },
    {
      "inputs": [
        {
          "internalType": "address",
          "name": "",
          "type": "address"
        }
      ],
      "name": "voterRoll",
      "outputs": [
        {
          "internalType": "address",
          "name": "voterAddress",
          "type": "address"
        },
        {
          "internalType": "bool",
          "name": "hasVoted",
          "type": "bool"
        }
      ],
      "stateMutability": "view",
      "type": "function"
    },
    {
      "inputs": [],
      "name": "getVoterCount",
      "outputs": [
        {
          "internalType": "uint256",
          "name": "",
          "type": "uint256"
        }
      ],
      "stateMutability": "view",
      "type": "function"
    },
    {
      "inputs": [
        {
          "internalType": "address",
          "name": "_voterAddress",
          "type": "address"
        }
      ],
      "name": "isVoter",
      "outputs": [
        {
          "internalType": "bool",
          "name": "",
          "type": "bool"
        }
      ],
      "stateMutability": "view",
      "type": "function"
    },
    {
      "inputs": [
        {
          "internalType": "address",
          "name": "_voterAddress",
          "type": "address"
        }
      ],
      "name": "hasVoterVoted",
      "outputs": [
        {
          "internalType": "bool",
          "name": "",
          "type": "bool"
        }
      ],
      "stateMutability": "view",
      "type": "function"
    },
    {
      "inputs": [
        {
          "internalType": "address",
          "name": "_voterAddress",
          "type": "address"
        }
      ],
      "name": "addVoter",
      "outputs": [],
      "stateMutability": "nonpayable",
      "type": "function"
    },
    {
      "inputs": [
        {
          "internalType": "address[]",
          "name": "voterAddresses",
          "type": "address[]"
        }
      ],
      "name": "addMultipleVoters",
      "outputs": [],
      "stateMutability": "nonpayable",
      "type": "function"
    },
    {
      "inputs": [
        {
          "internalType": "address",
          "name": "_voterAddress",
          "type": "address"
        }
      ],
      "name": "removeVoter",
      "outputs": [],
      "stateMutability": "nonpayable",
      "type": "function"
    },
    {
      "inputs": [
        {
          "internalType": "address[]",
          "name": "voterAddresses",
          "type": "address[]"
        }
      ],
      "name": "removeMultipleVoters",
      "outputs": [],
      "stateMutability": "nonpayable",
      "type": "function"
    },
    {
      "inputs": [
        {
          "internalType": "address",
          "name": "_voterAddress",
          "type": "address"
        }
      ],
      "name": "updateHasVoted",
      "outputs": [],
      "stateMutability": "nonpayable",
      "type": "function"
    }
  ],
  "bytecode": "0x608060405234801561001057600080fd5b5033600260006101000a81548173ffffffffffffffffffffffffffffffffffffffff021916908373ffffffffffffffffffffffffffffffffffffffff160217905550610f56806100616000396000f3fe608060405234801561001057600080fd5b50600436106100935760003560e01c806386c1ff681161006657806386c1ff681461011f578063a7771ee31461013b578063da62a6b41461016b578063f4ab9adf14610187578063fd11f97a146101a357610093565b806311174a291461009857806327736f85146100b6578063385704d6146100e757806386758e5414610103575b600080fd5b6100a06101d3565b6040516100ad9190610aa8565b60405180910390f35b6100d060048036038101906100cb9190610b35565b6101dc565b6040516100de929190610b8c565b60405180910390f35b61010160048036038101906100fc9190610d0e565b61022d565b005b61011d60048036038101906101189190610d0e565b610406565b005b61013960048036038101906101349190610b35565b610565565b005b61015560048036038101906101509190610b35565b61068a565b6040516101629190610d57565b60405180910390f35b61018560048036038101906101809190610b35565b610734565b005b6101a1600480360381019061019c9190610b35565b610821565b005b6101bd60048036038101906101b89190610b35565b6109a6565b6040516101ca9190610d57565b60405180910390f35b60008054905090565b60016020528060005260406000206000915090508060000160009054906101000a900473ffffffffffffffffffffffffffffffffffffffff16908060000160149054906101000a900460ff16905082565b600260009054906101000a900473ffffffffffffffffffffffffffffffffffffffff1673ffffffffffffffffffffffffffffffffffffffff163373ffffffffffffffffffffffffffffffffffffffff16146102bd576040517ff7251ccf0000000000000000000000000000000000000000000000000000000081526004016102b490610dcf565b60405180910390fd5b60005b815181101561040257600060405180604001604052808484815181106102e9576102e8610def565b5b602002602001015173ffffffffffffffffffffffffffffffffffffffff168152602001600015158152509050806001600085858151811061032d5761032c610def565b5b602002602001015173ffffffffffffffffffffffffffffffffffffffff1673ffffffffffffffffffffffffffffffffffffffff16815260200190815260200160002060008201518160000160006101000a81548173ffffffffffffffffffffffffffffffffffffffff021916908373ffffffffffffffffffffffffffffffffffffffff16021790555060208201518160000160146101000a81548160ff02191690831515021790555090505060016000546103e89190610e4d565b6000819055505080806103fa90610ea3565b9150506102c0565b5050565b600260009054906101000a900473ffffffffffffffffffffffffffffffffffffffff1673ffffffffffffffffffffffffffffffffffffffff163373ffffffffffffffffffffffffffffffffffffffff1614610496576040517ff7251ccf00000000000000000000000000000000000000000000000000000000815260040161048d90610dcf565b60405180910390fd5b60005b815181101561056157600160008383815181106104b9576104b8610def565b5b602002602001015173ffffffffffffffffffffffffffffffffffffffff1673ffffffffffffffffffffffffffffffffffffffff168152602001908152602001600020600080820160006101000a81549073ffffffffffffffffffffffffffffffffffffffff02191690556000820160146101000a81549060ff0219169055505060016000546105489190610eec565b600081905550808061055990610ea3565b915050610499565b5050565b600260009054906101000a900473ffffffffffffffffffffffffffffffffffffffff1673ffffffffffffffffffffffffffffffffffffffff163373ffffffffffffffffffffffffffffffffffffffff16146105f5576040517ff7251ccf0000000000000000000000000000000000000000000000000000000081526004016105ec90610dcf565b60405180910390fd5b600160008273ffffffffffffffffffffffffffffffffffffffff1673ffffffffffffffffffffffffffffffffffffffff168152602001908152602001600020600080820160006101000a81549073ffffffffffffffffffffffffffffffffffffffff02191690556000820160146101000a81549060ff0219169055505060016000546106819190610eec565b60008190555050565b60008073ffffffffffffffffffffffffffffffffffffffff16600160008473ffffffffffffffffffffffffffffffffffffffff1673ffffffffffffffffffffffffffffffffffffffff16815260200190815260200160002060000160009054906101000a900473ffffffffffffffffffffffffffffffffffffffff1673ffffffffffffffffffffffffffffffffffffffff161461072a576001905061072f565b600090505b919050565b600260009054906101000a900473ffffffffffffffffffffffffffffffffffffffff1673ffffffffffffffffffffffffffffffffffffffff163373ffffffffffffffffffffffffffffffffffffffff16146107c4576040517ff7251ccf0000000000000000000000000000000000000000000000000000000081526004016107bb90610dcf565b60405180910390fd5b60018060008373ffffffffffffffffffffffffffffffffffffffff1673ffffffffffffffffffffffffffffffffffffffff16815260200190815260200160002060000160146101000a81548160ff02191690831515021790555050565b600260009054906101000a900473ffffffffffffffffffffffffffffffffffffffff1673ffffffffffffffffffffffffffffffffffffffff163373ffffffffffffffffffffffffffffffffffffffff16146108b1576040517ff7251ccf0000000000000000000000000000000000000000000000000000000081526004016108a890610dcf565b60405180910390fd5b600060405180604001604052808373ffffffffffffffffffffffffffffffffffffffff16815260200160001515815250905080600160008473ffffffffffffffffffffffffffffffffffffffff1673ffffffffffffffffffffffffffffffffffffffff16815260200190815260200160002060008201518160000160006101000a81548173ffffffffffffffffffffffffffffffffffffffff021916908373ffffffffffffffffffffffffffffffffffffffff16021790555060208201518160000160146101000a81548160ff021916908315150217905550905050600160005461099c9190610e4d565b6000819055505050565b6000600260009054906101000a900473ffffffffffffffffffffffffffffffffffffffff1673ffffffffffffffffffffffffffffffffffffffff163373ffffffffffffffffffffffffffffffffffffffff1614610a38576040517ff7251ccf000000000000000000000000000000000000000000000000000000008152600401610a2f90610dcf565b60405180910390fd5b600160008373ffffffffffffffffffffffffffffffffffffffff1673ffffffffffffffffffffffffffffffffffffffff16815260200190815260200160002060000160149054906101000a900460ff169050919050565b6000819050919050565b610aa281610a8f565b82525050565b6000602082019050610abd6000830184610a99565b92915050565b6000604051905090565b600080fd5b600080fd5b600073ffffffffffffffffffffffffffffffffffffffff82169050919050565b6000610b0282610ad7565b9050919050565b610b1281610af7565b8114610b1d57600080fd5b50565b600081359050610b2f81610b09565b92915050565b600060208284031215610b4b57610b4a610acd565b5b6000610b5984828501610b20565b91505092915050565b610b6b81610af7565b82525050565b60008115159050919050565b610b8681610b71565b82525050565b6000604082019050610ba16000830185610b62565b610bae6020830184610b7d565b9392505050565b600080fd5b6000601f19601f8301169050919050565b7f4e487b7100000000000000000000000000000000000000000000000000000000600052604160045260246000fd5b610c0382610bba565b810181811067ffffffffffffffff82111715610c2257610c21610bcb565b5b80604052505050565b6000610c35610ac3565b9050610c418282610bfa565b919050565b600067ffffffffffffffff821115610c6157610c60610bcb565b5b602082029050602081019050919050565b600080fd5b6000610c8a610c8584610c46565b610c2b565b90508083825260208201905060208402830185811115610cad57610cac610c72565b5b835b81811015610cd65780610cc28882610b20565b845260208401935050602081019050610caf565b5050509392505050565b600082601f830112610cf557610cf4610bb5565b5b8135610d05848260208601610c77565b91505092915050565b600060208284031215610d2457610d23610acd565b5b600082013567ffffffffffffffff811115610d4257610d41610ad2565b5b610d4e84828501610ce0565b91505092915050565b6000602082019050610d6c6000830184610b7d565b92915050565b600082825260208201905092915050565b7f4f6e6c79204f776e6572204d61792043616c6c2046756e6374696f6e00000000600082015250565b6000610db9601c83610d72565b9150610dc482610d83565b602082019050919050565b60006020820190508181036000830152610de881610dac565b9050919050565b7f4e487b7100000000000000000000000000000000000000000000000000000000600052603260045260246000fd5b7f4e487b7100000000000000000000000000000000000000000000000000000000600052601160045260246000fd5b6000610e5882610a8f565b9150610e6383610a8f565b9250827fffffffffffffffffffffffffffffffffffffffffffffffffffffffffffffffff03821115610e9857610e97610e1e565b5b828201905092915050565b6000610eae82610a8f565b91507fffffffffffffffffffffffffffffffffffffffffffffffffffffffffffffffff821415610ee157610ee0610e1e565b5b600182019050919050565b6000610ef782610a8f565b9150610f0283610a8f565b925082821015610f1557610f14610e1e565b5b82820390509291505056fea26469706673582212209becb88941678a38d6212b17463252e15d377b56d971ed7f1d2ec631c9dafdc364736f6c634300080b0033",
  "immutableReferences": {},
  "source": "// SPDX-License-Identifier: MIT\npragma solidity ^0.8.11;\n\nimport \"./VotingContract.sol\";\n\ncontract Voters {\n    struct Voter {\n\t\t/// @notice Address of registered voter\n\t\taddress voterAddress;\n\t\tbool hasVoted;\n\t}\n\n    /// @notice Total number of registered voters\n\tuint voterCount;\n\n    /// @notice Voting roll of all registered voters\n\tmapping(address => Voter) public voterRoll;\n\n\t/// @notice Owner of contract\n    VotingContract owner;\n\n    constructor() {\n        owner = VotingContract(msg.sender);\n    }\n\n    error NotOwner(string message);\n\n    modifier onlyOwner() {\n\t\tif (msg.sender != address(owner)) {\n\t\t\trevert NotOwner(\"Only Owner May Call Function\");\n\t\t}\n\t\t_;\n\t}\n\n\n\n    /// @notice Gets the total voter count in voter roll\n\t/// @return Total voter count\n    function getVoterCount() external view returns (uint) {\n        return voterCount;\n    }\n\n    /// @notice Returns a boolean for whether or not given address is in voter roll\n\t/// @return True or false if voter address is valid\n    function isVoter(address _voterAddress) external view returns (bool) {\n        if (voterRoll[_voterAddress].voterAddress != address(0x0)) {\n            return true;\n        } else {\n            return false;\n        }\n    }\n\n\tfunction hasVoterVoted(address _voterAddress) external view onlyOwner returns (bool) {\n\t\treturn voterRoll[_voterAddress].hasVoted;\n\t}\n\n\n\n    /// @notice Adds voter to voting roll & increases total voter count\n\t/// @param _voterAddress Address of voter to add to voter roll\n\tfunction addVoter(address _voterAddress) external onlyOwner {\n\t\tVoter memory newVoter = Voter(_voterAddress, false);\n\t\tvoterRoll[_voterAddress] = newVoter;\n\t\tvoterCount = voterCount + 1;\n\t}\n\n\t/// @notice Adds multiple voters to voting roll & increases total voter count\n\t/// @param voterAddresses Addresses of voters to add to voter roll\n\tfunction addMultipleVoters(address[] memory voterAddresses) external onlyOwner {\n\t\tfor (uint i = 0; i < voterAddresses.length; i++) {\n\t\t\tVoter memory newVoter = Voter(voterAddresses[i], false);\n\t\t\tvoterRoll[voterAddresses[i]] = newVoter;\n\t\t\tvoterCount = voterCount + 1;\n\t\t}\n\t}\n\n\t/// @notice Removes voter from voting roll & reduces total voter count\n\t/// @param _voterAddress Address of voter to remove from voter roll\n\tfunction removeVoter(address _voterAddress) external onlyOwner {\n\t\tdelete voterRoll[_voterAddress];\n\t\tvoterCount = voterCount - 1;\n\t}\n\n\t/// @notice Removes multiple voters from voting roll & reduces total voter count\n\t/// @param voterAddresses Addresses of voters to remove from voter roll\n\tfunction removeMultipleVoters(address[] memory voterAddresses) external onlyOwner {\n\t\tfor (uint i = 0; i < voterAddresses.length; i++) {\n\t\t\tdelete voterRoll[voterAddresses[i]];\n\t\t\tvoterCount = voterCount - 1;\n\t\t}\n\t}\n\n\tfunction updateHasVoted(address _voterAddress) external onlyOwner {\n\t\tvoterRoll[_voterAddress].hasVoted = true;\n\t}\n\n}\n",
  "sourcePath": "/Users/hubertkdayssi/Documents/CS_Projects/voting_app/contracts/Voters.sol",
  "compiler": {
    "name": "solc",
    "version": "0.8.11+commit.d7f03943.Emscripten.clang"
  },
  "schemaVersion": "3.4.5",
  "updatedAt": "2022-02-23T17:46:49.322Z",
  "devdoc": {
    "kind": "dev",
    "methods": {
      "addMultipleVoters(address[])": {
        "params": {
          "voterAddresses": "Addresses of voters to add to voter roll"
        }
      },
      "addVoter(address)": {
        "params": {
          "_voterAddress": "Address of voter to add to voter roll"
        }
      },
      "getVoterCount()": {
        "returns": {
          "_0": "Total voter count"
        }
      },
      "isVoter(address)": {
        "returns": {
          "_0": "True or false if voter address is valid"
        }
      },
      "removeMultipleVoters(address[])": {
        "params": {
          "voterAddresses": "Addresses of voters to remove from voter roll"
        }
      },
      "removeVoter(address)": {
        "params": {
          "_voterAddress": "Address of voter to remove from voter roll"
        }
      }
    },
    "version": 1
  },
  "userdoc": {
    "kind": "user",
    "methods": {
      "addMultipleVoters(address[])": {
        "notice": "Adds multiple voters to voting roll & increases total voter count"
      },
      "addVoter(address)": {
        "notice": "Adds voter to voting roll & increases total voter count"
      },
      "getVoterCount()": {
        "notice": "Gets the total voter count in voter roll"
      },
      "isVoter(address)": {
        "notice": "Returns a boolean for whether or not given address is in voter roll"
      },
      "removeMultipleVoters(address[])": {
        "notice": "Removes multiple voters from voting roll & reduces total voter count"
      },
      "removeVoter(address)": {
        "notice": "Removes voter from voting roll & reduces total voter count"
      },
      "voterRoll(address)": {
        "notice": "Voting roll of all registered voters"
      }
    },
    "version": 1
  }
}