{
  "contractName": "VoterStorage",
  "abi": [
    {
      "inputs": [
        {
          "internalType": "address",
          "name": "",
          "type": "address"
        }
      ],
      "name": "voterRoll",
      "outputs": [
        {
          "internalType": "address",
          "name": "voterAddress",
          "type": "address"
        }
      ],
      "stateMutability": "view",
      "type": "function"
    }
  ],
  "bytecode": "0x608060405234801561001057600080fd5b5061018e806100206000396000f3fe608060405234801561001057600080fd5b506004361061002b5760003560e01c806327736f8514610030575b600080fd5b61004a60048036038101906100459190610101565b610060565b604051610057919061013d565b60405180910390f35b60016020528060005260406000206000915090508060000160009054906101000a900473ffffffffffffffffffffffffffffffffffffffff16905081565b600080fd5b600073ffffffffffffffffffffffffffffffffffffffff82169050919050565b60006100ce826100a3565b9050919050565b6100de816100c3565b81146100e957600080fd5b50565b6000813590506100fb816100d5565b92915050565b6000602082840312156101175761011661009e565b5b6000610125848285016100ec565b91505092915050565b610137816100c3565b82525050565b6000602082019050610152600083018461012e565b9291505056fea26469706673582212203f782ca65f5e39b1caee242e5a2c412338e655095cceeb5f4eac6c8725c31d3464736f6c634300080b0033",
  "immutableReferences": {},
  "source": "// SPDX-License-Identifier: MIT\npragma solidity ^0.8.11;\n\n//import \"./VotingContract.sol\";\n\ncontract VoterStorage {\n    struct Voter {\n\t\t/// @notice Address of registered voter\n\t\taddress voterAddress;\n\t}\n\n\tstruct VoteRecord {\n\t\tuint ballotId;\n\t\tmapping(address => bool) hasVoted;\n\t}\n\n    /// @notice Total number of registered voters\n\tuint voterCount;\n\n    /// @notice Voting roll of all registered voters\n\tmapping(address => Voter) public voterRoll;\n\n\tVoteRecord[] voteRecordList;\n\n}\n",
  "sourcePath": "/Users/hubertkdayssi/Documents/CS_Projects/voting_app/contracts/VoterStorage.sol",
  "compiler": {
    "name": "solc",
    "version": "0.8.11+commit.d7f03943.Emscripten.clang"
  },
  "schemaVersion": "3.4.5",
  "updatedAt": "2022-02-23T21:32:18.593Z",
  "devdoc": {
    "kind": "dev",
    "methods": {},
    "version": 1
  },
  "userdoc": {
    "kind": "user",
    "methods": {
      "voterRoll(address)": {
        "notice": "Voting roll of all registered voters"
      }
    },
    "version": 1
  }
}