{
  "contractName": "Voters",
  "abi": [
    {
      "inputs": [],
      "stateMutability": "nonpayable",
      "type": "constructor"
    },
    {
      "inputs": [
        {
          "internalType": "string",
          "name": "message",
          "type": "string"
        }
      ],
      "name": "NotOwner",
      "type": "error"
    },
    {
      "inputs": [
        {
          "internalType": "address",
          "name": "",
          "type": "address"
        }
      ],
      "name": "voterRoll",
      "outputs": [
        {
          "internalType": "address",
          "name": "voterAddress",
          "type": "address"
        }
      ],
      "stateMutability": "view",
      "type": "function"
    },
    {
      "inputs": [],
      "name": "getVoterCount",
      "outputs": [
        {
          "internalType": "uint256",
          "name": "",
          "type": "uint256"
        }
      ],
      "stateMutability": "view",
      "type": "function"
    },
    {
      "inputs": [
        {
          "internalType": "address",
          "name": "voterAddress",
          "type": "address"
        }
      ],
      "name": "isVoter",
      "outputs": [
        {
          "internalType": "bool",
          "name": "",
          "type": "bool"
        }
      ],
      "stateMutability": "view",
      "type": "function"
    },
    {
      "inputs": [
        {
          "internalType": "address",
          "name": "voterAddress",
          "type": "address"
        }
      ],
      "name": "addVoter",
      "outputs": [],
      "stateMutability": "nonpayable",
      "type": "function"
    },
    {
      "inputs": [
        {
          "internalType": "address[]",
          "name": "voterAddresses",
          "type": "address[]"
        }
      ],
      "name": "addMultipleVoters",
      "outputs": [],
      "stateMutability": "nonpayable",
      "type": "function"
    },
    {
      "inputs": [
        {
          "internalType": "address",
          "name": "voterAddress",
          "type": "address"
        }
      ],
      "name": "removeVoter",
      "outputs": [],
      "stateMutability": "nonpayable",
      "type": "function"
    },
    {
      "inputs": [
        {
          "internalType": "address[]",
          "name": "voterAddresses",
          "type": "address[]"
        }
      ],
      "name": "removeMultipleVoters",
      "outputs": [],
      "stateMutability": "nonpayable",
      "type": "function"
    }
  ],
  "bytecode": "0x608060405234801561001057600080fd5b5033600260006101000a81548173ffffffffffffffffffffffffffffffffffffffff021916908373ffffffffffffffffffffffffffffffffffffffff160217905550610c82806100616000396000f3fe608060405234801561001057600080fd5b506004361061007d5760003560e01c806386758e541161005b57806386758e54146100ec57806386c1ff6814610108578063a7771ee314610124578063f4ab9adf146101545761007d565b806311174a291461008257806327736f85146100a0578063385704d6146100d0575b600080fd5b61008a610170565b60405161009791906107e2565b60405180910390f35b6100ba60048036038101906100b5919061086f565b610179565b6040516100c791906108ab565b60405180910390f35b6100ea60048036038101906100e59190610a1f565b6101b7565b005b61010660048036038101906101019190610a1f565b610367565b005b610122600480360381019061011d919061086f565b6104b2565b005b61013e6004803603810190610139919061086f565b6105c3565b60405161014b9190610a83565b60405180910390f35b61016e6004803603810190610169919061086f565b61066d565b005b60008054905090565b60016020528060005260406000206000915090508060000160009054906101000a900473ffffffffffffffffffffffffffffffffffffffff16905081565b600260009054906101000a900473ffffffffffffffffffffffffffffffffffffffff1673ffffffffffffffffffffffffffffffffffffffff163373ffffffffffffffffffffffffffffffffffffffff1614610247576040517ff7251ccf00000000000000000000000000000000000000000000000000000000815260040161023e90610afb565b60405180910390fd5b60005b8151811015610363576000604051806020016040528084848151811061027357610272610b1b565b5b602002602001015173ffffffffffffffffffffffffffffffffffffffff16815250905080600160008585815181106102ae576102ad610b1b565b5b602002602001015173ffffffffffffffffffffffffffffffffffffffff1673ffffffffffffffffffffffffffffffffffffffff16815260200190815260200160002060008201518160000160006101000a81548173ffffffffffffffffffffffffffffffffffffffff021916908373ffffffffffffffffffffffffffffffffffffffff16021790555090505060016000546103499190610b79565b60008190555050808061035b90610bcf565b91505061024a565b5050565b600260009054906101000a900473ffffffffffffffffffffffffffffffffffffffff1673ffffffffffffffffffffffffffffffffffffffff163373ffffffffffffffffffffffffffffffffffffffff16146103f7576040517ff7251ccf0000000000000000000000000000000000000000000000000000000081526004016103ee90610afb565b60405180910390fd5b60005b81518110156104ae576001600083838151811061041a57610419610b1b565b5b602002602001015173ffffffffffffffffffffffffffffffffffffffff1673ffffffffffffffffffffffffffffffffffffffff168152602001908152602001600020600080820160006101000a81549073ffffffffffffffffffffffffffffffffffffffff0219169055505060016000546104959190610c18565b60008190555080806104a690610bcf565b9150506103fa565b5050565b600260009054906101000a900473ffffffffffffffffffffffffffffffffffffffff1673ffffffffffffffffffffffffffffffffffffffff163373ffffffffffffffffffffffffffffffffffffffff1614610542576040517ff7251ccf00000000000000000000000000000000000000000000000000000000815260040161053990610afb565b60405180910390fd5b600160008273ffffffffffffffffffffffffffffffffffffffff1673ffffffffffffffffffffffffffffffffffffffff168152602001908152602001600020600080820160006101000a81549073ffffffffffffffffffffffffffffffffffffffff0219169055505060016000546105ba9190610c18565b60008190555050565b60008073ffffffffffffffffffffffffffffffffffffffff16600160008473ffffffffffffffffffffffffffffffffffffffff1673ffffffffffffffffffffffffffffffffffffffff16815260200190815260200160002060000160009054906101000a900473ffffffffffffffffffffffffffffffffffffffff1673ffffffffffffffffffffffffffffffffffffffff16146106635760019050610668565b600090505b919050565b600260009054906101000a900473ffffffffffffffffffffffffffffffffffffffff1673ffffffffffffffffffffffffffffffffffffffff163373ffffffffffffffffffffffffffffffffffffffff16146106fd576040517ff7251ccf0000000000000000000000000000000000000000000000000000000081526004016106f490610afb565b60405180910390fd5b600060405180602001604052808373ffffffffffffffffffffffffffffffffffffffff16815250905080600160008473ffffffffffffffffffffffffffffffffffffffff1673ffffffffffffffffffffffffffffffffffffffff16815260200190815260200160002060008201518160000160006101000a81548173ffffffffffffffffffffffffffffffffffffffff021916908373ffffffffffffffffffffffffffffffffffffffff16021790555090505060016000546107bf9190610b79565b6000819055505050565b6000819050919050565b6107dc816107c9565b82525050565b60006020820190506107f760008301846107d3565b92915050565b6000604051905090565b600080fd5b600080fd5b600073ffffffffffffffffffffffffffffffffffffffff82169050919050565b600061083c82610811565b9050919050565b61084c81610831565b811461085757600080fd5b50565b60008135905061086981610843565b92915050565b60006020828403121561088557610884610807565b5b60006108938482850161085a565b91505092915050565b6108a581610831565b82525050565b60006020820190506108c0600083018461089c565b92915050565b600080fd5b6000601f19601f8301169050919050565b7f4e487b7100000000000000000000000000000000000000000000000000000000600052604160045260246000fd5b610914826108cb565b810181811067ffffffffffffffff82111715610933576109326108dc565b5b80604052505050565b60006109466107fd565b9050610952828261090b565b919050565b600067ffffffffffffffff821115610972576109716108dc565b5b602082029050602081019050919050565b600080fd5b600061099b61099684610957565b61093c565b905080838252602082019050602084028301858111156109be576109bd610983565b5b835b818110156109e757806109d3888261085a565b8452602084019350506020810190506109c0565b5050509392505050565b600082601f830112610a0657610a056108c6565b5b8135610a16848260208601610988565b91505092915050565b600060208284031215610a3557610a34610807565b5b600082013567ffffffffffffffff811115610a5357610a5261080c565b5b610a5f848285016109f1565b91505092915050565b60008115159050919050565b610a7d81610a68565b82525050565b6000602082019050610a986000830184610a74565b92915050565b600082825260208201905092915050565b7f4f6e6c79204f776e6572204d61792043616c6c2046756e6374696f6e00000000600082015250565b6000610ae5601c83610a9e565b9150610af082610aaf565b602082019050919050565b60006020820190508181036000830152610b1481610ad8565b9050919050565b7f4e487b7100000000000000000000000000000000000000000000000000000000600052603260045260246000fd5b7f4e487b7100000000000000000000000000000000000000000000000000000000600052601160045260246000fd5b6000610b84826107c9565b9150610b8f836107c9565b9250827fffffffffffffffffffffffffffffffffffffffffffffffffffffffffffffffff03821115610bc457610bc3610b4a565b5b828201905092915050565b6000610bda826107c9565b91507fffffffffffffffffffffffffffffffffffffffffffffffffffffffffffffffff821415610c0d57610c0c610b4a565b5b600182019050919050565b6000610c23826107c9565b9150610c2e836107c9565b925082821015610c4157610c40610b4a565b5b82820390509291505056fea2646970667358221220230884dbd0eeec2746857270bbe4d4c2064a124056f9fa81a5a6779a3f0bec6264736f6c634300080b0033",
  "immutableReferences": {},
  "source": "// SPDX-License-Identifier: MIT\npragma solidity ^0.8.11;\n\nimport \"./VotingContract.sol\";\n\ncontract Voters {\n    struct Voter {\n\t\t/// @notice Address of registered voter\n\t\taddress voterAddress;\n\t}\n\n    /// @notice Total number of registered voters\n\tuint voterCount;\n\n    /// @notice Voting roll of all registered voters\n\tmapping(address => Voter) public voterRoll;\n\n\t/// @notice Owner of contract\n    VotingContract owner;\n\n    constructor() {\n        owner = VotingContract(msg.sender);\n    }\n\n    error NotOwner(string message);\n\n    modifier onlyOwner() {\n\t\tif (msg.sender != address(owner)) {\n\t\t\trevert NotOwner(\"Only Owner May Call Function\");\n\t\t}\n\t\t_;\n\t}\n\n\n\n    /// @notice Gets the total voter count in voter roll\n\t/// @return Total voter count\n    function getVoterCount() external view returns (uint) {\n        return voterCount;\n    }\n\n    /// @notice Returns a boolean for whether or not given address is in voter roll\n\t/// @return True or false if voter address is valid\n    function isVoter(address voterAddress) external view returns (bool) {\n        if (voterRoll[voterAddress].voterAddress != address(0x0)) {\n            return true;\n        } else {\n            return false;\n        }\n    }\n\n    /// @notice Adds voter to voting roll & increases total voter count\n\t/// @param voterAddress Address of voter to add to voter roll\n\tfunction addVoter(address voterAddress) external onlyOwner {\n\t\tVoter memory newVoter = Voter(voterAddress);\n\t\tvoterRoll[voterAddress] = newVoter;\n\t\tvoterCount = voterCount + 1;\n\t}\n\n\t/// @notice Adds multiple voters to voting roll & increases total voter count\n\t/// @param voterAddresses Addresses of voters to add to voter roll\n\tfunction addMultipleVoters(address[] memory voterAddresses) external onlyOwner {\n\t\tfor (uint i = 0; i < voterAddresses.length; i++) {\n\t\t\tVoter memory newVoter = Voter(voterAddresses[i]);\n\t\t\tvoterRoll[voterAddresses[i]] = newVoter;\n\t\t\tvoterCount = voterCount + 1;\n\t\t}\n\t}\n\n\t/// @notice Removes voter from voting roll & reduces total voter count\n\t/// @param voterAddress Address of voter to remove from voter roll\n\tfunction removeVoter(address voterAddress) external onlyOwner {\n\t\tdelete voterRoll[voterAddress];\n\t\tvoterCount = voterCount - 1;\n\t}\n\n\t/// @notice Removes multiple voters from voting roll & reduces total voter count\n\t/// @param voterAddresses Addresses of voters to remove from voter roll\n\tfunction removeMultipleVoters(address[] memory voterAddresses) external onlyOwner {\n\t\tfor (uint i = 0; i < voterAddresses.length; i++) {\n\t\t\tdelete voterRoll[voterAddresses[i]];\n\t\t\tvoterCount = voterCount - 1;\n\t\t}\n\t}\n\n}\n",
  "sourcePath": "/Users/hubertkdayssi/Documents/CS_Projects/voting_app/contracts/Voters.sol",
  "compiler": {
    "name": "solc",
    "version": "0.8.11+commit.d7f03943.Emscripten.clang"
  },
  "schemaVersion": "3.4.5",
  "updatedAt": "2022-02-23T12:27:11.215Z",
  "devdoc": {
    "kind": "dev",
    "methods": {
      "addMultipleVoters(address[])": {
        "params": {
          "voterAddresses": "Addresses of voters to add to voter roll"
        }
      },
      "addVoter(address)": {
        "params": {
          "voterAddress": "Address of voter to add to voter roll"
        }
      },
      "getVoterCount()": {
        "returns": {
          "_0": "Total voter count"
        }
      },
      "isVoter(address)": {
        "returns": {
          "_0": "True or false if voter address is valid"
        }
      },
      "removeMultipleVoters(address[])": {
        "params": {
          "voterAddresses": "Addresses of voters to remove from voter roll"
        }
      },
      "removeVoter(address)": {
        "params": {
          "voterAddress": "Address of voter to remove from voter roll"
        }
      }
    },
    "version": 1
  },
  "userdoc": {
    "kind": "user",
    "methods": {
      "addMultipleVoters(address[])": {
        "notice": "Adds multiple voters to voting roll & increases total voter count"
      },
      "addVoter(address)": {
        "notice": "Adds voter to voting roll & increases total voter count"
      },
      "getVoterCount()": {
        "notice": "Gets the total voter count in voter roll"
      },
      "isVoter(address)": {
        "notice": "Returns a boolean for whether or not given address is in voter roll"
      },
      "removeMultipleVoters(address[])": {
        "notice": "Removes multiple voters from voting roll & reduces total voter count"
      },
      "removeVoter(address)": {
        "notice": "Removes voter from voting roll & reduces total voter count"
      },
      "voterRoll(address)": {
        "notice": "Voting roll of all registered voters"
      }
    },
    "version": 1
  }
}