{
  "contractName": "VotingContract",
  "abi": [
    {
      "inputs": [],
      "stateMutability": "nonpayable",
      "type": "constructor"
    },
    {
      "inputs": [
        {
          "internalType": "string",
          "name": "message",
          "type": "string"
        }
      ],
      "name": "BallotNotClosed",
      "type": "error"
    },
    {
      "inputs": [
        {
          "internalType": "address",
          "name": "",
          "type": "address"
        }
      ],
      "name": "voterRoll",
      "outputs": [
        {
          "internalType": "address",
          "name": "voterAddress",
          "type": "address"
        }
      ],
      "stateMutability": "view",
      "type": "function",
      "constant": true
    },
    {
      "inputs": [],
      "name": "getCurrentBallotStatus",
      "outputs": [
        {
          "internalType": "uint256",
          "name": "",
          "type": "uint256"
        }
      ],
      "stateMutability": "view",
      "type": "function",
      "constant": true
    },
    {
      "inputs": [],
      "name": "getCurrentBallot",
      "outputs": [
        {
          "components": [
            {
              "internalType": "uint256",
              "name": "id",
              "type": "uint256"
            },
            {
              "internalType": "string",
              "name": "name",
              "type": "string"
            },
            {
              "internalType": "uint256",
              "name": "status",
              "type": "uint256"
            },
            {
              "internalType": "uint256",
              "name": "currentElectionId",
              "type": "uint256"
            },
            {
              "internalType": "uint256",
              "name": "currentIssueId",
              "type": "uint256"
            },
            {
              "components": [
                {
                  "internalType": "uint256",
                  "name": "id",
                  "type": "uint256"
                },
                {
                  "internalType": "string",
                  "name": "name",
                  "type": "string"
                },
                {
                  "internalType": "uint256",
                  "name": "currentCandidateId",
                  "type": "uint256"
                },
                {
                  "components": [
                    {
                      "internalType": "uint256",
                      "name": "id",
                      "type": "uint256"
                    },
                    {
                      "internalType": "string",
                      "name": "name",
                      "type": "string"
                    },
                    {
                      "internalType": "uint256",
                      "name": "votes",
                      "type": "uint256"
                    }
                  ],
                  "internalType": "struct BallotStorage.Candidate[]",
                  "name": "candidates",
                  "type": "tuple[]"
                }
              ],
              "internalType": "struct BallotStorage.Election[]",
              "name": "elections",
              "type": "tuple[]"
            },
            {
              "components": [
                {
                  "internalType": "uint256",
                  "name": "id",
                  "type": "uint256"
                },
                {
                  "internalType": "string",
                  "name": "name",
                  "type": "string"
                },
                {
                  "internalType": "uint256",
                  "name": "forVotes",
                  "type": "uint256"
                },
                {
                  "internalType": "uint256",
                  "name": "againstVotes",
                  "type": "uint256"
                }
              ],
              "internalType": "struct BallotStorage.Issue[]",
              "name": "issues",
              "type": "tuple[]"
            }
          ],
          "internalType": "struct BallotStorage.Ballot",
          "name": "",
          "type": "tuple"
        }
      ],
      "stateMutability": "view",
      "type": "function",
      "constant": true
    },
    {
      "inputs": [],
      "name": "getAllBallots",
      "outputs": [
        {
          "components": [
            {
              "internalType": "uint256",
              "name": "id",
              "type": "uint256"
            },
            {
              "internalType": "string",
              "name": "name",
              "type": "string"
            },
            {
              "internalType": "uint256",
              "name": "status",
              "type": "uint256"
            },
            {
              "internalType": "uint256",
              "name": "currentElectionId",
              "type": "uint256"
            },
            {
              "internalType": "uint256",
              "name": "currentIssueId",
              "type": "uint256"
            },
            {
              "components": [
                {
                  "internalType": "uint256",
                  "name": "id",
                  "type": "uint256"
                },
                {
                  "internalType": "string",
                  "name": "name",
                  "type": "string"
                },
                {
                  "internalType": "uint256",
                  "name": "currentCandidateId",
                  "type": "uint256"
                },
                {
                  "components": [
                    {
                      "internalType": "uint256",
                      "name": "id",
                      "type": "uint256"
                    },
                    {
                      "internalType": "string",
                      "name": "name",
                      "type": "string"
                    },
                    {
                      "internalType": "uint256",
                      "name": "votes",
                      "type": "uint256"
                    }
                  ],
                  "internalType": "struct BallotStorage.Candidate[]",
                  "name": "candidates",
                  "type": "tuple[]"
                }
              ],
              "internalType": "struct BallotStorage.Election[]",
              "name": "elections",
              "type": "tuple[]"
            },
            {
              "components": [
                {
                  "internalType": "uint256",
                  "name": "id",
                  "type": "uint256"
                },
                {
                  "internalType": "string",
                  "name": "name",
                  "type": "string"
                },
                {
                  "internalType": "uint256",
                  "name": "forVotes",
                  "type": "uint256"
                },
                {
                  "internalType": "uint256",
                  "name": "againstVotes",
                  "type": "uint256"
                }
              ],
              "internalType": "struct BallotStorage.Issue[]",
              "name": "issues",
              "type": "tuple[]"
            }
          ],
          "internalType": "struct BallotStorage.Ballot[]",
          "name": "",
          "type": "tuple[]"
        }
      ],
      "stateMutability": "view",
      "type": "function",
      "constant": true
    },
    {
      "inputs": [
        {
          "internalType": "uint256",
          "name": "_id",
          "type": "uint256"
        }
      ],
      "name": "getBallotById",
      "outputs": [
        {
          "components": [
            {
              "internalType": "uint256",
              "name": "id",
              "type": "uint256"
            },
            {
              "internalType": "string",
              "name": "name",
              "type": "string"
            },
            {
              "internalType": "uint256",
              "name": "status",
              "type": "uint256"
            },
            {
              "internalType": "uint256",
              "name": "currentElectionId",
              "type": "uint256"
            },
            {
              "internalType": "uint256",
              "name": "currentIssueId",
              "type": "uint256"
            },
            {
              "components": [
                {
                  "internalType": "uint256",
                  "name": "id",
                  "type": "uint256"
                },
                {
                  "internalType": "string",
                  "name": "name",
                  "type": "string"
                },
                {
                  "internalType": "uint256",
                  "name": "currentCandidateId",
                  "type": "uint256"
                },
                {
                  "components": [
                    {
                      "internalType": "uint256",
                      "name": "id",
                      "type": "uint256"
                    },
                    {
                      "internalType": "string",
                      "name": "name",
                      "type": "string"
                    },
                    {
                      "internalType": "uint256",
                      "name": "votes",
                      "type": "uint256"
                    }
                  ],
                  "internalType": "struct BallotStorage.Candidate[]",
                  "name": "candidates",
                  "type": "tuple[]"
                }
              ],
              "internalType": "struct BallotStorage.Election[]",
              "name": "elections",
              "type": "tuple[]"
            },
            {
              "components": [
                {
                  "internalType": "uint256",
                  "name": "id",
                  "type": "uint256"
                },
                {
                  "internalType": "string",
                  "name": "name",
                  "type": "string"
                },
                {
                  "internalType": "uint256",
                  "name": "forVotes",
                  "type": "uint256"
                },
                {
                  "internalType": "uint256",
                  "name": "againstVotes",
                  "type": "uint256"
                }
              ],
              "internalType": "struct BallotStorage.Issue[]",
              "name": "issues",
              "type": "tuple[]"
            }
          ],
          "internalType": "struct BallotStorage.Ballot",
          "name": "",
          "type": "tuple"
        }
      ],
      "stateMutability": "view",
      "type": "function",
      "constant": true
    },
    {
      "inputs": [],
      "name": "getVoterCount",
      "outputs": [
        {
          "internalType": "uint256",
          "name": "",
          "type": "uint256"
        }
      ],
      "stateMutability": "view",
      "type": "function",
      "constant": true
    },
    {
      "inputs": [
        {
          "internalType": "address",
          "name": "_voterAddress",
          "type": "address"
        }
      ],
      "name": "isVoter",
      "outputs": [
        {
          "internalType": "bool",
          "name": "",
          "type": "bool"
        }
      ],
      "stateMutability": "view",
      "type": "function",
      "constant": true
    },
    {
      "inputs": [
        {
          "internalType": "address",
          "name": "_voterAddress",
          "type": "address"
        },
        {
          "internalType": "uint256",
          "name": "ballotId",
          "type": "uint256"
        }
      ],
      "name": "hasVoted",
      "outputs": [
        {
          "internalType": "bool",
          "name": "",
          "type": "bool"
        }
      ],
      "stateMutability": "view",
      "type": "function",
      "constant": true
    },
    {
      "inputs": [
        {
          "internalType": "string",
          "name": "_name",
          "type": "string"
        }
      ],
      "name": "createBallot",
      "outputs": [],
      "stateMutability": "nonpayable",
      "type": "function"
    },
    {
      "inputs": [],
      "name": "deleteBallot",
      "outputs": [],
      "stateMutability": "nonpayable",
      "type": "function"
    },
    {
      "inputs": [],
      "name": "openCloseBallot",
      "outputs": [],
      "stateMutability": "nonpayable",
      "type": "function"
    },
    {
      "inputs": [
        {
          "internalType": "string[][]",
          "name": "elections",
          "type": "string[][]"
        }
      ],
      "name": "addElections",
      "outputs": [],
      "stateMutability": "nonpayable",
      "type": "function"
    },
    {
      "inputs": [
        {
          "internalType": "string[]",
          "name": "issues",
          "type": "string[]"
        }
      ],
      "name": "addIssues",
      "outputs": [],
      "stateMutability": "nonpayable",
      "type": "function"
    },
    {
      "inputs": [
        {
          "internalType": "address",
          "name": "_voterAddress",
          "type": "address"
        }
      ],
      "name": "addVoter",
      "outputs": [],
      "stateMutability": "nonpayable",
      "type": "function"
    },
    {
      "inputs": [
        {
          "internalType": "address[]",
          "name": "voterAddresses",
          "type": "address[]"
        }
      ],
      "name": "addMultipleVoters",
      "outputs": [],
      "stateMutability": "nonpayable",
      "type": "function"
    },
    {
      "inputs": [
        {
          "internalType": "address",
          "name": "_voterAddress",
          "type": "address"
        }
      ],
      "name": "removeVoter",
      "outputs": [],
      "stateMutability": "nonpayable",
      "type": "function"
    },
    {
      "inputs": [
        {
          "internalType": "address[]",
          "name": "voterAddresses",
          "type": "address[]"
        }
      ],
      "name": "removeMultipleVoters",
      "outputs": [],
      "stateMutability": "nonpayable",
      "type": "function"
    },
    {
      "inputs": [
        {
          "internalType": "uint256[][]",
          "name": "votes",
          "type": "uint256[][]"
        }
      ],
      "name": "vote",
      "outputs": [],
      "stateMutability": "nonpayable",
      "type": "function"
    }
  ],
  "bytecode": "0x608060405260008055600180556002805534801561001c57600080fd5b5033600860000160006101000a81548173ffffffffffffffffffffffffffffffffffffffff021916908373ffffffffffffffffffffffffffffffffffffffff160217905550613cb2806100706000396000f3fe608060405234801561001057600080fd5b50600436106101165760003560e01c806386758e54116100a2578063bb58b04411610071578063bb58b044146102b9578063c11296cc146102d5578063d7627ad1146102f1578063f4ab9adf14610321578063fdad211f1461033d57610116565b806386758e541461023557806386c1ff6814610251578063a7771ee31461026d578063b0c2a23b1461029d57610116565b8063385704d6116100e9578063385704d6146101a55780633cfe7fa7146101c157806342545825146101cb57806346a86576146101fb57806379df360a1461021757610116565b80630b8710e41461011b57806311174a291461013957806322d043d91461015757806327736f8514610175575b600080fd5b610123610347565b6040516101309190612f96565b60405180910390f35b610141610779565b60405161014e9190612fc7565b60405180910390f35b61015f610783565b60405161016c919061308c565b60405180910390f35b61018f600480360381019061018a9190613120565b610bda565b60405161019c919061315c565b60405180910390f35b6101bf60048036038101906101ba91906132bf565b610c18565b005b6101c9610dcb565b005b6101e560048036038101906101e09190613334565b610ef3565b6040516101f2919061338f565b60405180910390f35b6102156004803603810190610210919061345f565b610f6d565b005b61021f611168565b60405161022c9190612fc7565b60405180910390f35b61024f600480360381019061024a91906132bf565b6111de565b005b61026b60048036038101906102669190613120565b61132c565b005b61028760048036038101906102829190613120565b611440565b604051610294919061338f565b60405180910390f35b6102b760048036038101906102b29190613589565b6114ea565b005b6102d360048036038101906102ce9190613776565b6117c8565b005b6102ef60048036038101906102ea91906138a0565b611bc9565b005b61030b600480360381019061030691906138e9565b611fc2565b604051610318919061308c565b60405180910390f35b61033b60048036038101906103369190613120565b6123e2565b005b610345612541565b005b60606004805480602002602001604051908101604052809291908181526020016000905b8282101561077057838290600052602060002090600702016040518060e0016040529081600082015481526020016001820180546103a890613945565b80601f01602080910402602001604051908101604052809291908181526020018280546103d490613945565b80156104215780601f106103f657610100808354040283529160200191610421565b820191906000526020600020905b81548152906001019060200180831161040457829003601f168201915b5050505050815260200160028201548152602001600382015481526020016004820154815260200160058201805480602002602001604051908101604052809291908181526020016000905b8282101561064a5783829060005260206000209060040201604051806080016040529081600082015481526020016001820180546104aa90613945565b80601f01602080910402602001604051908101604052809291908181526020018280546104d690613945565b80156105235780601f106104f857610100808354040283529160200191610523565b820191906000526020600020905b81548152906001019060200180831161050657829003601f168201915b505050505081526020016002820154815260200160038201805480602002602001604051908101604052809291908181526020016000905b8282101561063357838290600052602060002090600302016040518060600160405290816000820154815260200160018201805461059890613945565b80601f01602080910402602001604051908101604052809291908181526020018280546105c490613945565b80156106115780601f106105e657610100808354040283529160200191610611565b820191906000526020600020905b8154815290600101906020018083116105f457829003601f168201915b505050505081526020016002820154815250508152602001906001019061055b565b50505050815250508152602001906001019061046d565b50505050815260200160068201805480602002602001604051908101604052809291908181526020016000905b828210156107595783829060005260206000209060040201604051806080016040529081600082015481526020016001820180546106b490613945565b80601f01602080910402602001604051908101604052809291908181526020018280546106e090613945565b801561072d5780601f106107025761010080835404028352916020019161072d565b820191906000526020600020905b81548152906001019060200180831161071057829003601f168201915b505050505081526020016002820154815260200160038201548152505081526020019060010190610677565b50505050815250508152602001906001019061036b565b50505050905090565b6000600554905090565b61078b6127cc565b6000600480549050116107d3576040517f08c379a00000000000000000000000000000000000000000000000000000000081526004016107ca906139d4565b60405180910390fd5b6004600354815481106107e9576107e86139f4565b5b90600052602060002090600702016040518060e00160405290816000820154815260200160018201805461081c90613945565b80601f016020809104026020016040519081016040528092919081815260200182805461084890613945565b80156108955780601f1061086a57610100808354040283529160200191610895565b820191906000526020600020905b81548152906001019060200180831161087857829003601f168201915b5050505050815260200160028201548152602001600382015481526020016004820154815260200160058201805480602002602001604051908101604052809291908181526020016000905b82821015610abe57838290600052602060002090600402016040518060800160405290816000820154815260200160018201805461091e90613945565b80601f016020809104026020016040519081016040528092919081815260200182805461094a90613945565b80156109975780601f1061096c57610100808354040283529160200191610997565b820191906000526020600020905b81548152906001019060200180831161097a57829003601f168201915b505050505081526020016002820154815260200160038201805480602002602001604051908101604052809291908181526020016000905b82821015610aa7578382906000526020600020906003020160405180606001604052908160008201548152602001600182018054610a0c90613945565b80601f0160208091040260200160405190810160405280929190818152602001828054610a3890613945565b8015610a855780601f10610a5a57610100808354040283529160200191610a85565b820191906000526020600020905b815481529060010190602001808311610a6857829003601f168201915b50505050508152602001600282015481525050815260200190600101906109cf565b5050505081525050815260200190600101906108e1565b50505050815260200160068201805480602002602001604051908101604052809291908181526020016000905b82821015610bcd578382906000526020600020906004020160405180608001604052908160008201548152602001600182018054610b2890613945565b80601f0160208091040260200160405190810160405280929190818152602001828054610b5490613945565b8015610ba15780601f10610b7657610100808354040283529160200191610ba1565b820191906000526020600020905b815481529060010190602001808311610b8457829003601f168201915b505050505081526020016002820154815260200160038201548152505081526020019060010190610aeb565b5050505081525050905090565b60066020528060005260406000206000915090508060000160009054906101000a900473ffffffffffffffffffffffffffffffffffffffff16905081565b600860000160009054906101000a900473ffffffffffffffffffffffffffffffffffffffff1673ffffffffffffffffffffffffffffffffffffffff163373ffffffffffffffffffffffffffffffffffffffff1614610cab576040517f08c379a0000000000000000000000000000000000000000000000000000000008152600401610ca290613a95565b60405180910390fd5b60005b8151811015610dc75760006040518060200160405280848481518110610cd757610cd66139f4565b5b602002602001015173ffffffffffffffffffffffffffffffffffffffff1681525090508060066000858581518110610d1257610d116139f4565b5b602002602001015173ffffffffffffffffffffffffffffffffffffffff1673ffffffffffffffffffffffffffffffffffffffff16815260200190815260200160002060008201518160000160006101000a81548173ffffffffffffffffffffffffffffffffffffffff021916908373ffffffffffffffffffffffffffffffffffffffff1602179055509050506001600554610dad9190613ae4565b600581905550508080610dbf90613b3a565b915050610cae565b5050565b600860000160009054906101000a900473ffffffffffffffffffffffffffffffffffffffff1673ffffffffffffffffffffffffffffffffffffffff163373ffffffffffffffffffffffffffffffffffffffff1614610e5e576040517f08c379a0000000000000000000000000000000000000000000000000000000008152600401610e5590613a95565b60405180910390fd5b600054600460035481548110610e7757610e766139f4565b5b9060005260206000209060070201600201541415610ec257600154600460035481548110610ea857610ea76139f4565b5b906000526020600020906007020160020181905550610ef1565b600254600460035481548110610edb57610eda6139f4565b5b9060005260206000209060070201600201819055505b565b600060078281548110610f0957610f086139f4565b5b906000526020600020906002020160010160008473ffffffffffffffffffffffffffffffffffffffff1673ffffffffffffffffffffffffffffffffffffffff16815260200190815260200160002060009054906101000a900460ff16905092915050565b600860000160009054906101000a900473ffffffffffffffffffffffffffffffffffffffff1673ffffffffffffffffffffffffffffffffffffffff163373ffffffffffffffffffffffffffffffffffffffff1614611000576040517f08c379a0000000000000000000000000000000000000000000000000000000008152600401610ff790613a95565b60405180910390fd5b6000600480549050148061103c5750600254600460035481548110611028576110276139f4565b5b906000526020600020906007020160020154145b61104557600080fd5b60006004805490501461106b576003600081548092919061106590613b3a565b91905055505b60046001816001815401808255809150500390600052602060002090505060006004600160048054905061109f9190613b83565b815481106110b0576110af6139f4565b5b906000526020600020906007020190506003548160000181905550818160010190805190602001906110e3929190612809565b50600054816002018190555060008160030181905550600081600401819055506007600181600181540180825580915050039060005260206000209050506000600760016004805490506111379190613b83565b81548110611148576111476139f4565b5b906000526020600020906002020190506003548160000181905550505050565b600080600480549050116111b1576040517f08c379a00000000000000000000000000000000000000000000000000000000081526004016111a8906139d4565b60405180910390fd5b6004600354815481106111c7576111c66139f4565b5b906000526020600020906007020160020154905090565b600860000160009054906101000a900473ffffffffffffffffffffffffffffffffffffffff1673ffffffffffffffffffffffffffffffffffffffff163373ffffffffffffffffffffffffffffffffffffffff1614611271576040517f08c379a000000000000000000000000000000000000000000000000000000000815260040161126890613a95565b60405180910390fd5b60005b81518110156113285760066000838381518110611294576112936139f4565b5b602002602001015173ffffffffffffffffffffffffffffffffffffffff1673ffffffffffffffffffffffffffffffffffffffff168152602001908152602001600020600080820160006101000a81549073ffffffffffffffffffffffffffffffffffffffff02191690555050600160055461130f9190613b83565b600581905550808061132090613b3a565b915050611274565b5050565b600860000160009054906101000a900473ffffffffffffffffffffffffffffffffffffffff1673ffffffffffffffffffffffffffffffffffffffff163373ffffffffffffffffffffffffffffffffffffffff16146113bf576040517f08c379a00000000000000000000000000000000000000000000000000000000081526004016113b690613a95565b60405180910390fd5b600660008273ffffffffffffffffffffffffffffffffffffffff1673ffffffffffffffffffffffffffffffffffffffff168152602001908152602001600020600080820160006101000a81549073ffffffffffffffffffffffffffffffffffffffff0219169055505060016005546114379190613b83565b60058190555050565b60008073ffffffffffffffffffffffffffffffffffffffff16600660008473ffffffffffffffffffffffffffffffffffffffff1673ffffffffffffffffffffffffffffffffffffffff16815260200190815260200160002060000160009054906101000a900473ffffffffffffffffffffffffffffffffffffffff1673ffffffffffffffffffffffffffffffffffffffff16146114e057600190506114e5565b600090505b919050565b600860000160009054906101000a900473ffffffffffffffffffffffffffffffffffffffff1673ffffffffffffffffffffffffffffffffffffffff163373ffffffffffffffffffffffffffffffffffffffff161461157d576040517f08c379a000000000000000000000000000000000000000000000000000000000815260040161157490613a95565b60405180910390fd5b600060048054905014806115b9575060006004600354815481106115a4576115a36139f4565b5b90600052602060002090600702016002015414155b156115f9576040517f5d2d8a4c0000000000000000000000000000000000000000000000000000000081526004016115f090613c03565b60405180910390fd5b60005b81518110156117c457600060046003548154811061161d5761161c6139f4565b5b906000526020600020906007020160060180549050146116755760046003548154811061164d5761164c6139f4565b5b9060005260206000209060070201600401600081548092919061166f90613b3a565b91905055505b60046003548154811061168b5761168a6139f4565b5b90600052602060002090600702016006016001816001815401808255809150500390600052602060002090505060006004600354815481106116d0576116cf6139f4565b5b906000526020600020906007020160060160016004600354815481106116f9576116f86139f4565b5b9060005260206000209060070201600601805490506117189190613b83565b81548110611729576117286139f4565b5b9060005260206000209060040201905060046003548154811061174f5761174e6139f4565b5b906000526020600020906007020160040154816000018190555082828151811061177c5761177b6139f4565b5b602002602001015181600101908051906020019061179b929190612809565b5060008160020181905550600081600301819055505080806117bc90613b3a565b9150506115fc565b5050565b600860000160009054906101000a900473ffffffffffffffffffffffffffffffffffffffff1673ffffffffffffffffffffffffffffffffffffffff163373ffffffffffffffffffffffffffffffffffffffff161461185b576040517f08c379a000000000000000000000000000000000000000000000000000000000815260040161185290613a95565b60405180910390fd5b6001611865611168565b14801561188157506000151561187d33600354610ef3565b1515145b61188a57600080fd5b60005b8151811015611b485760008282815181106118ab576118aa6139f4565b5b60200260200101516000815181106118c6576118c56139f4565b5b602002602001015114156119c6576004600354815481106118ea576118e96139f4565b5b906000526020600020906007020160050182828151811061190e5761190d6139f4565b5b6020026020010151600181518110611929576119286139f4565b5b602002602001015181548110611942576119416139f4565b5b9060005260206000209060040201600301828281518110611966576119656139f4565b5b6020026020010151600281518110611981576119806139f4565b5b60200260200101518154811061199a576119996139f4565b5b906000526020600020906003020160020160008154809291906119bc90613b3a565b9190505550611b35565b60018282815181106119db576119da6139f4565b5b60200260200101516002815181106119f6576119f56139f4565b5b60200260200101511415611a9e57600460035481548110611a1a57611a196139f4565b5b9060005260206000209060070201600601828281518110611a3e57611a3d6139f4565b5b6020026020010151600181518110611a5957611a586139f4565b5b602002602001015181548110611a7257611a716139f4565b5b90600052602060002090600402016002016000815480929190611a9490613b3a565b9190505550611b34565b600460035481548110611ab457611ab36139f4565b5b9060005260206000209060070201600601828281518110611ad857611ad76139f4565b5b6020026020010151600181518110611af357611af26139f4565b5b602002602001015181548110611b0c57611b0b6139f4565b5b90600052602060002090600402016003016000815480929190611b2e90613b3a565b91905055505b5b8080611b4090613b3a565b91505061188d565b506001600760035481548110611b6157611b606139f4565b5b906000526020600020906002020160010160003373ffffffffffffffffffffffffffffffffffffffff1673ffffffffffffffffffffffffffffffffffffffff16815260200190815260200160002060006101000a81548160ff02191690831515021790555050565b600860000160009054906101000a900473ffffffffffffffffffffffffffffffffffffffff1673ffffffffffffffffffffffffffffffffffffffff163373ffffffffffffffffffffffffffffffffffffffff1614611c5c576040517f08c379a0000000000000000000000000000000000000000000000000000000008152600401611c5390613a95565b60405180910390fd5b60006004805490501480611c9857506000600460035481548110611c8357611c826139f4565b5b90600052602060002090600702016002015414155b15611cd8576040517f5d2d8a4c000000000000000000000000000000000000000000000000000000008152600401611ccf90613c03565b60405180910390fd5b60005b8151811015611fbe576000600460035481548110611cfc57611cfb6139f4565b5b90600052602060002090600702016005018054905014611d5457600460035481548110611d2c57611d2b6139f4565b5b90600052602060002090600702016003016000815480929190611d4e90613b3a565b91905055505b600460035481548110611d6a57611d696139f4565b5b9060005260206000209060070201600501600181600181540180825580915050039060005260206000209050506000600460035481548110611daf57611dae6139f4565b5b90600052602060002090600702016005016001600460035481548110611dd857611dd76139f4565b5b906000526020600020906007020160050180549050611df79190613b83565b81548110611e0857611e076139f4565b5b90600052602060002090600402019050600460035481548110611e2e57611e2d6139f4565b5b9060005260206000209060070201600301548160000181905550828281518110611e5b57611e5a6139f4565b5b6020026020010151600081518110611e7657611e756139f4565b5b6020026020010151816001019080519060200190611e95929190612809565b50600081600201819055506000600190505b838381518110611eba57611eb96139f4565b5b602002602001015151811015611fa9576000826003018054905014611ef457816002016000815480929190611eee90613b3a565b91905055505b8160030160018160018154018082558091505003906000526020600020905050600082600301600183611f279190613b83565b81548110611f3857611f376139f4565b5b90600052602060002090600302019050848481518110611f5b57611f5a6139f4565b5b60200260200101518281518110611f7557611f746139f4565b5b6020026020010151816001019080519060200190611f94929190612809565b50508080611fa190613b3a565b915050611ea7565b50508080611fb690613b3a565b915050611cdb565b5050565b611fca6127cc565b6004805490508210611fdb57600080fd5b60048281548110611fef57611fee6139f4565b5b90600052602060002090600702016040518060e00160405290816000820154815260200160018201805461202290613945565b80601f016020809104026020016040519081016040528092919081815260200182805461204e90613945565b801561209b5780601f106120705761010080835404028352916020019161209b565b820191906000526020600020905b81548152906001019060200180831161207e57829003601f168201915b5050505050815260200160028201548152602001600382015481526020016004820154815260200160058201805480602002602001604051908101604052809291908181526020016000905b828210156122c457838290600052602060002090600402016040518060800160405290816000820154815260200160018201805461212490613945565b80601f016020809104026020016040519081016040528092919081815260200182805461215090613945565b801561219d5780601f106121725761010080835404028352916020019161219d565b820191906000526020600020905b81548152906001019060200180831161218057829003601f168201915b505050505081526020016002820154815260200160038201805480602002602001604051908101604052809291908181526020016000905b828210156122ad57838290600052602060002090600302016040518060600160405290816000820154815260200160018201805461221290613945565b80601f016020809104026020016040519081016040528092919081815260200182805461223e90613945565b801561228b5780601f106122605761010080835404028352916020019161228b565b820191906000526020600020905b81548152906001019060200180831161226e57829003601f168201915b50505050508152602001600282015481525050815260200190600101906121d5565b5050505081525050815260200190600101906120e7565b50505050815260200160068201805480602002602001604051908101604052809291908181526020016000905b828210156123d357838290600052602060002090600402016040518060800160405290816000820154815260200160018201805461232e90613945565b80601f016020809104026020016040519081016040528092919081815260200182805461235a90613945565b80156123a75780601f1061237c576101008083540402835291602001916123a7565b820191906000526020600020905b81548152906001019060200180831161238a57829003601f168201915b5050505050815260200160028201548152602001600382015481525050815260200190600101906122f1565b50505050815250509050919050565b600860000160009054906101000a900473ffffffffffffffffffffffffffffffffffffffff1673ffffffffffffffffffffffffffffffffffffffff163373ffffffffffffffffffffffffffffffffffffffff1614612475576040517f08c379a000000000000000000000000000000000000000000000000000000000815260040161246c90613a95565b60405180910390fd5b600060405180602001604052808373ffffffffffffffffffffffffffffffffffffffff16815250905080600660008473ffffffffffffffffffffffffffffffffffffffff1673ffffffffffffffffffffffffffffffffffffffff16815260200190815260200160002060008201518160000160006101000a81548173ffffffffffffffffffffffffffffffffffffffff021916908373ffffffffffffffffffffffffffffffffffffffff16021790555090505060016005546125379190613ae4565b6005819055505050565b600860000160009054906101000a900473ffffffffffffffffffffffffffffffffffffffff1673ffffffffffffffffffffffffffffffffffffffff163373ffffffffffffffffffffffffffffffffffffffff16146125d4576040517f08c379a00000000000000000000000000000000000000000000000000000000081526004016125cb90613a95565b60405180910390fd5b60006004805490501480612610575060006004600354815481106125fb576125fa6139f4565b5b90600052602060002090600702016002015414155b15612650576040517f5d2d8a4c00000000000000000000000000000000000000000000000000000000815260040161264790613c03565b60405180910390fd5b600460035481548110612666576126656139f4565b5b906000526020600020906007020160008082016000905560018201600061268d919061288f565b6002820160009055600382016000905560048201600090556005820160006126b591906128cf565b6006820160006126c591906128f3565b505060048054806126d9576126d8613c23565b5b6001900381819060005260206000209060070201600080820160009055600182016000612706919061288f565b60028201600090556003820160009055600482016000905560058201600061272e91906128cf565b60068201600061273e91906128f3565b50509055600760035481548110612758576127576139f4565b5b90600052602060002090600202016000808201600090555050600780548061278357612782613c23565b5b6001900381819060005260206000209060020201600080820160009055505090556000600480549050146127ca57600360008154809291906127c490613c52565b91905055505b565b6040518060e00160405280600081526020016060815260200160008152602001600081526020016000815260200160608152602001606081525090565b82805461281590613945565b90600052602060002090601f016020900481019282612837576000855561287e565b82601f1061285057805160ff191683800117855561287e565b8280016001018555821561287e579182015b8281111561287d578251825591602001919060010190612862565b5b50905061288b9190612917565b5090565b50805461289b90613945565b6000825580601f106128ad57506128cc565b601f0160209004906000526020600020908101906128cb9190612917565b5b50565b50805460008255600402906000526020600020908101906128f09190612934565b50565b5080546000825560040290600052602060002090810190612914919061297b565b50565b5b80821115612930576000816000905550600101612918565b5090565b5b8082111561297757600080820160009055600182016000612956919061288f565b600282016000905560038201600061296e91906129ba565b50600401612935565b5090565b5b808211156129b65760008082016000905560018201600061299d919061288f565b600282016000905560038201600090555060040161297c565b5090565b50805460008255600302906000526020600020908101906129db91906129de565b50565b5b80821115612a1157600080820160009055600182016000612a00919061288f565b6002820160009055506003016129df565b5090565b600081519050919050565b600082825260208201905092915050565b6000819050602082019050919050565b6000819050919050565b612a5481612a41565b82525050565b600081519050919050565b600082825260208201905092915050565b60005b83811015612a94578082015181840152602081019050612a79565b83811115612aa3576000848401525b50505050565b6000601f19601f8301169050919050565b6000612ac582612a5a565b612acf8185612a65565b9350612adf818560208601612a76565b612ae881612aa9565b840191505092915050565b600081519050919050565b600082825260208201905092915050565b6000819050602082019050919050565b600081519050919050565b600082825260208201905092915050565b6000819050602082019050919050565b6000606083016000830151612b636000860182612a4b565b5060208301518482036020860152612b7b8282612aba565b9150506040830151612b906040860182612a4b565b508091505092915050565b6000612ba78383612b4b565b905092915050565b6000602082019050919050565b6000612bc782612b1f565b612bd18185612b2a565b935083602082028501612be385612b3b565b8060005b85811015612c1f5784840389528151612c008582612b9b565b9450612c0b83612baf565b925060208a01995050600181019050612be7565b50829750879550505050505092915050565b6000608083016000830151612c496000860182612a4b565b5060208301518482036020860152612c618282612aba565b9150506040830151612c766040860182612a4b565b5060608301518482036060860152612c8e8282612bbc565b9150508091505092915050565b6000612ca78383612c31565b905092915050565b6000602082019050919050565b6000612cc782612af3565b612cd18185612afe565b935083602082028501612ce385612b0f565b8060005b85811015612d1f5784840389528151612d008582612c9b565b9450612d0b83612caf565b925060208a01995050600181019050612ce7565b50829750879550505050505092915050565b600081519050919050565b600082825260208201905092915050565b6000819050602082019050919050565b6000608083016000830151612d756000860182612a4b565b5060208301518482036020860152612d8d8282612aba565b9150506040830151612da26040860182612a4b565b506060830151612db56060860182612a4b565b508091505092915050565b6000612dcc8383612d5d565b905092915050565b6000602082019050919050565b6000612dec82612d31565b612df68185612d3c565b935083602082028501612e0885612d4d565b8060005b85811015612e445784840389528151612e258582612dc0565b9450612e3083612dd4565b925060208a01995050600181019050612e0c565b50829750879550505050505092915050565b600060e083016000830151612e6e6000860182612a4b565b5060208301518482036020860152612e868282612aba565b9150506040830151612e9b6040860182612a4b565b506060830151612eae6060860182612a4b565b506080830151612ec16080860182612a4b565b5060a083015184820360a0860152612ed98282612cbc565b91505060c083015184820360c0860152612ef38282612de1565b9150508091505092915050565b6000612f0c8383612e56565b905092915050565b6000602082019050919050565b6000612f2c82612a15565b612f368185612a20565b935083602082028501612f4885612a31565b8060005b85811015612f845784840389528151612f658582612f00565b9450612f7083612f14565b925060208a01995050600181019050612f4c565b50829750879550505050505092915050565b60006020820190508181036000830152612fb08184612f21565b905092915050565b612fc181612a41565b82525050565b6000602082019050612fdc6000830184612fb8565b92915050565b600060e083016000830151612ffa6000860182612a4b565b50602083015184820360208601526130128282612aba565b91505060408301516130276040860182612a4b565b50606083015161303a6060860182612a4b565b50608083015161304d6080860182612a4b565b5060a083015184820360a08601526130658282612cbc565b91505060c083015184820360c086015261307f8282612de1565b9150508091505092915050565b600060208201905081810360008301526130a68184612fe2565b905092915050565b6000604051905090565b600080fd5b600080fd5b600073ffffffffffffffffffffffffffffffffffffffff82169050919050565b60006130ed826130c2565b9050919050565b6130fd816130e2565b811461310857600080fd5b50565b60008135905061311a816130f4565b92915050565b600060208284031215613136576131356130b8565b5b60006131448482850161310b565b91505092915050565b613156816130e2565b82525050565b6000602082019050613171600083018461314d565b92915050565b600080fd5b7f4e487b7100000000000000000000000000000000000000000000000000000000600052604160045260246000fd5b6131b482612aa9565b810181811067ffffffffffffffff821117156131d3576131d261317c565b5b80604052505050565b60006131e66130ae565b90506131f282826131ab565b919050565b600067ffffffffffffffff8211156132125761321161317c565b5b602082029050602081019050919050565b600080fd5b600061323b613236846131f7565b6131dc565b9050808382526020820190506020840283018581111561325e5761325d613223565b5b835b818110156132875780613273888261310b565b845260208401935050602081019050613260565b5050509392505050565b600082601f8301126132a6576132a5613177565b5b81356132b6848260208601613228565b91505092915050565b6000602082840312156132d5576132d46130b8565b5b600082013567ffffffffffffffff8111156132f3576132f26130bd565b5b6132ff84828501613291565b91505092915050565b61331181612a41565b811461331c57600080fd5b50565b60008135905061332e81613308565b92915050565b6000806040838503121561334b5761334a6130b8565b5b60006133598582860161310b565b925050602061336a8582860161331f565b9150509250929050565b60008115159050919050565b61338981613374565b82525050565b60006020820190506133a46000830184613380565b92915050565b600080fd5b600067ffffffffffffffff8211156133ca576133c961317c565b5b6133d382612aa9565b9050602081019050919050565b82818337600083830152505050565b60006134026133fd846133af565b6131dc565b90508281526020810184848401111561341e5761341d6133aa565b5b6134298482856133e0565b509392505050565b600082601f83011261344657613445613177565b5b81356134568482602086016133ef565b91505092915050565b600060208284031215613475576134746130b8565b5b600082013567ffffffffffffffff811115613493576134926130bd565b5b61349f84828501613431565b91505092915050565b600067ffffffffffffffff8211156134c3576134c261317c565b5b602082029050602081019050919050565b60006134e76134e2846134a8565b6131dc565b9050808382526020820190506020840283018581111561350a57613509613223565b5b835b8181101561355157803567ffffffffffffffff81111561352f5761352e613177565b5b80860161353c8982613431565b8552602085019450505060208101905061350c565b5050509392505050565b600082601f8301126135705761356f613177565b5b81356135808482602086016134d4565b91505092915050565b60006020828403121561359f5761359e6130b8565b5b600082013567ffffffffffffffff8111156135bd576135bc6130bd565b5b6135c98482850161355b565b91505092915050565b600067ffffffffffffffff8211156135ed576135ec61317c565b5b602082029050602081019050919050565b600067ffffffffffffffff8211156136195761361861317c565b5b602082029050602081019050919050565b600061363d613638846135fe565b6131dc565b905080838252602082019050602084028301858111156136605761365f613223565b5b835b818110156136895780613675888261331f565b845260208401935050602081019050613662565b5050509392505050565b600082601f8301126136a8576136a7613177565b5b81356136b884826020860161362a565b91505092915050565b60006136d46136cf846135d2565b6131dc565b905080838252602082019050602084028301858111156136f7576136f6613223565b5b835b8181101561373e57803567ffffffffffffffff81111561371c5761371b613177565b5b8086016137298982613693565b855260208501945050506020810190506136f9565b5050509392505050565b600082601f83011261375d5761375c613177565b5b813561376d8482602086016136c1565b91505092915050565b60006020828403121561378c5761378b6130b8565b5b600082013567ffffffffffffffff8111156137aa576137a96130bd565b5b6137b684828501613748565b91505092915050565b600067ffffffffffffffff8211156137da576137d961317c565b5b602082029050602081019050919050565b60006137fe6137f9846137bf565b6131dc565b9050808382526020820190506020840283018581111561382157613820613223565b5b835b8181101561386857803567ffffffffffffffff81111561384657613845613177565b5b808601613853898261355b565b85526020850194505050602081019050613823565b5050509392505050565b600082601f83011261388757613886613177565b5b81356138978482602086016137eb565b91505092915050565b6000602082840312156138b6576138b56130b8565b5b600082013567ffffffffffffffff8111156138d4576138d36130bd565b5b6138e084828501613872565b91505092915050565b6000602082840312156138ff576138fe6130b8565b5b600061390d8482850161331f565b91505092915050565b7f4e487b7100000000000000000000000000000000000000000000000000000000600052602260045260246000fd5b6000600282049050600182168061395d57607f821691505b6020821081141561397157613970613916565b5b50919050565b600082825260208201905092915050565b7f4e6f2042616c6c6f7420486173204265656e2043726561746564000000000000600082015250565b60006139be601a83613977565b91506139c982613988565b602082019050919050565b600060208201905081810360008301526139ed816139b1565b9050919050565b7f4e487b7100000000000000000000000000000000000000000000000000000000600052603260045260246000fd5b7f4f6e6c792041646d696e6973747261746f72204d61792043616c6c2046756e6360008201527f74696f6e00000000000000000000000000000000000000000000000000000000602082015250565b6000613a7f602483613977565b9150613a8a82613a23565b604082019050919050565b60006020820190508181036000830152613aae81613a72565b9050919050565b7f4e487b7100000000000000000000000000000000000000000000000000000000600052601160045260246000fd5b6000613aef82612a41565b9150613afa83612a41565b9250827fffffffffffffffffffffffffffffffffffffffffffffffffffffffffffffffff03821115613b2f57613b2e613ab5565b5b828201905092915050565b6000613b4582612a41565b91507fffffffffffffffffffffffffffffffffffffffffffffffffffffffffffffffff821415613b7857613b77613ab5565b5b600182019050919050565b6000613b8e82612a41565b9150613b9983612a41565b925082821015613bac57613bab613ab5565b5b828203905092915050565b7f42616c6c6f74204d7573742042652043726561746564202620436c6f73656400600082015250565b6000613bed601f83613977565b9150613bf882613bb7565b602082019050919050565b60006020820190508181036000830152613c1c81613be0565b9050919050565b7f4e487b7100000000000000000000000000000000000000000000000000000000600052603160045260246000fd5b6000613c5d82612a41565b91506000821415613c7157613c70613ab5565b5b60018203905091905056fea264697066735822122053e261d767888a3b10ac4dce1ac226312bb6c4a37a595555156b097d8762211364736f6c634300080b0033",
  "immutableReferences": {},
  "source": "// SPDX-License-Identifier: MIT\npragma solidity ^0.8.11;\n//pragma experimental ABIEncoderV2;\n\nimport \"./VoterStorage.sol\";\nimport \"./BallotStorage.sol\";\n\ncontract VotingContract is BallotStorage, VoterStorage {\n\t\n\tstruct Administrator {\n\t\t/// @notice Address for the administrator\n\t\taddress adminAddress;\n\t}\n\n\t/// @notice Owner of voting contract\n    Administrator administrator;\n\n\tconstructor() {\n\t\t/// @notice On creation set administrator to creator address\n\t\tadministrator.adminAddress = msg.sender;\n\t}\n\t\n\t/// @param message Error message\n\terror BallotNotClosed(string message);\n\n\tmodifier onlyOwner() {\n\t\trequire(\n\t\t\tmsg.sender == administrator.adminAddress,\n\t\t\t\"Only Administrator May Call Function\"\n\t\t);\n\t\t_;\n\t}\n\n\tmodifier ballotClosed() {\n\t\tif (ballotsList.length == 0 || ballotsList[currentBallotId].status != 0) {\n\t\t\trevert BallotNotClosed(\"Ballot Must Be Created & Closed\");\n\t\t}\n\t\t_;\n\t}\n\n\n\n\t/// @notice Get the status of the most recent ballot\n\t/// @return The ballot status of CLOSED = 0, OPEN = 1, COMPLETE = 2\n\tfunction getCurrentBallotStatus() public view returns (uint) {\n\t\trequire(ballotsList.length > 0, \"No Ballot Has Been Created\");\n\t\treturn ballotsList[currentBallotId].status;\n\t}\n\n\t/// @notice Get the most recent ballot\n\t/// @return Return most recent ballot object\n\tfunction getCurrentBallot() public view returns (Ballot memory) {\n\t\trequire (ballotsList.length > 0, \"No Ballot Has Been Created\");\n\t\treturn ballotsList[currentBallotId];\n\t}\n\n\t/// @notice Get list of all ballots\n\t/// @return A list of ballot objects\n\tfunction getAllBallots() public view returns (Ballot[] memory) {\n\t\treturn ballotsList;\n\t}\n\n\t/// @notice Get ballot information by id\n\t/// @param _id The id of the ballot to retrieve information from\n\t/// @return The ballot object of _id\n\tfunction getBallotById(uint _id) public view returns (Ballot memory) {\n\t\trequire (_id < ballotsList.length);\n\t\treturn (ballotsList[_id]);\n\t} \n\n\t/// @notice Gets the total voter count in voter roll\n\t/// @return Total voter count\n    function getVoterCount() public view returns (uint) {\n        return voterCount;\n    }\n\n\t/// @notice Returns a boolean for whether or not given address is in voter roll\n\t/// @return True or false if voter address is valid\n\tfunction isVoter(address _voterAddress) public view returns (bool) {\n\t\tif (voterRoll[_voterAddress].voterAddress != address(0x0)) {\n            return true;\n        } else {\n            return false;\n        }\n\t}\n\n\t/// @notice Check whether or not a voter has voted on current ballot\n\tfunction hasVoted(address _voterAddress, uint ballotId) public view returns (bool) {\n\t\treturn voteRecordList[ballotId].hasVoted[_voterAddress];\n\t}\n\n\t// ==============================================================\n\n\n\n\t// Admin Functions ==============================================\n\n\t// Create ballot\n\tfunction createBallot(string memory _name) public onlyOwner {\n\t\trequire(ballotsList.length == 0 || ballotsList[currentBallotId].status == COMPLETE);\n\t\tif(ballotsList.length != 0) { currentBallotId++; }\n\t\tballotsList.push();\n\t\tBallot storage newBallot = ballotsList[ballotsList.length - 1];\n\n\t\tnewBallot.id = currentBallotId;\n\t\tnewBallot.name = _name;\n\t\tnewBallot.status = CLOSED;\n\t\tnewBallot.currentElectionId = 0;\n\t\tnewBallot.currentIssueId = 0;\n\n\t\tvoteRecordList.push();\n\t\tVoteRecord storage newVoteRecord = voteRecordList[ballotsList.length - 1];\n\t\tnewVoteRecord.ballotId = currentBallotId;\n\t}\n\n\t// Delete ballot\n\tfunction deleteBallot() public onlyOwner ballotClosed {\n\t\tdelete ballotsList[currentBallotId];\n\t\tballotsList.pop();\n\t\tdelete voteRecordList[currentBallotId];\n\t\tvoteRecordList.pop();\n\t\tif (ballotsList.length != 0) {\n\t\t\tcurrentBallotId--;\n\t\t}\n\t}\n\n\t// Open ballot, close ballot\n\tfunction openCloseBallot() public onlyOwner {\n\t\tif(ballotsList[currentBallotId].status == CLOSED) {\n\t\t\tballotsList[currentBallotId].status = OPEN;\n\t\t} else {\n\t\t\tballotsList[currentBallotId].status = COMPLETE;\n\t\t}\n\t}\n\n\t// Add election\n\tfunction addElections(string[][] memory elections) public onlyOwner ballotClosed {\n\t\tfor (uint i = 0; i < elections.length; i++) {\n\t\t\tif (ballotsList[currentBallotId].elections.length != 0) { ballotsList[currentBallotId].currentElectionId++; }\n\t\t\tballotsList[currentBallotId].elections.push();\n\t\t\tElection storage newElection = ballotsList[currentBallotId].elections[ballotsList[currentBallotId].elections.length - 1];\n\t\t\t\n\t\t\tnewElection.id = ballotsList[currentBallotId].currentElectionId;\n\t\t\tnewElection.name = elections[i][0];\n\t\t\tnewElection.currentCandidateId = 0;\n\n\t\t\tfor (uint c = 1; c < elections[i].length; c++) {\n\t\t\t\tif (newElection.candidates.length != 0) { newElection.currentCandidateId++; }\n\t\t\t\tnewElection.candidates.push();\n\t\t\t\tCandidate storage newCandidate = newElection.candidates[c - 1];\n\t\t\t\tnewCandidate.name = elections[i][c];\n\t\t\t}\n\t\t}\n\t}\n\n\tfunction addIssues(string[] memory issues) public onlyOwner ballotClosed {\n\t\tfor (uint i = 0; i < issues.length; i++) {\n\t\t\tif (ballotsList[currentBallotId].issues.length != 0) { ballotsList[currentBallotId].currentIssueId++; }\n\t\t\tballotsList[currentBallotId].issues.push();\n\t\t\tIssue storage newIssue = ballotsList[currentBallotId].issues[ballotsList[currentBallotId].issues.length - 1];\n\n\t\t\tnewIssue.id = ballotsList[currentBallotId].currentIssueId;\n\t\t\tnewIssue.name = issues[i];\n\t\t\tnewIssue.forVotes = 0;\n\t\t\tnewIssue.againstVotes = 0;\n\t\t}\n\t}\n\t\n\t// ==============================================================\n\n\t// Admin Voter Functions ========================================\n\t\n\t/// @notice Adds voter to voting roll & increases total voter count\n\t/// @param _voterAddress Address of voter to add to voter roll\n\tfunction addVoter(address _voterAddress) public onlyOwner {\n\t\tVoter memory newVoter = Voter(_voterAddress);\n\t\tvoterRoll[_voterAddress] = newVoter;\n\t\tvoterCount = voterCount + 1;\n\t}\n\n\t/// @notice Adds multiple voters to voting roll & increases total voter count\n\t/// @param voterAddresses Addresses of voters to add to voter roll\n\tfunction addMultipleVoters(address[] memory voterAddresses) public onlyOwner {\n\t\tfor (uint i = 0; i < voterAddresses.length; i++) {\n\t\t\tVoter memory newVoter = Voter(voterAddresses[i]);\n\t\t\tvoterRoll[voterAddresses[i]] = newVoter;\n\t\t\tvoterCount = voterCount + 1;\n\t\t}\n\t}\n\n\t/// @notice Removes voter from voting roll & reduces total voter count\n\t/// @param _voterAddress Address of voter to remove from voter roll\n\tfunction removeVoter(address _voterAddress) public onlyOwner {\n\t\tdelete voterRoll[_voterAddress];\n\t\tvoterCount = voterCount - 1;\n\t}\n\n\t/// @notice Removes multiple voters from voting roll & reduces total voter count\n\t/// @param voterAddresses Addresses of voters to remove from voter roll\n\tfunction removeMultipleVoters(address[] memory voterAddresses) public onlyOwner {\n\t\tfor (uint i = 0; i < voterAddresses.length; i++) {\n\t\t\tdelete voterRoll[voterAddresses[i]];\n\t\t\tvoterCount = voterCount - 1;\n\t\t}\n\t}\n\n\t// ==============================================================\n\n\n\t// Voter Functions ==============================================\n\n\t// Vote for all\n\t// [ [ TYPE , ID , VOTE ]   ]\n\t// [ [ ELECTION , 0 , VOTE ] ]\n\t// Election = 0, Issue = 1\n\t// uint AGAINST = 0;\n\t// uint FOR = 1;\n\tfunction vote(uint[][] memory votes) public onlyOwner {\n\t\trequire(getCurrentBallotStatus() == 1 && hasVoted(msg.sender, currentBallotId) == false);\n\n\t\tfor (uint i = 0; i < votes.length; i++) {\n\t\t\t// Vote for election or issue\n\t\t\tif (votes[i][0] == 0) {\n\t\t\t\tballotsList[currentBallotId].elections[votes[i][1]].candidates[votes[i][2]].votes++;\n\t\t\t} else {\n\t\t\t\t// Vote for or against issue\n\t\t\t\tif (votes[i][2] == 1) {\n\t\t\t\t\tballotsList[currentBallotId].issues[votes[i][1]].forVotes++;\n\t\t\t\t} else {\n\t\t\t\t\tballotsList[currentBallotId].issues[votes[i][1]].againstVotes++;\n\t\t\t\t}\n\t\t\t}\n\t\t}\n\t\tvoteRecordList[currentBallotId].hasVoted[msg.sender] = true;\n\t}\n\n\t// ==============================================================\n\n}\n",
  "sourcePath": "/Users/hubertkdayssi/Documents/CS_Projects/voting_app/contracts/VotingContract.sol",
  "compiler": {
    "name": "solc",
    "version": "0.8.11+commit.d7f03943.Emscripten.clang"
  },
  "schemaVersion": "3.4.5",
  "updatedAt": "2022-02-23T21:32:21.149Z",
  "networkType": "ethereum",
  "devdoc": {
    "errors": {
      "BallotNotClosed(string)": [
        {
          "params": {
            "message": "Error message"
          }
        }
      ]
    },
    "kind": "dev",
    "methods": {
      "addMultipleVoters(address[])": {
        "params": {
          "voterAddresses": "Addresses of voters to add to voter roll"
        }
      },
      "addVoter(address)": {
        "params": {
          "_voterAddress": "Address of voter to add to voter roll"
        }
      },
      "getAllBallots()": {
        "returns": {
          "_0": "A list of ballot objects"
        }
      },
      "getBallotById(uint256)": {
        "params": {
          "_id": "The id of the ballot to retrieve information from"
        },
        "returns": {
          "_0": "The ballot object of _id"
        }
      },
      "getCurrentBallot()": {
        "returns": {
          "_0": "Return most recent ballot object"
        }
      },
      "getCurrentBallotStatus()": {
        "returns": {
          "_0": "The ballot status of CLOSED = 0, OPEN = 1, COMPLETE = 2"
        }
      },
      "getVoterCount()": {
        "returns": {
          "_0": "Total voter count"
        }
      },
      "isVoter(address)": {
        "returns": {
          "_0": "True or false if voter address is valid"
        }
      },
      "removeMultipleVoters(address[])": {
        "params": {
          "voterAddresses": "Addresses of voters to remove from voter roll"
        }
      },
      "removeVoter(address)": {
        "params": {
          "_voterAddress": "Address of voter to remove from voter roll"
        }
      }
    },
    "version": 1
  },
  "userdoc": {
    "kind": "user",
    "methods": {
      "addMultipleVoters(address[])": {
        "notice": "Adds multiple voters to voting roll & increases total voter count"
      },
      "addVoter(address)": {
        "notice": "Adds voter to voting roll & increases total voter count"
      },
      "getAllBallots()": {
        "notice": "Get list of all ballots"
      },
      "getBallotById(uint256)": {
        "notice": "Get ballot information by id"
      },
      "getCurrentBallot()": {
        "notice": "Get the most recent ballot"
      },
      "getCurrentBallotStatus()": {
        "notice": "Get the status of the most recent ballot"
      },
      "getVoterCount()": {
        "notice": "Gets the total voter count in voter roll"
      },
      "hasVoted(address,uint256)": {
        "notice": "Check whether or not a voter has voted on current ballot"
      },
      "isVoter(address)": {
        "notice": "Returns a boolean for whether or not given address is in voter roll"
      },
      "removeMultipleVoters(address[])": {
        "notice": "Removes multiple voters from voting roll & reduces total voter count"
      },
      "removeVoter(address)": {
        "notice": "Removes voter from voting roll & reduces total voter count"
      },
      "voterRoll(address)": {
        "notice": "Voting roll of all registered voters"
      }
    },
    "version": 1
  }
}