{
  "contractName": "VotingContract",
  "abi": [
    {
      "inputs": [],
      "stateMutability": "nonpayable",
      "type": "constructor"
    },
    {
      "inputs": [
        {
          "internalType": "string",
          "name": "message",
          "type": "string"
        }
      ],
      "name": "BallotNotClosed",
      "type": "error"
    },
    {
      "inputs": [
        {
          "internalType": "string",
          "name": "message",
          "type": "string"
        }
      ],
      "name": "NotAdmin",
      "type": "error"
    },
    {
      "anonymous": false,
      "inputs": [
        {
          "indexed": false,
          "internalType": "string",
          "name": "message",
          "type": "string"
        }
      ],
      "name": "TestEvent",
      "type": "event"
    },
    {
      "inputs": [],
      "name": "getCurrentBallotStatus",
      "outputs": [
        {
          "internalType": "uint256",
          "name": "",
          "type": "uint256"
        }
      ],
      "stateMutability": "view",
      "type": "function",
      "constant": true
    },
    {
      "inputs": [
        {
          "internalType": "uint256",
          "name": "_id",
          "type": "uint256"
        }
      ],
      "name": "getBallotById",
      "outputs": [
        {
          "components": [
            {
              "internalType": "uint256",
              "name": "id",
              "type": "uint256"
            },
            {
              "internalType": "string",
              "name": "name",
              "type": "string"
            },
            {
              "internalType": "uint256",
              "name": "status",
              "type": "uint256"
            },
            {
              "internalType": "uint256",
              "name": "currentElectionId",
              "type": "uint256"
            },
            {
              "internalType": "uint256",
              "name": "currentIssueId",
              "type": "uint256"
            },
            {
              "components": [
                {
                  "internalType": "uint256",
                  "name": "id",
                  "type": "uint256"
                },
                {
                  "internalType": "string",
                  "name": "name",
                  "type": "string"
                },
                {
                  "internalType": "uint256",
                  "name": "currentCandidateId",
                  "type": "uint256"
                },
                {
                  "components": [
                    {
                      "internalType": "uint256",
                      "name": "id",
                      "type": "uint256"
                    },
                    {
                      "internalType": "string",
                      "name": "name",
                      "type": "string"
                    },
                    {
                      "internalType": "uint256",
                      "name": "votes",
                      "type": "uint256"
                    }
                  ],
                  "internalType": "struct Ballots.Candidate[]",
                  "name": "candidates",
                  "type": "tuple[]"
                }
              ],
              "internalType": "struct Ballots.Election[]",
              "name": "elections",
              "type": "tuple[]"
            },
            {
              "components": [
                {
                  "internalType": "uint256",
                  "name": "id",
                  "type": "uint256"
                },
                {
                  "internalType": "string",
                  "name": "name",
                  "type": "string"
                },
                {
                  "internalType": "uint256",
                  "name": "forVotes",
                  "type": "uint256"
                },
                {
                  "internalType": "uint256",
                  "name": "againstVotes",
                  "type": "uint256"
                },
                {
                  "internalType": "bool",
                  "name": "isPassed",
                  "type": "bool"
                }
              ],
              "internalType": "struct Ballots.Issue[]",
              "name": "issues",
              "type": "tuple[]"
            }
          ],
          "internalType": "struct Ballots.Ballot",
          "name": "",
          "type": "tuple"
        }
      ],
      "stateMutability": "view",
      "type": "function",
      "constant": true
    },
    {
      "inputs": [],
      "name": "getVoterCount",
      "outputs": [
        {
          "internalType": "uint256",
          "name": "",
          "type": "uint256"
        }
      ],
      "stateMutability": "view",
      "type": "function",
      "constant": true
    },
    {
      "inputs": [
        {
          "internalType": "address",
          "name": "voterAddress",
          "type": "address"
        }
      ],
      "name": "isVoter",
      "outputs": [
        {
          "internalType": "bool",
          "name": "",
          "type": "bool"
        }
      ],
      "stateMutability": "view",
      "type": "function",
      "constant": true
    },
    {
      "inputs": [
        {
          "internalType": "address",
          "name": "voterAddress",
          "type": "address"
        }
      ],
      "name": "addVoter",
      "outputs": [],
      "stateMutability": "nonpayable",
      "type": "function"
    },
    {
      "inputs": [
        {
          "internalType": "address[]",
          "name": "voterAddresses",
          "type": "address[]"
        }
      ],
      "name": "addMultipleVoters",
      "outputs": [],
      "stateMutability": "nonpayable",
      "type": "function"
    },
    {
      "inputs": [
        {
          "internalType": "address",
          "name": "voterAddress",
          "type": "address"
        }
      ],
      "name": "removeVoter",
      "outputs": [],
      "stateMutability": "nonpayable",
      "type": "function"
    },
    {
      "inputs": [
        {
          "internalType": "address[]",
          "name": "voterAddresses",
          "type": "address[]"
        }
      ],
      "name": "removeMultipleVoters",
      "outputs": [],
      "stateMutability": "nonpayable",
      "type": "function"
    },
    {
      "inputs": [
        {
          "internalType": "string",
          "name": "_name",
          "type": "string"
        }
      ],
      "name": "createBallot",
      "outputs": [],
      "stateMutability": "nonpayable",
      "type": "function"
    },
    {
      "inputs": [],
      "name": "deleteBallot",
      "outputs": [],
      "stateMutability": "nonpayable",
      "type": "function"
    },
    {
      "inputs": [
        {
          "internalType": "string",
          "name": "newName",
          "type": "string"
        }
      ],
      "name": "changeNameBallot",
      "outputs": [],
      "stateMutability": "nonpayable",
      "type": "function"
    },
    {
      "inputs": [],
      "name": "openCloseBallot",
      "outputs": [],
      "stateMutability": "nonpayable",
      "type": "function"
    },
    {
      "inputs": [
        {
          "internalType": "string[][]",
          "name": "elections",
          "type": "string[][]"
        }
      ],
      "name": "addElections",
      "outputs": [],
      "stateMutability": "nonpayable",
      "type": "function"
    },
    {
      "inputs": [],
      "name": "popStruct",
      "outputs": [],
      "stateMutability": "nonpayable",
      "type": "function"
    },
    {
      "inputs": [
        {
          "internalType": "uint256",
          "name": "_id",
          "type": "uint256"
        },
        {
          "internalType": "string",
          "name": "_name",
          "type": "string"
        },
        {
          "internalType": "string",
          "name": "_message",
          "type": "string"
        }
      ],
      "name": "createTest",
      "outputs": [],
      "stateMutability": "nonpayable",
      "type": "function"
    },
    {
      "inputs": [
        {
          "internalType": "uint256",
          "name": "_id",
          "type": "uint256"
        }
      ],
      "name": "getTest",
      "outputs": [
        {
          "components": [
            {
              "internalType": "uint256",
              "name": "id",
              "type": "uint256"
            },
            {
              "internalType": "string",
              "name": "name",
              "type": "string"
            },
            {
              "internalType": "string",
              "name": "message",
              "type": "string"
            }
          ],
          "internalType": "struct VotingContract.TestStruct",
          "name": "",
          "type": "tuple"
        }
      ],
      "stateMutability": "view",
      "type": "function",
      "constant": true
    }
  ],
  "bytecode": "0x60806040523480156200001157600080fd5b50336000800160006101000a81548173ffffffffffffffffffffffffffffffffffffffff021916908373ffffffffffffffffffffffffffffffffffffffff160217905550604051620000639062000133565b604051809103906000f08015801562000080573d6000803e3d6000fd5b50600260006101000a81548173ffffffffffffffffffffffffffffffffffffffff021916908373ffffffffffffffffffffffffffffffffffffffff160217905550604051620000cf9062000141565b604051809103906000f080158015620000ec573d6000803e3d6000fd5b50600160006101000a81548173ffffffffffffffffffffffffffffffffffffffff021916908373ffffffffffffffffffffffffffffffffffffffff1602179055506200014f565b610ce38062002e1a83390190565b6124668062003afd83390190565b612cbb806200015f6000396000f3fe608060405234801561001057600080fd5b50600436106101005760003560e01c806386758e5411610097578063d7627ad111610066578063d7627ad114610249578063edef019d14610279578063f4ab9adf146102a9578063fdad211f146102c557610100565b806386758e54146101c557806386c1ff68146101e1578063a7771ee3146101fd578063c11296cc1461022d57610100565b80633cfe7fa7116100d35780633cfe7fa71461017757806342d7f28e1461018157806346a865761461018b57806379df360a146101a757610100565b80630d28fd2d1461010557806311174a2914610121578063228f1c341461013f578063385704d61461015b575b600080fd5b61011f600480360381019061011a91906116c7565b6102cf565b005b6101296103f1565b6040516101369190611729565b60405180910390f35b61015960048036038101906101549190611770565b610489565b005b61017560048036038101906101709190611921565b610520565b005b61017f610642565b005b610189610758565b005b6101a560048036038101906101a091906116c7565b610931565b005b6101af610a53565b6040516101bc9190611729565b60405180910390f35b6101df60048036038101906101da9190611921565b610b7d565b005b6101fb60048036038101906101f6919061196a565b610c9f565b005b6102176004803603810190610212919061196a565b610dc1565b60405161022491906119b2565b60405180910390f35b61024760048036038101906102429190611b8f565b610e66565b005b610263600480360381019061025e9190611bd8565b610f88565b60405161027091906120cb565b60405180910390f35b610293600480360381019061028e9190611bd8565b6110ca565b6040516102a09190612144565b60405180910390f35b6102c360048036038101906102be919061196a565b611234565b005b6102cd611356565b005b6000800160009054906101000a900473ffffffffffffffffffffffffffffffffffffffff1673ffffffffffffffffffffffffffffffffffffffff163373ffffffffffffffffffffffffffffffffffffffff1614610361576040517f7625245e000000000000000000000000000000000000000000000000000000008152600401610358906121e9565b60405180910390fd5b600160009054906101000a900473ffffffffffffffffffffffffffffffffffffffff1673ffffffffffffffffffffffffffffffffffffffff16630d28fd2d826040518263ffffffff1660e01b81526004016103bc9190612242565b600060405180830381600087803b1580156103d657600080fd5b505af11580156103ea573d6000803e3d6000fd5b5050505050565b6000600260009054906101000a900473ffffffffffffffffffffffffffffffffffffffff1673ffffffffffffffffffffffffffffffffffffffff166311174a296040518163ffffffff1660e01b8152600401602060405180830381865afa158015610460573d6000803e3d6000fd5b505050506040513d601f19601f820116820180604052508101906104849190612279565b905090565b6000604051806060016040528085815260200184815260200183815250905060068190806001815401808255809150506001900390600052602060002090600302016000909190919091506000820151816000015560208201518160010190805190602001906104fa92919061146c565b50604082015181600201908051906020019061051792919061146c565b50505050505050565b6000800160009054906101000a900473ffffffffffffffffffffffffffffffffffffffff1673ffffffffffffffffffffffffffffffffffffffff163373ffffffffffffffffffffffffffffffffffffffff16146105b2576040517f7625245e0000000000000000000000000000000000000000000000000000000081526004016105a9906121e9565b60405180910390fd5b600260009054906101000a900473ffffffffffffffffffffffffffffffffffffffff1673ffffffffffffffffffffffffffffffffffffffff1663385704d6826040518263ffffffff1660e01b815260040161060d9190612364565b600060405180830381600087803b15801561062757600080fd5b505af115801561063b573d6000803e3d6000fd5b5050505050565b6000800160009054906101000a900473ffffffffffffffffffffffffffffffffffffffff1673ffffffffffffffffffffffffffffffffffffffff163373ffffffffffffffffffffffffffffffffffffffff16146106d4576040517f7625245e0000000000000000000000000000000000000000000000000000000081526004016106cb906121e9565b60405180910390fd5b600160009054906101000a900473ffffffffffffffffffffffffffffffffffffffff1673ffffffffffffffffffffffffffffffffffffffff16633cfe7fa76040518163ffffffff1660e01b8152600401600060405180830381600087803b15801561073e57600080fd5b505af1158015610752573d6000803e3d6000fd5b50505050565b60006004600080815260200190815260200160002090506040518060400160405280600b81526020017f68656c6c6f20776f726c640000000000000000000000000000000000000000008152508160000190805190602001906107bc92919061146c565b5060006005600080815260200190815260200160002090506040518060400160405280600281526020017f686900000000000000000000000000000000000000000000000000000000000081525081600001908051906020019061082192919061146c565b5060006040518060400160405280600581526020017f776f726c640000000000000000000000000000000000000000000000000000008152509050816001018190806001815401808255809150506001900390600052602060002001600090919091909150908051906020019061089992919061146c565b50600060405180602001604052806040518060400160405280600381526020017f68657900000000000000000000000000000000000000000000000000000000008152508152509050826002018190806001815401808255809150506001900390600052602060002001600090919091909150600082015181600001908051906020019061092892919061146c565b50505050505050565b6000800160009054906101000a900473ffffffffffffffffffffffffffffffffffffffff1673ffffffffffffffffffffffffffffffffffffffff163373ffffffffffffffffffffffffffffffffffffffff16146109c3576040517f7625245e0000000000000000000000000000000000000000000000000000000081526004016109ba906121e9565b60405180910390fd5b600160009054906101000a900473ffffffffffffffffffffffffffffffffffffffff1673ffffffffffffffffffffffffffffffffffffffff166346a86576826040518263ffffffff1660e01b8152600401610a1e9190612242565b600060405180830381600087803b158015610a3857600080fd5b505af1158015610a4c573d6000803e3d6000fd5b5050505050565b60008060000160009054906101000a900473ffffffffffffffffffffffffffffffffffffffff1673ffffffffffffffffffffffffffffffffffffffff163373ffffffffffffffffffffffffffffffffffffffff1614610ae7576040517f7625245e000000000000000000000000000000000000000000000000000000008152600401610ade906121e9565b60405180910390fd5b600160009054906101000a900473ffffffffffffffffffffffffffffffffffffffff1673ffffffffffffffffffffffffffffffffffffffff166379df360a6040518163ffffffff1660e01b8152600401602060405180830381865afa158015610b54573d6000803e3d6000fd5b505050506040513d601f19601f82011682018060405250810190610b789190612279565b905090565b6000800160009054906101000a900473ffffffffffffffffffffffffffffffffffffffff1673ffffffffffffffffffffffffffffffffffffffff163373ffffffffffffffffffffffffffffffffffffffff1614610c0f576040517f7625245e000000000000000000000000000000000000000000000000000000008152600401610c06906121e9565b60405180910390fd5b600260009054906101000a900473ffffffffffffffffffffffffffffffffffffffff1673ffffffffffffffffffffffffffffffffffffffff166386758e54826040518263ffffffff1660e01b8152600401610c6a9190612364565b600060405180830381600087803b158015610c8457600080fd5b505af1158015610c98573d6000803e3d6000fd5b5050505050565b6000800160009054906101000a900473ffffffffffffffffffffffffffffffffffffffff1673ffffffffffffffffffffffffffffffffffffffff163373ffffffffffffffffffffffffffffffffffffffff1614610d31576040517f7625245e000000000000000000000000000000000000000000000000000000008152600401610d28906121e9565b60405180910390fd5b600260009054906101000a900473ffffffffffffffffffffffffffffffffffffffff1673ffffffffffffffffffffffffffffffffffffffff166386c1ff68826040518263ffffffff1660e01b8152600401610d8c9190612395565b600060405180830381600087803b158015610da657600080fd5b505af1158015610dba573d6000803e3d6000fd5b5050505050565b6000600260009054906101000a900473ffffffffffffffffffffffffffffffffffffffff1673ffffffffffffffffffffffffffffffffffffffff1663a7771ee3836040518263ffffffff1660e01b8152600401610e1e9190612395565b602060405180830381865afa158015610e3b573d6000803e3d6000fd5b505050506040513d601f19601f82011682018060405250810190610e5f91906123dc565b9050919050565b6000800160009054906101000a900473ffffffffffffffffffffffffffffffffffffffff1673ffffffffffffffffffffffffffffffffffffffff163373ffffffffffffffffffffffffffffffffffffffff1614610ef8576040517f7625245e000000000000000000000000000000000000000000000000000000008152600401610eef906121e9565b60405180910390fd5b600160009054906101000a900473ffffffffffffffffffffffffffffffffffffffff1673ffffffffffffffffffffffffffffffffffffffff1663c11296cc826040518263ffffffff1660e01b8152600401610f53919061258d565b600060405180830381600087803b158015610f6d57600080fd5b505af1158015610f81573d6000803e3d6000fd5b5050505050565b610f906114f2565b6000800160009054906101000a900473ffffffffffffffffffffffffffffffffffffffff1673ffffffffffffffffffffffffffffffffffffffff163373ffffffffffffffffffffffffffffffffffffffff1614611022576040517f7625245e000000000000000000000000000000000000000000000000000000008152600401611019906121e9565b60405180910390fd5b600160009054906101000a900473ffffffffffffffffffffffffffffffffffffffff1673ffffffffffffffffffffffffffffffffffffffff1663d7627ad1836040518263ffffffff1660e01b815260040161107d9190611729565b600060405180830381865afa15801561109a573d6000803e3d6000fd5b505050506040513d6000823e3d601f19601f820116820180604052508101906110c39190612bac565b9050919050565b6110d261152f565b600682815481106110e6576110e5612bf5565b5b90600052602060002090600302016040518060600160405290816000820154815260200160018201805461111990612c53565b80601f016020809104026020016040519081016040528092919081815260200182805461114590612c53565b80156111925780601f1061116757610100808354040283529160200191611192565b820191906000526020600020905b81548152906001019060200180831161117557829003601f168201915b505050505081526020016002820180546111ab90612c53565b80601f01602080910402602001604051908101604052809291908181526020018280546111d790612c53565b80156112245780601f106111f957610100808354040283529160200191611224565b820191906000526020600020905b81548152906001019060200180831161120757829003601f168201915b5050505050815250509050919050565b6000800160009054906101000a900473ffffffffffffffffffffffffffffffffffffffff1673ffffffffffffffffffffffffffffffffffffffff163373ffffffffffffffffffffffffffffffffffffffff16146112c6576040517f7625245e0000000000000000000000000000000000000000000000000000000081526004016112bd906121e9565b60405180910390fd5b600260009054906101000a900473ffffffffffffffffffffffffffffffffffffffff1673ffffffffffffffffffffffffffffffffffffffff1663f4ab9adf826040518263ffffffff1660e01b81526004016113219190612395565b600060405180830381600087803b15801561133b57600080fd5b505af115801561134f573d6000803e3d6000fd5b5050505050565b6000800160009054906101000a900473ffffffffffffffffffffffffffffffffffffffff1673ffffffffffffffffffffffffffffffffffffffff163373ffffffffffffffffffffffffffffffffffffffff16146113e8576040517f7625245e0000000000000000000000000000000000000000000000000000000081526004016113df906121e9565b60405180910390fd5b600160009054906101000a900473ffffffffffffffffffffffffffffffffffffffff1673ffffffffffffffffffffffffffffffffffffffff1663fdad211f6040518163ffffffff1660e01b8152600401600060405180830381600087803b15801561145257600080fd5b505af1158015611466573d6000803e3d6000fd5b50505050565b82805461147890612c53565b90600052602060002090601f01602090048101928261149a57600085556114e1565b82601f106114b357805160ff19168380011785556114e1565b828001600101855582156114e1579182015b828111156114e05782518255916020019190600101906114c5565b5b5090506114ee9190611550565b5090565b6040518060e00160405280600081526020016060815260200160008152602001600081526020016000815260200160608152602001606081525090565b60405180606001604052806000815260200160608152602001606081525090565b5b80821115611569576000816000905550600101611551565b5090565b6000604051905090565b600080fd5b600080fd5b600080fd5b600080fd5b6000601f19601f8301169050919050565b7f4e487b7100000000000000000000000000000000000000000000000000000000600052604160045260246000fd5b6115d48261158b565b810181811067ffffffffffffffff821117156115f3576115f261159c565b5b80604052505050565b600061160661156d565b905061161282826115cb565b919050565b600067ffffffffffffffff8211156116325761163161159c565b5b61163b8261158b565b9050602081019050919050565b82818337600083830152505050565b600061166a61166584611617565b6115fc565b90508281526020810184848401111561168657611685611586565b5b611691848285611648565b509392505050565b600082601f8301126116ae576116ad611581565b5b81356116be848260208601611657565b91505092915050565b6000602082840312156116dd576116dc611577565b5b600082013567ffffffffffffffff8111156116fb576116fa61157c565b5b61170784828501611699565b91505092915050565b6000819050919050565b61172381611710565b82525050565b600060208201905061173e600083018461171a565b92915050565b61174d81611710565b811461175857600080fd5b50565b60008135905061176a81611744565b92915050565b60008060006060848603121561178957611788611577565b5b60006117978682870161175b565b935050602084013567ffffffffffffffff8111156117b8576117b761157c565b5b6117c486828701611699565b925050604084013567ffffffffffffffff8111156117e5576117e461157c565b5b6117f186828701611699565b9150509250925092565b600067ffffffffffffffff8211156118165761181561159c565b5b602082029050602081019050919050565b600080fd5b600073ffffffffffffffffffffffffffffffffffffffff82169050919050565b60006118578261182c565b9050919050565b6118678161184c565b811461187257600080fd5b50565b6000813590506118848161185e565b92915050565b600061189d611898846117fb565b6115fc565b905080838252602082019050602084028301858111156118c0576118bf611827565b5b835b818110156118e957806118d58882611875565b8452602084019350506020810190506118c2565b5050509392505050565b600082601f83011261190857611907611581565b5b813561191884826020860161188a565b91505092915050565b60006020828403121561193757611936611577565b5b600082013567ffffffffffffffff8111156119555761195461157c565b5b611961848285016118f3565b91505092915050565b6000602082840312156119805761197f611577565b5b600061198e84828501611875565b91505092915050565b60008115159050919050565b6119ac81611997565b82525050565b60006020820190506119c760008301846119a3565b92915050565b600067ffffffffffffffff8211156119e8576119e761159c565b5b602082029050602081019050919050565b600067ffffffffffffffff821115611a1457611a1361159c565b5b602082029050602081019050919050565b6000611a38611a33846119f9565b6115fc565b90508083825260208201905060208402830185811115611a5b57611a5a611827565b5b835b81811015611aa257803567ffffffffffffffff811115611a8057611a7f611581565b5b808601611a8d8982611699565b85526020850194505050602081019050611a5d565b5050509392505050565b600082601f830112611ac157611ac0611581565b5b8135611ad1848260208601611a25565b91505092915050565b6000611aed611ae8846119cd565b6115fc565b90508083825260208201905060208402830185811115611b1057611b0f611827565b5b835b81811015611b5757803567ffffffffffffffff811115611b3557611b34611581565b5b808601611b428982611aac565b85526020850194505050602081019050611b12565b5050509392505050565b600082601f830112611b7657611b75611581565b5b8135611b86848260208601611ada565b91505092915050565b600060208284031215611ba557611ba4611577565b5b600082013567ffffffffffffffff811115611bc357611bc261157c565b5b611bcf84828501611b61565b91505092915050565b600060208284031215611bee57611bed611577565b5b6000611bfc8482850161175b565b91505092915050565b611c0e81611710565b82525050565b600081519050919050565b600082825260208201905092915050565b60005b83811015611c4e578082015181840152602081019050611c33565b83811115611c5d576000848401525b50505050565b6000611c6e82611c14565b611c788185611c1f565b9350611c88818560208601611c30565b611c918161158b565b840191505092915050565b600081519050919050565b600082825260208201905092915050565b6000819050602082019050919050565b600081519050919050565b600082825260208201905092915050565b6000819050602082019050919050565b6000606083016000830151611d0c6000860182611c05565b5060208301518482036020860152611d248282611c63565b9150506040830151611d396040860182611c05565b508091505092915050565b6000611d508383611cf4565b905092915050565b6000602082019050919050565b6000611d7082611cc8565b611d7a8185611cd3565b935083602082028501611d8c85611ce4565b8060005b85811015611dc85784840389528151611da98582611d44565b9450611db483611d58565b925060208a01995050600181019050611d90565b50829750879550505050505092915050565b6000608083016000830151611df26000860182611c05565b5060208301518482036020860152611e0a8282611c63565b9150506040830151611e1f6040860182611c05565b5060608301518482036060860152611e378282611d65565b9150508091505092915050565b6000611e508383611dda565b905092915050565b6000602082019050919050565b6000611e7082611c9c565b611e7a8185611ca7565b935083602082028501611e8c85611cb8565b8060005b85811015611ec85784840389528151611ea98582611e44565b9450611eb483611e58565b925060208a01995050600181019050611e90565b50829750879550505050505092915050565b600081519050919050565b600082825260208201905092915050565b6000819050602082019050919050565b611f0f81611997565b82525050565b600060a083016000830151611f2d6000860182611c05565b5060208301518482036020860152611f458282611c63565b9150506040830151611f5a6040860182611c05565b506060830151611f6d6060860182611c05565b506080830151611f806080860182611f06565b508091505092915050565b6000611f978383611f15565b905092915050565b6000602082019050919050565b6000611fb782611eda565b611fc18185611ee5565b935083602082028501611fd385611ef6565b8060005b8581101561200f5784840389528151611ff08582611f8b565b9450611ffb83611f9f565b925060208a01995050600181019050611fd7565b50829750879550505050505092915050565b600060e0830160008301516120396000860182611c05565b50602083015184820360208601526120518282611c63565b91505060408301516120666040860182611c05565b5060608301516120796060860182611c05565b50608083015161208c6080860182611c05565b5060a083015184820360a08601526120a48282611e65565b91505060c083015184820360c08601526120be8282611fac565b9150508091505092915050565b600060208201905081810360008301526120e58184612021565b905092915050565b60006060830160008301516121056000860182611c05565b506020830151848203602086015261211d8282611c63565b915050604083015184820360408601526121378282611c63565b9150508091505092915050565b6000602082019050818103600083015261215e81846120ed565b905092915050565b600082825260208201905092915050565b7f4f6e6c792041646d696e6973747261746f72204d61792043616c6c2046756e6360008201527f74696f6e00000000000000000000000000000000000000000000000000000000602082015250565b60006121d3602483612166565b91506121de82612177565b604082019050919050565b60006020820190508181036000830152612202816121c6565b9050919050565b600061221482611c14565b61221e8185612166565b935061222e818560208601611c30565b6122378161158b565b840191505092915050565b6000602082019050818103600083015261225c8184612209565b905092915050565b60008151905061227381611744565b92915050565b60006020828403121561228f5761228e611577565b5b600061229d84828501612264565b91505092915050565b600081519050919050565b600082825260208201905092915050565b6000819050602082019050919050565b6122db8161184c565b82525050565b60006122ed83836122d2565b60208301905092915050565b6000602082019050919050565b6000612311826122a6565b61231b81856122b1565b9350612326836122c2565b8060005b8381101561235757815161233e88826122e1565b9750612349836122f9565b92505060018101905061232a565b5085935050505092915050565b6000602082019050818103600083015261237e8184612306565b905092915050565b61238f8161184c565b82525050565b60006020820190506123aa6000830184612386565b92915050565b6123b981611997565b81146123c457600080fd5b50565b6000815190506123d6816123b0565b92915050565b6000602082840312156123f2576123f1611577565b5b6000612400848285016123c7565b91505092915050565b600081519050919050565b600082825260208201905092915050565b6000819050602082019050919050565b600081519050919050565b600082825260208201905092915050565b6000819050602082019050919050565b600061246d8383611c63565b905092915050565b6000602082019050919050565b600061248d82612435565b6124978185612440565b9350836020820285016124a985612451565b8060005b858110156124e557848403895281516124c68582612461565b94506124d183612475565b925060208a019950506001810190506124ad565b50829750879550505050505092915050565b60006125038383612482565b905092915050565b6000602082019050919050565b600061252382612409565b61252d8185612414565b93508360208202850161253f85612425565b8060005b8581101561257b578484038952815161255c85826124f7565b94506125678361250b565b925060208a01995050600181019050612543565b50829750879550505050505092915050565b600060208201905081810360008301526125a78184612518565b905092915050565b600080fd5b600080fd5b60006125cc6125c784611617565b6115fc565b9050828152602081018484840111156125e8576125e7611586565b5b6125f3848285611c30565b509392505050565b600082601f8301126126105761260f611581565b5b81516126208482602086016125b9565b91505092915050565b600067ffffffffffffffff8211156126445761264361159c565b5b602082029050602081019050919050565b600067ffffffffffffffff8211156126705761266f61159c565b5b602082029050602081019050919050565b600060608284031215612697576126966125af565b5b6126a160606115fc565b905060006126b184828501612264565b600083015250602082015167ffffffffffffffff8111156126d5576126d46125b4565b5b6126e1848285016125fb565b60208301525060406126f584828501612264565b60408301525092915050565b600061271461270f84612655565b6115fc565b9050808382526020820190506020840283018581111561273757612736611827565b5b835b8181101561277e57805167ffffffffffffffff81111561275c5761275b611581565b5b8086016127698982612681565b85526020850194505050602081019050612739565b5050509392505050565b600082601f83011261279d5761279c611581565b5b81516127ad848260208601612701565b91505092915050565b6000608082840312156127cc576127cb6125af565b5b6127d660806115fc565b905060006127e684828501612264565b600083015250602082015167ffffffffffffffff81111561280a576128096125b4565b5b612816848285016125fb565b602083015250604061282a84828501612264565b604083015250606082015167ffffffffffffffff81111561284e5761284d6125b4565b5b61285a84828501612788565b60608301525092915050565b600061287961287484612629565b6115fc565b9050808382526020820190506020840283018581111561289c5761289b611827565b5b835b818110156128e357805167ffffffffffffffff8111156128c1576128c0611581565b5b8086016128ce89826127b6565b8552602085019450505060208101905061289e565b5050509392505050565b600082601f83011261290257612901611581565b5b8151612912848260208601612866565b91505092915050565b600067ffffffffffffffff8211156129365761293561159c565b5b602082029050602081019050919050565b600060a0828403121561295d5761295c6125af565b5b61296760a06115fc565b9050600061297784828501612264565b600083015250602082015167ffffffffffffffff81111561299b5761299a6125b4565b5b6129a7848285016125fb565b60208301525060406129bb84828501612264565b60408301525060606129cf84828501612264565b60608301525060806129e3848285016123c7565b60808301525092915050565b6000612a026129fd8461291b565b6115fc565b90508083825260208201905060208402830185811115612a2557612a24611827565b5b835b81811015612a6c57805167ffffffffffffffff811115612a4a57612a49611581565b5b808601612a578982612947565b85526020850194505050602081019050612a27565b5050509392505050565b600082601f830112612a8b57612a8a611581565b5b8151612a9b8482602086016129ef565b91505092915050565b600060e08284031215612aba57612ab96125af565b5b612ac460e06115fc565b90506000612ad484828501612264565b600083015250602082015167ffffffffffffffff811115612af857612af76125b4565b5b612b04848285016125fb565b6020830152506040612b1884828501612264565b6040830152506060612b2c84828501612264565b6060830152506080612b4084828501612264565b60808301525060a082015167ffffffffffffffff811115612b6457612b636125b4565b5b612b70848285016128ed565b60a08301525060c082015167ffffffffffffffff811115612b9457612b936125b4565b5b612ba084828501612a76565b60c08301525092915050565b600060208284031215612bc257612bc1611577565b5b600082015167ffffffffffffffff811115612be057612bdf61157c565b5b612bec84828501612aa4565b91505092915050565b7f4e487b7100000000000000000000000000000000000000000000000000000000600052603260045260246000fd5b7f4e487b7100000000000000000000000000000000000000000000000000000000600052602260045260246000fd5b60006002820490506001821680612c6b57607f821691505b60208210811415612c7f57612c7e612c24565b5b5091905056fea264697066735822122075a8d03457425ef3aefe86a84b7ad7ce51c181d33011a3134d38724bdfbc68e364736f6c634300080b0033608060405234801561001057600080fd5b5033600260006101000a81548173ffffffffffffffffffffffffffffffffffffffff021916908373ffffffffffffffffffffffffffffffffffffffff160217905550610c82806100616000396000f3fe608060405234801561001057600080fd5b506004361061007d5760003560e01c806386758e541161005b57806386758e54146100ec57806386c1ff6814610108578063a7771ee314610124578063f4ab9adf146101545761007d565b806311174a291461008257806327736f85146100a0578063385704d6146100d0575b600080fd5b61008a610170565b60405161009791906107e2565b60405180910390f35b6100ba60048036038101906100b5919061086f565b610179565b6040516100c791906108ab565b60405180910390f35b6100ea60048036038101906100e59190610a1f565b6101b7565b005b61010660048036038101906101019190610a1f565b610367565b005b610122600480360381019061011d919061086f565b6104b2565b005b61013e6004803603810190610139919061086f565b6105c3565b60405161014b9190610a83565b60405180910390f35b61016e6004803603810190610169919061086f565b61066d565b005b60008054905090565b60016020528060005260406000206000915090508060000160009054906101000a900473ffffffffffffffffffffffffffffffffffffffff16905081565b600260009054906101000a900473ffffffffffffffffffffffffffffffffffffffff1673ffffffffffffffffffffffffffffffffffffffff163373ffffffffffffffffffffffffffffffffffffffff1614610247576040517ff7251ccf00000000000000000000000000000000000000000000000000000000815260040161023e90610afb565b60405180910390fd5b60005b8151811015610363576000604051806020016040528084848151811061027357610272610b1b565b5b602002602001015173ffffffffffffffffffffffffffffffffffffffff16815250905080600160008585815181106102ae576102ad610b1b565b5b602002602001015173ffffffffffffffffffffffffffffffffffffffff1673ffffffffffffffffffffffffffffffffffffffff16815260200190815260200160002060008201518160000160006101000a81548173ffffffffffffffffffffffffffffffffffffffff021916908373ffffffffffffffffffffffffffffffffffffffff16021790555090505060016000546103499190610b79565b60008190555050808061035b90610bcf565b91505061024a565b5050565b600260009054906101000a900473ffffffffffffffffffffffffffffffffffffffff1673ffffffffffffffffffffffffffffffffffffffff163373ffffffffffffffffffffffffffffffffffffffff16146103f7576040517ff7251ccf0000000000000000000000000000000000000000000000000000000081526004016103ee90610afb565b60405180910390fd5b60005b81518110156104ae576001600083838151811061041a57610419610b1b565b5b602002602001015173ffffffffffffffffffffffffffffffffffffffff1673ffffffffffffffffffffffffffffffffffffffff168152602001908152602001600020600080820160006101000a81549073ffffffffffffffffffffffffffffffffffffffff0219169055505060016000546104959190610c18565b60008190555080806104a690610bcf565b9150506103fa565b5050565b600260009054906101000a900473ffffffffffffffffffffffffffffffffffffffff1673ffffffffffffffffffffffffffffffffffffffff163373ffffffffffffffffffffffffffffffffffffffff1614610542576040517ff7251ccf00000000000000000000000000000000000000000000000000000000815260040161053990610afb565b60405180910390fd5b600160008273ffffffffffffffffffffffffffffffffffffffff1673ffffffffffffffffffffffffffffffffffffffff168152602001908152602001600020600080820160006101000a81549073ffffffffffffffffffffffffffffffffffffffff0219169055505060016000546105ba9190610c18565b60008190555050565b60008073ffffffffffffffffffffffffffffffffffffffff16600160008473ffffffffffffffffffffffffffffffffffffffff1673ffffffffffffffffffffffffffffffffffffffff16815260200190815260200160002060000160009054906101000a900473ffffffffffffffffffffffffffffffffffffffff1673ffffffffffffffffffffffffffffffffffffffff16146106635760019050610668565b600090505b919050565b600260009054906101000a900473ffffffffffffffffffffffffffffffffffffffff1673ffffffffffffffffffffffffffffffffffffffff163373ffffffffffffffffffffffffffffffffffffffff16146106fd576040517ff7251ccf0000000000000000000000000000000000000000000000000000000081526004016106f490610afb565b60405180910390fd5b600060405180602001604052808373ffffffffffffffffffffffffffffffffffffffff16815250905080600160008473ffffffffffffffffffffffffffffffffffffffff1673ffffffffffffffffffffffffffffffffffffffff16815260200190815260200160002060008201518160000160006101000a81548173ffffffffffffffffffffffffffffffffffffffff021916908373ffffffffffffffffffffffffffffffffffffffff16021790555090505060016000546107bf9190610b79565b6000819055505050565b6000819050919050565b6107dc816107c9565b82525050565b60006020820190506107f760008301846107d3565b92915050565b6000604051905090565b600080fd5b600080fd5b600073ffffffffffffffffffffffffffffffffffffffff82169050919050565b600061083c82610811565b9050919050565b61084c81610831565b811461085757600080fd5b50565b60008135905061086981610843565b92915050565b60006020828403121561088557610884610807565b5b60006108938482850161085a565b91505092915050565b6108a581610831565b82525050565b60006020820190506108c0600083018461089c565b92915050565b600080fd5b6000601f19601f8301169050919050565b7f4e487b7100000000000000000000000000000000000000000000000000000000600052604160045260246000fd5b610914826108cb565b810181811067ffffffffffffffff82111715610933576109326108dc565b5b80604052505050565b60006109466107fd565b9050610952828261090b565b919050565b600067ffffffffffffffff821115610972576109716108dc565b5b602082029050602081019050919050565b600080fd5b600061099b61099684610957565b61093c565b905080838252602082019050602084028301858111156109be576109bd610983565b5b835b818110156109e757806109d3888261085a565b8452602084019350506020810190506109c0565b5050509392505050565b600082601f830112610a0657610a056108c6565b5b8135610a16848260208601610988565b91505092915050565b600060208284031215610a3557610a34610807565b5b600082013567ffffffffffffffff811115610a5357610a5261080c565b5b610a5f848285016109f1565b91505092915050565b60008115159050919050565b610a7d81610a68565b82525050565b6000602082019050610a986000830184610a74565b92915050565b600082825260208201905092915050565b7f4f6e6c79204f776e6572204d61792043616c6c2046756e6374696f6e00000000600082015250565b6000610ae5601c83610a9e565b9150610af082610aaf565b602082019050919050565b60006020820190508181036000830152610b1481610ad8565b9050919050565b7f4e487b7100000000000000000000000000000000000000000000000000000000600052603260045260246000fd5b7f4e487b7100000000000000000000000000000000000000000000000000000000600052601160045260246000fd5b6000610b84826107c9565b9150610b8f836107c9565b9250827fffffffffffffffffffffffffffffffffffffffffffffffffffffffffffffffff03821115610bc457610bc3610b4a565b5b828201905092915050565b6000610bda826107c9565b91507fffffffffffffffffffffffffffffffffffffffffffffffffffffffffffffffff821415610c0d57610c0c610b4a565b5b600182019050919050565b6000610c23826107c9565b9150610c2e836107c9565b925082821015610c4157610c40610b4a565b5b82820390509291505056fea26469706673582212205f8ec20ff0f49482830e269fa41f9ac2631eaebae0500dbbc861fa0dba3163d664736f6c634300080b0033608060405260008055600180556002805534801561001c57600080fd5b5033600560006101000a81548173ffffffffffffffffffffffffffffffffffffffff021916908373ffffffffffffffffffffffffffffffffffffffff1602179055506123f98061006d6000396000f3fe608060405234801561001057600080fd5b506004361061009e5760003560e01c806346a865761161006657806346a865761461011d57806379df360a14610139578063c11296cc14610157578063d7627ad114610173578063fdad211f146101a35761009e565b80630d28fd2d146100a357806328e58f37146100bf57806331a0c16e146100db578063389ddfee146100f75780633cfe7fa714610113575b600080fd5b6100bd60048036038101906100b891906118b3565b6101ad565b005b6100d960048036038101906100d49190611a18565b6102f8565b005b6100f560048036038101906100f09190611a74565b610408565b005b610111600480360381019061010c9190611aa1565b610591565b005b61011b610700565b005b610137600480360381019061013291906118b3565b610825565b005b6101416109bc565b60405161014e9190611b0c565b60405180910390f35b610171600480360381019061016c9190611c08565b610a8d565b005b61018d60048036038101906101889190611a74565b610e83565b60405161019a9190612123565b60405180910390f35b6101ab61135b565b005b600560009054906101000a900473ffffffffffffffffffffffffffffffffffffffff1673ffffffffffffffffffffffffffffffffffffffff163373ffffffffffffffffffffffffffffffffffffffff161461023d576040517ff7251ccf000000000000000000000000000000000000000000000000000000008152600401610234906121a2565b60405180910390fd5b6000600480549050148061027957506000600460035481548110610264576102636121c2565b5b90600052602060002090600702016002015414155b156102b9576040517f5d2d8a4c0000000000000000000000000000000000000000000000000000000081526004016102b09061223d565b60405180910390fd5b806004600354815481106102d0576102cf6121c2565b5b906000526020600020906007020160010190805190602001906102f49291906114fc565b5050565b600560009054906101000a900473ffffffffffffffffffffffffffffffffffffffff1673ffffffffffffffffffffffffffffffffffffffff163373ffffffffffffffffffffffffffffffffffffffff1614610388576040517ff7251ccf00000000000000000000000000000000000000000000000000000000815260040161037f906121a2565b60405180910390fd5b600060048054905014806103c4575060006004600354815481106103af576103ae6121c2565b5b90600052602060002090600702016002015414155b15610404576040517f5d2d8a4c0000000000000000000000000000000000000000000000000000000081526004016103fb9061223d565b60405180910390fd5b5050565b600560009054906101000a900473ffffffffffffffffffffffffffffffffffffffff1673ffffffffffffffffffffffffffffffffffffffff163373ffffffffffffffffffffffffffffffffffffffff1614610498576040517ff7251ccf00000000000000000000000000000000000000000000000000000000815260040161048f906121a2565b60405180910390fd5b600060048054905014806104d4575060006004600354815481106104bf576104be6121c2565b5b90600052602060002090600702016002015414155b15610514576040517f5d2d8a4c00000000000000000000000000000000000000000000000000000000815260040161050b9061223d565b60405180910390fd5b60046003548154811061052a576105296121c2565b5b9060005260206000209060070201600501818154811061054d5761054c6121c2565b5b90600052602060002090600402016000808201600090556001820160006105749190611582565b600282016000905560038201600061058c91906115c2565b505050565b600560009054906101000a900473ffffffffffffffffffffffffffffffffffffffff1673ffffffffffffffffffffffffffffffffffffffff163373ffffffffffffffffffffffffffffffffffffffff1614610621576040517ff7251ccf000000000000000000000000000000000000000000000000000000008152600401610618906121a2565b60405180910390fd5b6000600480549050148061065d57506000600460035481548110610648576106476121c2565b5b90600052602060002090600702016002015414155b1561069d576040517f5d2d8a4c0000000000000000000000000000000000000000000000000000000081526004016106949061223d565b60405180910390fd5b806004600354815481106106b4576106b36121c2565b5b906000526020600020906007020160050183815481106106d7576106d66121c2565b5b906000526020600020906004020160010190805190602001906106fb9291906114fc565b505050565b600560009054906101000a900473ffffffffffffffffffffffffffffffffffffffff1673ffffffffffffffffffffffffffffffffffffffff163373ffffffffffffffffffffffffffffffffffffffff1614610790576040517ff7251ccf000000000000000000000000000000000000000000000000000000008152600401610787906121a2565b60405180910390fd5b6000546004600354815481106107a9576107a86121c2565b5b90600052602060002090600702016002015414156107f4576001546004600354815481106107da576107d96121c2565b5b906000526020600020906007020160020181905550610823565b60025460046003548154811061080d5761080c6121c2565b5b9060005260206000209060070201600201819055505b565b600560009054906101000a900473ffffffffffffffffffffffffffffffffffffffff1673ffffffffffffffffffffffffffffffffffffffff163373ffffffffffffffffffffffffffffffffffffffff16146108b5576040517ff7251ccf0000000000000000000000000000000000000000000000000000000081526004016108ac906121a2565b60405180910390fd5b600060048054905014806108f157506002546004600354815481106108dd576108dc6121c2565b5b906000526020600020906007020160020154145b6108fa57600080fd5b600060048054905014610920576003600081548092919061091a9061228c565b91905055505b60046001816001815401808255809150500390600052602060002090505060006004600160048054905061095491906122d5565b81548110610965576109646121c2565b5b906000526020600020906007020190506003548160000181905550818160010190805190602001906109989291906114fc565b50600054816002018190555060008160030181905550600081600401819055505050565b6000600560009054906101000a900473ffffffffffffffffffffffffffffffffffffffff1673ffffffffffffffffffffffffffffffffffffffff163373ffffffffffffffffffffffffffffffffffffffff1614610a4e576040517ff7251ccf000000000000000000000000000000000000000000000000000000008152600401610a45906121a2565b60405180910390fd5b600060048054905011610a6057600080fd5b600460035481548110610a7657610a756121c2565b5b906000526020600020906007020160020154905090565b600560009054906101000a900473ffffffffffffffffffffffffffffffffffffffff1673ffffffffffffffffffffffffffffffffffffffff163373ffffffffffffffffffffffffffffffffffffffff1614610b1d576040517ff7251ccf000000000000000000000000000000000000000000000000000000008152600401610b14906121a2565b60405180910390fd5b60006004805490501480610b5957506000600460035481548110610b4457610b436121c2565b5b90600052602060002090600702016002015414155b15610b99576040517f5d2d8a4c000000000000000000000000000000000000000000000000000000008152600401610b909061223d565b60405180910390fd5b60005b8151811015610e7f576000600460035481548110610bbd57610bbc6121c2565b5b90600052602060002090600702016005018054905014610c1557600460035481548110610bed57610bec6121c2565b5b90600052602060002090600702016003016000815480929190610c0f9061228c565b91905055505b600460035481548110610c2b57610c2a6121c2565b5b9060005260206000209060070201600501600181600181540180825580915050039060005260206000209050506000600460035481548110610c7057610c6f6121c2565b5b90600052602060002090600702016005016001600460035481548110610c9957610c986121c2565b5b906000526020600020906007020160050180549050610cb891906122d5565b81548110610cc957610cc86121c2565b5b90600052602060002090600402019050600460035481548110610cef57610cee6121c2565b5b9060005260206000209060070201600301548160000181905550828281518110610d1c57610d1b6121c2565b5b6020026020010151600081518110610d3757610d366121c2565b5b6020026020010151816001019080519060200190610d569291906114fc565b50600081600201819055506000600190505b838381518110610d7b57610d7a6121c2565b5b602002602001015151811015610e6a576000826003018054905014610db557816002016000815480929190610daf9061228c565b91905055505b8160030160018160018154018082558091505003906000526020600020905050600082600301600183610de891906122d5565b81548110610df957610df86121c2565b5b90600052602060002090600302019050848481518110610e1c57610e1b6121c2565b5b60200260200101518281518110610e3657610e356121c2565b5b6020026020010151816001019080519060200190610e559291906114fc565b50508080610e629061228c565b915050610d68565b50508080610e779061228c565b915050610b9c565b5050565b610e8b6115e6565b600560009054906101000a900473ffffffffffffffffffffffffffffffffffffffff1673ffffffffffffffffffffffffffffffffffffffff163373ffffffffffffffffffffffffffffffffffffffff1614610f1b576040517ff7251ccf000000000000000000000000000000000000000000000000000000008152600401610f12906121a2565b60405180910390fd5b60008210158015610f30575060048054905082105b610f3957600080fd5b60048281548110610f4d57610f4c6121c2565b5b90600052602060002090600702016040518060e001604052908160008201548152602001600182018054610f8090612338565b80601f0160208091040260200160405190810160405280929190818152602001828054610fac90612338565b8015610ff95780601f10610fce57610100808354040283529160200191610ff9565b820191906000526020600020905b815481529060010190602001808311610fdc57829003601f168201915b5050505050815260200160028201548152602001600382015481526020016004820154815260200160058201805480602002602001604051908101604052809291908181526020016000905b8282101561122257838290600052602060002090600402016040518060800160405290816000820154815260200160018201805461108290612338565b80601f01602080910402602001604051908101604052809291908181526020018280546110ae90612338565b80156110fb5780601f106110d0576101008083540402835291602001916110fb565b820191906000526020600020905b8154815290600101906020018083116110de57829003601f168201915b505050505081526020016002820154815260200160038201805480602002602001604051908101604052809291908181526020016000905b8282101561120b57838290600052602060002090600302016040518060600160405290816000820154815260200160018201805461117090612338565b80601f016020809104026020016040519081016040528092919081815260200182805461119c90612338565b80156111e95780601f106111be576101008083540402835291602001916111e9565b820191906000526020600020905b8154815290600101906020018083116111cc57829003601f168201915b5050505050815260200160028201548152505081526020019060010190611133565b505050508152505081526020019060010190611045565b50505050815260200160068201805480602002602001604051908101604052809291908181526020016000905b8282101561134c57838290600052602060002090600502016040518060a00160405290816000820154815260200160018201805461128c90612338565b80601f01602080910402602001604051908101604052809291908181526020018280546112b890612338565b80156113055780601f106112da57610100808354040283529160200191611305565b820191906000526020600020905b8154815290600101906020018083116112e857829003601f168201915b5050505050815260200160028201548152602001600382015481526020016004820160009054906101000a900460ff1615151515815250508152602001906001019061124f565b50505050815250509050919050565b600560009054906101000a900473ffffffffffffffffffffffffffffffffffffffff1673ffffffffffffffffffffffffffffffffffffffff163373ffffffffffffffffffffffffffffffffffffffff16146113eb576040517ff7251ccf0000000000000000000000000000000000000000000000000000000081526004016113e2906121a2565b60405180910390fd5b6000600480549050148061142757506000600460035481548110611412576114116121c2565b5b90600052602060002090600702016002015414155b15611467576040517f5d2d8a4c00000000000000000000000000000000000000000000000000000000815260040161145e9061223d565b60405180910390fd5b60048054806114795761147861236a565b5b60019003818190600052602060002090600702016000808201600090556001820160006114a69190611582565b6002820160009055600382016000905560048201600090556005820160006114ce9190611623565b6006820160006114de9190611647565b50509055600360008154809291906114f590612399565b9190505550565b82805461150890612338565b90600052602060002090601f01602090048101928261152a5760008555611571565b82601f1061154357805160ff1916838001178555611571565b82800160010185558215611571579182015b82811115611570578251825591602001919060010190611555565b5b50905061157e919061166b565b5090565b50805461158e90612338565b6000825580601f106115a057506115bf565b601f0160209004906000526020600020908101906115be919061166b565b5b50565b50805460008255600302906000526020600020908101906115e39190611688565b50565b6040518060e00160405280600081526020016060815260200160008152602001600081526020016000815260200160608152602001606081525090565b508054600082556004029060005260206000209081019061164491906116bf565b50565b50805460008255600502906000526020600020908101906116689190611706565b50565b5b8082111561168457600081600090555060010161166c565b5090565b5b808211156116bb576000808201600090556001820160006116aa9190611582565b600282016000905550600301611689565b5090565b5b80821115611702576000808201600090556001820160006116e19190611582565b60028201600090556003820160006116f991906115c2565b506004016116c0565b5090565b5b80821115611755576000808201600090556001820160006117289190611582565b600282016000905560038201600090556004820160006101000a81549060ff021916905550600501611707565b5090565b6000604051905090565b600080fd5b600080fd5b600080fd5b600080fd5b6000601f19601f8301169050919050565b7f4e487b7100000000000000000000000000000000000000000000000000000000600052604160045260246000fd5b6117c082611777565b810181811067ffffffffffffffff821117156117df576117de611788565b5b80604052505050565b60006117f2611759565b90506117fe82826117b7565b919050565b600067ffffffffffffffff82111561181e5761181d611788565b5b61182782611777565b9050602081019050919050565b82818337600083830152505050565b600061185661185184611803565b6117e8565b90508281526020810184848401111561187257611871611772565b5b61187d848285611834565b509392505050565b600082601f83011261189a5761189961176d565b5b81356118aa848260208601611843565b91505092915050565b6000602082840312156118c9576118c8611763565b5b600082013567ffffffffffffffff8111156118e7576118e6611768565b5b6118f384828501611885565b91505092915050565b6000819050919050565b61190f816118fc565b811461191a57600080fd5b50565b60008135905061192c81611906565b92915050565b600067ffffffffffffffff82111561194d5761194c611788565b5b602082029050602081019050919050565b600080fd5b600061197661197184611932565b6117e8565b905080838252602082019050602084028301858111156119995761199861195e565b5b835b818110156119e057803567ffffffffffffffff8111156119be576119bd61176d565b5b8086016119cb8982611885565b8552602085019450505060208101905061199b565b5050509392505050565b600082601f8301126119ff576119fe61176d565b5b8135611a0f848260208601611963565b91505092915050565b60008060408385031215611a2f57611a2e611763565b5b6000611a3d8582860161191d565b925050602083013567ffffffffffffffff811115611a5e57611a5d611768565b5b611a6a858286016119ea565b9150509250929050565b600060208284031215611a8a57611a89611763565b5b6000611a988482850161191d565b91505092915050565b60008060408385031215611ab857611ab7611763565b5b6000611ac68582860161191d565b925050602083013567ffffffffffffffff811115611ae757611ae6611768565b5b611af385828601611885565b9150509250929050565b611b06816118fc565b82525050565b6000602082019050611b216000830184611afd565b92915050565b600067ffffffffffffffff821115611b4257611b41611788565b5b602082029050602081019050919050565b6000611b66611b6184611b27565b6117e8565b90508083825260208201905060208402830185811115611b8957611b8861195e565b5b835b81811015611bd057803567ffffffffffffffff811115611bae57611bad61176d565b5b808601611bbb89826119ea565b85526020850194505050602081019050611b8b565b5050509392505050565b600082601f830112611bef57611bee61176d565b5b8135611bff848260208601611b53565b91505092915050565b600060208284031215611c1e57611c1d611763565b5b600082013567ffffffffffffffff811115611c3c57611c3b611768565b5b611c4884828501611bda565b91505092915050565b611c5a816118fc565b82525050565b600081519050919050565b600082825260208201905092915050565b60005b83811015611c9a578082015181840152602081019050611c7f565b83811115611ca9576000848401525b50505050565b6000611cba82611c60565b611cc48185611c6b565b9350611cd4818560208601611c7c565b611cdd81611777565b840191505092915050565b600081519050919050565b600082825260208201905092915050565b6000819050602082019050919050565b600081519050919050565b600082825260208201905092915050565b6000819050602082019050919050565b6000606083016000830151611d586000860182611c51565b5060208301518482036020860152611d708282611caf565b9150506040830151611d856040860182611c51565b508091505092915050565b6000611d9c8383611d40565b905092915050565b6000602082019050919050565b6000611dbc82611d14565b611dc68185611d1f565b935083602082028501611dd885611d30565b8060005b85811015611e145784840389528151611df58582611d90565b9450611e0083611da4565b925060208a01995050600181019050611ddc565b50829750879550505050505092915050565b6000608083016000830151611e3e6000860182611c51565b5060208301518482036020860152611e568282611caf565b9150506040830151611e6b6040860182611c51565b5060608301518482036060860152611e838282611db1565b9150508091505092915050565b6000611e9c8383611e26565b905092915050565b6000602082019050919050565b6000611ebc82611ce8565b611ec68185611cf3565b935083602082028501611ed885611d04565b8060005b85811015611f145784840389528151611ef58582611e90565b9450611f0083611ea4565b925060208a01995050600181019050611edc565b50829750879550505050505092915050565b600081519050919050565b600082825260208201905092915050565b6000819050602082019050919050565b60008115159050919050565b611f6781611f52565b82525050565b600060a083016000830151611f856000860182611c51565b5060208301518482036020860152611f9d8282611caf565b9150506040830151611fb26040860182611c51565b506060830151611fc56060860182611c51565b506080830151611fd86080860182611f5e565b508091505092915050565b6000611fef8383611f6d565b905092915050565b6000602082019050919050565b600061200f82611f26565b6120198185611f31565b93508360208202850161202b85611f42565b8060005b8581101561206757848403895281516120488582611fe3565b945061205383611ff7565b925060208a0199505060018101905061202f565b50829750879550505050505092915050565b600060e0830160008301516120916000860182611c51565b50602083015184820360208601526120a98282611caf565b91505060408301516120be6040860182611c51565b5060608301516120d16060860182611c51565b5060808301516120e46080860182611c51565b5060a083015184820360a08601526120fc8282611eb1565b91505060c083015184820360c08601526121168282612004565b9150508091505092915050565b6000602082019050818103600083015261213d8184612079565b905092915050565b600082825260208201905092915050565b7f4f6e6c79204f776e6572204d61792043616c6c2046756e6374696f6e00000000600082015250565b600061218c601c83612145565b915061219782612156565b602082019050919050565b600060208201905081810360008301526121bb8161217f565b9050919050565b7f4e487b7100000000000000000000000000000000000000000000000000000000600052603260045260246000fd5b7f42616c6c6f74204d75737420426520436c6f7365640000000000000000000000600082015250565b6000612227601583612145565b9150612232826121f1565b602082019050919050565b600060208201905081810360008301526122568161221a565b9050919050565b7f4e487b7100000000000000000000000000000000000000000000000000000000600052601160045260246000fd5b6000612297826118fc565b91507fffffffffffffffffffffffffffffffffffffffffffffffffffffffffffffffff8214156122ca576122c961225d565b5b600182019050919050565b60006122e0826118fc565b91506122eb836118fc565b9250828210156122fe576122fd61225d565b5b828203905092915050565b7f4e487b7100000000000000000000000000000000000000000000000000000000600052602260045260246000fd5b6000600282049050600182168061235057607f821691505b6020821081141561236457612363612309565b5b50919050565b7f4e487b7100000000000000000000000000000000000000000000000000000000600052603160045260246000fd5b60006123a4826118fc565b915060008214156123b8576123b761225d565b5b60018203905091905056fea26469706673582212209756cde7ce5e5255e9d629bebb9caee234aa2b5ee7a9775dbaf329b9eac8402164736f6c634300080b0033",
  "immutableReferences": {},
  "source": "// SPDX-License-Identifier: MIT\npragma solidity ^0.8.11;\n//pragma experimental ABIEncoderV2;\n\nimport \"./Voters.sol\";\nimport \"./Ballots.sol\";\n\n//import \"./Election.sol\";\n\ncontract VotingContract {\n\tstruct Administrator {\n\t\t/// @notice Address for the administrator\n\t\taddress adminAddress;\n\t}\n\n\t/// @notice Owner of voting contract\n    Administrator administrator;\n\n\t/// @notice List of ballots\n\tBallots ballots;\n\n\t/// @notice Voter storage and functions\n\tVoters voters;\n\n\tconstructor() {\n\t\t/// @notice On creation set administrator to creator address\n\t\tadministrator.adminAddress = msg.sender;\n\n\t\tvoters = new Voters();\n\n\t\tballots = new Ballots();\n\n\t}\n\n\t// Error Messages\n\terror NotAdmin(string message);\n\terror BallotNotClosed(string message);\n\n\t\n\t// Modifiers\n\tmodifier onlyOwner() {\n\t\tif (msg.sender != administrator.adminAddress) {\n\t\t\trevert NotAdmin(\"Only Administrator May Call Function\");\n\t\t}\n\t\t_;\n\t}\n\n\t/*\n\tmodifier ballotIsClosed() {\n\t\tif (currentBallotStatus() != 0) {\n\t\t\trevert BallotNotClosed(\"Ballot Must Be Created And Closed\");\n\t\t}\n\t\t_;\n\t}\n\t*/\n\t\n\t// Events\n\tevent TestEvent(\n\t\tstring message\n\t);\n\n\t// Info Functions ===============================================\n\n\t// Get current ballot status\n\tfunction getCurrentBallotStatus() public view onlyOwner returns (uint) {\n\t\treturn ballots.getCurrentBallotStatus();\n\t}\n\n\t// Get current ballot info\n\n\t// List all ballot ids and names\n\n\t// Get ballot info by id\n\tfunction getBallotById(uint _id) external view onlyOwner returns (Ballots.Ballot memory) {\n\t\treturn ballots.getBallotById(_id);\n\t}\n\n\t/// @notice Gets the total voter count in voter roll\n\t/// @return Total voter count\n\tfunction getVoterCount() public view returns (uint) {\n\t\treturn voters.getVoterCount();\n\t}\n\n\t/// @notice Returns a boolean for whether or not given address is in voter roll\n\t/// @return True or false if voter address is valid\n\tfunction isVoter(address voterAddress) public view returns (bool) {\n\t\treturn voters.isVoter(voterAddress);\n\t}\n\n\t// ==============================================================\n\n\n\n\t// Admin Voter Functions ========================================\n\n\t/// @notice Adds voter to voting roll & increases total voter count\n\t/// @param voterAddress Address of voter to add to voter roll\n\tfunction addVoter(address voterAddress) public onlyOwner {\n\t\tvoters.addVoter(voterAddress);\n\t}\n\n\t/// @notice Adds multiple voters to voting roll & increases total voter count\n\t/// @param voterAddresses Addresses of voters to add to voter roll\n\tfunction addMultipleVoters(address[] memory voterAddresses) public onlyOwner {\n\t\tvoters.addMultipleVoters(voterAddresses);\n\t}\n\n\t/// @notice Removes voter from voting roll & reduces total voter count\n\t/// @param voterAddress Address of voter to remove from voter roll\n\tfunction removeVoter(address voterAddress) public onlyOwner {\n\t\tvoters.removeVoter(voterAddress);\n\t}\n\n\t/// @notice Removes multiple voters from voting roll & reduces total voter count\n\t/// @param voterAddresses Addresses of voters to remove from voter roll\n\tfunction removeMultipleVoters(address[] memory voterAddresses) public onlyOwner {\n\t\tvoters.removeMultipleVoters(voterAddresses);\n\t}\n\n\t// ==============================================================\n\n\n\n\t// Admin Ballot Functions =======================================\n\n\t// Create ballot\n\tfunction createBallot(string memory _name) public onlyOwner {\n\t\tballots.createBallot(_name);\n\t}\n\n\t// Delete ballot\n\tfunction deleteBallot() public onlyOwner {\n\t\tballots.deleteBallot();\n\t}\n\n\t// Change name of ballot\n\tfunction changeNameBallot(string memory newName) public onlyOwner {\n\t\tballots.changeNameBallot(newName);\n\t}\n\n\t// Open ballot, close ballot\n\tfunction openCloseBallot() public onlyOwner {\n\t\tballots.openCloseBallot();\n\t}\n\n\t// ==============================================================\n\n\n\n\t// Admin Election Functions =====================================\n\n\t// Add election\n\tfunction addElections(string[][] memory elections) public onlyOwner {\n\t\tballots.addElections(elections);\n\t}\n\n\t/*\n\t[\n\t\t['1','2'],\n\t\t['3','4']\n\t]\n\t */\n\n\n\n\t// Delete election\n\n\t// Change name of election\n\n\t// Add candidate\n\n\t// Delete candidate\n\n\t// ==============================================================\n\n\n\n\t// Admin Issue Functions ========================================\n\n\t// Add issue\n\n\t// Delete issue\n\n\t// Change name of issue\n\n\t// ==============================================================\n\n\n\n\t// Voter Functions ==============================================\n\n\t// Vote status (to see if voter has voted on each issue & election)\n\n\t// Vote for issue\n\n\t// Vote for election\n\n\t// Vote for all\n\n\t// ==============================================================\n\n\n\n\t// Admin Ownership Functions ====================================\n\n\t// ==============================================================\n\n\n\n\t// Other Functions ==============================================\n\n\t// ==============================================================\n\n\n\n\t// Testing ======================================================\n\t\n\t// ==============================================================\n\n\tstruct Election2 {\n\t\tstring name;\n\t}\n\n\tstruct Issue2 {\n\t\tstring name;\n\t}\n\n\tstruct Ballot2 { \n\t\tstring name;\n\t\tmapping (uint => Issue2) issues;\n\t}\n\n\tstruct Ballot3 {\n\t\tstring name;\n\t\tstring[] messages;\n\t\tIssue2[] issues;\n\t}\n\n\tuint ballotId;\n\n\t//Ballot2[] ballots2;\n\tmapping (uint => Ballot2) ballots2;\n\tmapping (uint => Ballot3) ballots3;\n\n\tfunction popStruct() public {\n\t\tBallot2 storage newBallot2 = ballots2[0];\n\t\tnewBallot2.name = \"hello world\";\n\n\t\tBallot3 storage newBallot3 = ballots3[0];\n\t\tnewBallot3.name = \"hi\";\n\n\t\tstring memory aString = \"world\";\n\t\tnewBallot3.messages.push(aString);\n\n\t\tIssue2 memory newIssue2 = Issue2(\"hey\");\n\t\tnewBallot3.issues.push(newIssue2);\n\n\t}\n\n\n\t\n\tstruct TestStruct {\n\t\tuint id;\n\t\tstring name;\n\t\tstring message;\n\t}\n\n\tTestStruct[] testStructs;\n\n\tfunction createTest(uint _id, string memory _name, string memory _message) public {\n\t\tTestStruct memory newTestStruct = TestStruct(_id, _name, _message);\n\t\ttestStructs.push(newTestStruct);\n\t}\n\n\tfunction getTest(uint _id) public view returns (TestStruct memory) {\n\t\treturn testStructs[_id];\n\t}\n\n}\n",
  "sourcePath": "/Users/hubertkdayssi/Documents/CS_Projects/voting_app/contracts/VotingContract.sol",
  "compiler": {
    "name": "solc",
    "version": "0.8.11+commit.d7f03943.Emscripten.clang"
  },
  "schemaVersion": "3.4.5",
  "updatedAt": "2022-02-22T21:38:41.315Z",
  "networkType": "ethereum",
  "devdoc": {
    "kind": "dev",
    "methods": {
      "addMultipleVoters(address[])": {
        "params": {
          "voterAddresses": "Addresses of voters to add to voter roll"
        }
      },
      "addVoter(address)": {
        "params": {
          "voterAddress": "Address of voter to add to voter roll"
        }
      },
      "getVoterCount()": {
        "returns": {
          "_0": "Total voter count"
        }
      },
      "isVoter(address)": {
        "returns": {
          "_0": "True or false if voter address is valid"
        }
      },
      "removeMultipleVoters(address[])": {
        "params": {
          "voterAddresses": "Addresses of voters to remove from voter roll"
        }
      },
      "removeVoter(address)": {
        "params": {
          "voterAddress": "Address of voter to remove from voter roll"
        }
      }
    },
    "version": 1
  },
  "userdoc": {
    "kind": "user",
    "methods": {
      "addMultipleVoters(address[])": {
        "notice": "Adds multiple voters to voting roll & increases total voter count"
      },
      "addVoter(address)": {
        "notice": "Adds voter to voting roll & increases total voter count"
      },
      "getVoterCount()": {
        "notice": "Gets the total voter count in voter roll"
      },
      "isVoter(address)": {
        "notice": "Returns a boolean for whether or not given address is in voter roll"
      },
      "removeMultipleVoters(address[])": {
        "notice": "Removes multiple voters from voting roll & reduces total voter count"
      },
      "removeVoter(address)": {
        "notice": "Removes voter from voting roll & reduces total voter count"
      }
    },
    "version": 1
  }
}