{
  "contractName": "VotingContract",
  "abi": [
    {
      "inputs": [],
      "stateMutability": "nonpayable",
      "type": "constructor"
    },
    {
      "inputs": [
        {
          "internalType": "string",
          "name": "message",
          "type": "string"
        }
      ],
      "name": "BallotNotClosed",
      "type": "error"
    },
    {
      "inputs": [
        {
          "internalType": "string",
          "name": "message",
          "type": "string"
        }
      ],
      "name": "NotAdmin",
      "type": "error"
    },
    {
      "anonymous": false,
      "inputs": [
        {
          "indexed": false,
          "internalType": "string",
          "name": "message",
          "type": "string"
        }
      ],
      "name": "TestEvent",
      "type": "event"
    },
    {
      "inputs": [],
      "name": "getCurrentBallotStatus",
      "outputs": [
        {
          "internalType": "uint256",
          "name": "",
          "type": "uint256"
        }
      ],
      "stateMutability": "view",
      "type": "function"
    },
    {
      "inputs": [
        {
          "internalType": "uint256",
          "name": "_id",
          "type": "uint256"
        }
      ],
      "name": "getBallotById",
      "outputs": [
        {
          "components": [
            {
              "internalType": "uint256",
              "name": "id",
              "type": "uint256"
            },
            {
              "internalType": "string",
              "name": "name",
              "type": "string"
            },
            {
              "internalType": "uint256",
              "name": "status",
              "type": "uint256"
            },
            {
              "internalType": "uint256",
              "name": "currentElectionId",
              "type": "uint256"
            },
            {
              "internalType": "uint256",
              "name": "currentIssueId",
              "type": "uint256"
            },
            {
              "components": [
                {
                  "internalType": "uint256",
                  "name": "id",
                  "type": "uint256"
                },
                {
                  "internalType": "string",
                  "name": "name",
                  "type": "string"
                },
                {
                  "internalType": "uint256",
                  "name": "currentCandidateId",
                  "type": "uint256"
                },
                {
                  "components": [
                    {
                      "internalType": "uint256",
                      "name": "id",
                      "type": "uint256"
                    },
                    {
                      "internalType": "string",
                      "name": "name",
                      "type": "string"
                    },
                    {
                      "internalType": "uint256",
                      "name": "votes",
                      "type": "uint256"
                    }
                  ],
                  "internalType": "struct Ballots.Candidate[]",
                  "name": "candidates",
                  "type": "tuple[]"
                }
              ],
              "internalType": "struct Ballots.Election[]",
              "name": "elections",
              "type": "tuple[]"
            },
            {
              "components": [
                {
                  "internalType": "uint256",
                  "name": "id",
                  "type": "uint256"
                },
                {
                  "internalType": "string",
                  "name": "name",
                  "type": "string"
                },
                {
                  "internalType": "uint256",
                  "name": "forVotes",
                  "type": "uint256"
                },
                {
                  "internalType": "uint256",
                  "name": "againstVotes",
                  "type": "uint256"
                },
                {
                  "internalType": "bool",
                  "name": "isPassed",
                  "type": "bool"
                }
              ],
              "internalType": "struct Ballots.Issue[]",
              "name": "issues",
              "type": "tuple[]"
            }
          ],
          "internalType": "struct Ballots.Ballot",
          "name": "",
          "type": "tuple"
        }
      ],
      "stateMutability": "view",
      "type": "function"
    },
    {
      "inputs": [],
      "name": "getVoterCount",
      "outputs": [
        {
          "internalType": "uint256",
          "name": "",
          "type": "uint256"
        }
      ],
      "stateMutability": "view",
      "type": "function"
    },
    {
      "inputs": [
        {
          "internalType": "address",
          "name": "voterAddress",
          "type": "address"
        }
      ],
      "name": "isVoter",
      "outputs": [
        {
          "internalType": "bool",
          "name": "",
          "type": "bool"
        }
      ],
      "stateMutability": "view",
      "type": "function"
    },
    {
      "inputs": [
        {
          "internalType": "address",
          "name": "voterAddress",
          "type": "address"
        }
      ],
      "name": "addVoter",
      "outputs": [],
      "stateMutability": "nonpayable",
      "type": "function"
    },
    {
      "inputs": [
        {
          "internalType": "address[]",
          "name": "voterAddresses",
          "type": "address[]"
        }
      ],
      "name": "addMultipleVoters",
      "outputs": [],
      "stateMutability": "nonpayable",
      "type": "function"
    },
    {
      "inputs": [
        {
          "internalType": "address",
          "name": "voterAddress",
          "type": "address"
        }
      ],
      "name": "removeVoter",
      "outputs": [],
      "stateMutability": "nonpayable",
      "type": "function"
    },
    {
      "inputs": [
        {
          "internalType": "address[]",
          "name": "voterAddresses",
          "type": "address[]"
        }
      ],
      "name": "removeMultipleVoters",
      "outputs": [],
      "stateMutability": "nonpayable",
      "type": "function"
    },
    {
      "inputs": [
        {
          "internalType": "string",
          "name": "_name",
          "type": "string"
        }
      ],
      "name": "createBallot",
      "outputs": [],
      "stateMutability": "nonpayable",
      "type": "function"
    },
    {
      "inputs": [],
      "name": "deleteBallot",
      "outputs": [],
      "stateMutability": "nonpayable",
      "type": "function"
    },
    {
      "inputs": [
        {
          "internalType": "string",
          "name": "newName",
          "type": "string"
        }
      ],
      "name": "changeNameBallot",
      "outputs": [],
      "stateMutability": "nonpayable",
      "type": "function"
    },
    {
      "inputs": [],
      "name": "openCloseBallot",
      "outputs": [],
      "stateMutability": "nonpayable",
      "type": "function"
    },
    {
      "inputs": [
        {
          "internalType": "string[]",
          "name": "electionNames",
          "type": "string[]"
        }
      ],
      "name": "addElections",
      "outputs": [],
      "stateMutability": "nonpayable",
      "type": "function"
    },
    {
      "inputs": [],
      "name": "popStruct",
      "outputs": [],
      "stateMutability": "nonpayable",
      "type": "function"
    },
    {
      "inputs": [
        {
          "internalType": "uint256",
          "name": "_id",
          "type": "uint256"
        },
        {
          "internalType": "string",
          "name": "_name",
          "type": "string"
        },
        {
          "internalType": "string",
          "name": "_message",
          "type": "string"
        }
      ],
      "name": "createTest",
      "outputs": [],
      "stateMutability": "nonpayable",
      "type": "function"
    },
    {
      "inputs": [
        {
          "internalType": "uint256",
          "name": "_id",
          "type": "uint256"
        }
      ],
      "name": "getTest",
      "outputs": [
        {
          "components": [
            {
              "internalType": "uint256",
              "name": "id",
              "type": "uint256"
            },
            {
              "internalType": "string",
              "name": "name",
              "type": "string"
            },
            {
              "internalType": "string",
              "name": "message",
              "type": "string"
            }
          ],
          "internalType": "struct VotingContract.TestStruct",
          "name": "",
          "type": "tuple"
        }
      ],
      "stateMutability": "view",
      "type": "function"
    }
  ],
  "bytecode": "0x60806040523480156200001157600080fd5b50336000800160006101000a81548173ffffffffffffffffffffffffffffffffffffffff021916908373ffffffffffffffffffffffffffffffffffffffff160217905550604051620000639062000133565b604051809103906000f08015801562000080573d6000803e3d6000fd5b50600260006101000a81548173ffffffffffffffffffffffffffffffffffffffff021916908373ffffffffffffffffffffffffffffffffffffffff160217905550604051620000cf9062000141565b604051809103906000f080158015620000ec573d6000803e3d6000fd5b50600160006101000a81548173ffffffffffffffffffffffffffffffffffffffff021916908373ffffffffffffffffffffffffffffffffffffffff1602179055506200014f565b610ce38062002c7783390190565b612260806200395a83390190565b612b18806200015f6000396000f3fe608060405234801561001057600080fd5b50600436106101005760003560e01c806379df360a11610097578063d7627ad111610066578063d7627ad114610249578063edef019d14610279578063f4ab9adf146102a9578063fdad211f146102c557610100565b806379df360a146101c357806386758e54146101e157806386c1ff68146101fd578063a7771ee31461021957610100565b8063385704d6116100d3578063385704d6146101775780633cfe7fa71461019357806342d7f28e1461019d57806346a86576146101a757610100565b80630d28fd2d1461010557806311174a2914610121578063228f1c341461013f57806335e1399b1461015b575b600080fd5b61011f600480360381019061011a91906116c7565b6102cf565b005b6101296103f1565b6040516101369190611729565b60405180910390f35b61015960048036038101906101549190611770565b610489565b005b610175600480360381019061017091906118e1565b610520565b005b610191600480360381019061018c9190611a4b565b610642565b005b61019b610764565b005b6101a561087a565b005b6101c160048036038101906101bc91906116c7565b610a53565b005b6101cb610b75565b6040516101d89190611729565b60405180910390f35b6101fb60048036038101906101f69190611a4b565b610c9f565b005b61021760048036038101906102129190611a94565b610dc1565b005b610233600480360381019061022e9190611a94565b610ee3565b6040516102409190611adc565b60405180910390f35b610263600480360381019061025e9190611af7565b610f88565b6040516102709190611fea565b60405180910390f35b610293600480360381019061028e9190611af7565b6110ca565b6040516102a09190612063565b60405180910390f35b6102c360048036038101906102be9190611a94565b611234565b005b6102cd611356565b005b6000800160009054906101000a900473ffffffffffffffffffffffffffffffffffffffff1673ffffffffffffffffffffffffffffffffffffffff163373ffffffffffffffffffffffffffffffffffffffff1614610361576040517f7625245e00000000000000000000000000000000000000000000000000000000815260040161035890612108565b60405180910390fd5b600160009054906101000a900473ffffffffffffffffffffffffffffffffffffffff1673ffffffffffffffffffffffffffffffffffffffff16630d28fd2d826040518263ffffffff1660e01b81526004016103bc9190612161565b600060405180830381600087803b1580156103d657600080fd5b505af11580156103ea573d6000803e3d6000fd5b5050505050565b6000600260009054906101000a900473ffffffffffffffffffffffffffffffffffffffff1673ffffffffffffffffffffffffffffffffffffffff166311174a296040518163ffffffff1660e01b8152600401602060405180830381865afa158015610460573d6000803e3d6000fd5b505050506040513d601f19601f820116820180604052508101906104849190612198565b905090565b6000604051806060016040528085815260200184815260200183815250905060068190806001815401808255809150506001900390600052602060002090600302016000909190919091506000820151816000015560208201518160010190805190602001906104fa92919061146c565b50604082015181600201908051906020019061051792919061146c565b50505050505050565b6000800160009054906101000a900473ffffffffffffffffffffffffffffffffffffffff1673ffffffffffffffffffffffffffffffffffffffff163373ffffffffffffffffffffffffffffffffffffffff16146105b2576040517f7625245e0000000000000000000000000000000000000000000000000000000081526004016105a990612108565b60405180910390fd5b600160009054906101000a900473ffffffffffffffffffffffffffffffffffffffff1673ffffffffffffffffffffffffffffffffffffffff166335e1399b826040518263ffffffff1660e01b815260040161060d9190612287565b600060405180830381600087803b15801561062757600080fd5b505af115801561063b573d6000803e3d6000fd5b5050505050565b6000800160009054906101000a900473ffffffffffffffffffffffffffffffffffffffff1673ffffffffffffffffffffffffffffffffffffffff163373ffffffffffffffffffffffffffffffffffffffff16146106d4576040517f7625245e0000000000000000000000000000000000000000000000000000000081526004016106cb90612108565b60405180910390fd5b600260009054906101000a900473ffffffffffffffffffffffffffffffffffffffff1673ffffffffffffffffffffffffffffffffffffffff1663385704d6826040518263ffffffff1660e01b815260040161072f9190612367565b600060405180830381600087803b15801561074957600080fd5b505af115801561075d573d6000803e3d6000fd5b5050505050565b6000800160009054906101000a900473ffffffffffffffffffffffffffffffffffffffff1673ffffffffffffffffffffffffffffffffffffffff163373ffffffffffffffffffffffffffffffffffffffff16146107f6576040517f7625245e0000000000000000000000000000000000000000000000000000000081526004016107ed90612108565b60405180910390fd5b600160009054906101000a900473ffffffffffffffffffffffffffffffffffffffff1673ffffffffffffffffffffffffffffffffffffffff16633cfe7fa76040518163ffffffff1660e01b8152600401600060405180830381600087803b15801561086057600080fd5b505af1158015610874573d6000803e3d6000fd5b50505050565b60006004600080815260200190815260200160002090506040518060400160405280600b81526020017f68656c6c6f20776f726c640000000000000000000000000000000000000000008152508160000190805190602001906108de92919061146c565b5060006005600080815260200190815260200160002090506040518060400160405280600281526020017f686900000000000000000000000000000000000000000000000000000000000081525081600001908051906020019061094392919061146c565b5060006040518060400160405280600581526020017f776f726c64000000000000000000000000000000000000000000000000000000815250905081600101819080600181540180825580915050600190039060005260206000200160009091909190915090805190602001906109bb92919061146c565b50600060405180602001604052806040518060400160405280600381526020017f686579000000000000000000000000000000000000000000000000000000000081525081525090508260020181908060018154018082558091505060019003906000526020600020016000909190919091506000820151816000019080519060200190610a4a92919061146c565b50505050505050565b6000800160009054906101000a900473ffffffffffffffffffffffffffffffffffffffff1673ffffffffffffffffffffffffffffffffffffffff163373ffffffffffffffffffffffffffffffffffffffff1614610ae5576040517f7625245e000000000000000000000000000000000000000000000000000000008152600401610adc90612108565b60405180910390fd5b600160009054906101000a900473ffffffffffffffffffffffffffffffffffffffff1673ffffffffffffffffffffffffffffffffffffffff166346a86576826040518263ffffffff1660e01b8152600401610b409190612161565b600060405180830381600087803b158015610b5a57600080fd5b505af1158015610b6e573d6000803e3d6000fd5b5050505050565b60008060000160009054906101000a900473ffffffffffffffffffffffffffffffffffffffff1673ffffffffffffffffffffffffffffffffffffffff163373ffffffffffffffffffffffffffffffffffffffff1614610c09576040517f7625245e000000000000000000000000000000000000000000000000000000008152600401610c0090612108565b60405180910390fd5b600160009054906101000a900473ffffffffffffffffffffffffffffffffffffffff1673ffffffffffffffffffffffffffffffffffffffff166379df360a6040518163ffffffff1660e01b8152600401602060405180830381865afa158015610c76573d6000803e3d6000fd5b505050506040513d601f19601f82011682018060405250810190610c9a9190612198565b905090565b6000800160009054906101000a900473ffffffffffffffffffffffffffffffffffffffff1673ffffffffffffffffffffffffffffffffffffffff163373ffffffffffffffffffffffffffffffffffffffff1614610d31576040517f7625245e000000000000000000000000000000000000000000000000000000008152600401610d2890612108565b60405180910390fd5b600260009054906101000a900473ffffffffffffffffffffffffffffffffffffffff1673ffffffffffffffffffffffffffffffffffffffff166386758e54826040518263ffffffff1660e01b8152600401610d8c9190612367565b600060405180830381600087803b158015610da657600080fd5b505af1158015610dba573d6000803e3d6000fd5b5050505050565b6000800160009054906101000a900473ffffffffffffffffffffffffffffffffffffffff1673ffffffffffffffffffffffffffffffffffffffff163373ffffffffffffffffffffffffffffffffffffffff1614610e53576040517f7625245e000000000000000000000000000000000000000000000000000000008152600401610e4a90612108565b60405180910390fd5b600260009054906101000a900473ffffffffffffffffffffffffffffffffffffffff1673ffffffffffffffffffffffffffffffffffffffff166386c1ff68826040518263ffffffff1660e01b8152600401610eae9190612398565b600060405180830381600087803b158015610ec857600080fd5b505af1158015610edc573d6000803e3d6000fd5b5050505050565b6000600260009054906101000a900473ffffffffffffffffffffffffffffffffffffffff1673ffffffffffffffffffffffffffffffffffffffff1663a7771ee3836040518263ffffffff1660e01b8152600401610f409190612398565b602060405180830381865afa158015610f5d573d6000803e3d6000fd5b505050506040513d601f19601f82011682018060405250810190610f8191906123df565b9050919050565b610f906114f2565b6000800160009054906101000a900473ffffffffffffffffffffffffffffffffffffffff1673ffffffffffffffffffffffffffffffffffffffff163373ffffffffffffffffffffffffffffffffffffffff1614611022576040517f7625245e00000000000000000000000000000000000000000000000000000000815260040161101990612108565b60405180910390fd5b600160009054906101000a900473ffffffffffffffffffffffffffffffffffffffff1673ffffffffffffffffffffffffffffffffffffffff1663d7627ad1836040518263ffffffff1660e01b815260040161107d9190611729565b600060405180830381865afa15801561109a573d6000803e3d6000fd5b505050506040513d6000823e3d601f19601f820116820180604052508101906110c39190612a09565b9050919050565b6110d261152f565b600682815481106110e6576110e5612a52565b5b90600052602060002090600302016040518060600160405290816000820154815260200160018201805461111990612ab0565b80601f016020809104026020016040519081016040528092919081815260200182805461114590612ab0565b80156111925780601f1061116757610100808354040283529160200191611192565b820191906000526020600020905b81548152906001019060200180831161117557829003601f168201915b505050505081526020016002820180546111ab90612ab0565b80601f01602080910402602001604051908101604052809291908181526020018280546111d790612ab0565b80156112245780601f106111f957610100808354040283529160200191611224565b820191906000526020600020905b81548152906001019060200180831161120757829003601f168201915b5050505050815250509050919050565b6000800160009054906101000a900473ffffffffffffffffffffffffffffffffffffffff1673ffffffffffffffffffffffffffffffffffffffff163373ffffffffffffffffffffffffffffffffffffffff16146112c6576040517f7625245e0000000000000000000000000000000000000000000000000000000081526004016112bd90612108565b60405180910390fd5b600260009054906101000a900473ffffffffffffffffffffffffffffffffffffffff1673ffffffffffffffffffffffffffffffffffffffff1663f4ab9adf826040518263ffffffff1660e01b81526004016113219190612398565b600060405180830381600087803b15801561133b57600080fd5b505af115801561134f573d6000803e3d6000fd5b5050505050565b6000800160009054906101000a900473ffffffffffffffffffffffffffffffffffffffff1673ffffffffffffffffffffffffffffffffffffffff163373ffffffffffffffffffffffffffffffffffffffff16146113e8576040517f7625245e0000000000000000000000000000000000000000000000000000000081526004016113df90612108565b60405180910390fd5b600160009054906101000a900473ffffffffffffffffffffffffffffffffffffffff1673ffffffffffffffffffffffffffffffffffffffff1663fdad211f6040518163ffffffff1660e01b8152600401600060405180830381600087803b15801561145257600080fd5b505af1158015611466573d6000803e3d6000fd5b50505050565b82805461147890612ab0565b90600052602060002090601f01602090048101928261149a57600085556114e1565b82601f106114b357805160ff19168380011785556114e1565b828001600101855582156114e1579182015b828111156114e05782518255916020019190600101906114c5565b5b5090506114ee9190611550565b5090565b6040518060e00160405280600081526020016060815260200160008152602001600081526020016000815260200160608152602001606081525090565b60405180606001604052806000815260200160608152602001606081525090565b5b80821115611569576000816000905550600101611551565b5090565b6000604051905090565b600080fd5b600080fd5b600080fd5b600080fd5b6000601f19601f8301169050919050565b7f4e487b7100000000000000000000000000000000000000000000000000000000600052604160045260246000fd5b6115d48261158b565b810181811067ffffffffffffffff821117156115f3576115f261159c565b5b80604052505050565b600061160661156d565b905061161282826115cb565b919050565b600067ffffffffffffffff8211156116325761163161159c565b5b61163b8261158b565b9050602081019050919050565b82818337600083830152505050565b600061166a61166584611617565b6115fc565b90508281526020810184848401111561168657611685611586565b5b611691848285611648565b509392505050565b600082601f8301126116ae576116ad611581565b5b81356116be848260208601611657565b91505092915050565b6000602082840312156116dd576116dc611577565b5b600082013567ffffffffffffffff8111156116fb576116fa61157c565b5b61170784828501611699565b91505092915050565b6000819050919050565b61172381611710565b82525050565b600060208201905061173e600083018461171a565b92915050565b61174d81611710565b811461175857600080fd5b50565b60008135905061176a81611744565b92915050565b60008060006060848603121561178957611788611577565b5b60006117978682870161175b565b935050602084013567ffffffffffffffff8111156117b8576117b761157c565b5b6117c486828701611699565b925050604084013567ffffffffffffffff8111156117e5576117e461157c565b5b6117f186828701611699565b9150509250925092565b600067ffffffffffffffff8211156118165761181561159c565b5b602082029050602081019050919050565b600080fd5b600061183f61183a846117fb565b6115fc565b9050808382526020820190506020840283018581111561186257611861611827565b5b835b818110156118a957803567ffffffffffffffff81111561188757611886611581565b5b8086016118948982611699565b85526020850194505050602081019050611864565b5050509392505050565b600082601f8301126118c8576118c7611581565b5b81356118d884826020860161182c565b91505092915050565b6000602082840312156118f7576118f6611577565b5b600082013567ffffffffffffffff8111156119155761191461157c565b5b611921848285016118b3565b91505092915050565b600067ffffffffffffffff8211156119455761194461159c565b5b602082029050602081019050919050565b600073ffffffffffffffffffffffffffffffffffffffff82169050919050565b600061198182611956565b9050919050565b61199181611976565b811461199c57600080fd5b50565b6000813590506119ae81611988565b92915050565b60006119c76119c28461192a565b6115fc565b905080838252602082019050602084028301858111156119ea576119e9611827565b5b835b81811015611a1357806119ff888261199f565b8452602084019350506020810190506119ec565b5050509392505050565b600082601f830112611a3257611a31611581565b5b8135611a428482602086016119b4565b91505092915050565b600060208284031215611a6157611a60611577565b5b600082013567ffffffffffffffff811115611a7f57611a7e61157c565b5b611a8b84828501611a1d565b91505092915050565b600060208284031215611aaa57611aa9611577565b5b6000611ab88482850161199f565b91505092915050565b60008115159050919050565b611ad681611ac1565b82525050565b6000602082019050611af16000830184611acd565b92915050565b600060208284031215611b0d57611b0c611577565b5b6000611b1b8482850161175b565b91505092915050565b611b2d81611710565b82525050565b600081519050919050565b600082825260208201905092915050565b60005b83811015611b6d578082015181840152602081019050611b52565b83811115611b7c576000848401525b50505050565b6000611b8d82611b33565b611b978185611b3e565b9350611ba7818560208601611b4f565b611bb08161158b565b840191505092915050565b600081519050919050565b600082825260208201905092915050565b6000819050602082019050919050565b600081519050919050565b600082825260208201905092915050565b6000819050602082019050919050565b6000606083016000830151611c2b6000860182611b24565b5060208301518482036020860152611c438282611b82565b9150506040830151611c586040860182611b24565b508091505092915050565b6000611c6f8383611c13565b905092915050565b6000602082019050919050565b6000611c8f82611be7565b611c998185611bf2565b935083602082028501611cab85611c03565b8060005b85811015611ce75784840389528151611cc88582611c63565b9450611cd383611c77565b925060208a01995050600181019050611caf565b50829750879550505050505092915050565b6000608083016000830151611d116000860182611b24565b5060208301518482036020860152611d298282611b82565b9150506040830151611d3e6040860182611b24565b5060608301518482036060860152611d568282611c84565b9150508091505092915050565b6000611d6f8383611cf9565b905092915050565b6000602082019050919050565b6000611d8f82611bbb565b611d998185611bc6565b935083602082028501611dab85611bd7565b8060005b85811015611de75784840389528151611dc88582611d63565b9450611dd383611d77565b925060208a01995050600181019050611daf565b50829750879550505050505092915050565b600081519050919050565b600082825260208201905092915050565b6000819050602082019050919050565b611e2e81611ac1565b82525050565b600060a083016000830151611e4c6000860182611b24565b5060208301518482036020860152611e648282611b82565b9150506040830151611e796040860182611b24565b506060830151611e8c6060860182611b24565b506080830151611e9f6080860182611e25565b508091505092915050565b6000611eb68383611e34565b905092915050565b6000602082019050919050565b6000611ed682611df9565b611ee08185611e04565b935083602082028501611ef285611e15565b8060005b85811015611f2e5784840389528151611f0f8582611eaa565b9450611f1a83611ebe565b925060208a01995050600181019050611ef6565b50829750879550505050505092915050565b600060e083016000830151611f586000860182611b24565b5060208301518482036020860152611f708282611b82565b9150506040830151611f856040860182611b24565b506060830151611f986060860182611b24565b506080830151611fab6080860182611b24565b5060a083015184820360a0860152611fc38282611d84565b91505060c083015184820360c0860152611fdd8282611ecb565b9150508091505092915050565b600060208201905081810360008301526120048184611f40565b905092915050565b60006060830160008301516120246000860182611b24565b506020830151848203602086015261203c8282611b82565b915050604083015184820360408601526120568282611b82565b9150508091505092915050565b6000602082019050818103600083015261207d818461200c565b905092915050565b600082825260208201905092915050565b7f4f6e6c792041646d696e6973747261746f72204d61792043616c6c2046756e6360008201527f74696f6e00000000000000000000000000000000000000000000000000000000602082015250565b60006120f2602483612085565b91506120fd82612096565b604082019050919050565b60006020820190508181036000830152612121816120e5565b9050919050565b600061213382611b33565b61213d8185612085565b935061214d818560208601611b4f565b6121568161158b565b840191505092915050565b6000602082019050818103600083015261217b8184612128565b905092915050565b60008151905061219281611744565b92915050565b6000602082840312156121ae576121ad611577565b5b60006121bc84828501612183565b91505092915050565b600081519050919050565b600082825260208201905092915050565b6000819050602082019050919050565b60006121fd8383611b82565b905092915050565b6000602082019050919050565b600061221d826121c5565b61222781856121d0565b935083602082028501612239856121e1565b8060005b85811015612275578484038952815161225685826121f1565b945061226183612205565b925060208a0199505060018101905061223d565b50829750879550505050505092915050565b600060208201905081810360008301526122a18184612212565b905092915050565b600081519050919050565b600082825260208201905092915050565b6000819050602082019050919050565b6122de81611976565b82525050565b60006122f083836122d5565b60208301905092915050565b6000602082019050919050565b6000612314826122a9565b61231e81856122b4565b9350612329836122c5565b8060005b8381101561235a57815161234188826122e4565b975061234c836122fc565b92505060018101905061232d565b5085935050505092915050565b600060208201905081810360008301526123818184612309565b905092915050565b61239281611976565b82525050565b60006020820190506123ad6000830184612389565b92915050565b6123bc81611ac1565b81146123c757600080fd5b50565b6000815190506123d9816123b3565b92915050565b6000602082840312156123f5576123f4611577565b5b6000612403848285016123ca565b91505092915050565b600080fd5b600080fd5b600061242961242484611617565b6115fc565b90508281526020810184848401111561244557612444611586565b5b612450848285611b4f565b509392505050565b600082601f83011261246d5761246c611581565b5b815161247d848260208601612416565b91505092915050565b600067ffffffffffffffff8211156124a1576124a061159c565b5b602082029050602081019050919050565b600067ffffffffffffffff8211156124cd576124cc61159c565b5b602082029050602081019050919050565b6000606082840312156124f4576124f361240c565b5b6124fe60606115fc565b9050600061250e84828501612183565b600083015250602082015167ffffffffffffffff81111561253257612531612411565b5b61253e84828501612458565b602083015250604061255284828501612183565b60408301525092915050565b600061257161256c846124b2565b6115fc565b9050808382526020820190506020840283018581111561259457612593611827565b5b835b818110156125db57805167ffffffffffffffff8111156125b9576125b8611581565b5b8086016125c689826124de565b85526020850194505050602081019050612596565b5050509392505050565b600082601f8301126125fa576125f9611581565b5b815161260a84826020860161255e565b91505092915050565b6000608082840312156126295761262861240c565b5b61263360806115fc565b9050600061264384828501612183565b600083015250602082015167ffffffffffffffff81111561266757612666612411565b5b61267384828501612458565b602083015250604061268784828501612183565b604083015250606082015167ffffffffffffffff8111156126ab576126aa612411565b5b6126b7848285016125e5565b60608301525092915050565b60006126d66126d184612486565b6115fc565b905080838252602082019050602084028301858111156126f9576126f8611827565b5b835b8181101561274057805167ffffffffffffffff81111561271e5761271d611581565b5b80860161272b8982612613565b855260208501945050506020810190506126fb565b5050509392505050565b600082601f83011261275f5761275e611581565b5b815161276f8482602086016126c3565b91505092915050565b600067ffffffffffffffff8211156127935761279261159c565b5b602082029050602081019050919050565b600060a082840312156127ba576127b961240c565b5b6127c460a06115fc565b905060006127d484828501612183565b600083015250602082015167ffffffffffffffff8111156127f8576127f7612411565b5b61280484828501612458565b602083015250604061281884828501612183565b604083015250606061282c84828501612183565b6060830152506080612840848285016123ca565b60808301525092915050565b600061285f61285a84612778565b6115fc565b9050808382526020820190506020840283018581111561288257612881611827565b5b835b818110156128c957805167ffffffffffffffff8111156128a7576128a6611581565b5b8086016128b489826127a4565b85526020850194505050602081019050612884565b5050509392505050565b600082601f8301126128e8576128e7611581565b5b81516128f884826020860161284c565b91505092915050565b600060e082840312156129175761291661240c565b5b61292160e06115fc565b9050600061293184828501612183565b600083015250602082015167ffffffffffffffff81111561295557612954612411565b5b61296184828501612458565b602083015250604061297584828501612183565b604083015250606061298984828501612183565b606083015250608061299d84828501612183565b60808301525060a082015167ffffffffffffffff8111156129c1576129c0612411565b5b6129cd8482850161274a565b60a08301525060c082015167ffffffffffffffff8111156129f1576129f0612411565b5b6129fd848285016128d3565b60c08301525092915050565b600060208284031215612a1f57612a1e611577565b5b600082015167ffffffffffffffff811115612a3d57612a3c61157c565b5b612a4984828501612901565b91505092915050565b7f4e487b7100000000000000000000000000000000000000000000000000000000600052603260045260246000fd5b7f4e487b7100000000000000000000000000000000000000000000000000000000600052602260045260246000fd5b60006002820490506001821680612ac857607f821691505b60208210811415612adc57612adb612a81565b5b5091905056fea264697066735822122098ada29e2e0ceff16d23969f9eb0c2eb96dd6b8385b0c5574cb06b23e3b2467564736f6c634300080b0033608060405234801561001057600080fd5b5033600260006101000a81548173ffffffffffffffffffffffffffffffffffffffff021916908373ffffffffffffffffffffffffffffffffffffffff160217905550610c82806100616000396000f3fe608060405234801561001057600080fd5b506004361061007d5760003560e01c806386758e541161005b57806386758e54146100ec57806386c1ff6814610108578063a7771ee314610124578063f4ab9adf146101545761007d565b806311174a291461008257806327736f85146100a0578063385704d6146100d0575b600080fd5b61008a610170565b60405161009791906107e2565b60405180910390f35b6100ba60048036038101906100b5919061086f565b610179565b6040516100c791906108ab565b60405180910390f35b6100ea60048036038101906100e59190610a1f565b6101b7565b005b61010660048036038101906101019190610a1f565b610367565b005b610122600480360381019061011d919061086f565b6104b2565b005b61013e6004803603810190610139919061086f565b6105c3565b60405161014b9190610a83565b60405180910390f35b61016e6004803603810190610169919061086f565b61066d565b005b60008054905090565b60016020528060005260406000206000915090508060000160009054906101000a900473ffffffffffffffffffffffffffffffffffffffff16905081565b600260009054906101000a900473ffffffffffffffffffffffffffffffffffffffff1673ffffffffffffffffffffffffffffffffffffffff163373ffffffffffffffffffffffffffffffffffffffff1614610247576040517ff7251ccf00000000000000000000000000000000000000000000000000000000815260040161023e90610afb565b60405180910390fd5b60005b8151811015610363576000604051806020016040528084848151811061027357610272610b1b565b5b602002602001015173ffffffffffffffffffffffffffffffffffffffff16815250905080600160008585815181106102ae576102ad610b1b565b5b602002602001015173ffffffffffffffffffffffffffffffffffffffff1673ffffffffffffffffffffffffffffffffffffffff16815260200190815260200160002060008201518160000160006101000a81548173ffffffffffffffffffffffffffffffffffffffff021916908373ffffffffffffffffffffffffffffffffffffffff16021790555090505060016000546103499190610b79565b60008190555050808061035b90610bcf565b91505061024a565b5050565b600260009054906101000a900473ffffffffffffffffffffffffffffffffffffffff1673ffffffffffffffffffffffffffffffffffffffff163373ffffffffffffffffffffffffffffffffffffffff16146103f7576040517ff7251ccf0000000000000000000000000000000000000000000000000000000081526004016103ee90610afb565b60405180910390fd5b60005b81518110156104ae576001600083838151811061041a57610419610b1b565b5b602002602001015173ffffffffffffffffffffffffffffffffffffffff1673ffffffffffffffffffffffffffffffffffffffff168152602001908152602001600020600080820160006101000a81549073ffffffffffffffffffffffffffffffffffffffff0219169055505060016000546104959190610c18565b60008190555080806104a690610bcf565b9150506103fa565b5050565b600260009054906101000a900473ffffffffffffffffffffffffffffffffffffffff1673ffffffffffffffffffffffffffffffffffffffff163373ffffffffffffffffffffffffffffffffffffffff1614610542576040517ff7251ccf00000000000000000000000000000000000000000000000000000000815260040161053990610afb565b60405180910390fd5b600160008273ffffffffffffffffffffffffffffffffffffffff1673ffffffffffffffffffffffffffffffffffffffff168152602001908152602001600020600080820160006101000a81549073ffffffffffffffffffffffffffffffffffffffff0219169055505060016000546105ba9190610c18565b60008190555050565b60008073ffffffffffffffffffffffffffffffffffffffff16600160008473ffffffffffffffffffffffffffffffffffffffff1673ffffffffffffffffffffffffffffffffffffffff16815260200190815260200160002060000160009054906101000a900473ffffffffffffffffffffffffffffffffffffffff1673ffffffffffffffffffffffffffffffffffffffff16146106635760019050610668565b600090505b919050565b600260009054906101000a900473ffffffffffffffffffffffffffffffffffffffff1673ffffffffffffffffffffffffffffffffffffffff163373ffffffffffffffffffffffffffffffffffffffff16146106fd576040517ff7251ccf0000000000000000000000000000000000000000000000000000000081526004016106f490610afb565b60405180910390fd5b600060405180602001604052808373ffffffffffffffffffffffffffffffffffffffff16815250905080600160008473ffffffffffffffffffffffffffffffffffffffff1673ffffffffffffffffffffffffffffffffffffffff16815260200190815260200160002060008201518160000160006101000a81548173ffffffffffffffffffffffffffffffffffffffff021916908373ffffffffffffffffffffffffffffffffffffffff16021790555090505060016000546107bf9190610b79565b6000819055505050565b6000819050919050565b6107dc816107c9565b82525050565b60006020820190506107f760008301846107d3565b92915050565b6000604051905090565b600080fd5b600080fd5b600073ffffffffffffffffffffffffffffffffffffffff82169050919050565b600061083c82610811565b9050919050565b61084c81610831565b811461085757600080fd5b50565b60008135905061086981610843565b92915050565b60006020828403121561088557610884610807565b5b60006108938482850161085a565b91505092915050565b6108a581610831565b82525050565b60006020820190506108c0600083018461089c565b92915050565b600080fd5b6000601f19601f8301169050919050565b7f4e487b7100000000000000000000000000000000000000000000000000000000600052604160045260246000fd5b610914826108cb565b810181811067ffffffffffffffff82111715610933576109326108dc565b5b80604052505050565b60006109466107fd565b9050610952828261090b565b919050565b600067ffffffffffffffff821115610972576109716108dc565b5b602082029050602081019050919050565b600080fd5b600061099b61099684610957565b61093c565b905080838252602082019050602084028301858111156109be576109bd610983565b5b835b818110156109e757806109d3888261085a565b8452602084019350506020810190506109c0565b5050509392505050565b600082601f830112610a0657610a056108c6565b5b8135610a16848260208601610988565b91505092915050565b600060208284031215610a3557610a34610807565b5b600082013567ffffffffffffffff811115610a5357610a5261080c565b5b610a5f848285016109f1565b91505092915050565b60008115159050919050565b610a7d81610a68565b82525050565b6000602082019050610a986000830184610a74565b92915050565b600082825260208201905092915050565b7f4f6e6c79204f776e6572204d61792043616c6c2046756e6374696f6e00000000600082015250565b6000610ae5601c83610a9e565b9150610af082610aaf565b602082019050919050565b60006020820190508181036000830152610b1481610ad8565b9050919050565b7f4e487b7100000000000000000000000000000000000000000000000000000000600052603260045260246000fd5b7f4e487b7100000000000000000000000000000000000000000000000000000000600052601160045260246000fd5b6000610b84826107c9565b9150610b8f836107c9565b9250827fffffffffffffffffffffffffffffffffffffffffffffffffffffffffffffffff03821115610bc457610bc3610b4a565b5b828201905092915050565b6000610bda826107c9565b91507fffffffffffffffffffffffffffffffffffffffffffffffffffffffffffffffff821415610c0d57610c0c610b4a565b5b600182019050919050565b6000610c23826107c9565b9150610c2e836107c9565b925082821015610c4157610c40610b4a565b5b82820390509291505056fea264697066735822122034eda4524330b80a8a933c0c493e04e1ef19b907d90d50f05a06506f2c8e254364736f6c634300080b0033608060405260008055600180556002805534801561001c57600080fd5b5033600560006101000a81548173ffffffffffffffffffffffffffffffffffffffff021916908373ffffffffffffffffffffffffffffffffffffffff1602179055506121f38061006d6000396000f3fe608060405234801561001057600080fd5b506004361061009e5760003560e01c80633cfe7fa7116100665780633cfe7fa71461012f57806346a865761461013957806379df360a14610155578063d7627ad114610173578063fdad211f146101a35761009e565b80630d28fd2d146100a357806328e58f37146100bf57806331a0c16e146100db57806335e1399b146100f7578063389ddfee14610113575b600080fd5b6100bd60048036038101906100b8919061178e565b6101ad565b005b6100d960048036038101906100d491906118f3565b6102f8565b005b6100f560048036038101906100f0919061194f565b610408565b005b610111600480360381019061010c919061197c565b610591565b005b61012d600480360381019061012891906119c5565b610862565b005b6101376109d1565b005b610153600480360381019061014e919061178e565b610af6565b005b61015d610c8d565b60405161016a9190611a30565b60405180910390f35b61018d6004803603810190610188919061194f565b610d5e565b60405161019a9190611f1d565b60405180910390f35b6101ab611236565b005b600560009054906101000a900473ffffffffffffffffffffffffffffffffffffffff1673ffffffffffffffffffffffffffffffffffffffff163373ffffffffffffffffffffffffffffffffffffffff161461023d576040517ff7251ccf00000000000000000000000000000000000000000000000000000000815260040161023490611f9c565b60405180910390fd5b600060048054905014806102795750600060046003548154811061026457610263611fbc565b5b90600052602060002090600702016002015414155b156102b9576040517f5d2d8a4c0000000000000000000000000000000000000000000000000000000081526004016102b090612037565b60405180910390fd5b806004600354815481106102d0576102cf611fbc565b5b906000526020600020906007020160010190805190602001906102f49291906113d7565b5050565b600560009054906101000a900473ffffffffffffffffffffffffffffffffffffffff1673ffffffffffffffffffffffffffffffffffffffff163373ffffffffffffffffffffffffffffffffffffffff1614610388576040517ff7251ccf00000000000000000000000000000000000000000000000000000000815260040161037f90611f9c565b60405180910390fd5b600060048054905014806103c4575060006004600354815481106103af576103ae611fbc565b5b90600052602060002090600702016002015414155b15610404576040517f5d2d8a4c0000000000000000000000000000000000000000000000000000000081526004016103fb90612037565b60405180910390fd5b5050565b600560009054906101000a900473ffffffffffffffffffffffffffffffffffffffff1673ffffffffffffffffffffffffffffffffffffffff163373ffffffffffffffffffffffffffffffffffffffff1614610498576040517ff7251ccf00000000000000000000000000000000000000000000000000000000815260040161048f90611f9c565b60405180910390fd5b600060048054905014806104d4575060006004600354815481106104bf576104be611fbc565b5b90600052602060002090600702016002015414155b15610514576040517f5d2d8a4c00000000000000000000000000000000000000000000000000000000815260040161050b90612037565b60405180910390fd5b60046003548154811061052a57610529611fbc565b5b9060005260206000209060070201600501818154811061054d5761054c611fbc565b5b9060005260206000209060040201600080820160009055600182016000610574919061145d565b600282016000905560038201600061058c919061149d565b505050565b600560009054906101000a900473ffffffffffffffffffffffffffffffffffffffff1673ffffffffffffffffffffffffffffffffffffffff163373ffffffffffffffffffffffffffffffffffffffff1614610621576040517ff7251ccf00000000000000000000000000000000000000000000000000000000815260040161061890611f9c565b60405180910390fd5b6000600480549050148061065d5750600060046003548154811061064857610647611fbc565b5b90600052602060002090600702016002015414155b1561069d576040517f5d2d8a4c00000000000000000000000000000000000000000000000000000000815260040161069490612037565b60405180910390fd5b60005b815181101561085e5760006004600354815481106106c1576106c0611fbc565b5b90600052602060002090600702016005018054905014610719576004600354815481106106f1576106f0611fbc565b5b9060005260206000209060070201600301600081548092919061071390612086565b91905055505b60046003548154811061072f5761072e611fbc565b5b906000526020600020906007020160050160018160018154018082558091505003906000526020600020905050600060046003548154811061077457610773611fbc565b5b9060005260206000209060070201600501600160046003548154811061079d5761079c611fbc565b5b9060005260206000209060070201600501805490506107bc91906120cf565b815481106107cd576107cc611fbc565b5b906000526020600020906004020190506004600354815481106107f3576107f2611fbc565b5b90600052602060002090600702016003015481600001819055508282815181106108205761081f611fbc565b5b602002602001015181600101908051906020019061083f9291906113d7565b506000816002018190555050808061085690612086565b9150506106a0565b5050565b600560009054906101000a900473ffffffffffffffffffffffffffffffffffffffff1673ffffffffffffffffffffffffffffffffffffffff163373ffffffffffffffffffffffffffffffffffffffff16146108f2576040517ff7251ccf0000000000000000000000000000000000000000000000000000000081526004016108e990611f9c565b60405180910390fd5b6000600480549050148061092e5750600060046003548154811061091957610918611fbc565b5b90600052602060002090600702016002015414155b1561096e576040517f5d2d8a4c00000000000000000000000000000000000000000000000000000000815260040161096590612037565b60405180910390fd5b8060046003548154811061098557610984611fbc565b5b906000526020600020906007020160050183815481106109a8576109a7611fbc565b5b906000526020600020906004020160010190805190602001906109cc9291906113d7565b505050565b600560009054906101000a900473ffffffffffffffffffffffffffffffffffffffff1673ffffffffffffffffffffffffffffffffffffffff163373ffffffffffffffffffffffffffffffffffffffff1614610a61576040517ff7251ccf000000000000000000000000000000000000000000000000000000008152600401610a5890611f9c565b60405180910390fd5b600054600460035481548110610a7a57610a79611fbc565b5b9060005260206000209060070201600201541415610ac557600154600460035481548110610aab57610aaa611fbc565b5b906000526020600020906007020160020181905550610af4565b600254600460035481548110610ade57610add611fbc565b5b9060005260206000209060070201600201819055505b565b600560009054906101000a900473ffffffffffffffffffffffffffffffffffffffff1673ffffffffffffffffffffffffffffffffffffffff163373ffffffffffffffffffffffffffffffffffffffff1614610b86576040517ff7251ccf000000000000000000000000000000000000000000000000000000008152600401610b7d90611f9c565b60405180910390fd5b60006004805490501480610bc25750600254600460035481548110610bae57610bad611fbc565b5b906000526020600020906007020160020154145b610bcb57600080fd5b600060048054905014610bf15760036000815480929190610beb90612086565b91905055505b600460018160018154018082558091505003906000526020600020905050600060046001600480549050610c2591906120cf565b81548110610c3657610c35611fbc565b5b90600052602060002090600702019050600354816000018190555081816001019080519060200190610c699291906113d7565b50600054816002018190555060008160030181905550600081600401819055505050565b6000600560009054906101000a900473ffffffffffffffffffffffffffffffffffffffff1673ffffffffffffffffffffffffffffffffffffffff163373ffffffffffffffffffffffffffffffffffffffff1614610d1f576040517ff7251ccf000000000000000000000000000000000000000000000000000000008152600401610d1690611f9c565b60405180910390fd5b600060048054905011610d3157600080fd5b600460035481548110610d4757610d46611fbc565b5b906000526020600020906007020160020154905090565b610d666114c1565b600560009054906101000a900473ffffffffffffffffffffffffffffffffffffffff1673ffffffffffffffffffffffffffffffffffffffff163373ffffffffffffffffffffffffffffffffffffffff1614610df6576040517ff7251ccf000000000000000000000000000000000000000000000000000000008152600401610ded90611f9c565b60405180910390fd5b60008210158015610e0b575060048054905082105b610e1457600080fd5b60048281548110610e2857610e27611fbc565b5b90600052602060002090600702016040518060e001604052908160008201548152602001600182018054610e5b90612132565b80601f0160208091040260200160405190810160405280929190818152602001828054610e8790612132565b8015610ed45780601f10610ea957610100808354040283529160200191610ed4565b820191906000526020600020905b815481529060010190602001808311610eb757829003601f168201915b5050505050815260200160028201548152602001600382015481526020016004820154815260200160058201805480602002602001604051908101604052809291908181526020016000905b828210156110fd578382906000526020600020906004020160405180608001604052908160008201548152602001600182018054610f5d90612132565b80601f0160208091040260200160405190810160405280929190818152602001828054610f8990612132565b8015610fd65780601f10610fab57610100808354040283529160200191610fd6565b820191906000526020600020905b815481529060010190602001808311610fb957829003601f168201915b505050505081526020016002820154815260200160038201805480602002602001604051908101604052809291908181526020016000905b828210156110e657838290600052602060002090600302016040518060600160405290816000820154815260200160018201805461104b90612132565b80601f016020809104026020016040519081016040528092919081815260200182805461107790612132565b80156110c45780601f10611099576101008083540402835291602001916110c4565b820191906000526020600020905b8154815290600101906020018083116110a757829003601f168201915b505050505081526020016002820154815250508152602001906001019061100e565b505050508152505081526020019060010190610f20565b50505050815260200160068201805480602002602001604051908101604052809291908181526020016000905b8282101561122757838290600052602060002090600502016040518060a00160405290816000820154815260200160018201805461116790612132565b80601f016020809104026020016040519081016040528092919081815260200182805461119390612132565b80156111e05780601f106111b5576101008083540402835291602001916111e0565b820191906000526020600020905b8154815290600101906020018083116111c357829003601f168201915b5050505050815260200160028201548152602001600382015481526020016004820160009054906101000a900460ff1615151515815250508152602001906001019061112a565b50505050815250509050919050565b600560009054906101000a900473ffffffffffffffffffffffffffffffffffffffff1673ffffffffffffffffffffffffffffffffffffffff163373ffffffffffffffffffffffffffffffffffffffff16146112c6576040517ff7251ccf0000000000000000000000000000000000000000000000000000000081526004016112bd90611f9c565b60405180910390fd5b60006004805490501480611302575060006004600354815481106112ed576112ec611fbc565b5b90600052602060002090600702016002015414155b15611342576040517f5d2d8a4c00000000000000000000000000000000000000000000000000000000815260040161133990612037565b60405180910390fd5b600480548061135457611353612164565b5b6001900381819060005260206000209060070201600080820160009055600182016000611381919061145d565b6002820160009055600382016000905560048201600090556005820160006113a991906114fe565b6006820160006113b99190611522565b50509055600360008154809291906113d090612193565b9190505550565b8280546113e390612132565b90600052602060002090601f016020900481019282611405576000855561144c565b82601f1061141e57805160ff191683800117855561144c565b8280016001018555821561144c579182015b8281111561144b578251825591602001919060010190611430565b5b5090506114599190611546565b5090565b50805461146990612132565b6000825580601f1061147b575061149a565b601f0160209004906000526020600020908101906114999190611546565b5b50565b50805460008255600302906000526020600020908101906114be9190611563565b50565b6040518060e00160405280600081526020016060815260200160008152602001600081526020016000815260200160608152602001606081525090565b508054600082556004029060005260206000209081019061151f919061159a565b50565b508054600082556005029060005260206000209081019061154391906115e1565b50565b5b8082111561155f576000816000905550600101611547565b5090565b5b8082111561159657600080820160009055600182016000611585919061145d565b600282016000905550600301611564565b5090565b5b808211156115dd576000808201600090556001820160006115bc919061145d565b60028201600090556003820160006115d4919061149d565b5060040161159b565b5090565b5b8082111561163057600080820160009055600182016000611603919061145d565b600282016000905560038201600090556004820160006101000a81549060ff0219169055506005016115e2565b5090565b6000604051905090565b600080fd5b600080fd5b600080fd5b600080fd5b6000601f19601f8301169050919050565b7f4e487b7100000000000000000000000000000000000000000000000000000000600052604160045260246000fd5b61169b82611652565b810181811067ffffffffffffffff821117156116ba576116b9611663565b5b80604052505050565b60006116cd611634565b90506116d98282611692565b919050565b600067ffffffffffffffff8211156116f9576116f8611663565b5b61170282611652565b9050602081019050919050565b82818337600083830152505050565b600061173161172c846116de565b6116c3565b90508281526020810184848401111561174d5761174c61164d565b5b61175884828561170f565b509392505050565b600082601f83011261177557611774611648565b5b813561178584826020860161171e565b91505092915050565b6000602082840312156117a4576117a361163e565b5b600082013567ffffffffffffffff8111156117c2576117c1611643565b5b6117ce84828501611760565b91505092915050565b6000819050919050565b6117ea816117d7565b81146117f557600080fd5b50565b600081359050611807816117e1565b92915050565b600067ffffffffffffffff82111561182857611827611663565b5b602082029050602081019050919050565b600080fd5b600061185161184c8461180d565b6116c3565b9050808382526020820190506020840283018581111561187457611873611839565b5b835b818110156118bb57803567ffffffffffffffff81111561189957611898611648565b5b8086016118a68982611760565b85526020850194505050602081019050611876565b5050509392505050565b600082601f8301126118da576118d9611648565b5b81356118ea84826020860161183e565b91505092915050565b6000806040838503121561190a5761190961163e565b5b6000611918858286016117f8565b925050602083013567ffffffffffffffff81111561193957611938611643565b5b611945858286016118c5565b9150509250929050565b6000602082840312156119655761196461163e565b5b6000611973848285016117f8565b91505092915050565b6000602082840312156119925761199161163e565b5b600082013567ffffffffffffffff8111156119b0576119af611643565b5b6119bc848285016118c5565b91505092915050565b600080604083850312156119dc576119db61163e565b5b60006119ea858286016117f8565b925050602083013567ffffffffffffffff811115611a0b57611a0a611643565b5b611a1785828601611760565b9150509250929050565b611a2a816117d7565b82525050565b6000602082019050611a456000830184611a21565b92915050565b611a54816117d7565b82525050565b600081519050919050565b600082825260208201905092915050565b60005b83811015611a94578082015181840152602081019050611a79565b83811115611aa3576000848401525b50505050565b6000611ab482611a5a565b611abe8185611a65565b9350611ace818560208601611a76565b611ad781611652565b840191505092915050565b600081519050919050565b600082825260208201905092915050565b6000819050602082019050919050565b600081519050919050565b600082825260208201905092915050565b6000819050602082019050919050565b6000606083016000830151611b526000860182611a4b565b5060208301518482036020860152611b6a8282611aa9565b9150506040830151611b7f6040860182611a4b565b508091505092915050565b6000611b968383611b3a565b905092915050565b6000602082019050919050565b6000611bb682611b0e565b611bc08185611b19565b935083602082028501611bd285611b2a565b8060005b85811015611c0e5784840389528151611bef8582611b8a565b9450611bfa83611b9e565b925060208a01995050600181019050611bd6565b50829750879550505050505092915050565b6000608083016000830151611c386000860182611a4b565b5060208301518482036020860152611c508282611aa9565b9150506040830151611c656040860182611a4b565b5060608301518482036060860152611c7d8282611bab565b9150508091505092915050565b6000611c968383611c20565b905092915050565b6000602082019050919050565b6000611cb682611ae2565b611cc08185611aed565b935083602082028501611cd285611afe565b8060005b85811015611d0e5784840389528151611cef8582611c8a565b9450611cfa83611c9e565b925060208a01995050600181019050611cd6565b50829750879550505050505092915050565b600081519050919050565b600082825260208201905092915050565b6000819050602082019050919050565b60008115159050919050565b611d6181611d4c565b82525050565b600060a083016000830151611d7f6000860182611a4b565b5060208301518482036020860152611d978282611aa9565b9150506040830151611dac6040860182611a4b565b506060830151611dbf6060860182611a4b565b506080830151611dd26080860182611d58565b508091505092915050565b6000611de98383611d67565b905092915050565b6000602082019050919050565b6000611e0982611d20565b611e138185611d2b565b935083602082028501611e2585611d3c565b8060005b85811015611e615784840389528151611e428582611ddd565b9450611e4d83611df1565b925060208a01995050600181019050611e29565b50829750879550505050505092915050565b600060e083016000830151611e8b6000860182611a4b565b5060208301518482036020860152611ea38282611aa9565b9150506040830151611eb86040860182611a4b565b506060830151611ecb6060860182611a4b565b506080830151611ede6080860182611a4b565b5060a083015184820360a0860152611ef68282611cab565b91505060c083015184820360c0860152611f108282611dfe565b9150508091505092915050565b60006020820190508181036000830152611f378184611e73565b905092915050565b600082825260208201905092915050565b7f4f6e6c79204f776e6572204d61792043616c6c2046756e6374696f6e00000000600082015250565b6000611f86601c83611f3f565b9150611f9182611f50565b602082019050919050565b60006020820190508181036000830152611fb581611f79565b9050919050565b7f4e487b7100000000000000000000000000000000000000000000000000000000600052603260045260246000fd5b7f42616c6c6f74204d75737420426520436c6f7365640000000000000000000000600082015250565b6000612021601583611f3f565b915061202c82611feb565b602082019050919050565b6000602082019050818103600083015261205081612014565b9050919050565b7f4e487b7100000000000000000000000000000000000000000000000000000000600052601160045260246000fd5b6000612091826117d7565b91507fffffffffffffffffffffffffffffffffffffffffffffffffffffffffffffffff8214156120c4576120c3612057565b5b600182019050919050565b60006120da826117d7565b91506120e5836117d7565b9250828210156120f8576120f7612057565b5b828203905092915050565b7f4e487b7100000000000000000000000000000000000000000000000000000000600052602260045260246000fd5b6000600282049050600182168061214a57607f821691505b6020821081141561215e5761215d612103565b5b50919050565b7f4e487b7100000000000000000000000000000000000000000000000000000000600052603160045260246000fd5b600061219e826117d7565b915060008214156121b2576121b1612057565b5b60018203905091905056fea2646970667358221220af8fd79075ce9565d8ca4f8cbf3a4ec8c6680fea8a7d36547e3a719c664c7f9e64736f6c634300080b0033",
  "immutableReferences": {},
  "source": "// SPDX-License-Identifier: MIT\npragma solidity ^0.8.11;\n//pragma experimental ABIEncoderV2;\n\nimport \"./Voters.sol\";\nimport \"./Ballots.sol\";\n\n//import \"./Election.sol\";\n\ncontract VotingContract {\n\tstruct Administrator {\n\t\t/// @notice Address for the administrator\n\t\taddress adminAddress;\n\t}\n\n\t/// @notice Owner of voting contract\n    Administrator administrator;\n\n\t/// @notice List of ballots\n\tBallots ballots;\n\n\t/// @notice Voter storage and functions\n\tVoters voters;\n\n\tconstructor() {\n\t\t/// @notice On creation set administrator to creator address\n\t\tadministrator.adminAddress = msg.sender;\n\n\t\tvoters = new Voters();\n\n\t\tballots = new Ballots();\n\n\t}\n\n\t// Error Messages\n\terror NotAdmin(string message);\n\terror BallotNotClosed(string message);\n\n\t\n\t// Modifiers\n\tmodifier onlyOwner() {\n\t\tif (msg.sender != administrator.adminAddress) {\n\t\t\trevert NotAdmin(\"Only Administrator May Call Function\");\n\t\t}\n\t\t_;\n\t}\n\n\t/*\n\tmodifier ballotIsClosed() {\n\t\tif (currentBallotStatus() != 0) {\n\t\t\trevert BallotNotClosed(\"Ballot Must Be Created And Closed\");\n\t\t}\n\t\t_;\n\t}\n\t*/\n\t\n\t// Events\n\tevent TestEvent(\n\t\tstring message\n\t);\n\n\t// Info Functions ===============================================\n\n\t// Get current ballot status\n\tfunction getCurrentBallotStatus() public view onlyOwner returns (uint) {\n\t\treturn ballots.getCurrentBallotStatus();\n\t}\n\n\t// Get current ballot info\n\n\t// List all ballot ids and names\n\n\t// Get ballot info by id\n\tfunction getBallotById(uint _id) external view onlyOwner returns (Ballots.Ballot memory) {\n\t\treturn ballots.getBallotById(_id);\n\t}\n\n\t/// @notice Gets the total voter count in voter roll\n\t/// @return Total voter count\n\tfunction getVoterCount() public view returns (uint) {\n\t\treturn voters.getVoterCount();\n\t}\n\n\t/// @notice Returns a boolean for whether or not given address is in voter roll\n\t/// @return True or false if voter address is valid\n\tfunction isVoter(address voterAddress) public view returns (bool) {\n\t\treturn voters.isVoter(voterAddress);\n\t}\n\n\t// ==============================================================\n\n\n\n\t// Admin Voter Functions ========================================\n\n\t/// @notice Adds voter to voting roll & increases total voter count\n\t/// @param voterAddress Address of voter to add to voter roll\n\tfunction addVoter(address voterAddress) public onlyOwner {\n\t\tvoters.addVoter(voterAddress);\n\t}\n\n\t/// @notice Adds multiple voters to voting roll & increases total voter count\n\t/// @param voterAddresses Addresses of voters to add to voter roll\n\tfunction addMultipleVoters(address[] memory voterAddresses) public onlyOwner {\n\t\tvoters.addMultipleVoters(voterAddresses);\n\t}\n\n\t/// @notice Removes voter from voting roll & reduces total voter count\n\t/// @param voterAddress Address of voter to remove from voter roll\n\tfunction removeVoter(address voterAddress) public onlyOwner {\n\t\tvoters.removeVoter(voterAddress);\n\t}\n\n\t/// @notice Removes multiple voters from voting roll & reduces total voter count\n\t/// @param voterAddresses Addresses of voters to remove from voter roll\n\tfunction removeMultipleVoters(address[] memory voterAddresses) public onlyOwner {\n\t\tvoters.removeMultipleVoters(voterAddresses);\n\t}\n\n\t// ==============================================================\n\n\n\n\t// Admin Ballot Functions =======================================\n\n\t// Create ballot\n\tfunction createBallot(string memory _name) public onlyOwner {\n\t\tballots.createBallot(_name);\n\t}\n\n\t// Delete ballot\n\tfunction deleteBallot() public onlyOwner {\n\t\tballots.deleteBallot();\n\t}\n\n\t// Change name of ballot\n\tfunction changeNameBallot(string memory newName) public onlyOwner {\n\t\tballots.changeNameBallot(newName);\n\t}\n\n\t// Open ballot, close ballot\n\tfunction openCloseBallot() public onlyOwner {\n\t\tballots.openCloseBallot();\n\t}\n\n\t// ==============================================================\n\n\n\n\t// Admin Election Functions =====================================\n\n\t// Add election\n\tfunction addElections(string[] memory electionNames) public onlyOwner {\n\t\tballots.addElections(electionNames);\n\t}\n\n\n\n\t// Delete election\n\n\t// Change name of election\n\n\t// Add candidate\n\n\t// Delete candidate\n\n\t// ==============================================================\n\n\n\n\t// Admin Issue Functions ========================================\n\n\t// Add issue\n\n\t// Delete issue\n\n\t// Change name of issue\n\n\t// ==============================================================\n\n\n\n\t// Voter Functions ==============================================\n\n\t// Vote status (to see if voter has voted on each issue & election)\n\n\t// Vote for issue\n\n\t// Vote for election\n\n\t// Vote for all\n\n\t// ==============================================================\n\n\n\n\t// Admin Ownership Functions ====================================\n\n\t// ==============================================================\n\n\n\n\t// Other Functions ==============================================\n\n\t// ==============================================================\n\n\n\n\t// Testing ======================================================\n\t\n\t// ==============================================================\n\n\tstruct Election2 {\n\t\tstring name;\n\t}\n\n\tstruct Issue2 {\n\t\tstring name;\n\t}\n\n\tstruct Ballot2 { \n\t\tstring name;\n\t\tmapping (uint => Issue2) issues;\n\t}\n\n\tstruct Ballot3 {\n\t\tstring name;\n\t\tstring[] messages;\n\t\tIssue2[] issues;\n\t}\n\n\tuint ballotId;\n\n\t//Ballot2[] ballots2;\n\tmapping (uint => Ballot2) ballots2;\n\tmapping (uint => Ballot3) ballots3;\n\n\tfunction popStruct() public {\n\t\tBallot2 storage newBallot2 = ballots2[0];\n\t\tnewBallot2.name = \"hello world\";\n\n\t\tBallot3 storage newBallot3 = ballots3[0];\n\t\tnewBallot3.name = \"hi\";\n\n\t\tstring memory aString = \"world\";\n\t\tnewBallot3.messages.push(aString);\n\n\t\tIssue2 memory newIssue2 = Issue2(\"hey\");\n\t\tnewBallot3.issues.push(newIssue2);\n\n\t}\n\n\n\t\n\tstruct TestStruct {\n\t\tuint id;\n\t\tstring name;\n\t\tstring message;\n\t}\n\n\tTestStruct[] testStructs;\n\n\tfunction createTest(uint _id, string memory _name, string memory _message) public {\n\t\tTestStruct memory newTestStruct = TestStruct(_id, _name, _message);\n\t\ttestStructs.push(newTestStruct);\n\t}\n\n\tfunction getTest(uint _id) public view returns (TestStruct memory) {\n\t\treturn testStructs[_id];\n\t}\n\n\t\n\n}\n",
  "sourcePath": "/Users/hubertkdayssi/Documents/CS_Projects/voting_app/contracts/VotingContract.sol",
  "compiler": {
    "name": "solc",
    "version": "0.8.11+commit.d7f03943.Emscripten.clang"
  },
  "schemaVersion": "3.4.5",
  "updatedAt": "2022-02-22T15:37:05.323Z",
  "devdoc": {
    "kind": "dev",
    "methods": {
      "addMultipleVoters(address[])": {
        "params": {
          "voterAddresses": "Addresses of voters to add to voter roll"
        }
      },
      "addVoter(address)": {
        "params": {
          "voterAddress": "Address of voter to add to voter roll"
        }
      },
      "getVoterCount()": {
        "returns": {
          "_0": "Total voter count"
        }
      },
      "isVoter(address)": {
        "returns": {
          "_0": "True or false if voter address is valid"
        }
      },
      "removeMultipleVoters(address[])": {
        "params": {
          "voterAddresses": "Addresses of voters to remove from voter roll"
        }
      },
      "removeVoter(address)": {
        "params": {
          "voterAddress": "Address of voter to remove from voter roll"
        }
      }
    },
    "version": 1
  },
  "userdoc": {
    "kind": "user",
    "methods": {
      "addMultipleVoters(address[])": {
        "notice": "Adds multiple voters to voting roll & increases total voter count"
      },
      "addVoter(address)": {
        "notice": "Adds voter to voting roll & increases total voter count"
      },
      "getVoterCount()": {
        "notice": "Gets the total voter count in voter roll"
      },
      "isVoter(address)": {
        "notice": "Returns a boolean for whether or not given address is in voter roll"
      },
      "removeMultipleVoters(address[])": {
        "notice": "Removes multiple voters from voting roll & reduces total voter count"
      },
      "removeVoter(address)": {
        "notice": "Removes voter from voting roll & reduces total voter count"
      }
    },
    "version": 1
  }
}