{
  "contractName": "VotingContract",
  "abi": [
    {
      "inputs": [],
      "stateMutability": "nonpayable",
      "type": "constructor"
    },
    {
      "inputs": [
        {
          "internalType": "string",
          "name": "message",
          "type": "string"
        }
      ],
      "name": "BallotNotClosed",
      "type": "error"
    },
    {
      "inputs": [
        {
          "internalType": "address",
          "name": "",
          "type": "address"
        }
      ],
      "name": "voterRoll",
      "outputs": [
        {
          "internalType": "address",
          "name": "voterAddress",
          "type": "address"
        }
      ],
      "stateMutability": "view",
      "type": "function",
      "constant": true
    },
    {
      "inputs": [],
      "name": "getCurrentBallotStatus",
      "outputs": [
        {
          "internalType": "uint256",
          "name": "",
          "type": "uint256"
        }
      ],
      "stateMutability": "view",
      "type": "function",
      "constant": true
    },
    {
      "inputs": [],
      "name": "getCurrentBallot",
      "outputs": [
        {
          "components": [
            {
              "internalType": "uint256",
              "name": "id",
              "type": "uint256"
            },
            {
              "internalType": "string",
              "name": "name",
              "type": "string"
            },
            {
              "internalType": "uint256",
              "name": "status",
              "type": "uint256"
            },
            {
              "internalType": "uint256",
              "name": "currentElectionId",
              "type": "uint256"
            },
            {
              "internalType": "uint256",
              "name": "currentIssueId",
              "type": "uint256"
            },
            {
              "components": [
                {
                  "internalType": "uint256",
                  "name": "id",
                  "type": "uint256"
                },
                {
                  "internalType": "string",
                  "name": "name",
                  "type": "string"
                },
                {
                  "internalType": "uint256",
                  "name": "currentCandidateId",
                  "type": "uint256"
                },
                {
                  "components": [
                    {
                      "internalType": "uint256",
                      "name": "id",
                      "type": "uint256"
                    },
                    {
                      "internalType": "string",
                      "name": "name",
                      "type": "string"
                    },
                    {
                      "internalType": "uint256",
                      "name": "votes",
                      "type": "uint256"
                    }
                  ],
                  "internalType": "struct BallotStorage.Candidate[]",
                  "name": "candidates",
                  "type": "tuple[]"
                }
              ],
              "internalType": "struct BallotStorage.Election[]",
              "name": "elections",
              "type": "tuple[]"
            },
            {
              "components": [
                {
                  "internalType": "uint256",
                  "name": "id",
                  "type": "uint256"
                },
                {
                  "internalType": "string",
                  "name": "name",
                  "type": "string"
                },
                {
                  "internalType": "uint256",
                  "name": "forVotes",
                  "type": "uint256"
                },
                {
                  "internalType": "uint256",
                  "name": "againstVotes",
                  "type": "uint256"
                }
              ],
              "internalType": "struct BallotStorage.Issue[]",
              "name": "issues",
              "type": "tuple[]"
            }
          ],
          "internalType": "struct BallotStorage.Ballot",
          "name": "",
          "type": "tuple"
        }
      ],
      "stateMutability": "view",
      "type": "function",
      "constant": true
    },
    {
      "inputs": [],
      "name": "getAllBallots",
      "outputs": [
        {
          "components": [
            {
              "internalType": "uint256",
              "name": "id",
              "type": "uint256"
            },
            {
              "internalType": "string",
              "name": "name",
              "type": "string"
            },
            {
              "internalType": "uint256",
              "name": "status",
              "type": "uint256"
            },
            {
              "internalType": "uint256",
              "name": "currentElectionId",
              "type": "uint256"
            },
            {
              "internalType": "uint256",
              "name": "currentIssueId",
              "type": "uint256"
            },
            {
              "components": [
                {
                  "internalType": "uint256",
                  "name": "id",
                  "type": "uint256"
                },
                {
                  "internalType": "string",
                  "name": "name",
                  "type": "string"
                },
                {
                  "internalType": "uint256",
                  "name": "currentCandidateId",
                  "type": "uint256"
                },
                {
                  "components": [
                    {
                      "internalType": "uint256",
                      "name": "id",
                      "type": "uint256"
                    },
                    {
                      "internalType": "string",
                      "name": "name",
                      "type": "string"
                    },
                    {
                      "internalType": "uint256",
                      "name": "votes",
                      "type": "uint256"
                    }
                  ],
                  "internalType": "struct BallotStorage.Candidate[]",
                  "name": "candidates",
                  "type": "tuple[]"
                }
              ],
              "internalType": "struct BallotStorage.Election[]",
              "name": "elections",
              "type": "tuple[]"
            },
            {
              "components": [
                {
                  "internalType": "uint256",
                  "name": "id",
                  "type": "uint256"
                },
                {
                  "internalType": "string",
                  "name": "name",
                  "type": "string"
                },
                {
                  "internalType": "uint256",
                  "name": "forVotes",
                  "type": "uint256"
                },
                {
                  "internalType": "uint256",
                  "name": "againstVotes",
                  "type": "uint256"
                }
              ],
              "internalType": "struct BallotStorage.Issue[]",
              "name": "issues",
              "type": "tuple[]"
            }
          ],
          "internalType": "struct BallotStorage.Ballot[]",
          "name": "",
          "type": "tuple[]"
        }
      ],
      "stateMutability": "view",
      "type": "function",
      "constant": true
    },
    {
      "inputs": [
        {
          "internalType": "uint256",
          "name": "_id",
          "type": "uint256"
        }
      ],
      "name": "getBallotById",
      "outputs": [
        {
          "components": [
            {
              "internalType": "uint256",
              "name": "id",
              "type": "uint256"
            },
            {
              "internalType": "string",
              "name": "name",
              "type": "string"
            },
            {
              "internalType": "uint256",
              "name": "status",
              "type": "uint256"
            },
            {
              "internalType": "uint256",
              "name": "currentElectionId",
              "type": "uint256"
            },
            {
              "internalType": "uint256",
              "name": "currentIssueId",
              "type": "uint256"
            },
            {
              "components": [
                {
                  "internalType": "uint256",
                  "name": "id",
                  "type": "uint256"
                },
                {
                  "internalType": "string",
                  "name": "name",
                  "type": "string"
                },
                {
                  "internalType": "uint256",
                  "name": "currentCandidateId",
                  "type": "uint256"
                },
                {
                  "components": [
                    {
                      "internalType": "uint256",
                      "name": "id",
                      "type": "uint256"
                    },
                    {
                      "internalType": "string",
                      "name": "name",
                      "type": "string"
                    },
                    {
                      "internalType": "uint256",
                      "name": "votes",
                      "type": "uint256"
                    }
                  ],
                  "internalType": "struct BallotStorage.Candidate[]",
                  "name": "candidates",
                  "type": "tuple[]"
                }
              ],
              "internalType": "struct BallotStorage.Election[]",
              "name": "elections",
              "type": "tuple[]"
            },
            {
              "components": [
                {
                  "internalType": "uint256",
                  "name": "id",
                  "type": "uint256"
                },
                {
                  "internalType": "string",
                  "name": "name",
                  "type": "string"
                },
                {
                  "internalType": "uint256",
                  "name": "forVotes",
                  "type": "uint256"
                },
                {
                  "internalType": "uint256",
                  "name": "againstVotes",
                  "type": "uint256"
                }
              ],
              "internalType": "struct BallotStorage.Issue[]",
              "name": "issues",
              "type": "tuple[]"
            }
          ],
          "internalType": "struct BallotStorage.Ballot",
          "name": "",
          "type": "tuple"
        }
      ],
      "stateMutability": "view",
      "type": "function",
      "constant": true
    },
    {
      "inputs": [],
      "name": "getVoterCount",
      "outputs": [
        {
          "internalType": "uint256",
          "name": "",
          "type": "uint256"
        }
      ],
      "stateMutability": "view",
      "type": "function",
      "constant": true
    },
    {
      "inputs": [
        {
          "internalType": "address",
          "name": "_voterAddress",
          "type": "address"
        }
      ],
      "name": "isVoter",
      "outputs": [
        {
          "internalType": "bool",
          "name": "",
          "type": "bool"
        }
      ],
      "stateMutability": "view",
      "type": "function",
      "constant": true
    },
    {
      "inputs": [
        {
          "internalType": "address",
          "name": "_voterAddress",
          "type": "address"
        },
        {
          "internalType": "uint256",
          "name": "_ballotId",
          "type": "uint256"
        }
      ],
      "name": "hasVoted",
      "outputs": [
        {
          "internalType": "bool",
          "name": "",
          "type": "bool"
        }
      ],
      "stateMutability": "view",
      "type": "function",
      "constant": true
    },
    {
      "inputs": [
        {
          "internalType": "string",
          "name": "_name",
          "type": "string"
        }
      ],
      "name": "createBallot",
      "outputs": [],
      "stateMutability": "nonpayable",
      "type": "function"
    },
    {
      "inputs": [],
      "name": "deleteBallot",
      "outputs": [],
      "stateMutability": "nonpayable",
      "type": "function"
    },
    {
      "inputs": [],
      "name": "openCloseBallot",
      "outputs": [],
      "stateMutability": "nonpayable",
      "type": "function"
    },
    {
      "inputs": [
        {
          "internalType": "string[][]",
          "name": "elections",
          "type": "string[][]"
        }
      ],
      "name": "addElections",
      "outputs": [],
      "stateMutability": "nonpayable",
      "type": "function"
    },
    {
      "inputs": [
        {
          "internalType": "string[]",
          "name": "issues",
          "type": "string[]"
        }
      ],
      "name": "addIssues",
      "outputs": [],
      "stateMutability": "nonpayable",
      "type": "function"
    },
    {
      "inputs": [
        {
          "internalType": "address",
          "name": "_voterAddress",
          "type": "address"
        }
      ],
      "name": "addVoter",
      "outputs": [],
      "stateMutability": "nonpayable",
      "type": "function"
    },
    {
      "inputs": [
        {
          "internalType": "address[]",
          "name": "voterAddresses",
          "type": "address[]"
        }
      ],
      "name": "addMultipleVoters",
      "outputs": [],
      "stateMutability": "nonpayable",
      "type": "function"
    },
    {
      "inputs": [
        {
          "internalType": "address",
          "name": "_voterAddress",
          "type": "address"
        }
      ],
      "name": "removeVoter",
      "outputs": [],
      "stateMutability": "nonpayable",
      "type": "function"
    },
    {
      "inputs": [
        {
          "internalType": "address[]",
          "name": "voterAddresses",
          "type": "address[]"
        }
      ],
      "name": "removeMultipleVoters",
      "outputs": [],
      "stateMutability": "nonpayable",
      "type": "function"
    },
    {
      "inputs": [
        {
          "internalType": "uint256[][]",
          "name": "votes",
          "type": "uint256[][]"
        }
      ],
      "name": "vote",
      "outputs": [],
      "stateMutability": "nonpayable",
      "type": "function"
    }
  ],
  "bytecode": "0x608060405260008055600180556002805534801561001c57600080fd5b5033600860000160006101000a81548173ffffffffffffffffffffffffffffffffffffffff021916908373ffffffffffffffffffffffffffffffffffffffff160217905550613dc1806100706000396000f3fe608060405234801561001057600080fd5b50600436106101165760003560e01c806386758e54116100a2578063bb58b04411610071578063bb58b044146102b9578063c11296cc146102d5578063d7627ad1146102f1578063f4ab9adf14610321578063fdad211f1461033d57610116565b806386758e541461023557806386c1ff6814610251578063a7771ee31461026d578063b0c2a23b1461029d57610116565b8063385704d6116100e9578063385704d6146101a55780633cfe7fa7146101c157806342545825146101cb57806346a86576146101fb57806379df360a1461021757610116565b80630b8710e41461011b57806311174a291461013957806322d043d91461015757806327736f8514610175575b600080fd5b610123610347565b6040516101309190613039565b60405180910390f35b610141610779565b60405161014e919061306a565b60405180910390f35b61015f610783565b60405161016c919061312f565b60405180910390f35b61018f600480360381019061018a91906131c3565b610bda565b60405161019c91906131ff565b60405180910390f35b6101bf60048036038101906101ba9190613362565b610c18565b005b6101c9610dcb565b005b6101e560048036038101906101e091906133d7565b610ef3565b6040516101f29190613432565b60405180910390f35b61021560048036038101906102109190613502565b610f6d565b005b61021f611168565b60405161022c919061306a565b60405180910390f35b61024f600480360381019061024a9190613362565b6111de565b005b61026b600480360381019061026691906131c3565b61132c565b005b610287600480360381019061028291906131c3565b611440565b6040516102949190613432565b60405180910390f35b6102b760048036038101906102b2919061362c565b6114ea565b005b6102d360048036038101906102ce9190613819565b6117c8565b005b6102ef60048036038101906102ea9190613943565b611c5f565b005b61030b6004803603810190610306919061398c565b612065565b604051610318919061312f565b60405180910390f35b61033b600480360381019061033691906131c3565b612485565b005b6103456125e4565b005b60606004805480602002602001604051908101604052809291908181526020016000905b8282101561077057838290600052602060002090600702016040518060e0016040529081600082015481526020016001820180546103a8906139e8565b80601f01602080910402602001604051908101604052809291908181526020018280546103d4906139e8565b80156104215780601f106103f657610100808354040283529160200191610421565b820191906000526020600020905b81548152906001019060200180831161040457829003601f168201915b5050505050815260200160028201548152602001600382015481526020016004820154815260200160058201805480602002602001604051908101604052809291908181526020016000905b8282101561064a5783829060005260206000209060040201604051806080016040529081600082015481526020016001820180546104aa906139e8565b80601f01602080910402602001604051908101604052809291908181526020018280546104d6906139e8565b80156105235780601f106104f857610100808354040283529160200191610523565b820191906000526020600020905b81548152906001019060200180831161050657829003601f168201915b505050505081526020016002820154815260200160038201805480602002602001604051908101604052809291908181526020016000905b82821015610633578382906000526020600020906003020160405180606001604052908160008201548152602001600182018054610598906139e8565b80601f01602080910402602001604051908101604052809291908181526020018280546105c4906139e8565b80156106115780601f106105e657610100808354040283529160200191610611565b820191906000526020600020905b8154815290600101906020018083116105f457829003601f168201915b505050505081526020016002820154815250508152602001906001019061055b565b50505050815250508152602001906001019061046d565b50505050815260200160068201805480602002602001604051908101604052809291908181526020016000905b828210156107595783829060005260206000209060040201604051806080016040529081600082015481526020016001820180546106b4906139e8565b80601f01602080910402602001604051908101604052809291908181526020018280546106e0906139e8565b801561072d5780601f106107025761010080835404028352916020019161072d565b820191906000526020600020905b81548152906001019060200180831161071057829003601f168201915b505050505081526020016002820154815260200160038201548152505081526020019060010190610677565b50505050815250508152602001906001019061036b565b50505050905090565b6000600554905090565b61078b61286f565b6000600480549050116107d3576040517f08c379a00000000000000000000000000000000000000000000000000000000081526004016107ca90613a77565b60405180910390fd5b6004600354815481106107e9576107e8613a97565b5b90600052602060002090600702016040518060e00160405290816000820154815260200160018201805461081c906139e8565b80601f0160208091040260200160405190810160405280929190818152602001828054610848906139e8565b80156108955780601f1061086a57610100808354040283529160200191610895565b820191906000526020600020905b81548152906001019060200180831161087857829003601f168201915b5050505050815260200160028201548152602001600382015481526020016004820154815260200160058201805480602002602001604051908101604052809291908181526020016000905b82821015610abe57838290600052602060002090600402016040518060800160405290816000820154815260200160018201805461091e906139e8565b80601f016020809104026020016040519081016040528092919081815260200182805461094a906139e8565b80156109975780601f1061096c57610100808354040283529160200191610997565b820191906000526020600020905b81548152906001019060200180831161097a57829003601f168201915b505050505081526020016002820154815260200160038201805480602002602001604051908101604052809291908181526020016000905b82821015610aa7578382906000526020600020906003020160405180606001604052908160008201548152602001600182018054610a0c906139e8565b80601f0160208091040260200160405190810160405280929190818152602001828054610a38906139e8565b8015610a855780601f10610a5a57610100808354040283529160200191610a85565b820191906000526020600020905b815481529060010190602001808311610a6857829003601f168201915b50505050508152602001600282015481525050815260200190600101906109cf565b5050505081525050815260200190600101906108e1565b50505050815260200160068201805480602002602001604051908101604052809291908181526020016000905b82821015610bcd578382906000526020600020906004020160405180608001604052908160008201548152602001600182018054610b28906139e8565b80601f0160208091040260200160405190810160405280929190818152602001828054610b54906139e8565b8015610ba15780601f10610b7657610100808354040283529160200191610ba1565b820191906000526020600020905b815481529060010190602001808311610b8457829003601f168201915b505050505081526020016002820154815260200160038201548152505081526020019060010190610aeb565b5050505081525050905090565b60066020528060005260406000206000915090508060000160009054906101000a900473ffffffffffffffffffffffffffffffffffffffff16905081565b600860000160009054906101000a900473ffffffffffffffffffffffffffffffffffffffff1673ffffffffffffffffffffffffffffffffffffffff163373ffffffffffffffffffffffffffffffffffffffff1614610cab576040517f08c379a0000000000000000000000000000000000000000000000000000000008152600401610ca290613b38565b60405180910390fd5b60005b8151811015610dc75760006040518060200160405280848481518110610cd757610cd6613a97565b5b602002602001015173ffffffffffffffffffffffffffffffffffffffff1681525090508060066000858581518110610d1257610d11613a97565b5b602002602001015173ffffffffffffffffffffffffffffffffffffffff1673ffffffffffffffffffffffffffffffffffffffff16815260200190815260200160002060008201518160000160006101000a81548173ffffffffffffffffffffffffffffffffffffffff021916908373ffffffffffffffffffffffffffffffffffffffff1602179055509050506001600554610dad9190613b87565b600581905550508080610dbf90613bdd565b915050610cae565b5050565b600860000160009054906101000a900473ffffffffffffffffffffffffffffffffffffffff1673ffffffffffffffffffffffffffffffffffffffff163373ffffffffffffffffffffffffffffffffffffffff1614610e5e576040517f08c379a0000000000000000000000000000000000000000000000000000000008152600401610e5590613b38565b60405180910390fd5b600054600460035481548110610e7757610e76613a97565b5b9060005260206000209060070201600201541415610ec257600154600460035481548110610ea857610ea7613a97565b5b906000526020600020906007020160020181905550610ef1565b600254600460035481548110610edb57610eda613a97565b5b9060005260206000209060070201600201819055505b565b600060078281548110610f0957610f08613a97565b5b906000526020600020906002020160010160008473ffffffffffffffffffffffffffffffffffffffff1673ffffffffffffffffffffffffffffffffffffffff16815260200190815260200160002060009054906101000a900460ff16905092915050565b600860000160009054906101000a900473ffffffffffffffffffffffffffffffffffffffff1673ffffffffffffffffffffffffffffffffffffffff163373ffffffffffffffffffffffffffffffffffffffff1614611000576040517f08c379a0000000000000000000000000000000000000000000000000000000008152600401610ff790613b38565b60405180910390fd5b6000600480549050148061103c575060025460046003548154811061102857611027613a97565b5b906000526020600020906007020160020154145b61104557600080fd5b60006004805490501461106b576003600081548092919061106590613bdd565b91905055505b60046001816001815401808255809150500390600052602060002090505060006004600160048054905061109f9190613c26565b815481106110b0576110af613a97565b5b906000526020600020906007020190506003548160000181905550818160010190805190602001906110e39291906128ac565b50600054816002018190555060008160030181905550600081600401819055506007600181600181540180825580915050039060005260206000209050506000600760016004805490506111379190613c26565b8154811061114857611147613a97565b5b906000526020600020906002020190506003548160000181905550505050565b600080600480549050116111b1576040517f08c379a00000000000000000000000000000000000000000000000000000000081526004016111a890613a77565b60405180910390fd5b6004600354815481106111c7576111c6613a97565b5b906000526020600020906007020160020154905090565b600860000160009054906101000a900473ffffffffffffffffffffffffffffffffffffffff1673ffffffffffffffffffffffffffffffffffffffff163373ffffffffffffffffffffffffffffffffffffffff1614611271576040517f08c379a000000000000000000000000000000000000000000000000000000000815260040161126890613b38565b60405180910390fd5b60005b8151811015611328576006600083838151811061129457611293613a97565b5b602002602001015173ffffffffffffffffffffffffffffffffffffffff1673ffffffffffffffffffffffffffffffffffffffff168152602001908152602001600020600080820160006101000a81549073ffffffffffffffffffffffffffffffffffffffff02191690555050600160055461130f9190613c26565b600581905550808061132090613bdd565b915050611274565b5050565b600860000160009054906101000a900473ffffffffffffffffffffffffffffffffffffffff1673ffffffffffffffffffffffffffffffffffffffff163373ffffffffffffffffffffffffffffffffffffffff16146113bf576040517f08c379a00000000000000000000000000000000000000000000000000000000081526004016113b690613b38565b60405180910390fd5b600660008273ffffffffffffffffffffffffffffffffffffffff1673ffffffffffffffffffffffffffffffffffffffff168152602001908152602001600020600080820160006101000a81549073ffffffffffffffffffffffffffffffffffffffff0219169055505060016005546114379190613c26565b60058190555050565b60008073ffffffffffffffffffffffffffffffffffffffff16600660008473ffffffffffffffffffffffffffffffffffffffff1673ffffffffffffffffffffffffffffffffffffffff16815260200190815260200160002060000160009054906101000a900473ffffffffffffffffffffffffffffffffffffffff1673ffffffffffffffffffffffffffffffffffffffff16146114e057600190506114e5565b600090505b919050565b600860000160009054906101000a900473ffffffffffffffffffffffffffffffffffffffff1673ffffffffffffffffffffffffffffffffffffffff163373ffffffffffffffffffffffffffffffffffffffff161461157d576040517f08c379a000000000000000000000000000000000000000000000000000000000815260040161157490613b38565b60405180910390fd5b600060048054905014806115b9575060006004600354815481106115a4576115a3613a97565b5b90600052602060002090600702016002015414155b156115f9576040517f5d2d8a4c0000000000000000000000000000000000000000000000000000000081526004016115f090613ca6565b60405180910390fd5b60005b81518110156117c457600060046003548154811061161d5761161c613a97565b5b906000526020600020906007020160060180549050146116755760046003548154811061164d5761164c613a97565b5b9060005260206000209060070201600401600081548092919061166f90613bdd565b91905055505b60046003548154811061168b5761168a613a97565b5b90600052602060002090600702016006016001816001815401808255809150500390600052602060002090505060006004600354815481106116d0576116cf613a97565b5b906000526020600020906007020160060160016004600354815481106116f9576116f8613a97565b5b9060005260206000209060070201600601805490506117189190613c26565b8154811061172957611728613a97565b5b9060005260206000209060040201905060046003548154811061174f5761174e613a97565b5b906000526020600020906007020160040154816000018190555082828151811061177c5761177b613a97565b5b602002602001015181600101908051906020019061179b9291906128ac565b5060008160020181905550600081600301819055505080806117bc90613bdd565b9150506115fc565b5050565b60016117d2611168565b1480156117ee5750600015156117ea33600354610ef3565b1515145b6117f757600080fd5b60005b8151811015611bde57600082828151811061181857611817613a97565b5b602002602001015160008151811061183357611832613a97565b5b602002602001015114156119b0578082828151811061185557611854613a97565b5b60200260200101516001815181106118705761186f613a97565b5b602002602001015114156119705760046003548154811061189457611893613a97565b5b90600052602060002090600702016005018282815181106118b8576118b7613a97565b5b60200260200101516001815181106118d3576118d2613a97565b5b6020026020010151815481106118ec576118eb613a97565b5b90600052602060002090600402016003018282815181106119105761190f613a97565b5b602002602001015160028151811061192b5761192a613a97565b5b60200260200101518154811061194457611943613a97565b5b9060005260206000209060030201600201600081548092919061196690613bdd565b91905055506119ab565b6040517f08c379a00000000000000000000000000000000000000000000000000000000081526004016119a290613d12565b60405180910390fd5b611bcb565b6004600354815481106119c6576119c5613a97565b5b906000526020600020906007020160050180549050816119e69190613c26565b8282815181106119f9576119f8613a97565b5b6020026020010151600181518110611a1457611a13613a97565b5b602002602001015114611a5c576040517f08c379a0000000000000000000000000000000000000000000000000000000008152600401611a5390613d12565b60405180910390fd5b6001828281518110611a7157611a70613a97565b5b6020026020010151600281518110611a8c57611a8b613a97565b5b60200260200101511415611b3457600460035481548110611ab057611aaf613a97565b5b9060005260206000209060070201600601828281518110611ad457611ad3613a97565b5b6020026020010151600181518110611aef57611aee613a97565b5b602002602001015181548110611b0857611b07613a97565b5b90600052602060002090600402016002016000815480929190611b2a90613bdd565b9190505550611bca565b600460035481548110611b4a57611b49613a97565b5b9060005260206000209060070201600601828281518110611b6e57611b6d613a97565b5b6020026020010151600181518110611b8957611b88613a97565b5b602002602001015181548110611ba257611ba1613a97565b5b90600052602060002090600402016003016000815480929190611bc490613bdd565b91905055505b5b8080611bd690613bdd565b9150506117fa565b506001600760035481548110611bf757611bf6613a97565b5b906000526020600020906002020160010160003373ffffffffffffffffffffffffffffffffffffffff1673ffffffffffffffffffffffffffffffffffffffff16815260200190815260200160002060006101000a81548160ff02191690831515021790555050565b600860000160009054906101000a900473ffffffffffffffffffffffffffffffffffffffff1673ffffffffffffffffffffffffffffffffffffffff163373ffffffffffffffffffffffffffffffffffffffff1614611cf2576040517f08c379a0000000000000000000000000000000000000000000000000000000008152600401611ce990613b38565b60405180910390fd5b60006004805490501480611d2e57506000600460035481548110611d1957611d18613a97565b5b90600052602060002090600702016002015414155b15611d6e576040517f5d2d8a4c000000000000000000000000000000000000000000000000000000008152600401611d6590613ca6565b60405180910390fd5b60005b8151811015612061576000600460035481548110611d9257611d91613a97565b5b90600052602060002090600702016005018054905014611dea57600460035481548110611dc257611dc1613a97565b5b90600052602060002090600702016003016000815480929190611de490613bdd565b91905055505b600460035481548110611e0057611dff613a97565b5b9060005260206000209060070201600501600181600181540180825580915050039060005260206000209050506000600460035481548110611e4557611e44613a97565b5b90600052602060002090600702016005016001600460035481548110611e6e57611e6d613a97565b5b906000526020600020906007020160050180549050611e8d9190613c26565b81548110611e9e57611e9d613a97565b5b90600052602060002090600402019050600460035481548110611ec457611ec3613a97565b5b9060005260206000209060070201600301548160000181905550828281518110611ef157611ef0613a97565b5b6020026020010151600081518110611f0c57611f0b613a97565b5b6020026020010151816001019080519060200190611f2b9291906128ac565b50600081600201819055506000600190505b838381518110611f5057611f4f613a97565b5b60200260200101515181101561204c576000826003018054905014611f8a57816002016000815480929190611f8490613bdd565b91905055505b8160030160018160018154018082558091505003906000526020600020905050600082600301600183611fbd9190613c26565b81548110611fce57611fcd613a97565b5b9060005260206000209060030201905082600201548160000181905550848481518110611ffe57611ffd613a97565b5b6020026020010151828151811061201857612017613a97565b5b60200260200101518160010190805190602001906120379291906128ac565b5050808061204490613bdd565b915050611f3d565b5050808061205990613bdd565b915050611d71565b5050565b61206d61286f565b600480549050821061207e57600080fd5b6004828154811061209257612091613a97565b5b90600052602060002090600702016040518060e0016040529081600082015481526020016001820180546120c5906139e8565b80601f01602080910402602001604051908101604052809291908181526020018280546120f1906139e8565b801561213e5780601f106121135761010080835404028352916020019161213e565b820191906000526020600020905b81548152906001019060200180831161212157829003601f168201915b5050505050815260200160028201548152602001600382015481526020016004820154815260200160058201805480602002602001604051908101604052809291908181526020016000905b828210156123675783829060005260206000209060040201604051806080016040529081600082015481526020016001820180546121c7906139e8565b80601f01602080910402602001604051908101604052809291908181526020018280546121f3906139e8565b80156122405780601f1061221557610100808354040283529160200191612240565b820191906000526020600020905b81548152906001019060200180831161222357829003601f168201915b505050505081526020016002820154815260200160038201805480602002602001604051908101604052809291908181526020016000905b828210156123505783829060005260206000209060030201604051806060016040529081600082015481526020016001820180546122b5906139e8565b80601f01602080910402602001604051908101604052809291908181526020018280546122e1906139e8565b801561232e5780601f106123035761010080835404028352916020019161232e565b820191906000526020600020905b81548152906001019060200180831161231157829003601f168201915b5050505050815260200160028201548152505081526020019060010190612278565b50505050815250508152602001906001019061218a565b50505050815260200160068201805480602002602001604051908101604052809291908181526020016000905b828210156124765783829060005260206000209060040201604051806080016040529081600082015481526020016001820180546123d1906139e8565b80601f01602080910402602001604051908101604052809291908181526020018280546123fd906139e8565b801561244a5780601f1061241f5761010080835404028352916020019161244a565b820191906000526020600020905b81548152906001019060200180831161242d57829003601f168201915b505050505081526020016002820154815260200160038201548152505081526020019060010190612394565b50505050815250509050919050565b600860000160009054906101000a900473ffffffffffffffffffffffffffffffffffffffff1673ffffffffffffffffffffffffffffffffffffffff163373ffffffffffffffffffffffffffffffffffffffff1614612518576040517f08c379a000000000000000000000000000000000000000000000000000000000815260040161250f90613b38565b60405180910390fd5b600060405180602001604052808373ffffffffffffffffffffffffffffffffffffffff16815250905080600660008473ffffffffffffffffffffffffffffffffffffffff1673ffffffffffffffffffffffffffffffffffffffff16815260200190815260200160002060008201518160000160006101000a81548173ffffffffffffffffffffffffffffffffffffffff021916908373ffffffffffffffffffffffffffffffffffffffff16021790555090505060016005546125da9190613b87565b6005819055505050565b600860000160009054906101000a900473ffffffffffffffffffffffffffffffffffffffff1673ffffffffffffffffffffffffffffffffffffffff163373ffffffffffffffffffffffffffffffffffffffff1614612677576040517f08c379a000000000000000000000000000000000000000000000000000000000815260040161266e90613b38565b60405180910390fd5b600060048054905014806126b35750600060046003548154811061269e5761269d613a97565b5b90600052602060002090600702016002015414155b156126f3576040517f5d2d8a4c0000000000000000000000000000000000000000000000000000000081526004016126ea90613ca6565b60405180910390fd5b60046003548154811061270957612708613a97565b5b90600052602060002090600702016000808201600090556001820160006127309190612932565b6002820160009055600382016000905560048201600090556005820160006127589190612972565b6006820160006127689190612996565b5050600480548061277c5761277b613d32565b5b60019003818190600052602060002090600702016000808201600090556001820160006127a99190612932565b6002820160009055600382016000905560048201600090556005820160006127d19190612972565b6006820160006127e19190612996565b505090556007600354815481106127fb576127fa613a97565b5b90600052602060002090600202016000808201600090555050600780548061282657612825613d32565b5b60019003818190600052602060002090600202016000808201600090555050905560006004805490501461286d576003600081548092919061286790613d61565b91905055505b565b6040518060e00160405280600081526020016060815260200160008152602001600081526020016000815260200160608152602001606081525090565b8280546128b8906139e8565b90600052602060002090601f0160209004810192826128da5760008555612921565b82601f106128f357805160ff1916838001178555612921565b82800160010185558215612921579182015b82811115612920578251825591602001919060010190612905565b5b50905061292e91906129ba565b5090565b50805461293e906139e8565b6000825580601f10612950575061296f565b601f01602090049060005260206000209081019061296e91906129ba565b5b50565b508054600082556004029060005260206000209081019061299391906129d7565b50565b50805460008255600402906000526020600020908101906129b79190612a1e565b50565b5b808211156129d35760008160009055506001016129bb565b5090565b5b80821115612a1a576000808201600090556001820160006129f99190612932565b6002820160009055600382016000612a119190612a5d565b506004016129d8565b5090565b5b80821115612a5957600080820160009055600182016000612a409190612932565b6002820160009055600382016000905550600401612a1f565b5090565b5080546000825560030290600052602060002090810190612a7e9190612a81565b50565b5b80821115612ab457600080820160009055600182016000612aa39190612932565b600282016000905550600301612a82565b5090565b600081519050919050565b600082825260208201905092915050565b6000819050602082019050919050565b6000819050919050565b612af781612ae4565b82525050565b600081519050919050565b600082825260208201905092915050565b60005b83811015612b37578082015181840152602081019050612b1c565b83811115612b46576000848401525b50505050565b6000601f19601f8301169050919050565b6000612b6882612afd565b612b728185612b08565b9350612b82818560208601612b19565b612b8b81612b4c565b840191505092915050565b600081519050919050565b600082825260208201905092915050565b6000819050602082019050919050565b600081519050919050565b600082825260208201905092915050565b6000819050602082019050919050565b6000606083016000830151612c066000860182612aee565b5060208301518482036020860152612c1e8282612b5d565b9150506040830151612c336040860182612aee565b508091505092915050565b6000612c4a8383612bee565b905092915050565b6000602082019050919050565b6000612c6a82612bc2565b612c748185612bcd565b935083602082028501612c8685612bde565b8060005b85811015612cc25784840389528151612ca38582612c3e565b9450612cae83612c52565b925060208a01995050600181019050612c8a565b50829750879550505050505092915050565b6000608083016000830151612cec6000860182612aee565b5060208301518482036020860152612d048282612b5d565b9150506040830151612d196040860182612aee565b5060608301518482036060860152612d318282612c5f565b9150508091505092915050565b6000612d4a8383612cd4565b905092915050565b6000602082019050919050565b6000612d6a82612b96565b612d748185612ba1565b935083602082028501612d8685612bb2565b8060005b85811015612dc25784840389528151612da38582612d3e565b9450612dae83612d52565b925060208a01995050600181019050612d8a565b50829750879550505050505092915050565b600081519050919050565b600082825260208201905092915050565b6000819050602082019050919050565b6000608083016000830151612e186000860182612aee565b5060208301518482036020860152612e308282612b5d565b9150506040830151612e456040860182612aee565b506060830151612e586060860182612aee565b508091505092915050565b6000612e6f8383612e00565b905092915050565b6000602082019050919050565b6000612e8f82612dd4565b612e998185612ddf565b935083602082028501612eab85612df0565b8060005b85811015612ee75784840389528151612ec88582612e63565b9450612ed383612e77565b925060208a01995050600181019050612eaf565b50829750879550505050505092915050565b600060e083016000830151612f116000860182612aee565b5060208301518482036020860152612f298282612b5d565b9150506040830151612f3e6040860182612aee565b506060830151612f516060860182612aee565b506080830151612f646080860182612aee565b5060a083015184820360a0860152612f7c8282612d5f565b91505060c083015184820360c0860152612f968282612e84565b9150508091505092915050565b6000612faf8383612ef9565b905092915050565b6000602082019050919050565b6000612fcf82612ab8565b612fd98185612ac3565b935083602082028501612feb85612ad4565b8060005b8581101561302757848403895281516130088582612fa3565b945061301383612fb7565b925060208a01995050600181019050612fef565b50829750879550505050505092915050565b600060208201905081810360008301526130538184612fc4565b905092915050565b61306481612ae4565b82525050565b600060208201905061307f600083018461305b565b92915050565b600060e08301600083015161309d6000860182612aee565b50602083015184820360208601526130b58282612b5d565b91505060408301516130ca6040860182612aee565b5060608301516130dd6060860182612aee565b5060808301516130f06080860182612aee565b5060a083015184820360a08601526131088282612d5f565b91505060c083015184820360c08601526131228282612e84565b9150508091505092915050565b600060208201905081810360008301526131498184613085565b905092915050565b6000604051905090565b600080fd5b600080fd5b600073ffffffffffffffffffffffffffffffffffffffff82169050919050565b600061319082613165565b9050919050565b6131a081613185565b81146131ab57600080fd5b50565b6000813590506131bd81613197565b92915050565b6000602082840312156131d9576131d861315b565b5b60006131e7848285016131ae565b91505092915050565b6131f981613185565b82525050565b600060208201905061321460008301846131f0565b92915050565b600080fd5b7f4e487b7100000000000000000000000000000000000000000000000000000000600052604160045260246000fd5b61325782612b4c565b810181811067ffffffffffffffff821117156132765761327561321f565b5b80604052505050565b6000613289613151565b9050613295828261324e565b919050565b600067ffffffffffffffff8211156132b5576132b461321f565b5b602082029050602081019050919050565b600080fd5b60006132de6132d98461329a565b61327f565b90508083825260208201905060208402830185811115613301576133006132c6565b5b835b8181101561332a578061331688826131ae565b845260208401935050602081019050613303565b5050509392505050565b600082601f8301126133495761334861321a565b5b81356133598482602086016132cb565b91505092915050565b6000602082840312156133785761337761315b565b5b600082013567ffffffffffffffff81111561339657613395613160565b5b6133a284828501613334565b91505092915050565b6133b481612ae4565b81146133bf57600080fd5b50565b6000813590506133d1816133ab565b92915050565b600080604083850312156133ee576133ed61315b565b5b60006133fc858286016131ae565b925050602061340d858286016133c2565b9150509250929050565b60008115159050919050565b61342c81613417565b82525050565b60006020820190506134476000830184613423565b92915050565b600080fd5b600067ffffffffffffffff82111561346d5761346c61321f565b5b61347682612b4c565b9050602081019050919050565b82818337600083830152505050565b60006134a56134a084613452565b61327f565b9050828152602081018484840111156134c1576134c061344d565b5b6134cc848285613483565b509392505050565b600082601f8301126134e9576134e861321a565b5b81356134f9848260208601613492565b91505092915050565b6000602082840312156135185761351761315b565b5b600082013567ffffffffffffffff81111561353657613535613160565b5b613542848285016134d4565b91505092915050565b600067ffffffffffffffff8211156135665761356561321f565b5b602082029050602081019050919050565b600061358a6135858461354b565b61327f565b905080838252602082019050602084028301858111156135ad576135ac6132c6565b5b835b818110156135f457803567ffffffffffffffff8111156135d2576135d161321a565b5b8086016135df89826134d4565b855260208501945050506020810190506135af565b5050509392505050565b600082601f8301126136135761361261321a565b5b8135613623848260208601613577565b91505092915050565b6000602082840312156136425761364161315b565b5b600082013567ffffffffffffffff8111156136605761365f613160565b5b61366c848285016135fe565b91505092915050565b600067ffffffffffffffff8211156136905761368f61321f565b5b602082029050602081019050919050565b600067ffffffffffffffff8211156136bc576136bb61321f565b5b602082029050602081019050919050565b60006136e06136db846136a1565b61327f565b90508083825260208201905060208402830185811115613703576137026132c6565b5b835b8181101561372c578061371888826133c2565b845260208401935050602081019050613705565b5050509392505050565b600082601f83011261374b5761374a61321a565b5b813561375b8482602086016136cd565b91505092915050565b600061377761377284613675565b61327f565b9050808382526020820190506020840283018581111561379a576137996132c6565b5b835b818110156137e157803567ffffffffffffffff8111156137bf576137be61321a565b5b8086016137cc8982613736565b8552602085019450505060208101905061379c565b5050509392505050565b600082601f830112613800576137ff61321a565b5b8135613810848260208601613764565b91505092915050565b60006020828403121561382f5761382e61315b565b5b600082013567ffffffffffffffff81111561384d5761384c613160565b5b613859848285016137eb565b91505092915050565b600067ffffffffffffffff82111561387d5761387c61321f565b5b602082029050602081019050919050565b60006138a161389c84613862565b61327f565b905080838252602082019050602084028301858111156138c4576138c36132c6565b5b835b8181101561390b57803567ffffffffffffffff8111156138e9576138e861321a565b5b8086016138f689826135fe565b855260208501945050506020810190506138c6565b5050509392505050565b600082601f83011261392a5761392961321a565b5b813561393a84826020860161388e565b91505092915050565b6000602082840312156139595761395861315b565b5b600082013567ffffffffffffffff81111561397757613976613160565b5b61398384828501613915565b91505092915050565b6000602082840312156139a2576139a161315b565b5b60006139b0848285016133c2565b91505092915050565b7f4e487b7100000000000000000000000000000000000000000000000000000000600052602260045260246000fd5b60006002820490506001821680613a0057607f821691505b60208210811415613a1457613a136139b9565b5b50919050565b600082825260208201905092915050565b7f4e6f2042616c6c6f7420486173204265656e2043726561746564000000000000600082015250565b6000613a61601a83613a1a565b9150613a6c82613a2b565b602082019050919050565b60006020820190508181036000830152613a9081613a54565b9050919050565b7f4e487b7100000000000000000000000000000000000000000000000000000000600052603260045260246000fd5b7f4f6e6c792041646d696e6973747261746f72204d61792043616c6c2046756e6360008201527f74696f6e00000000000000000000000000000000000000000000000000000000602082015250565b6000613b22602483613a1a565b9150613b2d82613ac6565b604082019050919050565b60006020820190508181036000830152613b5181613b15565b9050919050565b7f4e487b7100000000000000000000000000000000000000000000000000000000600052601160045260246000fd5b6000613b9282612ae4565b9150613b9d83612ae4565b9250827fffffffffffffffffffffffffffffffffffffffffffffffffffffffffffffffff03821115613bd257613bd1613b58565b5b828201905092915050565b6000613be882612ae4565b91507fffffffffffffffffffffffffffffffffffffffffffffffffffffffffffffffff821415613c1b57613c1a613b58565b5b600182019050919050565b6000613c3182612ae4565b9150613c3c83612ae4565b925082821015613c4f57613c4e613b58565b5b828203905092915050565b7f42616c6c6f74204d7573742042652043726561746564202620436c6f73656400600082015250565b6000613c90601f83613a1a565b9150613c9b82613c5a565b602082019050919050565b60006020820190508181036000830152613cbf81613c83565b9050919050565b7f4572726f72000000000000000000000000000000000000000000000000000000600082015250565b6000613cfc600583613a1a565b9150613d0782613cc6565b602082019050919050565b60006020820190508181036000830152613d2b81613cef565b9050919050565b7f4e487b7100000000000000000000000000000000000000000000000000000000600052603160045260246000fd5b6000613d6c82612ae4565b91506000821415613d8057613d7f613b58565b5b60018203905091905056fea264697066735822122078fe0b870c3b8993d7b0deb9369dd26cb84fc004fa4ad3aadd5c98d30b49846d64736f6c634300080b0033",
  "immutableReferences": {},
  "source": "// SPDX-License-Identifier: MIT\npragma solidity ^0.8.11;\n\nimport \"./VoterStorage.sol\";\nimport \"./BallotStorage.sol\";\n\n/// @title A city voting smart contract\n/// @author Hubert Kdayssi\n/// @notice Contract can store voters, set up ballots with elections and issues\n/// @custom:experimental This is an experimental contract\n\ncontract VotingContract is BallotStorage, VoterStorage {\n\t\n\tstruct Administrator {\n\t\t/// @notice Address for the administrator\n\t\taddress adminAddress;\n\t}\n\n\t/// @notice Owner of voting contract\n    Administrator administrator;\n\n\tconstructor() {\n\t\t/// @notice On creation set administrator to creator address\n\t\tadministrator.adminAddress = msg.sender;\n\t}\n\t\n\t/// @param message Error message\n\terror BallotNotClosed(string message);\n\n\tmodifier onlyOwner() {\n\t\trequire(\n\t\t\tmsg.sender == administrator.adminAddress,\n\t\t\t\"Only Administrator May Call Function\"\n\t\t);\n\t\t_;\n\t}\n\n\tmodifier ballotClosed() {\n\t\tif (ballotsList.length == 0 || ballotsList[currentBallotId].status != 0) {\n\t\t\trevert BallotNotClosed(\"Ballot Must Be Created & Closed\");\n\t\t}\n\t\t_;\n\t}\n\n\t/// @notice Get the status of the most recent ballot\n\t/// @return The ballot status of CLOSED = 0, OPEN = 1, COMPLETE = 2\n\tfunction getCurrentBallotStatus() public view returns (uint) {\n\t\trequire(ballotsList.length > 0, \"No Ballot Has Been Created\");\n\t\treturn ballotsList[currentBallotId].status;\n\t}\n\n\t/// @notice Get the most recent ballot\n\t/// @return Return most recent ballot object\n\tfunction getCurrentBallot() public view returns (Ballot memory) {\n\t\trequire (ballotsList.length > 0, \"No Ballot Has Been Created\");\n\t\treturn ballotsList[currentBallotId];\n\t}\n\n\t/// @notice Get list of all ballots\n\t/// @return A list of ballot objects\n\tfunction getAllBallots() public view returns (Ballot[] memory) {\n\t\treturn ballotsList;\n\t}\n\n\t/// @notice Get ballot information by id\n\t/// @param _id The id of the ballot to retrieve information from\n\t/// @return The ballot object of _id\n\tfunction getBallotById(uint _id) public view returns (Ballot memory) {\n\t\trequire (_id < ballotsList.length);\n\t\treturn (ballotsList[_id]);\n\t} \n\n\t/// @notice Gets the total voter count in voter roll\n\t/// @return Total voter count\n    function getVoterCount() public view returns (uint) {\n        return voterCount;\n    }\n\n\t/// @notice Returns a boolean for whether or not given address is in voter roll\n\t/// @return True or false if voter address is valid\n\tfunction isVoter(address _voterAddress) public view returns (bool) {\n\t\tif (voterRoll[_voterAddress].voterAddress != address(0x0)) {\n            return true;\n        } else {\n            return false;\n        }\n\t}\n\n\t/// @notice Check whether or not a voter has voted on current ballot\n\t/// @param _voterAddress Address of voter to check\n\t/// @param _ballotId Id of ballot to check\n\t/// @return True if voter has voted on ballot, false is voter has not voted on ballot or does not exist\n\tfunction hasVoted(address _voterAddress, uint _ballotId) public view returns (bool) {\n\t\treturn voteRecordList[_ballotId].hasVoted[_voterAddress];\n\t}\n\n\t/// @notice Admin creates an empty ballot, pushes to ballostList, and creates a record in voteRecordList\n\t/// @param _name The name of the ballot\n\tfunction createBallot(string memory _name) public onlyOwner {\n\t\trequire(ballotsList.length == 0 || ballotsList[currentBallotId].status == COMPLETE);\n\t\tif(ballotsList.length != 0) { currentBallotId++; }\n\t\tballotsList.push();\n\t\tBallot storage newBallot = ballotsList[ballotsList.length - 1];\n\n\t\tnewBallot.id = currentBallotId;\n\t\tnewBallot.name = _name;\n\t\tnewBallot.status = CLOSED;\n\t\tnewBallot.currentElectionId = 0;\n\t\tnewBallot.currentIssueId = 0;\n\n\t\tvoteRecordList.push();\n\t\tVoteRecord storage newVoteRecord = voteRecordList[ballotsList.length - 1];\n\t\tnewVoteRecord.ballotId = currentBallotId;\n\t}\n\n\t/// @notice If ballot is closed, admin can delete ballot from ballotsList and record from voteRecordList\n\tfunction deleteBallot() public onlyOwner ballotClosed {\n\t\tdelete ballotsList[currentBallotId];\n\t\tballotsList.pop();\n\t\tdelete voteRecordList[currentBallotId];\n\t\tvoteRecordList.pop();\n\t\tif (ballotsList.length != 0) {\n\t\t\tcurrentBallotId--;\n\t\t}\n\t}\n\n\t/// @notice Admin can open the ballot and declare ballot complete\n\tfunction openCloseBallot() public onlyOwner {\n\t\tif(ballotsList[currentBallotId].status == CLOSED) {\n\t\t\tballotsList[currentBallotId].status = OPEN;\n\t\t} else {\n\t\t\tballotsList[currentBallotId].status = COMPLETE;\n\t\t}\n\t}\n\n\t/// @notice If ballot is closed, admin can add multiple elections to the current ballot\n\t/// @param elections List of lists with the following structure, \n\t/// [ [ election name , candidate name , candidate name ...], ... ]\n\tfunction addElections(string[][] memory elections) public onlyOwner ballotClosed {\n\t\tfor (uint i = 0; i < elections.length; i++) {\n\t\t\tif (ballotsList[currentBallotId].elections.length != 0) { ballotsList[currentBallotId].currentElectionId++; }\n\t\t\tballotsList[currentBallotId].elections.push();\n\t\t\tElection storage newElection = ballotsList[currentBallotId].elections[ballotsList[currentBallotId].elections.length - 1];\n\t\t\t\n\t\t\tnewElection.id = ballotsList[currentBallotId].currentElectionId;\n\t\t\tnewElection.name = elections[i][0];\n\t\t\tnewElection.currentCandidateId = 0;\n\n\t\t\tfor (uint c = 1; c < elections[i].length; c++) {\n\t\t\t\tif (newElection.candidates.length != 0) { newElection.currentCandidateId++; }\n\t\t\t\tnewElection.candidates.push();\n\t\t\t\tCandidate storage newCandidate = newElection.candidates[c - 1];\n\t\t\t\tnewCandidate.id = newElection.currentCandidateId;\n\t\t\t\tnewCandidate.name = elections[i][c];\n\t\t\t}\n\t\t}\n\t}\n\n\t/// @notice If ballot is closed, admin can add multiple issues to the ballot\n\t/// @param issues List of issue names\n\tfunction addIssues(string[] memory issues) public onlyOwner ballotClosed {\n\t\tfor (uint i = 0; i < issues.length; i++) {\n\t\t\tif (ballotsList[currentBallotId].issues.length != 0) { ballotsList[currentBallotId].currentIssueId++; }\n\t\t\tballotsList[currentBallotId].issues.push();\n\t\t\tIssue storage newIssue = ballotsList[currentBallotId].issues[ballotsList[currentBallotId].issues.length - 1];\n\n\t\t\tnewIssue.id = ballotsList[currentBallotId].currentIssueId;\n\t\t\tnewIssue.name = issues[i];\n\t\t\tnewIssue.forVotes = 0;\n\t\t\tnewIssue.againstVotes = 0;\n\t\t}\n\t}\n\n\t/// @notice Admin adds voter to voting roll & increases total voter count\n\t/// @param _voterAddress Address of voter to add to voter roll\n\tfunction addVoter(address _voterAddress) public onlyOwner {\n\t\tVoter memory newVoter = Voter(_voterAddress);\n\t\tvoterRoll[_voterAddress] = newVoter;\n\t\tvoterCount = voterCount + 1;\n\t}\n\n\t/// @notice Admin adds multiple voters to voting roll & increases total voter count\n\t/// @param voterAddresses Addresses of voters to add to voter roll\n\tfunction addMultipleVoters(address[] memory voterAddresses) public onlyOwner {\n\t\tfor (uint i = 0; i < voterAddresses.length; i++) {\n\t\t\tVoter memory newVoter = Voter(voterAddresses[i]);\n\t\t\tvoterRoll[voterAddresses[i]] = newVoter;\n\t\t\tvoterCount = voterCount + 1;\n\t\t}\n\t}\n\n\t/// @notice Admin removes voter from voting roll & reduces total voter count\n\t/// @param _voterAddress Address of voter to remove from voter roll\n\tfunction removeVoter(address _voterAddress) public onlyOwner {\n\t\tdelete voterRoll[_voterAddress];\n\t\tvoterCount = voterCount - 1;\n\t}\n\n\t/// @notice Admin removes multiple voters from voting roll & reduces total voter count\n\t/// @param voterAddresses Addresses of voters to remove from voter roll\n\tfunction removeMultipleVoters(address[] memory voterAddresses) public onlyOwner {\n\t\tfor (uint i = 0; i < voterAddresses.length; i++) {\n\t\t\tdelete voterRoll[voterAddresses[i]];\n\t\t\tvoterCount = voterCount - 1;\n\t\t}\n\t}\n\n\t/// @notice If they have not voted, registered voters can vote for elections & issues on the current, open ballot\n\t/// @dev Elections must be listed first and issues second, as well as in order in input\n\t/// @param votes List of uint lists with the following structure,\n\t/// [ [ election or issue, election id or issue id, VOTE ], ... ]\n\t/// election = 0 , issue = 1\n\t/// For issue VOTE, forVote = 1, againstVote = 0\n\t/// For election VOTE, VOTE = id of candidate\n\tfunction vote(uint[][] memory votes) public {\n\t\trequire(getCurrentBallotStatus() == 1 && hasVoted(msg.sender, currentBallotId) == false);\n\t\tfor (uint i = 0; i < votes.length; i++) {\n\t\t\t// Vote for election or issue\n\t\t\tif (votes[i][0] == 0) {\n\t\t\t\tif (votes[i][1] == i) {\n\t\t\t\t\tballotsList[currentBallotId].elections[votes[i][1]].candidates[votes[i][2]].votes++;\n\t\t\t\t} else {\n\t\t\t\t\trevert(\"Error\");\n\t\t\t\t}\n\t\t\t} else {\n\t\t\t\t// Vote for or against issue\n\t\t\t\tif (votes[i][1] != i - ballotsList[currentBallotId].elections.length) {\n\t\t\t\t\trevert(\"Error\");\n\t\t\t\t}\n\t\t\t\tif (votes[i][2] == 1) {\n\t\t\t\t\tballotsList[currentBallotId].issues[votes[i][1]].forVotes++;\n\t\t\t\t} else {\n\t\t\t\t\tballotsList[currentBallotId].issues[votes[i][1]].againstVotes++;\n\t\t\t\t}\n\t\t\t}\n\t\t}\n\t\tvoteRecordList[currentBallotId].hasVoted[msg.sender] = true;\n\t}\n\n}\n",
  "sourcePath": "/Users/hubertkdayssi/Documents/CS_Projects/voting_app/contracts/VotingContract.sol",
  "compiler": {
    "name": "solc",
    "version": "0.8.11+commit.d7f03943.Emscripten.clang"
  },
  "schemaVersion": "3.4.5",
  "updatedAt": "2022-02-24T21:46:34.962Z",
  "networkType": "ethereum",
  "devdoc": {
    "author": "Hubert Kdayssi",
    "custom:experimental": "This is an experimental contract",
    "errors": {
      "BallotNotClosed(string)": [
        {
          "params": {
            "message": "Error message"
          }
        }
      ]
    },
    "kind": "dev",
    "methods": {
      "addElections(string[][])": {
        "params": {
          "elections": "List of lists with the following structure,  [ [ election name , candidate name , candidate name ...], ... ]"
        }
      },
      "addIssues(string[])": {
        "params": {
          "issues": "List of issue names"
        }
      },
      "addMultipleVoters(address[])": {
        "params": {
          "voterAddresses": "Addresses of voters to add to voter roll"
        }
      },
      "addVoter(address)": {
        "params": {
          "_voterAddress": "Address of voter to add to voter roll"
        }
      },
      "createBallot(string)": {
        "params": {
          "_name": "The name of the ballot"
        }
      },
      "getAllBallots()": {
        "returns": {
          "_0": "A list of ballot objects"
        }
      },
      "getBallotById(uint256)": {
        "params": {
          "_id": "The id of the ballot to retrieve information from"
        },
        "returns": {
          "_0": "The ballot object of _id"
        }
      },
      "getCurrentBallot()": {
        "returns": {
          "_0": "Return most recent ballot object"
        }
      },
      "getCurrentBallotStatus()": {
        "returns": {
          "_0": "The ballot status of CLOSED = 0, OPEN = 1, COMPLETE = 2"
        }
      },
      "getVoterCount()": {
        "returns": {
          "_0": "Total voter count"
        }
      },
      "hasVoted(address,uint256)": {
        "params": {
          "_ballotId": "Id of ballot to check",
          "_voterAddress": "Address of voter to check"
        },
        "returns": {
          "_0": "True if voter has voted on ballot, false is voter has not voted on ballot or does not exist"
        }
      },
      "isVoter(address)": {
        "returns": {
          "_0": "True or false if voter address is valid"
        }
      },
      "removeMultipleVoters(address[])": {
        "params": {
          "voterAddresses": "Addresses of voters to remove from voter roll"
        }
      },
      "removeVoter(address)": {
        "params": {
          "_voterAddress": "Address of voter to remove from voter roll"
        }
      },
      "vote(uint256[][])": {
        "details": "Elections must be listed first and issues second, as well as in order in input",
        "params": {
          "votes": "List of uint lists with the following structure, [ [ election or issue, election id or issue id, VOTE ], ... ] election = 0 , issue = 1 For issue VOTE, forVote = 1, againstVote = 0 For election VOTE, VOTE = id of candidate"
        }
      }
    },
    "title": "A city voting smart contract",
    "version": 1
  },
  "userdoc": {
    "kind": "user",
    "methods": {
      "addElections(string[][])": {
        "notice": "If ballot is closed, admin can add multiple elections to the current ballot"
      },
      "addIssues(string[])": {
        "notice": "If ballot is closed, admin can add multiple issues to the ballot"
      },
      "addMultipleVoters(address[])": {
        "notice": "Admin adds multiple voters to voting roll & increases total voter count"
      },
      "addVoter(address)": {
        "notice": "Admin adds voter to voting roll & increases total voter count"
      },
      "createBallot(string)": {
        "notice": "Admin creates an empty ballot, pushes to ballostList, and creates a record in voteRecordList"
      },
      "deleteBallot()": {
        "notice": "If ballot is closed, admin can delete ballot from ballotsList and record from voteRecordList"
      },
      "getAllBallots()": {
        "notice": "Get list of all ballots"
      },
      "getBallotById(uint256)": {
        "notice": "Get ballot information by id"
      },
      "getCurrentBallot()": {
        "notice": "Get the most recent ballot"
      },
      "getCurrentBallotStatus()": {
        "notice": "Get the status of the most recent ballot"
      },
      "getVoterCount()": {
        "notice": "Gets the total voter count in voter roll"
      },
      "hasVoted(address,uint256)": {
        "notice": "Check whether or not a voter has voted on current ballot"
      },
      "isVoter(address)": {
        "notice": "Returns a boolean for whether or not given address is in voter roll"
      },
      "openCloseBallot()": {
        "notice": "Admin can open the ballot and declare ballot complete"
      },
      "removeMultipleVoters(address[])": {
        "notice": "Admin removes multiple voters from voting roll & reduces total voter count"
      },
      "removeVoter(address)": {
        "notice": "Admin removes voter from voting roll & reduces total voter count"
      },
      "vote(uint256[][])": {
        "notice": "If they have not voted, registered voters can vote for elections & issues on the current, open ballot"
      },
      "voterRoll(address)": {
        "notice": "Voting roll of all registered voters"
      }
    },
    "notice": "Contract can store voters, set up ballots with elections and issues",
    "version": 1
  }
}