{
  "contractName": "VotingContract",
  "abi": [
    {
      "inputs": [],
      "stateMutability": "nonpayable",
      "type": "constructor"
    },
    {
      "inputs": [
        {
          "internalType": "string",
          "name": "message",
          "type": "string"
        }
      ],
      "name": "BallotNotClosed",
      "type": "error"
    },
    {
      "inputs": [
        {
          "internalType": "string",
          "name": "message",
          "type": "string"
        }
      ],
      "name": "NotAdmin",
      "type": "error"
    },
    {
      "anonymous": false,
      "inputs": [
        {
          "indexed": false,
          "internalType": "string",
          "name": "message",
          "type": "string"
        }
      ],
      "name": "TestEvent",
      "type": "event"
    },
    {
      "inputs": [],
      "name": "getCurrentBallotStatus",
      "outputs": [
        {
          "internalType": "uint256",
          "name": "",
          "type": "uint256"
        }
      ],
      "stateMutability": "view",
      "type": "function",
      "constant": true
    },
    {
      "inputs": [
        {
          "internalType": "uint256",
          "name": "_id",
          "type": "uint256"
        }
      ],
      "name": "getBallotById",
      "outputs": [
        {
          "internalType": "uint256",
          "name": "",
          "type": "uint256"
        },
        {
          "internalType": "string",
          "name": "",
          "type": "string"
        },
        {
          "internalType": "uint256",
          "name": "",
          "type": "uint256"
        }
      ],
      "stateMutability": "view",
      "type": "function",
      "constant": true
    },
    {
      "inputs": [],
      "name": "getVoterCount",
      "outputs": [
        {
          "internalType": "uint256",
          "name": "",
          "type": "uint256"
        }
      ],
      "stateMutability": "view",
      "type": "function",
      "constant": true
    },
    {
      "inputs": [
        {
          "internalType": "address",
          "name": "voterAddress",
          "type": "address"
        }
      ],
      "name": "isVoter",
      "outputs": [
        {
          "internalType": "bool",
          "name": "",
          "type": "bool"
        }
      ],
      "stateMutability": "view",
      "type": "function",
      "constant": true
    },
    {
      "inputs": [
        {
          "internalType": "address",
          "name": "voterAddress",
          "type": "address"
        }
      ],
      "name": "addVoter",
      "outputs": [],
      "stateMutability": "nonpayable",
      "type": "function"
    },
    {
      "inputs": [
        {
          "internalType": "address[]",
          "name": "voterAddresses",
          "type": "address[]"
        }
      ],
      "name": "addMultipleVoters",
      "outputs": [],
      "stateMutability": "nonpayable",
      "type": "function"
    },
    {
      "inputs": [
        {
          "internalType": "address",
          "name": "voterAddress",
          "type": "address"
        }
      ],
      "name": "removeVoter",
      "outputs": [],
      "stateMutability": "nonpayable",
      "type": "function"
    },
    {
      "inputs": [
        {
          "internalType": "address[]",
          "name": "voterAddresses",
          "type": "address[]"
        }
      ],
      "name": "removeMultipleVoters",
      "outputs": [],
      "stateMutability": "nonpayable",
      "type": "function"
    },
    {
      "inputs": [
        {
          "internalType": "string",
          "name": "_name",
          "type": "string"
        }
      ],
      "name": "createBallot",
      "outputs": [],
      "stateMutability": "nonpayable",
      "type": "function"
    },
    {
      "inputs": [],
      "name": "deleteBallot",
      "outputs": [],
      "stateMutability": "nonpayable",
      "type": "function"
    },
    {
      "inputs": [
        {
          "internalType": "string",
          "name": "newName",
          "type": "string"
        }
      ],
      "name": "changeNameBallot",
      "outputs": [],
      "stateMutability": "nonpayable",
      "type": "function"
    },
    {
      "inputs": [],
      "name": "openCloseBallot",
      "outputs": [],
      "stateMutability": "nonpayable",
      "type": "function"
    },
    {
      "inputs": [],
      "name": "popStruct",
      "outputs": [],
      "stateMutability": "nonpayable",
      "type": "function"
    }
  ],
  "bytecode": "0x60806040523480156200001157600080fd5b50336000800160006101000a81548173ffffffffffffffffffffffffffffffffffffffff021916908373ffffffffffffffffffffffffffffffffffffffff160217905550604051620000639062000133565b604051809103906000f08015801562000080573d6000803e3d6000fd5b50600260006101000a81548173ffffffffffffffffffffffffffffffffffffffff021916908373ffffffffffffffffffffffffffffffffffffffff160217905550604051620000cf9062000141565b604051809103906000f080158015620000ec573d6000803e3d6000fd5b50600160006101000a81548173ffffffffffffffffffffffffffffffffffffffff021916908373ffffffffffffffffffffffffffffffffffffffff1602179055506200014f565b610ce38062001b4f83390190565b611a8f806200283283390190565b6119f0806200015f6000396000f3fe608060405234801561001057600080fd5b50600436106100cf5760003560e01c806379df360a1161008c578063a7771ee311610066578063a7771ee3146101b0578063d7627ad1146101e0578063f4ab9adf14610212578063fdad211f1461022e576100cf565b806379df360a1461015a57806386758e541461017857806386c1ff6814610194576100cf565b80630d28fd2d146100d457806311174a29146100f0578063385704d61461010e5780633cfe7fa71461012a57806342d7f28e1461013457806346a865761461013e575b600080fd5b6100ee60048036038101906100e991906112b3565b610238565b005b6100f861035a565b6040516101059190611315565b60405180910390f35b61012860048036038101906101239190611456565b6103f2565b005b610132610514565b005b61013c61062a565b005b610158600480360381019061015391906112b3565b610803565b005b610162610925565b60405161016f9190611315565b60405180910390f35b610192600480360381019061018d9190611456565b610a4f565b005b6101ae60048036038101906101a9919061149f565b610b71565b005b6101ca60048036038101906101c5919061149f565b610c93565b6040516101d791906114e7565b60405180910390f35b6101fa60048036038101906101f5919061152e565b610d38565b604051610209939291906115e3565b60405180910390f35b61022c6004803603810190610227919061149f565b610e7e565b005b610236610fa0565b005b6000800160009054906101000a900473ffffffffffffffffffffffffffffffffffffffff1673ffffffffffffffffffffffffffffffffffffffff163373ffffffffffffffffffffffffffffffffffffffff16146102ca576040517f7625245e0000000000000000000000000000000000000000000000000000000081526004016102c190611693565b60405180910390fd5b600160009054906101000a900473ffffffffffffffffffffffffffffffffffffffff1673ffffffffffffffffffffffffffffffffffffffff16630d28fd2d826040518263ffffffff1660e01b815260040161032591906116b3565b600060405180830381600087803b15801561033f57600080fd5b505af1158015610353573d6000803e3d6000fd5b5050505050565b6000600260009054906101000a900473ffffffffffffffffffffffffffffffffffffffff1673ffffffffffffffffffffffffffffffffffffffff166311174a296040518163ffffffff1660e01b8152600401602060405180830381865afa1580156103c9573d6000803e3d6000fd5b505050506040513d601f19601f820116820180604052508101906103ed91906116ea565b905090565b6000800160009054906101000a900473ffffffffffffffffffffffffffffffffffffffff1673ffffffffffffffffffffffffffffffffffffffff163373ffffffffffffffffffffffffffffffffffffffff1614610484576040517f7625245e00000000000000000000000000000000000000000000000000000000815260040161047b90611693565b60405180910390fd5b600260009054906101000a900473ffffffffffffffffffffffffffffffffffffffff1673ffffffffffffffffffffffffffffffffffffffff1663385704d6826040518263ffffffff1660e01b81526004016104df91906117d5565b600060405180830381600087803b1580156104f957600080fd5b505af115801561050d573d6000803e3d6000fd5b5050505050565b6000800160009054906101000a900473ffffffffffffffffffffffffffffffffffffffff1673ffffffffffffffffffffffffffffffffffffffff163373ffffffffffffffffffffffffffffffffffffffff16146105a6576040517f7625245e00000000000000000000000000000000000000000000000000000000815260040161059d90611693565b60405180910390fd5b600160009054906101000a900473ffffffffffffffffffffffffffffffffffffffff1673ffffffffffffffffffffffffffffffffffffffff16633cfe7fa76040518163ffffffff1660e01b8152600401600060405180830381600087803b15801561061057600080fd5b505af1158015610624573d6000803e3d6000fd5b50505050565b60006004600080815260200190815260200160002090506040518060400160405280600b81526020017f68656c6c6f20776f726c6400000000000000000000000000000000000000000081525081600001908051906020019061068e9291906110b6565b5060006005600080815260200190815260200160002090506040518060400160405280600281526020017f68690000000000000000000000000000000000000000000000000000000000008152508160000190805190602001906106f39291906110b6565b5060006040518060400160405280600581526020017f776f726c640000000000000000000000000000000000000000000000000000008152509050816001018190806001815401808255809150506001900390600052602060002001600090919091909150908051906020019061076b9291906110b6565b50600060405180602001604052806040518060400160405280600381526020017f6865790000000000000000000000000000000000000000000000000000000000815250815250905082600201819080600181540180825580915050600190039060005260206000200160009091909190915060008201518160000190805190602001906107fa9291906110b6565b50505050505050565b6000800160009054906101000a900473ffffffffffffffffffffffffffffffffffffffff1673ffffffffffffffffffffffffffffffffffffffff163373ffffffffffffffffffffffffffffffffffffffff1614610895576040517f7625245e00000000000000000000000000000000000000000000000000000000815260040161088c90611693565b60405180910390fd5b600160009054906101000a900473ffffffffffffffffffffffffffffffffffffffff1673ffffffffffffffffffffffffffffffffffffffff166346a86576826040518263ffffffff1660e01b81526004016108f091906116b3565b600060405180830381600087803b15801561090a57600080fd5b505af115801561091e573d6000803e3d6000fd5b5050505050565b60008060000160009054906101000a900473ffffffffffffffffffffffffffffffffffffffff1673ffffffffffffffffffffffffffffffffffffffff163373ffffffffffffffffffffffffffffffffffffffff16146109b9576040517f7625245e0000000000000000000000000000000000000000000000000000000081526004016109b090611693565b60405180910390fd5b600160009054906101000a900473ffffffffffffffffffffffffffffffffffffffff1673ffffffffffffffffffffffffffffffffffffffff166379df360a6040518163ffffffff1660e01b8152600401602060405180830381865afa158015610a26573d6000803e3d6000fd5b505050506040513d601f19601f82011682018060405250810190610a4a91906116ea565b905090565b6000800160009054906101000a900473ffffffffffffffffffffffffffffffffffffffff1673ffffffffffffffffffffffffffffffffffffffff163373ffffffffffffffffffffffffffffffffffffffff1614610ae1576040517f7625245e000000000000000000000000000000000000000000000000000000008152600401610ad890611693565b60405180910390fd5b600260009054906101000a900473ffffffffffffffffffffffffffffffffffffffff1673ffffffffffffffffffffffffffffffffffffffff166386758e54826040518263ffffffff1660e01b8152600401610b3c91906117d5565b600060405180830381600087803b158015610b5657600080fd5b505af1158015610b6a573d6000803e3d6000fd5b5050505050565b6000800160009054906101000a900473ffffffffffffffffffffffffffffffffffffffff1673ffffffffffffffffffffffffffffffffffffffff163373ffffffffffffffffffffffffffffffffffffffff1614610c03576040517f7625245e000000000000000000000000000000000000000000000000000000008152600401610bfa90611693565b60405180910390fd5b600260009054906101000a900473ffffffffffffffffffffffffffffffffffffffff1673ffffffffffffffffffffffffffffffffffffffff166386c1ff68826040518263ffffffff1660e01b8152600401610c5e9190611806565b600060405180830381600087803b158015610c7857600080fd5b505af1158015610c8c573d6000803e3d6000fd5b5050505050565b6000600260009054906101000a900473ffffffffffffffffffffffffffffffffffffffff1673ffffffffffffffffffffffffffffffffffffffff1663a7771ee3836040518263ffffffff1660e01b8152600401610cf09190611806565b602060405180830381865afa158015610d0d573d6000803e3d6000fd5b505050506040513d601f19601f82011682018060405250810190610d31919061184d565b9050919050565b6000606060008060000160009054906101000a900473ffffffffffffffffffffffffffffffffffffffff1673ffffffffffffffffffffffffffffffffffffffff163373ffffffffffffffffffffffffffffffffffffffff1614610dd0576040517f7625245e000000000000000000000000000000000000000000000000000000008152600401610dc790611693565b60405180910390fd5b600160009054906101000a900473ffffffffffffffffffffffffffffffffffffffff1673ffffffffffffffffffffffffffffffffffffffff1663d7627ad1856040518263ffffffff1660e01b8152600401610e2b9190611315565b600060405180830381865afa158015610e48573d6000803e3d6000fd5b505050506040513d6000823e3d601f19601f82011682018060405250810190610e7191906118ea565b9250925092509193909250565b6000800160009054906101000a900473ffffffffffffffffffffffffffffffffffffffff1673ffffffffffffffffffffffffffffffffffffffff163373ffffffffffffffffffffffffffffffffffffffff1614610f10576040517f7625245e000000000000000000000000000000000000000000000000000000008152600401610f0790611693565b60405180910390fd5b600260009054906101000a900473ffffffffffffffffffffffffffffffffffffffff1673ffffffffffffffffffffffffffffffffffffffff1663f4ab9adf826040518263ffffffff1660e01b8152600401610f6b9190611806565b600060405180830381600087803b158015610f8557600080fd5b505af1158015610f99573d6000803e3d6000fd5b5050505050565b6000800160009054906101000a900473ffffffffffffffffffffffffffffffffffffffff1673ffffffffffffffffffffffffffffffffffffffff163373ffffffffffffffffffffffffffffffffffffffff1614611032576040517f7625245e00000000000000000000000000000000000000000000000000000000815260040161102990611693565b60405180910390fd5b600160009054906101000a900473ffffffffffffffffffffffffffffffffffffffff1673ffffffffffffffffffffffffffffffffffffffff1663fdad211f6040518163ffffffff1660e01b8152600401600060405180830381600087803b15801561109c57600080fd5b505af11580156110b0573d6000803e3d6000fd5b50505050565b8280546110c290611988565b90600052602060002090601f0160209004810192826110e4576000855561112b565b82601f106110fd57805160ff191683800117855561112b565b8280016001018555821561112b579182015b8281111561112a57825182559160200191906001019061110f565b5b509050611138919061113c565b5090565b5b8082111561115557600081600090555060010161113d565b5090565b6000604051905090565b600080fd5b600080fd5b600080fd5b600080fd5b6000601f19601f8301169050919050565b7f4e487b7100000000000000000000000000000000000000000000000000000000600052604160045260246000fd5b6111c082611177565b810181811067ffffffffffffffff821117156111df576111de611188565b5b80604052505050565b60006111f2611159565b90506111fe82826111b7565b919050565b600067ffffffffffffffff82111561121e5761121d611188565b5b61122782611177565b9050602081019050919050565b82818337600083830152505050565b600061125661125184611203565b6111e8565b90508281526020810184848401111561127257611271611172565b5b61127d848285611234565b509392505050565b600082601f83011261129a5761129961116d565b5b81356112aa848260208601611243565b91505092915050565b6000602082840312156112c9576112c8611163565b5b600082013567ffffffffffffffff8111156112e7576112e6611168565b5b6112f384828501611285565b91505092915050565b6000819050919050565b61130f816112fc565b82525050565b600060208201905061132a6000830184611306565b92915050565b600067ffffffffffffffff82111561134b5761134a611188565b5b602082029050602081019050919050565b600080fd5b600073ffffffffffffffffffffffffffffffffffffffff82169050919050565b600061138c82611361565b9050919050565b61139c81611381565b81146113a757600080fd5b50565b6000813590506113b981611393565b92915050565b60006113d26113cd84611330565b6111e8565b905080838252602082019050602084028301858111156113f5576113f461135c565b5b835b8181101561141e578061140a88826113aa565b8452602084019350506020810190506113f7565b5050509392505050565b600082601f83011261143d5761143c61116d565b5b813561144d8482602086016113bf565b91505092915050565b60006020828403121561146c5761146b611163565b5b600082013567ffffffffffffffff81111561148a57611489611168565b5b61149684828501611428565b91505092915050565b6000602082840312156114b5576114b4611163565b5b60006114c3848285016113aa565b91505092915050565b60008115159050919050565b6114e1816114cc565b82525050565b60006020820190506114fc60008301846114d8565b92915050565b61150b816112fc565b811461151657600080fd5b50565b60008135905061152881611502565b92915050565b60006020828403121561154457611543611163565b5b600061155284828501611519565b91505092915050565b600081519050919050565b600082825260208201905092915050565b60005b8381101561159557808201518184015260208101905061157a565b838111156115a4576000848401525b50505050565b60006115b58261155b565b6115bf8185611566565b93506115cf818560208601611577565b6115d881611177565b840191505092915050565b60006060820190506115f86000830186611306565b818103602083015261160a81856115aa565b90506116196040830184611306565b949350505050565b7f4f6e6c792041646d696e6973747261746f72204d61792043616c6c2046756e6360008201527f74696f6e00000000000000000000000000000000000000000000000000000000602082015250565b600061167d602483611566565b915061168882611621565b604082019050919050565b600060208201905081810360008301526116ac81611670565b9050919050565b600060208201905081810360008301526116cd81846115aa565b905092915050565b6000815190506116e481611502565b92915050565b600060208284031215611700576116ff611163565b5b600061170e848285016116d5565b91505092915050565b600081519050919050565b600082825260208201905092915050565b6000819050602082019050919050565b61174c81611381565b82525050565b600061175e8383611743565b60208301905092915050565b6000602082019050919050565b600061178282611717565b61178c8185611722565b935061179783611733565b8060005b838110156117c85781516117af8882611752565b97506117ba8361176a565b92505060018101905061179b565b5085935050505092915050565b600060208201905081810360008301526117ef8184611777565b905092915050565b61180081611381565b82525050565b600060208201905061181b60008301846117f7565b92915050565b61182a816114cc565b811461183557600080fd5b50565b60008151905061184781611821565b92915050565b60006020828403121561186357611862611163565b5b600061187184828501611838565b91505092915050565b600061188d61188884611203565b6111e8565b9050828152602081018484840111156118a9576118a8611172565b5b6118b4848285611577565b509392505050565b600082601f8301126118d1576118d061116d565b5b81516118e184826020860161187a565b91505092915050565b60008060006060848603121561190357611902611163565b5b6000611911868287016116d5565b935050602084015167ffffffffffffffff81111561193257611931611168565b5b61193e868287016118bc565b925050604061194f868287016116d5565b9150509250925092565b7f4e487b7100000000000000000000000000000000000000000000000000000000600052602260045260246000fd5b600060028204905060018216806119a057607f821691505b602082108114156119b4576119b3611959565b5b5091905056fea264697066735822122062d4d8dcf23411b9c5606efbf832a21429d302482e81b98f501661730a2883f364736f6c634300080b0033608060405234801561001057600080fd5b5033600260006101000a81548173ffffffffffffffffffffffffffffffffffffffff021916908373ffffffffffffffffffffffffffffffffffffffff160217905550610c82806100616000396000f3fe608060405234801561001057600080fd5b506004361061007d5760003560e01c806386758e541161005b57806386758e54146100ec57806386c1ff6814610108578063a7771ee314610124578063f4ab9adf146101545761007d565b806311174a291461008257806327736f85146100a0578063385704d6146100d0575b600080fd5b61008a610170565b60405161009791906107e2565b60405180910390f35b6100ba60048036038101906100b5919061086f565b610179565b6040516100c791906108ab565b60405180910390f35b6100ea60048036038101906100e59190610a1f565b6101b7565b005b61010660048036038101906101019190610a1f565b610367565b005b610122600480360381019061011d919061086f565b6104b2565b005b61013e6004803603810190610139919061086f565b6105c3565b60405161014b9190610a83565b60405180910390f35b61016e6004803603810190610169919061086f565b61066d565b005b60008054905090565b60016020528060005260406000206000915090508060000160009054906101000a900473ffffffffffffffffffffffffffffffffffffffff16905081565b600260009054906101000a900473ffffffffffffffffffffffffffffffffffffffff1673ffffffffffffffffffffffffffffffffffffffff163373ffffffffffffffffffffffffffffffffffffffff1614610247576040517ff7251ccf00000000000000000000000000000000000000000000000000000000815260040161023e90610afb565b60405180910390fd5b60005b8151811015610363576000604051806020016040528084848151811061027357610272610b1b565b5b602002602001015173ffffffffffffffffffffffffffffffffffffffff16815250905080600160008585815181106102ae576102ad610b1b565b5b602002602001015173ffffffffffffffffffffffffffffffffffffffff1673ffffffffffffffffffffffffffffffffffffffff16815260200190815260200160002060008201518160000160006101000a81548173ffffffffffffffffffffffffffffffffffffffff021916908373ffffffffffffffffffffffffffffffffffffffff16021790555090505060016000546103499190610b79565b60008190555050808061035b90610bcf565b91505061024a565b5050565b600260009054906101000a900473ffffffffffffffffffffffffffffffffffffffff1673ffffffffffffffffffffffffffffffffffffffff163373ffffffffffffffffffffffffffffffffffffffff16146103f7576040517ff7251ccf0000000000000000000000000000000000000000000000000000000081526004016103ee90610afb565b60405180910390fd5b60005b81518110156104ae576001600083838151811061041a57610419610b1b565b5b602002602001015173ffffffffffffffffffffffffffffffffffffffff1673ffffffffffffffffffffffffffffffffffffffff168152602001908152602001600020600080820160006101000a81549073ffffffffffffffffffffffffffffffffffffffff0219169055505060016000546104959190610c18565b60008190555080806104a690610bcf565b9150506103fa565b5050565b600260009054906101000a900473ffffffffffffffffffffffffffffffffffffffff1673ffffffffffffffffffffffffffffffffffffffff163373ffffffffffffffffffffffffffffffffffffffff1614610542576040517ff7251ccf00000000000000000000000000000000000000000000000000000000815260040161053990610afb565b60405180910390fd5b600160008273ffffffffffffffffffffffffffffffffffffffff1673ffffffffffffffffffffffffffffffffffffffff168152602001908152602001600020600080820160006101000a81549073ffffffffffffffffffffffffffffffffffffffff0219169055505060016000546105ba9190610c18565b60008190555050565b60008073ffffffffffffffffffffffffffffffffffffffff16600160008473ffffffffffffffffffffffffffffffffffffffff1673ffffffffffffffffffffffffffffffffffffffff16815260200190815260200160002060000160009054906101000a900473ffffffffffffffffffffffffffffffffffffffff1673ffffffffffffffffffffffffffffffffffffffff16146106635760019050610668565b600090505b919050565b600260009054906101000a900473ffffffffffffffffffffffffffffffffffffffff1673ffffffffffffffffffffffffffffffffffffffff163373ffffffffffffffffffffffffffffffffffffffff16146106fd576040517ff7251ccf0000000000000000000000000000000000000000000000000000000081526004016106f490610afb565b60405180910390fd5b600060405180602001604052808373ffffffffffffffffffffffffffffffffffffffff16815250905080600160008473ffffffffffffffffffffffffffffffffffffffff1673ffffffffffffffffffffffffffffffffffffffff16815260200190815260200160002060008201518160000160006101000a81548173ffffffffffffffffffffffffffffffffffffffff021916908373ffffffffffffffffffffffffffffffffffffffff16021790555090505060016000546107bf9190610b79565b6000819055505050565b6000819050919050565b6107dc816107c9565b82525050565b60006020820190506107f760008301846107d3565b92915050565b6000604051905090565b600080fd5b600080fd5b600073ffffffffffffffffffffffffffffffffffffffff82169050919050565b600061083c82610811565b9050919050565b61084c81610831565b811461085757600080fd5b50565b60008135905061086981610843565b92915050565b60006020828403121561088557610884610807565b5b60006108938482850161085a565b91505092915050565b6108a581610831565b82525050565b60006020820190506108c0600083018461089c565b92915050565b600080fd5b6000601f19601f8301169050919050565b7f4e487b7100000000000000000000000000000000000000000000000000000000600052604160045260246000fd5b610914826108cb565b810181811067ffffffffffffffff82111715610933576109326108dc565b5b80604052505050565b60006109466107fd565b9050610952828261090b565b919050565b600067ffffffffffffffff821115610972576109716108dc565b5b602082029050602081019050919050565b600080fd5b600061099b61099684610957565b61093c565b905080838252602082019050602084028301858111156109be576109bd610983565b5b835b818110156109e757806109d3888261085a565b8452602084019350506020810190506109c0565b5050509392505050565b600082601f830112610a0657610a056108c6565b5b8135610a16848260208601610988565b91505092915050565b600060208284031215610a3557610a34610807565b5b600082013567ffffffffffffffff811115610a5357610a5261080c565b5b610a5f848285016109f1565b91505092915050565b60008115159050919050565b610a7d81610a68565b82525050565b6000602082019050610a986000830184610a74565b92915050565b600082825260208201905092915050565b7f4f6e6c79204f776e6572204d61792043616c6c2046756e6374696f6e00000000600082015250565b6000610ae5601c83610a9e565b9150610af082610aaf565b602082019050919050565b60006020820190508181036000830152610b1481610ad8565b9050919050565b7f4e487b7100000000000000000000000000000000000000000000000000000000600052603260045260246000fd5b7f4e487b7100000000000000000000000000000000000000000000000000000000600052601160045260246000fd5b6000610b84826107c9565b9150610b8f836107c9565b9250827fffffffffffffffffffffffffffffffffffffffffffffffffffffffffffffffff03821115610bc457610bc3610b4a565b5b828201905092915050565b6000610bda826107c9565b91507fffffffffffffffffffffffffffffffffffffffffffffffffffffffffffffffff821415610c0d57610c0c610b4a565b5b600182019050919050565b6000610c23826107c9565b9150610c2e836107c9565b925082821015610c4157610c40610b4a565b5b82820390509291505056fea2646970667358221220efde0dc10e4f05ad45f389e0e29cc71e3649a8fb7ca33968534830015ba0d21864736f6c634300080b0033608060405234801561001057600080fd5b5033600260006101000a81548173ffffffffffffffffffffffffffffffffffffffff021916908373ffffffffffffffffffffffffffffffffffffffff160217905550611a2e806100616000396000f3fe608060405234801561001057600080fd5b506004361061009e5760003560e01c80633cfe7fa7116100665780633cfe7fa71461012f57806346a865761461013957806379df360a14610155578063d7627ad114610173578063fdad211f146101a55761009e565b80630d28fd2d146100a357806328e58f37146100bf57806331a0c16e146100db57806335e1399b146100f7578063389ddfee14610113575b600080fd5b6100bd60048036038101906100b89190611408565b6101af565b005b6100d960048036038101906100d4919061156d565b6102fa565b005b6100f560048036038101906100f091906115c9565b61040a565b005b610111600480360381019061010c91906115f6565b610593565b005b61012d6004803603810190610128919061163f565b610863565b005b6101376109d2565b005b610153600480360381019061014e9190611408565b610af3565b005b61015d610c84565b60405161016a91906116aa565b60405180910390f35b61018d600480360381019061018891906115c9565b610d55565b60405161019c9392919061174d565b60405180910390f35b6101ad610eee565b005b600260009054906101000a900473ffffffffffffffffffffffffffffffffffffffff1673ffffffffffffffffffffffffffffffffffffffff163373ffffffffffffffffffffffffffffffffffffffff161461023f576040517ff7251ccf000000000000000000000000000000000000000000000000000000008152600401610236906117d7565b60405180910390fd5b6000600180549050148061027b57506000600160005481548110610266576102656117f7565b5b90600052602060002090600702016002015414155b156102bb576040517f5d2d8a4c0000000000000000000000000000000000000000000000000000000081526004016102b290611872565b60405180910390fd5b806001600054815481106102d2576102d16117f7565b5b906000526020600020906007020160010190805190602001906102f692919061108e565b5050565b600260009054906101000a900473ffffffffffffffffffffffffffffffffffffffff1673ffffffffffffffffffffffffffffffffffffffff163373ffffffffffffffffffffffffffffffffffffffff161461038a576040517ff7251ccf000000000000000000000000000000000000000000000000000000008152600401610381906117d7565b60405180910390fd5b600060018054905014806103c6575060006001600054815481106103b1576103b06117f7565b5b90600052602060002090600702016002015414155b15610406576040517f5d2d8a4c0000000000000000000000000000000000000000000000000000000081526004016103fd90611872565b60405180910390fd5b5050565b600260009054906101000a900473ffffffffffffffffffffffffffffffffffffffff1673ffffffffffffffffffffffffffffffffffffffff163373ffffffffffffffffffffffffffffffffffffffff161461049a576040517ff7251ccf000000000000000000000000000000000000000000000000000000008152600401610491906117d7565b60405180910390fd5b600060018054905014806104d6575060006001600054815481106104c1576104c06117f7565b5b90600052602060002090600702016002015414155b15610516576040517f5d2d8a4c00000000000000000000000000000000000000000000000000000000815260040161050d90611872565b60405180910390fd5b60016000548154811061052c5761052b6117f7565b5b9060005260206000209060070201600501818154811061054f5761054e6117f7565b5b90600052602060002090600502016000808201600090556001820160006105769190611114565b600282016000905560038201600061058e9190611154565b505050565b600260009054906101000a900473ffffffffffffffffffffffffffffffffffffffff1673ffffffffffffffffffffffffffffffffffffffff163373ffffffffffffffffffffffffffffffffffffffff1614610623576040517ff7251ccf00000000000000000000000000000000000000000000000000000000815260040161061a906117d7565b60405180910390fd5b6000600180549050148061065f5750600060016000548154811061064a576106496117f7565b5b90600052602060002090600702016002015414155b1561069f576040517f5d2d8a4c00000000000000000000000000000000000000000000000000000000815260040161069690611872565b60405180910390fd5b60005b815181101561085f576001600054815481106106c1576106c06117f7565b5b9060005260206000209060070201600501600181600181540180825580915050039060005260206000209050506000600160005481548110610706576107056117f7565b5b90600052602060002090600702016005016001806000548154811061072e5761072d6117f7565b5b90600052602060002090600702016005018054905061074d91906118c1565b8154811061075e5761075d6117f7565b5b906000526020600020906005020190506000600160005481548110610786576107856117f7565b5b906000526020600020906007020160050180549050146107de576001600054815481106107b6576107b56117f7565b5b906000526020600020906007020160030160008154809291906107d8906118f5565b91905055505b6001600054815481106107f4576107f36117f7565b5b9060005260206000209060070201600301548160000181905550828281518110610821576108206117f7565b5b602002602001015181600101908051906020019061084092919061108e565b5060008160020181905550508080610857906118f5565b9150506106a2565b5050565b600260009054906101000a900473ffffffffffffffffffffffffffffffffffffffff1673ffffffffffffffffffffffffffffffffffffffff163373ffffffffffffffffffffffffffffffffffffffff16146108f3576040517ff7251ccf0000000000000000000000000000000000000000000000000000000081526004016108ea906117d7565b60405180910390fd5b6000600180549050148061092f5750600060016000548154811061091a576109196117f7565b5b90600052602060002090600702016002015414155b1561096f576040517f5d2d8a4c00000000000000000000000000000000000000000000000000000000815260040161096690611872565b60405180910390fd5b80600160005481548110610986576109856117f7565b5b906000526020600020906007020160050183815481106109a9576109a86117f7565b5b906000526020600020906005020160010190805190602001906109cd92919061108e565b505050565b600260009054906101000a900473ffffffffffffffffffffffffffffffffffffffff1673ffffffffffffffffffffffffffffffffffffffff163373ffffffffffffffffffffffffffffffffffffffff1614610a62576040517ff7251ccf000000000000000000000000000000000000000000000000000000008152600401610a59906117d7565b60405180910390fd5b6000600160005481548110610a7a57610a796117f7565b5b9060005260206000209060070201600201541415610ac35760018060005481548110610aa957610aa86117f7565b5b906000526020600020906007020160020181905550610af1565b6002600160005481548110610adb57610ada6117f7565b5b9060005260206000209060070201600201819055505b565b600260009054906101000a900473ffffffffffffffffffffffffffffffffffffffff1673ffffffffffffffffffffffffffffffffffffffff163373ffffffffffffffffffffffffffffffffffffffff1614610b83576040517ff7251ccf000000000000000000000000000000000000000000000000000000008152600401610b7a906117d7565b60405180910390fd5b60006001805490501480610bbe57506002600160005481548110610baa57610ba96117f7565b5b906000526020600020906007020160020154145b610bc757600080fd5b600180816001815401808255809150500390600052602060002090505060006001808080549050610bf891906118c1565b81548110610c0957610c086117f7565b5b90600052602060002090600702019050600060018054905014610c3e57600080815480929190610c38906118f5565b91905055505b600054816000018190555081816001019080519060200190610c6192919061108e565b506000816002018190555060008160030181905550600081600401819055505050565b6000600260009054906101000a900473ffffffffffffffffffffffffffffffffffffffff1673ffffffffffffffffffffffffffffffffffffffff163373ffffffffffffffffffffffffffffffffffffffff1614610d16576040517ff7251ccf000000000000000000000000000000000000000000000000000000008152600401610d0d906117d7565b60405180910390fd5b600060018054905011610d2857600080fd5b600160005481548110610d3e57610d3d6117f7565b5b906000526020600020906007020160020154905090565b600060606000600260009054906101000a900473ffffffffffffffffffffffffffffffffffffffff1673ffffffffffffffffffffffffffffffffffffffff163373ffffffffffffffffffffffffffffffffffffffff1614610deb576040517ff7251ccf000000000000000000000000000000000000000000000000000000008152600401610de2906117d7565b60405180910390fd5b60008410158015610e00575060018054905084105b610e0957600080fd5b8360018581548110610e1e57610e1d6117f7565b5b906000526020600020906007020160010160018681548110610e4357610e426117f7565b5b906000526020600020906007020160020154818054610e619061196d565b80601f0160208091040260200160405190810160405280929190818152602001828054610e8d9061196d565b8015610eda5780601f10610eaf57610100808354040283529160200191610eda565b820191906000526020600020905b815481529060010190602001808311610ebd57829003601f168201915b505050505091509250925092509193909250565b600260009054906101000a900473ffffffffffffffffffffffffffffffffffffffff1673ffffffffffffffffffffffffffffffffffffffff163373ffffffffffffffffffffffffffffffffffffffff1614610f7e576040517ff7251ccf000000000000000000000000000000000000000000000000000000008152600401610f75906117d7565b60405180910390fd5b60006001805490501480610fba57506000600160005481548110610fa557610fa46117f7565b5b90600052602060002090600702016002015414155b15610ffa576040517f5d2d8a4c000000000000000000000000000000000000000000000000000000008152600401610ff190611872565b60405180910390fd5b600180548061100c5761100b61199f565b5b60019003818190600052602060002090600702016000808201600090556001820160006110399190611114565b6002820160009055600382016000905560048201600090556005820160006110619190611178565b600682016000611071919061119c565b50509055600080815480929190611087906119ce565b9190505550565b82805461109a9061196d565b90600052602060002090601f0160209004810192826110bc5760008555611103565b82601f106110d557805160ff1916838001178555611103565b82800160010185558215611103579182015b828111156111025782518255916020019190600101906110e7565b5b50905061111091906111c0565b5090565b5080546111209061196d565b6000825580601f106111325750611151565b601f01602090049060005260206000209081019061115091906111c0565b5b50565b508054600082556003029060005260206000209081019061117591906111dd565b50565b50805460008255600502906000526020600020908101906111999190611214565b50565b50805460008255600602906000526020600020908101906111bd919061125b565b50565b5b808211156111d95760008160009055506001016111c1565b5090565b5b80821115611210576000808201600090556001820160006111ff9190611114565b6002820160009055506003016111de565b5090565b5b80821115611257576000808201600090556001820160006112369190611114565b600282016000905560038201600061124e9190611154565b50600501611215565b5090565b5b808211156112aa5760008082016000905560018201600061127d9190611114565b600282016000905560038201600090556004820160006101000a81549060ff02191690555060060161125c565b5090565b6000604051905090565b600080fd5b600080fd5b600080fd5b600080fd5b6000601f19601f8301169050919050565b7f4e487b7100000000000000000000000000000000000000000000000000000000600052604160045260246000fd5b611315826112cc565b810181811067ffffffffffffffff82111715611334576113336112dd565b5b80604052505050565b60006113476112ae565b9050611353828261130c565b919050565b600067ffffffffffffffff821115611373576113726112dd565b5b61137c826112cc565b9050602081019050919050565b82818337600083830152505050565b60006113ab6113a684611358565b61133d565b9050828152602081018484840111156113c7576113c66112c7565b5b6113d2848285611389565b509392505050565b600082601f8301126113ef576113ee6112c2565b5b81356113ff848260208601611398565b91505092915050565b60006020828403121561141e5761141d6112b8565b5b600082013567ffffffffffffffff81111561143c5761143b6112bd565b5b611448848285016113da565b91505092915050565b6000819050919050565b61146481611451565b811461146f57600080fd5b50565b6000813590506114818161145b565b92915050565b600067ffffffffffffffff8211156114a2576114a16112dd565b5b602082029050602081019050919050565b600080fd5b60006114cb6114c684611487565b61133d565b905080838252602082019050602084028301858111156114ee576114ed6114b3565b5b835b8181101561153557803567ffffffffffffffff811115611513576115126112c2565b5b80860161152089826113da565b855260208501945050506020810190506114f0565b5050509392505050565b600082601f830112611554576115536112c2565b5b81356115648482602086016114b8565b91505092915050565b60008060408385031215611584576115836112b8565b5b600061159285828601611472565b925050602083013567ffffffffffffffff8111156115b3576115b26112bd565b5b6115bf8582860161153f565b9150509250929050565b6000602082840312156115df576115de6112b8565b5b60006115ed84828501611472565b91505092915050565b60006020828403121561160c5761160b6112b8565b5b600082013567ffffffffffffffff81111561162a576116296112bd565b5b6116368482850161153f565b91505092915050565b60008060408385031215611656576116556112b8565b5b600061166485828601611472565b925050602083013567ffffffffffffffff811115611685576116846112bd565b5b611691858286016113da565b9150509250929050565b6116a481611451565b82525050565b60006020820190506116bf600083018461169b565b92915050565b600081519050919050565b600082825260208201905092915050565b60005b838110156116ff5780820151818401526020810190506116e4565b8381111561170e576000848401525b50505050565b600061171f826116c5565b61172981856116d0565b93506117398185602086016116e1565b611742816112cc565b840191505092915050565b6000606082019050611762600083018661169b565b81810360208301526117748185611714565b9050611783604083018461169b565b949350505050565b7f4f6e6c79204f776e6572204d61792043616c6c2046756e6374696f6e00000000600082015250565b60006117c1601c836116d0565b91506117cc8261178b565b602082019050919050565b600060208201905081810360008301526117f0816117b4565b9050919050565b7f4e487b7100000000000000000000000000000000000000000000000000000000600052603260045260246000fd5b7f42616c6c6f74204d75737420426520436c6f7365640000000000000000000000600082015250565b600061185c6015836116d0565b915061186782611826565b602082019050919050565b6000602082019050818103600083015261188b8161184f565b9050919050565b7f4e487b7100000000000000000000000000000000000000000000000000000000600052601160045260246000fd5b60006118cc82611451565b91506118d783611451565b9250828210156118ea576118e9611892565b5b828203905092915050565b600061190082611451565b91507fffffffffffffffffffffffffffffffffffffffffffffffffffffffffffffffff82141561193357611932611892565b5b600182019050919050565b7f4e487b7100000000000000000000000000000000000000000000000000000000600052602260045260246000fd5b6000600282049050600182168061198557607f821691505b602082108114156119995761199861193e565b5b50919050565b7f4e487b7100000000000000000000000000000000000000000000000000000000600052603160045260246000fd5b60006119d982611451565b915060008214156119ed576119ec611892565b5b60018203905091905056fea264697066735822122010d758096d8cac3d500dfb42f2156c125768bd277e70db3da21d5f8881f3c5d864736f6c634300080b0033",
  "immutableReferences": {},
  "source": "// SPDX-License-Identifier: MIT\npragma solidity ^0.8.11;\n//pragma experimental ABIEncoderV2;\n\nimport \"./Voters.sol\";\nimport \"./Ballots.sol\";\n\n//import \"./Election.sol\";\n\ncontract VotingContract {\n\tstruct Administrator {\n\t\t/// @notice Address for the administrator\n\t\taddress adminAddress;\n\t}\n\n\t/// @notice Owner of voting contract\n    Administrator administrator;\n\n\t/// @notice List of ballots\n\tBallots ballots;\n\n\t/// @notice Voter storage and functions\n\tVoters voters;\n\n\tconstructor() {\n\t\t/// @notice On creation set administrator to creator address\n\t\tadministrator.adminAddress = msg.sender;\n\n\t\tvoters = new Voters();\n\n\t\tballots = new Ballots();\n\n\t}\n\n\t// Error Messages\n\terror NotAdmin(string message);\n\terror BallotNotClosed(string message);\n\n\t\n\t// Modifiers\n\tmodifier onlyOwner() {\n\t\tif (msg.sender != administrator.adminAddress) {\n\t\t\trevert NotAdmin(\"Only Administrator May Call Function\");\n\t\t}\n\t\t_;\n\t}\n\n\t/*\n\tmodifier ballotIsClosed() {\n\t\tif (currentBallotStatus() != 0) {\n\t\t\trevert BallotNotClosed(\"Ballot Must Be Created And Closed\");\n\t\t}\n\t\t_;\n\t}\n\t*/\n\t\n\t// Events\n\tevent TestEvent(\n\t\tstring message\n\t);\n\n\t// Info Functions ===============================================\n\n\t// Get current ballot status\n\tfunction getCurrentBallotStatus() public view onlyOwner returns (uint) {\n\t\treturn ballots.getCurrentBallotStatus();\n\t}\n\n\t// Get current ballot info\n\n\t// List all ballot ids and names\n\n\t// Get ballot info by id\n\tfunction getBallotById(uint _id) external view onlyOwner returns (\n\t\tuint, \n\t\tstring memory,\n\t\tuint\n\t) {\n\t\treturn ballots.getBallotById(_id);\n\t}\n\n\t/// @notice Gets the total voter count in voter roll\n\t/// @return Total voter count\n\tfunction getVoterCount() public view returns (uint) {\n\t\treturn voters.getVoterCount();\n\t}\n\n\t/// @notice Returns a boolean for whether or not given address is in voter roll\n\t/// @return True or false if voter address is valid\n\tfunction isVoter(address voterAddress) public view returns (bool) {\n\t\treturn voters.isVoter(voterAddress);\n\t}\n\n\t// ==============================================================\n\n\n\n\t// Admin Voter Functions ========================================\n\n\t/// @notice Adds voter to voting roll & increases total voter count\n\t/// @param voterAddress Address of voter to add to voter roll\n\tfunction addVoter(address voterAddress) public onlyOwner {\n\t\tvoters.addVoter(voterAddress);\n\t}\n\n\t/// @notice Adds multiple voters to voting roll & increases total voter count\n\t/// @param voterAddresses Addresses of voters to add to voter roll\n\tfunction addMultipleVoters(address[] memory voterAddresses) public onlyOwner {\n\t\tvoters.addMultipleVoters(voterAddresses);\n\t}\n\n\t/// @notice Removes voter from voting roll & reduces total voter count\n\t/// @param voterAddress Address of voter to remove from voter roll\n\tfunction removeVoter(address voterAddress) public onlyOwner {\n\t\tvoters.removeVoter(voterAddress);\n\t}\n\n\t/// @notice Removes multiple voters from voting roll & reduces total voter count\n\t/// @param voterAddresses Addresses of voters to remove from voter roll\n\tfunction removeMultipleVoters(address[] memory voterAddresses) public onlyOwner {\n\t\tvoters.removeMultipleVoters(voterAddresses);\n\t}\n\n\t// ==============================================================\n\n\n\n\t// Admin Ballot Functions =======================================\n\n\t// Create ballot\n\tfunction createBallot(string memory _name) public onlyOwner {\n\t\tballots.createBallot(_name);\n\t}\n\n\t// Delete ballot\n\tfunction deleteBallot() public onlyOwner {\n\t\tballots.deleteBallot();\n\t}\n\n\t// Change name of ballot\n\tfunction changeNameBallot(string memory newName) public onlyOwner {\n\t\tballots.changeNameBallot(newName);\n\t}\n\n\t// Open ballot, close ballot\n\tfunction openCloseBallot() public onlyOwner {\n\t\tballots.openCloseBallot();\n\t}\n\n\t// ==============================================================\n\n\n\n\t// Admin Election Functions =====================================\n\n\t// Add election\n\n\t// Delete election\n\n\t// Change name of election\n\n\t// Add candidate\n\n\t// Delete candidate\n\n\t// ==============================================================\n\n\n\n\t// Admin Issue Functions ========================================\n\n\t// Add issue\n\n\t// Delete issue\n\n\t// Change name of issue\n\n\t// ==============================================================\n\n\n\n\t// Voter Functions ==============================================\n\n\t// Vote status (to see if voter has voted on each issue & election)\n\n\t// Vote for issue\n\n\t// Vote for election\n\n\t// Vote for all\n\n\t// ==============================================================\n\n\n\n\t// Admin Ownership Functions ====================================\n\n\t// ==============================================================\n\n\n\n\t// Other Functions ==============================================\n\n\t// ==============================================================\n\n\n\n\t// Testing ======================================================\n\t\n\t// ==============================================================\n\n\tstruct Election2 {\n\t\tstring name;\n\t}\n\n\tstruct Issue2 {\n\t\tstring name;\n\t}\n\n\tstruct Ballot2 { \n\t\tstring name;\n\t\tmapping (uint => Issue2) issues;\n\t}\n\n\tstruct Ballot3 {\n\t\tstring name;\n\t\tstring[] messages;\n\t\tIssue2[] issues;\n\t}\n\n\tuint ballotId;\n\n\t//Ballot2[] ballots2;\n\tmapping (uint => Ballot2) ballots2;\n\tmapping (uint => Ballot3) ballots3;\n\n\tfunction popStruct() public {\n\t\tBallot2 storage newBallot2 = ballots2[0];\n\t\tnewBallot2.name = \"hello world\";\n\n\t\tBallot3 storage newBallot3 = ballots3[0];\n\t\tnewBallot3.name = \"hi\";\n\n\t\tstring memory aString = \"world\";\n\t\tnewBallot3.messages.push(aString);\n\n\t\tIssue2 memory newIssue2 = Issue2(\"hey\");\n\t\tnewBallot3.issues.push(newIssue2);\n\n\t}\n\n\t\n\n}\n",
  "sourcePath": "/Users/hubertkdayssi/Documents/CS_Projects/voting_app/contracts/VotingContract.sol",
  "compiler": {
    "name": "solc",
    "version": "0.8.11+commit.d7f03943.Emscripten.clang"
  },
  "schemaVersion": "3.4.5",
  "updatedAt": "2022-02-21T17:25:25.468Z",
  "networkType": "ethereum",
  "devdoc": {
    "kind": "dev",
    "methods": {
      "addMultipleVoters(address[])": {
        "params": {
          "voterAddresses": "Addresses of voters to add to voter roll"
        }
      },
      "addVoter(address)": {
        "params": {
          "voterAddress": "Address of voter to add to voter roll"
        }
      },
      "getVoterCount()": {
        "returns": {
          "_0": "Total voter count"
        }
      },
      "isVoter(address)": {
        "returns": {
          "_0": "True or false if voter address is valid"
        }
      },
      "removeMultipleVoters(address[])": {
        "params": {
          "voterAddresses": "Addresses of voters to remove from voter roll"
        }
      },
      "removeVoter(address)": {
        "params": {
          "voterAddress": "Address of voter to remove from voter roll"
        }
      }
    },
    "version": 1
  },
  "userdoc": {
    "kind": "user",
    "methods": {
      "addMultipleVoters(address[])": {
        "notice": "Adds multiple voters to voting roll & increases total voter count"
      },
      "addVoter(address)": {
        "notice": "Adds voter to voting roll & increases total voter count"
      },
      "getVoterCount()": {
        "notice": "Gets the total voter count in voter roll"
      },
      "isVoter(address)": {
        "notice": "Returns a boolean for whether or not given address is in voter roll"
      },
      "removeMultipleVoters(address[])": {
        "notice": "Removes multiple voters from voting roll & reduces total voter count"
      },
      "removeVoter(address)": {
        "notice": "Removes voter from voting roll & reduces total voter count"
      }
    },
    "version": 1
  }
}