{
  "contractName": "VotingContract",
  "abi": [
    {
      "inputs": [],
      "stateMutability": "nonpayable",
      "type": "constructor"
    },
    {
      "inputs": [
        {
          "internalType": "string",
          "name": "message",
          "type": "string"
        }
      ],
      "name": "BallotNotClosed",
      "type": "error"
    },
    {
      "inputs": [
        {
          "internalType": "string",
          "name": "message",
          "type": "string"
        }
      ],
      "name": "NotAdmin",
      "type": "error"
    },
    {
      "anonymous": false,
      "inputs": [
        {
          "indexed": false,
          "internalType": "string",
          "name": "message",
          "type": "string"
        }
      ],
      "name": "TestEvent",
      "type": "event"
    },
    {
      "inputs": [],
      "name": "getCurrentBallotStatus",
      "outputs": [
        {
          "internalType": "uint256",
          "name": "",
          "type": "uint256"
        }
      ],
      "stateMutability": "view",
      "type": "function",
      "constant": true
    },
    {
      "inputs": [],
      "name": "getCurrentBallot",
      "outputs": [
        {
          "components": [
            {
              "internalType": "uint256",
              "name": "id",
              "type": "uint256"
            },
            {
              "internalType": "string",
              "name": "name",
              "type": "string"
            },
            {
              "internalType": "uint256",
              "name": "status",
              "type": "uint256"
            },
            {
              "internalType": "uint256",
              "name": "currentElectionId",
              "type": "uint256"
            },
            {
              "internalType": "uint256",
              "name": "currentIssueId",
              "type": "uint256"
            },
            {
              "components": [
                {
                  "internalType": "uint256",
                  "name": "id",
                  "type": "uint256"
                },
                {
                  "internalType": "string",
                  "name": "name",
                  "type": "string"
                },
                {
                  "internalType": "uint256",
                  "name": "currentCandidateId",
                  "type": "uint256"
                },
                {
                  "components": [
                    {
                      "internalType": "uint256",
                      "name": "id",
                      "type": "uint256"
                    },
                    {
                      "internalType": "string",
                      "name": "name",
                      "type": "string"
                    },
                    {
                      "internalType": "uint256",
                      "name": "votes",
                      "type": "uint256"
                    }
                  ],
                  "internalType": "struct Ballots.Candidate[]",
                  "name": "candidates",
                  "type": "tuple[]"
                }
              ],
              "internalType": "struct Ballots.Election[]",
              "name": "elections",
              "type": "tuple[]"
            },
            {
              "components": [
                {
                  "internalType": "uint256",
                  "name": "id",
                  "type": "uint256"
                },
                {
                  "internalType": "string",
                  "name": "name",
                  "type": "string"
                },
                {
                  "internalType": "uint256",
                  "name": "forVotes",
                  "type": "uint256"
                },
                {
                  "internalType": "uint256",
                  "name": "againstVotes",
                  "type": "uint256"
                }
              ],
              "internalType": "struct Ballots.Issue[]",
              "name": "issues",
              "type": "tuple[]"
            }
          ],
          "internalType": "struct Ballots.Ballot",
          "name": "",
          "type": "tuple"
        }
      ],
      "stateMutability": "view",
      "type": "function",
      "constant": true
    },
    {
      "inputs": [],
      "name": "getAllBallots",
      "outputs": [
        {
          "components": [
            {
              "internalType": "uint256",
              "name": "id",
              "type": "uint256"
            },
            {
              "internalType": "string",
              "name": "name",
              "type": "string"
            },
            {
              "internalType": "uint256",
              "name": "status",
              "type": "uint256"
            },
            {
              "internalType": "uint256",
              "name": "currentElectionId",
              "type": "uint256"
            },
            {
              "internalType": "uint256",
              "name": "currentIssueId",
              "type": "uint256"
            },
            {
              "components": [
                {
                  "internalType": "uint256",
                  "name": "id",
                  "type": "uint256"
                },
                {
                  "internalType": "string",
                  "name": "name",
                  "type": "string"
                },
                {
                  "internalType": "uint256",
                  "name": "currentCandidateId",
                  "type": "uint256"
                },
                {
                  "components": [
                    {
                      "internalType": "uint256",
                      "name": "id",
                      "type": "uint256"
                    },
                    {
                      "internalType": "string",
                      "name": "name",
                      "type": "string"
                    },
                    {
                      "internalType": "uint256",
                      "name": "votes",
                      "type": "uint256"
                    }
                  ],
                  "internalType": "struct Ballots.Candidate[]",
                  "name": "candidates",
                  "type": "tuple[]"
                }
              ],
              "internalType": "struct Ballots.Election[]",
              "name": "elections",
              "type": "tuple[]"
            },
            {
              "components": [
                {
                  "internalType": "uint256",
                  "name": "id",
                  "type": "uint256"
                },
                {
                  "internalType": "string",
                  "name": "name",
                  "type": "string"
                },
                {
                  "internalType": "uint256",
                  "name": "forVotes",
                  "type": "uint256"
                },
                {
                  "internalType": "uint256",
                  "name": "againstVotes",
                  "type": "uint256"
                }
              ],
              "internalType": "struct Ballots.Issue[]",
              "name": "issues",
              "type": "tuple[]"
            }
          ],
          "internalType": "struct Ballots.Ballot[]",
          "name": "",
          "type": "tuple[]"
        }
      ],
      "stateMutability": "view",
      "type": "function",
      "constant": true
    },
    {
      "inputs": [
        {
          "internalType": "uint256",
          "name": "_id",
          "type": "uint256"
        }
      ],
      "name": "getBallotById",
      "outputs": [
        {
          "components": [
            {
              "internalType": "uint256",
              "name": "id",
              "type": "uint256"
            },
            {
              "internalType": "string",
              "name": "name",
              "type": "string"
            },
            {
              "internalType": "uint256",
              "name": "status",
              "type": "uint256"
            },
            {
              "internalType": "uint256",
              "name": "currentElectionId",
              "type": "uint256"
            },
            {
              "internalType": "uint256",
              "name": "currentIssueId",
              "type": "uint256"
            },
            {
              "components": [
                {
                  "internalType": "uint256",
                  "name": "id",
                  "type": "uint256"
                },
                {
                  "internalType": "string",
                  "name": "name",
                  "type": "string"
                },
                {
                  "internalType": "uint256",
                  "name": "currentCandidateId",
                  "type": "uint256"
                },
                {
                  "components": [
                    {
                      "internalType": "uint256",
                      "name": "id",
                      "type": "uint256"
                    },
                    {
                      "internalType": "string",
                      "name": "name",
                      "type": "string"
                    },
                    {
                      "internalType": "uint256",
                      "name": "votes",
                      "type": "uint256"
                    }
                  ],
                  "internalType": "struct Ballots.Candidate[]",
                  "name": "candidates",
                  "type": "tuple[]"
                }
              ],
              "internalType": "struct Ballots.Election[]",
              "name": "elections",
              "type": "tuple[]"
            },
            {
              "components": [
                {
                  "internalType": "uint256",
                  "name": "id",
                  "type": "uint256"
                },
                {
                  "internalType": "string",
                  "name": "name",
                  "type": "string"
                },
                {
                  "internalType": "uint256",
                  "name": "forVotes",
                  "type": "uint256"
                },
                {
                  "internalType": "uint256",
                  "name": "againstVotes",
                  "type": "uint256"
                }
              ],
              "internalType": "struct Ballots.Issue[]",
              "name": "issues",
              "type": "tuple[]"
            }
          ],
          "internalType": "struct Ballots.Ballot",
          "name": "",
          "type": "tuple"
        }
      ],
      "stateMutability": "view",
      "type": "function",
      "constant": true
    },
    {
      "inputs": [],
      "name": "getVoterCount",
      "outputs": [
        {
          "internalType": "uint256",
          "name": "",
          "type": "uint256"
        }
      ],
      "stateMutability": "view",
      "type": "function",
      "constant": true
    },
    {
      "inputs": [
        {
          "internalType": "address",
          "name": "voterAddress",
          "type": "address"
        }
      ],
      "name": "isVoter",
      "outputs": [
        {
          "internalType": "bool",
          "name": "",
          "type": "bool"
        }
      ],
      "stateMutability": "view",
      "type": "function",
      "constant": true
    },
    {
      "inputs": [],
      "name": "hasVoterVoted",
      "outputs": [
        {
          "internalType": "bool",
          "name": "",
          "type": "bool"
        }
      ],
      "stateMutability": "view",
      "type": "function",
      "constant": true
    },
    {
      "inputs": [
        {
          "internalType": "address",
          "name": "voterAddress",
          "type": "address"
        }
      ],
      "name": "addVoter",
      "outputs": [],
      "stateMutability": "nonpayable",
      "type": "function"
    },
    {
      "inputs": [
        {
          "internalType": "address[]",
          "name": "voterAddresses",
          "type": "address[]"
        }
      ],
      "name": "addMultipleVoters",
      "outputs": [],
      "stateMutability": "nonpayable",
      "type": "function"
    },
    {
      "inputs": [
        {
          "internalType": "address",
          "name": "voterAddress",
          "type": "address"
        }
      ],
      "name": "removeVoter",
      "outputs": [],
      "stateMutability": "nonpayable",
      "type": "function"
    },
    {
      "inputs": [
        {
          "internalType": "address[]",
          "name": "voterAddresses",
          "type": "address[]"
        }
      ],
      "name": "removeMultipleVoters",
      "outputs": [],
      "stateMutability": "nonpayable",
      "type": "function"
    },
    {
      "inputs": [
        {
          "internalType": "string",
          "name": "_name",
          "type": "string"
        }
      ],
      "name": "createBallot",
      "outputs": [],
      "stateMutability": "nonpayable",
      "type": "function"
    },
    {
      "inputs": [],
      "name": "deleteBallot",
      "outputs": [],
      "stateMutability": "nonpayable",
      "type": "function"
    },
    {
      "inputs": [],
      "name": "openCloseBallot",
      "outputs": [],
      "stateMutability": "nonpayable",
      "type": "function"
    },
    {
      "inputs": [
        {
          "internalType": "string[][]",
          "name": "elections",
          "type": "string[][]"
        }
      ],
      "name": "addElections",
      "outputs": [],
      "stateMutability": "nonpayable",
      "type": "function"
    },
    {
      "inputs": [
        {
          "internalType": "string[]",
          "name": "issues",
          "type": "string[]"
        }
      ],
      "name": "addIssues",
      "outputs": [],
      "stateMutability": "nonpayable",
      "type": "function"
    },
    {
      "inputs": [
        {
          "internalType": "uint256[][]",
          "name": "votes",
          "type": "uint256[][]"
        }
      ],
      "name": "vote",
      "outputs": [],
      "stateMutability": "nonpayable",
      "type": "function"
    }
  ],
  "bytecode": "0x60806040523480156200001157600080fd5b50336000800160006101000a81548173ffffffffffffffffffffffffffffffffffffffff021916908373ffffffffffffffffffffffffffffffffffffffff160217905550604051620000639062000133565b604051809103906000f08015801562000080573d6000803e3d6000fd5b50600260006101000a81548173ffffffffffffffffffffffffffffffffffffffff021916908373ffffffffffffffffffffffffffffffffffffffff160217905550604051620000cf9062000141565b604051809103906000f080158015620000ec573d6000803e3d6000fd5b50600160006101000a81548173ffffffffffffffffffffffffffffffffffffffff021916908373ffffffffffffffffffffffffffffffffffffffff1602179055506200014f565b610fb7806200318e83390190565b61321c806200414583390190565b61302f806200015f6000396000f3fe608060405234801561001057600080fd5b506004361061010b5760003560e01c806386c1ff68116100a2578063c11296cc11610071578063c11296cc1461026a578063d7627ad114610286578063db5f971e146102b6578063f4ab9adf146102d4578063fdad211f146102f05761010b565b806386c1ff68146101e6578063a7771ee314610202578063b0c2a23b14610232578063bb58b0441461024e5761010b565b80633cfe7fa7116100de5780633cfe7fa71461018657806346a865761461019057806379df360a146101ac57806386758e54146101ca5761010b565b80630b8710e41461011057806311174a291461012e57806322d043d91461014c578063385704d61461016a575b600080fd5b6101186102fa565b6040516101259190611903565b60405180910390f35b610136610397565b6040516101439190611934565b60405180910390f35b61015461042f565b60405161016191906119f9565b60405180910390f35b610184600480360381019061017f9190611bd5565b6104d2565b005b61018e6105f4565b005b6101aa60048036038101906101a59190611cd3565b61070a565b005b6101b461082c565b6040516101c19190611934565b60405180910390f35b6101e460048036038101906101df9190611bd5565b6108c4565b005b61020060048036038101906101fb9190611d1c565b6109e6565b005b61021c60048036038101906102179190611d1c565b610b08565b6040516102299190611d64565b60405180910390f35b61024c60048036038101906102479190611e60565b610bad565b005b61026860048036038101906102639190612079565b610ccf565b005b610284600480360381019061027f91906121a3565b610e98565b005b6102a0600480360381019061029b91906121ec565b610fba565b6040516102ad91906119f9565b60405180910390f35b6102be61106a565b6040516102cb9190611d64565b60405180910390f35b6102ee60048036038101906102e99190611d1c565b61110d565b005b6102f861122f565b005b6060600160009054906101000a900473ffffffffffffffffffffffffffffffffffffffff1673ffffffffffffffffffffffffffffffffffffffff16630b8710e46040518163ffffffff1660e01b8152600401600060405180830381865afa158015610369573d6000803e3d6000fd5b505050506040513d6000823e3d601f19601f8201168201806040525081019061039291906128f8565b905090565b6000600260009054906101000a900473ffffffffffffffffffffffffffffffffffffffff1673ffffffffffffffffffffffffffffffffffffffff166311174a296040518163ffffffff1660e01b8152600401602060405180830381865afa158015610406573d6000803e3d6000fd5b505050506040513d601f19601f8201168201806040525081019061042a9190612941565b905090565b610437611345565b600160009054906101000a900473ffffffffffffffffffffffffffffffffffffffff1673ffffffffffffffffffffffffffffffffffffffff166322d043d96040518163ffffffff1660e01b8152600401600060405180830381865afa1580156104a4573d6000803e3d6000fd5b505050506040513d6000823e3d601f19601f820116820180604052508101906104cd919061296e565b905090565b6000800160009054906101000a900473ffffffffffffffffffffffffffffffffffffffff1673ffffffffffffffffffffffffffffffffffffffff163373ffffffffffffffffffffffffffffffffffffffff1614610564576040517f7625245e00000000000000000000000000000000000000000000000000000000815260040161055b90612a3a565b60405180910390fd5b600260009054906101000a900473ffffffffffffffffffffffffffffffffffffffff1673ffffffffffffffffffffffffffffffffffffffff1663385704d6826040518263ffffffff1660e01b81526004016105bf9190612b18565b600060405180830381600087803b1580156105d957600080fd5b505af11580156105ed573d6000803e3d6000fd5b5050505050565b6000800160009054906101000a900473ffffffffffffffffffffffffffffffffffffffff1673ffffffffffffffffffffffffffffffffffffffff163373ffffffffffffffffffffffffffffffffffffffff1614610686576040517f7625245e00000000000000000000000000000000000000000000000000000000815260040161067d90612a3a565b60405180910390fd5b600160009054906101000a900473ffffffffffffffffffffffffffffffffffffffff1673ffffffffffffffffffffffffffffffffffffffff16633cfe7fa76040518163ffffffff1660e01b8152600401600060405180830381600087803b1580156106f057600080fd5b505af1158015610704573d6000803e3d6000fd5b50505050565b6000800160009054906101000a900473ffffffffffffffffffffffffffffffffffffffff1673ffffffffffffffffffffffffffffffffffffffff163373ffffffffffffffffffffffffffffffffffffffff161461079c576040517f7625245e00000000000000000000000000000000000000000000000000000000815260040161079390612a3a565b60405180910390fd5b600160009054906101000a900473ffffffffffffffffffffffffffffffffffffffff1673ffffffffffffffffffffffffffffffffffffffff166346a86576826040518263ffffffff1660e01b81526004016107f79190612b73565b600060405180830381600087803b15801561081157600080fd5b505af1158015610825573d6000803e3d6000fd5b5050505050565b6000600160009054906101000a900473ffffffffffffffffffffffffffffffffffffffff1673ffffffffffffffffffffffffffffffffffffffff166379df360a6040518163ffffffff1660e01b8152600401602060405180830381865afa15801561089b573d6000803e3d6000fd5b505050506040513d601f19601f820116820180604052508101906108bf9190612941565b905090565b6000800160009054906101000a900473ffffffffffffffffffffffffffffffffffffffff1673ffffffffffffffffffffffffffffffffffffffff163373ffffffffffffffffffffffffffffffffffffffff1614610956576040517f7625245e00000000000000000000000000000000000000000000000000000000815260040161094d90612a3a565b60405180910390fd5b600260009054906101000a900473ffffffffffffffffffffffffffffffffffffffff1673ffffffffffffffffffffffffffffffffffffffff166386758e54826040518263ffffffff1660e01b81526004016109b19190612b18565b600060405180830381600087803b1580156109cb57600080fd5b505af11580156109df573d6000803e3d6000fd5b5050505050565b6000800160009054906101000a900473ffffffffffffffffffffffffffffffffffffffff1673ffffffffffffffffffffffffffffffffffffffff163373ffffffffffffffffffffffffffffffffffffffff1614610a78576040517f7625245e000000000000000000000000000000000000000000000000000000008152600401610a6f90612a3a565b60405180910390fd5b600260009054906101000a900473ffffffffffffffffffffffffffffffffffffffff1673ffffffffffffffffffffffffffffffffffffffff166386c1ff68826040518263ffffffff1660e01b8152600401610ad39190612ba4565b600060405180830381600087803b158015610aed57600080fd5b505af1158015610b01573d6000803e3d6000fd5b5050505050565b6000600260009054906101000a900473ffffffffffffffffffffffffffffffffffffffff1673ffffffffffffffffffffffffffffffffffffffff1663a7771ee3836040518263ffffffff1660e01b8152600401610b659190612ba4565b602060405180830381865afa158015610b82573d6000803e3d6000fd5b505050506040513d601f19601f82011682018060405250810190610ba69190612beb565b9050919050565b6000800160009054906101000a900473ffffffffffffffffffffffffffffffffffffffff1673ffffffffffffffffffffffffffffffffffffffff163373ffffffffffffffffffffffffffffffffffffffff1614610c3f576040517f7625245e000000000000000000000000000000000000000000000000000000008152600401610c3690612a3a565b60405180910390fd5b600160009054906101000a900473ffffffffffffffffffffffffffffffffffffffff1673ffffffffffffffffffffffffffffffffffffffff1663b0c2a23b826040518263ffffffff1660e01b8152600401610c9a9190612cda565b600060405180830381600087803b158015610cb457600080fd5b505af1158015610cc8573d6000803e3d6000fd5b5050505050565b60001515600260009054906101000a900473ffffffffffffffffffffffffffffffffffffffff1673ffffffffffffffffffffffffffffffffffffffff1663fd11f97a336040518263ffffffff1660e01b8152600401610d2e9190612ba4565b602060405180830381865afa158015610d4b573d6000803e3d6000fd5b505050506040513d601f19601f82011682018060405250810190610d6f9190612beb565b151514610d7b57600080fd5b600160009054906101000a900473ffffffffffffffffffffffffffffffffffffffff1673ffffffffffffffffffffffffffffffffffffffff1663bb58b044826040518263ffffffff1660e01b8152600401610dd69190612e6d565b600060405180830381600087803b158015610df057600080fd5b505af1158015610e04573d6000803e3d6000fd5b50505050600260009054906101000a900473ffffffffffffffffffffffffffffffffffffffff1673ffffffffffffffffffffffffffffffffffffffff1663da62a6b4336040518263ffffffff1660e01b8152600401610e639190612ba4565b600060405180830381600087803b158015610e7d57600080fd5b505af1158015610e91573d6000803e3d6000fd5b5050505050565b6000800160009054906101000a900473ffffffffffffffffffffffffffffffffffffffff1673ffffffffffffffffffffffffffffffffffffffff163373ffffffffffffffffffffffffffffffffffffffff1614610f2a576040517f7625245e000000000000000000000000000000000000000000000000000000008152600401610f2190612a3a565b60405180910390fd5b600160009054906101000a900473ffffffffffffffffffffffffffffffffffffffff1673ffffffffffffffffffffffffffffffffffffffff1663c11296cc826040518263ffffffff1660e01b8152600401610f859190612fd7565b600060405180830381600087803b158015610f9f57600080fd5b505af1158015610fb3573d6000803e3d6000fd5b5050505050565b610fc2611345565b600160009054906101000a900473ffffffffffffffffffffffffffffffffffffffff1673ffffffffffffffffffffffffffffffffffffffff1663d7627ad1836040518263ffffffff1660e01b815260040161101d9190611934565b600060405180830381865afa15801561103a573d6000803e3d6000fd5b505050506040513d6000823e3d601f19601f82011682018060405250810190611063919061296e565b9050919050565b6000600260009054906101000a900473ffffffffffffffffffffffffffffffffffffffff1673ffffffffffffffffffffffffffffffffffffffff1663fd11f97a336040518263ffffffff1660e01b81526004016110c79190612ba4565b602060405180830381865afa1580156110e4573d6000803e3d6000fd5b505050506040513d601f19601f820116820180604052508101906111089190612beb565b905090565b6000800160009054906101000a900473ffffffffffffffffffffffffffffffffffffffff1673ffffffffffffffffffffffffffffffffffffffff163373ffffffffffffffffffffffffffffffffffffffff161461119f576040517f7625245e00000000000000000000000000000000000000000000000000000000815260040161119690612a3a565b60405180910390fd5b600260009054906101000a900473ffffffffffffffffffffffffffffffffffffffff1673ffffffffffffffffffffffffffffffffffffffff1663f4ab9adf826040518263ffffffff1660e01b81526004016111fa9190612ba4565b600060405180830381600087803b15801561121457600080fd5b505af1158015611228573d6000803e3d6000fd5b5050505050565b6000800160009054906101000a900473ffffffffffffffffffffffffffffffffffffffff1673ffffffffffffffffffffffffffffffffffffffff163373ffffffffffffffffffffffffffffffffffffffff16146112c1576040517f7625245e0000000000000000000000000000000000000000000000000000000081526004016112b890612a3a565b60405180910390fd5b600160009054906101000a900473ffffffffffffffffffffffffffffffffffffffff1673ffffffffffffffffffffffffffffffffffffffff1663fdad211f6040518163ffffffff1660e01b8152600401600060405180830381600087803b15801561132b57600080fd5b505af115801561133f573d6000803e3d6000fd5b50505050565b6040518060e00160405280600081526020016060815260200160008152602001600081526020016000815260200160608152602001606081525090565b600081519050919050565b600082825260208201905092915050565b6000819050602082019050919050565b6000819050919050565b6113c1816113ae565b82525050565b600081519050919050565b600082825260208201905092915050565b60005b838110156114015780820151818401526020810190506113e6565b83811115611410576000848401525b50505050565b6000601f19601f8301169050919050565b6000611432826113c7565b61143c81856113d2565b935061144c8185602086016113e3565b61145581611416565b840191505092915050565b600081519050919050565b600082825260208201905092915050565b6000819050602082019050919050565b600081519050919050565b600082825260208201905092915050565b6000819050602082019050919050565b60006060830160008301516114d060008601826113b8565b50602083015184820360208601526114e88282611427565b91505060408301516114fd60408601826113b8565b508091505092915050565b600061151483836114b8565b905092915050565b6000602082019050919050565b60006115348261148c565b61153e8185611497565b935083602082028501611550856114a8565b8060005b8581101561158c578484038952815161156d8582611508565b94506115788361151c565b925060208a01995050600181019050611554565b50829750879550505050505092915050565b60006080830160008301516115b660008601826113b8565b50602083015184820360208601526115ce8282611427565b91505060408301516115e360408601826113b8565b50606083015184820360608601526115fb8282611529565b9150508091505092915050565b6000611614838361159e565b905092915050565b6000602082019050919050565b600061163482611460565b61163e818561146b565b9350836020820285016116508561147c565b8060005b8581101561168c578484038952815161166d8582611608565b94506116788361161c565b925060208a01995050600181019050611654565b50829750879550505050505092915050565b600081519050919050565b600082825260208201905092915050565b6000819050602082019050919050565b60006080830160008301516116e260008601826113b8565b50602083015184820360208601526116fa8282611427565b915050604083015161170f60408601826113b8565b50606083015161172260608601826113b8565b508091505092915050565b600061173983836116ca565b905092915050565b6000602082019050919050565b60006117598261169e565b61176381856116a9565b935083602082028501611775856116ba565b8060005b858110156117b15784840389528151611792858261172d565b945061179d83611741565b925060208a01995050600181019050611779565b50829750879550505050505092915050565b600060e0830160008301516117db60008601826113b8565b50602083015184820360208601526117f38282611427565b915050604083015161180860408601826113b8565b50606083015161181b60608601826113b8565b50608083015161182e60808601826113b8565b5060a083015184820360a08601526118468282611629565b91505060c083015184820360c0860152611860828261174e565b9150508091505092915050565b600061187983836117c3565b905092915050565b6000602082019050919050565b600061189982611382565b6118a3818561138d565b9350836020820285016118b58561139e565b8060005b858110156118f157848403895281516118d2858261186d565b94506118dd83611881565b925060208a019950506001810190506118b9565b50829750879550505050505092915050565b6000602082019050818103600083015261191d818461188e565b905092915050565b61192e816113ae565b82525050565b60006020820190506119496000830184611925565b92915050565b600060e08301600083015161196760008601826113b8565b506020830151848203602086015261197f8282611427565b915050604083015161199460408601826113b8565b5060608301516119a760608601826113b8565b5060808301516119ba60808601826113b8565b5060a083015184820360a08601526119d28282611629565b91505060c083015184820360c08601526119ec828261174e565b9150508091505092915050565b60006020820190508181036000830152611a13818461194f565b905092915050565b6000604051905090565b600080fd5b600080fd5b600080fd5b7f4e487b7100000000000000000000000000000000000000000000000000000000600052604160045260246000fd5b611a6c82611416565b810181811067ffffffffffffffff82111715611a8b57611a8a611a34565b5b80604052505050565b6000611a9e611a1b565b9050611aaa8282611a63565b919050565b600067ffffffffffffffff821115611aca57611ac9611a34565b5b602082029050602081019050919050565b600080fd5b600073ffffffffffffffffffffffffffffffffffffffff82169050919050565b6000611b0b82611ae0565b9050919050565b611b1b81611b00565b8114611b2657600080fd5b50565b600081359050611b3881611b12565b92915050565b6000611b51611b4c84611aaf565b611a94565b90508083825260208201905060208402830185811115611b7457611b73611adb565b5b835b81811015611b9d5780611b898882611b29565b845260208401935050602081019050611b76565b5050509392505050565b600082601f830112611bbc57611bbb611a2f565b5b8135611bcc848260208601611b3e565b91505092915050565b600060208284031215611beb57611bea611a25565b5b600082013567ffffffffffffffff811115611c0957611c08611a2a565b5b611c1584828501611ba7565b91505092915050565b600080fd5b600067ffffffffffffffff821115611c3e57611c3d611a34565b5b611c4782611416565b9050602081019050919050565b82818337600083830152505050565b6000611c76611c7184611c23565b611a94565b905082815260208101848484011115611c9257611c91611c1e565b5b611c9d848285611c54565b509392505050565b600082601f830112611cba57611cb9611a2f565b5b8135611cca848260208601611c63565b91505092915050565b600060208284031215611ce957611ce8611a25565b5b600082013567ffffffffffffffff811115611d0757611d06611a2a565b5b611d1384828501611ca5565b91505092915050565b600060208284031215611d3257611d31611a25565b5b6000611d4084828501611b29565b91505092915050565b60008115159050919050565b611d5e81611d49565b82525050565b6000602082019050611d796000830184611d55565b92915050565b600067ffffffffffffffff821115611d9a57611d99611a34565b5b602082029050602081019050919050565b6000611dbe611db984611d7f565b611a94565b90508083825260208201905060208402830185811115611de157611de0611adb565b5b835b81811015611e2857803567ffffffffffffffff811115611e0657611e05611a2f565b5b808601611e138982611ca5565b85526020850194505050602081019050611de3565b5050509392505050565b600082601f830112611e4757611e46611a2f565b5b8135611e57848260208601611dab565b91505092915050565b600060208284031215611e7657611e75611a25565b5b600082013567ffffffffffffffff811115611e9457611e93611a2a565b5b611ea084828501611e32565b91505092915050565b600067ffffffffffffffff821115611ec457611ec3611a34565b5b602082029050602081019050919050565b600067ffffffffffffffff821115611ef057611eef611a34565b5b602082029050602081019050919050565b611f0a816113ae565b8114611f1557600080fd5b50565b600081359050611f2781611f01565b92915050565b6000611f40611f3b84611ed5565b611a94565b90508083825260208201905060208402830185811115611f6357611f62611adb565b5b835b81811015611f8c5780611f788882611f18565b845260208401935050602081019050611f65565b5050509392505050565b600082601f830112611fab57611faa611a2f565b5b8135611fbb848260208601611f2d565b91505092915050565b6000611fd7611fd284611ea9565b611a94565b90508083825260208201905060208402830185811115611ffa57611ff9611adb565b5b835b8181101561204157803567ffffffffffffffff81111561201f5761201e611a2f565b5b80860161202c8982611f96565b85526020850194505050602081019050611ffc565b5050509392505050565b600082601f8301126120605761205f611a2f565b5b8135612070848260208601611fc4565b91505092915050565b60006020828403121561208f5761208e611a25565b5b600082013567ffffffffffffffff8111156120ad576120ac611a2a565b5b6120b98482850161204b565b91505092915050565b600067ffffffffffffffff8211156120dd576120dc611a34565b5b602082029050602081019050919050565b60006121016120fc846120c2565b611a94565b9050808382526020820190506020840283018581111561212457612123611adb565b5b835b8181101561216b57803567ffffffffffffffff81111561214957612148611a2f565b5b8086016121568982611e32565b85526020850194505050602081019050612126565b5050509392505050565b600082601f83011261218a57612189611a2f565b5b813561219a8482602086016120ee565b91505092915050565b6000602082840312156121b9576121b8611a25565b5b600082013567ffffffffffffffff8111156121d7576121d6611a2a565b5b6121e384828501612175565b91505092915050565b60006020828403121561220257612201611a25565b5b600061221084828501611f18565b91505092915050565b600067ffffffffffffffff82111561223457612233611a34565b5b602082029050602081019050919050565b600080fd5b600080fd5b60008151905061225e81611f01565b92915050565b600061227761227284611c23565b611a94565b90508281526020810184848401111561229357612292611c1e565b5b61229e8482856113e3565b509392505050565b600082601f8301126122bb576122ba611a2f565b5b81516122cb848260208601612264565b91505092915050565b600067ffffffffffffffff8211156122ef576122ee611a34565b5b602082029050602081019050919050565b600067ffffffffffffffff82111561231b5761231a611a34565b5b602082029050602081019050919050565b60006060828403121561234257612341612245565b5b61234c6060611a94565b9050600061235c8482850161224f565b600083015250602082015167ffffffffffffffff8111156123805761237f61224a565b5b61238c848285016122a6565b60208301525060406123a08482850161224f565b60408301525092915050565b60006123bf6123ba84612300565b611a94565b905080838252602082019050602084028301858111156123e2576123e1611adb565b5b835b8181101561242957805167ffffffffffffffff81111561240757612406611a2f565b5b808601612414898261232c565b855260208501945050506020810190506123e4565b5050509392505050565b600082601f83011261244857612447611a2f565b5b81516124588482602086016123ac565b91505092915050565b60006080828403121561247757612476612245565b5b6124816080611a94565b905060006124918482850161224f565b600083015250602082015167ffffffffffffffff8111156124b5576124b461224a565b5b6124c1848285016122a6565b60208301525060406124d58482850161224f565b604083015250606082015167ffffffffffffffff8111156124f9576124f861224a565b5b61250584828501612433565b60608301525092915050565b600061252461251f846122d4565b611a94565b9050808382526020820190506020840283018581111561254757612546611adb565b5b835b8181101561258e57805167ffffffffffffffff81111561256c5761256b611a2f565b5b8086016125798982612461565b85526020850194505050602081019050612549565b5050509392505050565b600082601f8301126125ad576125ac611a2f565b5b81516125bd848260208601612511565b91505092915050565b600067ffffffffffffffff8211156125e1576125e0611a34565b5b602082029050602081019050919050565b60006080828403121561260857612607612245565b5b6126126080611a94565b905060006126228482850161224f565b600083015250602082015167ffffffffffffffff8111156126465761264561224a565b5b612652848285016122a6565b60208301525060406126668482850161224f565b604083015250606061267a8482850161224f565b60608301525092915050565b6000612699612694846125c6565b611a94565b905080838252602082019050602084028301858111156126bc576126bb611adb565b5b835b8181101561270357805167ffffffffffffffff8111156126e1576126e0611a2f565b5b8086016126ee89826125f2565b855260208501945050506020810190506126be565b5050509392505050565b600082601f83011261272257612721611a2f565b5b8151612732848260208601612686565b91505092915050565b600060e0828403121561275157612750612245565b5b61275b60e0611a94565b9050600061276b8482850161224f565b600083015250602082015167ffffffffffffffff81111561278f5761278e61224a565b5b61279b848285016122a6565b60208301525060406127af8482850161224f565b60408301525060606127c38482850161224f565b60608301525060806127d78482850161224f565b60808301525060a082015167ffffffffffffffff8111156127fb576127fa61224a565b5b61280784828501612598565b60a08301525060c082015167ffffffffffffffff81111561282b5761282a61224a565b5b6128378482850161270d565b60c08301525092915050565b600061285661285184612219565b611a94565b9050808382526020820190506020840283018581111561287957612878611adb565b5b835b818110156128c057805167ffffffffffffffff81111561289e5761289d611a2f565b5b8086016128ab898261273b565b8552602085019450505060208101905061287b565b5050509392505050565b600082601f8301126128df576128de611a2f565b5b81516128ef848260208601612843565b91505092915050565b60006020828403121561290e5761290d611a25565b5b600082015167ffffffffffffffff81111561292c5761292b611a2a565b5b612938848285016128ca565b91505092915050565b60006020828403121561295757612956611a25565b5b60006129658482850161224f565b91505092915050565b60006020828403121561298457612983611a25565b5b600082015167ffffffffffffffff8111156129a2576129a1611a2a565b5b6129ae8482850161273b565b91505092915050565b600082825260208201905092915050565b7f4f6e6c792041646d696e6973747261746f72204d61792043616c6c2046756e6360008201527f74696f6e00000000000000000000000000000000000000000000000000000000602082015250565b6000612a246024836129b7565b9150612a2f826129c8565b604082019050919050565b60006020820190508181036000830152612a5381612a17565b9050919050565b600081519050919050565b600082825260208201905092915050565b6000819050602082019050919050565b612a8f81611b00565b82525050565b6000612aa18383612a86565b60208301905092915050565b6000602082019050919050565b6000612ac582612a5a565b612acf8185612a65565b9350612ada83612a76565b8060005b83811015612b0b578151612af28882612a95565b9750612afd83612aad565b925050600181019050612ade565b5085935050505092915050565b60006020820190508181036000830152612b328184612aba565b905092915050565b6000612b45826113c7565b612b4f81856129b7565b9350612b5f8185602086016113e3565b612b6881611416565b840191505092915050565b60006020820190508181036000830152612b8d8184612b3a565b905092915050565b612b9e81611b00565b82525050565b6000602082019050612bb96000830184612b95565b92915050565b612bc881611d49565b8114612bd357600080fd5b50565b600081519050612be581612bbf565b92915050565b600060208284031215612c0157612c00611a25565b5b6000612c0f84828501612bd6565b91505092915050565b600081519050919050565b600082825260208201905092915050565b6000819050602082019050919050565b6000612c508383611427565b905092915050565b6000602082019050919050565b6000612c7082612c18565b612c7a8185612c23565b935083602082028501612c8c85612c34565b8060005b85811015612cc85784840389528151612ca98582612c44565b9450612cb483612c58565b925060208a01995050600181019050612c90565b50829750879550505050505092915050565b60006020820190508181036000830152612cf48184612c65565b905092915050565b600081519050919050565b600082825260208201905092915050565b6000819050602082019050919050565b600081519050919050565b600082825260208201905092915050565b6000819050602082019050919050565b6000612d6083836113b8565b60208301905092915050565b6000602082019050919050565b6000612d8482612d28565b612d8e8185612d33565b9350612d9983612d44565b8060005b83811015612dca578151612db18882612d54565b9750612dbc83612d6c565b925050600181019050612d9d565b5085935050505092915050565b6000612de38383612d79565b905092915050565b6000602082019050919050565b6000612e0382612cfc565b612e0d8185612d07565b935083602082028501612e1f85612d18565b8060005b85811015612e5b5784840389528151612e3c8582612dd7565b9450612e4783612deb565b925060208a01995050600181019050612e23565b50829750879550505050505092915050565b60006020820190508181036000830152612e878184612df8565b905092915050565b600081519050919050565b600082825260208201905092915050565b6000819050602082019050919050565b600082825260208201905092915050565b6000612ed782612c18565b612ee18185612ebb565b935083602082028501612ef385612c34565b8060005b85811015612f2f5784840389528151612f108582612c44565b9450612f1b83612c58565b925060208a01995050600181019050612ef7565b50829750879550505050505092915050565b6000612f4d8383612ecc565b905092915050565b6000602082019050919050565b6000612f6d82612e8f565b612f778185612e9a565b935083602082028501612f8985612eab565b8060005b85811015612fc55784840389528151612fa68582612f41565b9450612fb183612f55565b925060208a01995050600181019050612f8d565b50829750879550505050505092915050565b60006020820190508181036000830152612ff18184612f62565b90509291505056fea2646970667358221220e798b2006b37a5e0ca6b4488fa151c9684f1d4e1802e4d49faf160882c58550a64736f6c634300080b0033608060405234801561001057600080fd5b5033600260006101000a81548173ffffffffffffffffffffffffffffffffffffffff021916908373ffffffffffffffffffffffffffffffffffffffff160217905550610f56806100616000396000f3fe608060405234801561001057600080fd5b50600436106100935760003560e01c806386c1ff681161006657806386c1ff681461011f578063a7771ee31461013b578063da62a6b41461016b578063f4ab9adf14610187578063fd11f97a146101a357610093565b806311174a291461009857806327736f85146100b6578063385704d6146100e757806386758e5414610103575b600080fd5b6100a06101d3565b6040516100ad9190610aa8565b60405180910390f35b6100d060048036038101906100cb9190610b35565b6101dc565b6040516100de929190610b8c565b60405180910390f35b61010160048036038101906100fc9190610d0e565b61022d565b005b61011d60048036038101906101189190610d0e565b610406565b005b61013960048036038101906101349190610b35565b610565565b005b61015560048036038101906101509190610b35565b61068a565b6040516101629190610d57565b60405180910390f35b61018560048036038101906101809190610b35565b610734565b005b6101a1600480360381019061019c9190610b35565b610821565b005b6101bd60048036038101906101b89190610b35565b6109a6565b6040516101ca9190610d57565b60405180910390f35b60008054905090565b60016020528060005260406000206000915090508060000160009054906101000a900473ffffffffffffffffffffffffffffffffffffffff16908060000160149054906101000a900460ff16905082565b600260009054906101000a900473ffffffffffffffffffffffffffffffffffffffff1673ffffffffffffffffffffffffffffffffffffffff163373ffffffffffffffffffffffffffffffffffffffff16146102bd576040517ff7251ccf0000000000000000000000000000000000000000000000000000000081526004016102b490610dcf565b60405180910390fd5b60005b815181101561040257600060405180604001604052808484815181106102e9576102e8610def565b5b602002602001015173ffffffffffffffffffffffffffffffffffffffff168152602001600015158152509050806001600085858151811061032d5761032c610def565b5b602002602001015173ffffffffffffffffffffffffffffffffffffffff1673ffffffffffffffffffffffffffffffffffffffff16815260200190815260200160002060008201518160000160006101000a81548173ffffffffffffffffffffffffffffffffffffffff021916908373ffffffffffffffffffffffffffffffffffffffff16021790555060208201518160000160146101000a81548160ff02191690831515021790555090505060016000546103e89190610e4d565b6000819055505080806103fa90610ea3565b9150506102c0565b5050565b600260009054906101000a900473ffffffffffffffffffffffffffffffffffffffff1673ffffffffffffffffffffffffffffffffffffffff163373ffffffffffffffffffffffffffffffffffffffff1614610496576040517ff7251ccf00000000000000000000000000000000000000000000000000000000815260040161048d90610dcf565b60405180910390fd5b60005b815181101561056157600160008383815181106104b9576104b8610def565b5b602002602001015173ffffffffffffffffffffffffffffffffffffffff1673ffffffffffffffffffffffffffffffffffffffff168152602001908152602001600020600080820160006101000a81549073ffffffffffffffffffffffffffffffffffffffff02191690556000820160146101000a81549060ff0219169055505060016000546105489190610eec565b600081905550808061055990610ea3565b915050610499565b5050565b600260009054906101000a900473ffffffffffffffffffffffffffffffffffffffff1673ffffffffffffffffffffffffffffffffffffffff163373ffffffffffffffffffffffffffffffffffffffff16146105f5576040517ff7251ccf0000000000000000000000000000000000000000000000000000000081526004016105ec90610dcf565b60405180910390fd5b600160008273ffffffffffffffffffffffffffffffffffffffff1673ffffffffffffffffffffffffffffffffffffffff168152602001908152602001600020600080820160006101000a81549073ffffffffffffffffffffffffffffffffffffffff02191690556000820160146101000a81549060ff0219169055505060016000546106819190610eec565b60008190555050565b60008073ffffffffffffffffffffffffffffffffffffffff16600160008473ffffffffffffffffffffffffffffffffffffffff1673ffffffffffffffffffffffffffffffffffffffff16815260200190815260200160002060000160009054906101000a900473ffffffffffffffffffffffffffffffffffffffff1673ffffffffffffffffffffffffffffffffffffffff161461072a576001905061072f565b600090505b919050565b600260009054906101000a900473ffffffffffffffffffffffffffffffffffffffff1673ffffffffffffffffffffffffffffffffffffffff163373ffffffffffffffffffffffffffffffffffffffff16146107c4576040517ff7251ccf0000000000000000000000000000000000000000000000000000000081526004016107bb90610dcf565b60405180910390fd5b60018060008373ffffffffffffffffffffffffffffffffffffffff1673ffffffffffffffffffffffffffffffffffffffff16815260200190815260200160002060000160146101000a81548160ff02191690831515021790555050565b600260009054906101000a900473ffffffffffffffffffffffffffffffffffffffff1673ffffffffffffffffffffffffffffffffffffffff163373ffffffffffffffffffffffffffffffffffffffff16146108b1576040517ff7251ccf0000000000000000000000000000000000000000000000000000000081526004016108a890610dcf565b60405180910390fd5b600060405180604001604052808373ffffffffffffffffffffffffffffffffffffffff16815260200160001515815250905080600160008473ffffffffffffffffffffffffffffffffffffffff1673ffffffffffffffffffffffffffffffffffffffff16815260200190815260200160002060008201518160000160006101000a81548173ffffffffffffffffffffffffffffffffffffffff021916908373ffffffffffffffffffffffffffffffffffffffff16021790555060208201518160000160146101000a81548160ff021916908315150217905550905050600160005461099c9190610e4d565b6000819055505050565b6000600260009054906101000a900473ffffffffffffffffffffffffffffffffffffffff1673ffffffffffffffffffffffffffffffffffffffff163373ffffffffffffffffffffffffffffffffffffffff1614610a38576040517ff7251ccf000000000000000000000000000000000000000000000000000000008152600401610a2f90610dcf565b60405180910390fd5b600160008373ffffffffffffffffffffffffffffffffffffffff1673ffffffffffffffffffffffffffffffffffffffff16815260200190815260200160002060000160149054906101000a900460ff169050919050565b6000819050919050565b610aa281610a8f565b82525050565b6000602082019050610abd6000830184610a99565b92915050565b6000604051905090565b600080fd5b600080fd5b600073ffffffffffffffffffffffffffffffffffffffff82169050919050565b6000610b0282610ad7565b9050919050565b610b1281610af7565b8114610b1d57600080fd5b50565b600081359050610b2f81610b09565b92915050565b600060208284031215610b4b57610b4a610acd565b5b6000610b5984828501610b20565b91505092915050565b610b6b81610af7565b82525050565b60008115159050919050565b610b8681610b71565b82525050565b6000604082019050610ba16000830185610b62565b610bae6020830184610b7d565b9392505050565b600080fd5b6000601f19601f8301169050919050565b7f4e487b7100000000000000000000000000000000000000000000000000000000600052604160045260246000fd5b610c0382610bba565b810181811067ffffffffffffffff82111715610c2257610c21610bcb565b5b80604052505050565b6000610c35610ac3565b9050610c418282610bfa565b919050565b600067ffffffffffffffff821115610c6157610c60610bcb565b5b602082029050602081019050919050565b600080fd5b6000610c8a610c8584610c46565b610c2b565b90508083825260208201905060208402830185811115610cad57610cac610c72565b5b835b81811015610cd65780610cc28882610b20565b845260208401935050602081019050610caf565b5050509392505050565b600082601f830112610cf557610cf4610bb5565b5b8135610d05848260208601610c77565b91505092915050565b600060208284031215610d2457610d23610acd565b5b600082013567ffffffffffffffff811115610d4257610d41610ad2565b5b610d4e84828501610ce0565b91505092915050565b6000602082019050610d6c6000830184610b7d565b92915050565b600082825260208201905092915050565b7f4f6e6c79204f776e6572204d61792043616c6c2046756e6374696f6e00000000600082015250565b6000610db9601c83610d72565b9150610dc482610d83565b602082019050919050565b60006020820190508181036000830152610de881610dac565b9050919050565b7f4e487b7100000000000000000000000000000000000000000000000000000000600052603260045260246000fd5b7f4e487b7100000000000000000000000000000000000000000000000000000000600052601160045260246000fd5b6000610e5882610a8f565b9150610e6383610a8f565b9250827fffffffffffffffffffffffffffffffffffffffffffffffffffffffffffffffff03821115610e9857610e97610e1e565b5b828201905092915050565b6000610eae82610a8f565b91507fffffffffffffffffffffffffffffffffffffffffffffffffffffffffffffffff821415610ee157610ee0610e1e565b5b600182019050919050565b6000610ef782610a8f565b9150610f0283610a8f565b925082821015610f1557610f14610e1e565b5b82820390509291505056fea2646970667358221220700b5158de260e98a0eb0d910945021d856e8ec968c98e24cb3063b6a246722864736f6c634300080b0033608060405260008055600180556002805534801561001c57600080fd5b5033600560006101000a81548173ffffffffffffffffffffffffffffffffffffffff021916908373ffffffffffffffffffffffffffffffffffffffff1602179055506131af8061006d6000396000f3fe608060405234801561001057600080fd5b506004361061009e5760003560e01c8063b0c2a23b11610066578063b0c2a23b14610123578063bb58b0441461013f578063c11296cc1461015b578063d7627ad114610177578063fdad211f146101a75761009e565b80630b8710e4146100a357806322d043d9146100c15780633cfe7fa7146100df57806346a86576146100e957806379df360a14610105575b600080fd5b6100ab6101b1565b6040516100b89190612746565b60405180910390f35b6100c9610673565b6040516100d69190612812565b60405180910390f35b6100e7610b5a565b005b61010360048036038101906100fe919061297d565b610c7f565b005b61010d610e16565b60405161011a91906129d5565b60405180910390f35b61013d60048036038101906101389190612ad6565b610ee7565b005b61015960048036038101906101549190612cef565b6111c2565b005b61017560048036038101906101709190612e19565b611528565b005b610191600480360381019061018c9190612e62565b61191e565b60405161019e9190612812565b60405180910390f35b6101af611ddb565b005b6060600560009054906101000a900473ffffffffffffffffffffffffffffffffffffffff1673ffffffffffffffffffffffffffffffffffffffff163373ffffffffffffffffffffffffffffffffffffffff1614610243576040517ff7251ccf00000000000000000000000000000000000000000000000000000000815260040161023a90612eec565b60405180910390fd5b6004805480602002602001604051908101604052809291908181526020016000905b8282101561066a57838290600052602060002090600702016040518060e0016040529081600082015481526020016001820180546102a290612f3b565b80601f01602080910402602001604051908101604052809291908181526020018280546102ce90612f3b565b801561031b5780601f106102f05761010080835404028352916020019161031b565b820191906000526020600020905b8154815290600101906020018083116102fe57829003601f168201915b5050505050815260200160028201548152602001600382015481526020016004820154815260200160058201805480602002602001604051908101604052809291908181526020016000905b828210156105445783829060005260206000209060040201604051806080016040529081600082015481526020016001820180546103a490612f3b565b80601f01602080910402602001604051908101604052809291908181526020018280546103d090612f3b565b801561041d5780601f106103f25761010080835404028352916020019161041d565b820191906000526020600020905b81548152906001019060200180831161040057829003601f168201915b505050505081526020016002820154815260200160038201805480602002602001604051908101604052809291908181526020016000905b8282101561052d57838290600052602060002090600302016040518060600160405290816000820154815260200160018201805461049290612f3b565b80601f01602080910402602001604051908101604052809291908181526020018280546104be90612f3b565b801561050b5780601f106104e05761010080835404028352916020019161050b565b820191906000526020600020905b8154815290600101906020018083116104ee57829003601f168201915b5050505050815260200160028201548152505081526020019060010190610455565b505050508152505081526020019060010190610367565b50505050815260200160068201805480602002602001604051908101604052809291908181526020016000905b828210156106535783829060005260206000209060040201604051806080016040529081600082015481526020016001820180546105ae90612f3b565b80601f01602080910402602001604051908101604052809291908181526020018280546105da90612f3b565b80156106275780601f106105fc57610100808354040283529160200191610627565b820191906000526020600020905b81548152906001019060200180831161060a57829003601f168201915b505050505081526020016002820154815260200160038201548152505081526020019060010190610571565b505050508152505081526020019060010190610265565b50505050905090565b61067b611f7c565b600560009054906101000a900473ffffffffffffffffffffffffffffffffffffffff1673ffffffffffffffffffffffffffffffffffffffff163373ffffffffffffffffffffffffffffffffffffffff161461070b576040517ff7251ccf00000000000000000000000000000000000000000000000000000000815260040161070290612eec565b60405180910390fd5b600060048054905011610753576040517f08c379a000000000000000000000000000000000000000000000000000000000815260040161074a90612fb9565b60405180910390fd5b60046003548154811061076957610768612fd9565b5b90600052602060002090600702016040518060e00160405290816000820154815260200160018201805461079c90612f3b565b80601f01602080910402602001604051908101604052809291908181526020018280546107c890612f3b565b80156108155780601f106107ea57610100808354040283529160200191610815565b820191906000526020600020905b8154815290600101906020018083116107f857829003601f168201915b5050505050815260200160028201548152602001600382015481526020016004820154815260200160058201805480602002602001604051908101604052809291908181526020016000905b82821015610a3e57838290600052602060002090600402016040518060800160405290816000820154815260200160018201805461089e90612f3b565b80601f01602080910402602001604051908101604052809291908181526020018280546108ca90612f3b565b80156109175780601f106108ec57610100808354040283529160200191610917565b820191906000526020600020905b8154815290600101906020018083116108fa57829003601f168201915b505050505081526020016002820154815260200160038201805480602002602001604051908101604052809291908181526020016000905b82821015610a2757838290600052602060002090600302016040518060600160405290816000820154815260200160018201805461098c90612f3b565b80601f01602080910402602001604051908101604052809291908181526020018280546109b890612f3b565b8015610a055780601f106109da57610100808354040283529160200191610a05565b820191906000526020600020905b8154815290600101906020018083116109e857829003601f168201915b505050505081526020016002820154815250508152602001906001019061094f565b505050508152505081526020019060010190610861565b50505050815260200160068201805480602002602001604051908101604052809291908181526020016000905b82821015610b4d578382906000526020600020906004020160405180608001604052908160008201548152602001600182018054610aa890612f3b565b80601f0160208091040260200160405190810160405280929190818152602001828054610ad490612f3b565b8015610b215780601f10610af657610100808354040283529160200191610b21565b820191906000526020600020905b815481529060010190602001808311610b0457829003601f168201915b505050505081526020016002820154815260200160038201548152505081526020019060010190610a6b565b5050505081525050905090565b600560009054906101000a900473ffffffffffffffffffffffffffffffffffffffff1673ffffffffffffffffffffffffffffffffffffffff163373ffffffffffffffffffffffffffffffffffffffff1614610bea576040517ff7251ccf000000000000000000000000000000000000000000000000000000008152600401610be190612eec565b60405180910390fd5b600054600460035481548110610c0357610c02612fd9565b5b9060005260206000209060070201600201541415610c4e57600154600460035481548110610c3457610c33612fd9565b5b906000526020600020906007020160020181905550610c7d565b600254600460035481548110610c6757610c66612fd9565b5b9060005260206000209060070201600201819055505b565b600560009054906101000a900473ffffffffffffffffffffffffffffffffffffffff1673ffffffffffffffffffffffffffffffffffffffff163373ffffffffffffffffffffffffffffffffffffffff1614610d0f576040517ff7251ccf000000000000000000000000000000000000000000000000000000008152600401610d0690612eec565b60405180910390fd5b60006004805490501480610d4b5750600254600460035481548110610d3757610d36612fd9565b5b906000526020600020906007020160020154145b610d5457600080fd5b600060048054905014610d7a5760036000815480929190610d7490613037565b91905055505b600460018160018154018082558091505003906000526020600020905050600060046001600480549050610dae9190613080565b81548110610dbf57610dbe612fd9565b5b90600052602060002090600702019050600354816000018190555081816001019080519060200190610df2929190611fb9565b50600054816002018190555060008160030181905550600081600401819055505050565b6000600560009054906101000a900473ffffffffffffffffffffffffffffffffffffffff1673ffffffffffffffffffffffffffffffffffffffff163373ffffffffffffffffffffffffffffffffffffffff1614610ea8576040517ff7251ccf000000000000000000000000000000000000000000000000000000008152600401610e9f90612eec565b60405180910390fd5b600060048054905011610eba57600080fd5b600460035481548110610ed057610ecf612fd9565b5b906000526020600020906007020160020154905090565b600560009054906101000a900473ffffffffffffffffffffffffffffffffffffffff1673ffffffffffffffffffffffffffffffffffffffff163373ffffffffffffffffffffffffffffffffffffffff1614610f77576040517ff7251ccf000000000000000000000000000000000000000000000000000000008152600401610f6e90612eec565b60405180910390fd5b60006004805490501480610fb357506000600460035481548110610f9e57610f9d612fd9565b5b90600052602060002090600702016002015414155b15610ff3576040517f5d2d8a4c000000000000000000000000000000000000000000000000000000008152600401610fea90613100565b60405180910390fd5b60005b81518110156111be57600060046003548154811061101757611016612fd9565b5b9060005260206000209060070201600601805490501461106f5760046003548154811061104757611046612fd9565b5b9060005260206000209060070201600401600081548092919061106990613037565b91905055505b60046003548154811061108557611084612fd9565b5b90600052602060002090600702016006016001816001815401808255809150500390600052602060002090505060006004600354815481106110ca576110c9612fd9565b5b906000526020600020906007020160060160016004600354815481106110f3576110f2612fd9565b5b9060005260206000209060070201600601805490506111129190613080565b8154811061112357611122612fd9565b5b9060005260206000209060040201905060046003548154811061114957611148612fd9565b5b906000526020600020906007020160040154816000018190555082828151811061117657611175612fd9565b5b6020026020010151816001019080519060200190611195929190611fb9565b5060008160020181905550600081600301819055505080806111b690613037565b915050610ff6565b5050565b600560009054906101000a900473ffffffffffffffffffffffffffffffffffffffff1673ffffffffffffffffffffffffffffffffffffffff163373ffffffffffffffffffffffffffffffffffffffff1614611252576040517ff7251ccf00000000000000000000000000000000000000000000000000000000815260040161124990612eec565b60405180910390fd5b600161125c610e16565b1461126657600080fd5b60005b815181101561152457600082828151811061128757611286612fd9565b5b60200260200101516000815181106112a2576112a1612fd9565b5b602002602001015114156113a2576004600354815481106112c6576112c5612fd9565b5b90600052602060002090600702016005018282815181106112ea576112e9612fd9565b5b602002602001015160018151811061130557611304612fd9565b5b60200260200101518154811061131e5761131d612fd9565b5b906000526020600020906004020160030182828151811061134257611341612fd9565b5b602002602001015160028151811061135d5761135c612fd9565b5b60200260200101518154811061137657611375612fd9565b5b9060005260206000209060030201600201600081548092919061139890613037565b9190505550611511565b60018282815181106113b7576113b6612fd9565b5b60200260200101516002815181106113d2576113d1612fd9565b5b6020026020010151141561147a576004600354815481106113f6576113f5612fd9565b5b906000526020600020906007020160060182828151811061141a57611419612fd9565b5b602002602001015160018151811061143557611434612fd9565b5b60200260200101518154811061144e5761144d612fd9565b5b9060005260206000209060040201600201600081548092919061147090613037565b9190505550611510565b6004600354815481106114905761148f612fd9565b5b90600052602060002090600702016006018282815181106114b4576114b3612fd9565b5b60200260200101516001815181106114cf576114ce612fd9565b5b6020026020010151815481106114e8576114e7612fd9565b5b9060005260206000209060040201600301600081548092919061150a90613037565b91905055505b5b808061151c90613037565b915050611269565b5050565b600560009054906101000a900473ffffffffffffffffffffffffffffffffffffffff1673ffffffffffffffffffffffffffffffffffffffff163373ffffffffffffffffffffffffffffffffffffffff16146115b8576040517ff7251ccf0000000000000000000000000000000000000000000000000000000081526004016115af90612eec565b60405180910390fd5b600060048054905014806115f4575060006004600354815481106115df576115de612fd9565b5b90600052602060002090600702016002015414155b15611634576040517f5d2d8a4c00000000000000000000000000000000000000000000000000000000815260040161162b90613100565b60405180910390fd5b60005b815181101561191a57600060046003548154811061165857611657612fd9565b5b906000526020600020906007020160050180549050146116b05760046003548154811061168857611687612fd9565b5b906000526020600020906007020160030160008154809291906116aa90613037565b91905055505b6004600354815481106116c6576116c5612fd9565b5b906000526020600020906007020160050160018160018154018082558091505003906000526020600020905050600060046003548154811061170b5761170a612fd9565b5b9060005260206000209060070201600501600160046003548154811061173457611733612fd9565b5b9060005260206000209060070201600501805490506117539190613080565b8154811061176457611763612fd9565b5b9060005260206000209060040201905060046003548154811061178a57611789612fd9565b5b90600052602060002090600702016003015481600001819055508282815181106117b7576117b6612fd9565b5b60200260200101516000815181106117d2576117d1612fd9565b5b60200260200101518160010190805190602001906117f1929190611fb9565b50600081600201819055506000600190505b83838151811061181657611815612fd9565b5b6020026020010151518110156119055760008260030180549050146118505781600201600081548092919061184a90613037565b91905055505b81600301600181600181540180825580915050039060005260206000209050506000826003016001836118839190613080565b8154811061189457611893612fd9565b5b906000526020600020906003020190508484815181106118b7576118b6612fd9565b5b602002602001015182815181106118d1576118d0612fd9565b5b60200260200101518160010190805190602001906118f0929190611fb9565b505080806118fd90613037565b915050611803565b5050808061191290613037565b915050611637565b5050565b611926611f7c565b600560009054906101000a900473ffffffffffffffffffffffffffffffffffffffff1673ffffffffffffffffffffffffffffffffffffffff163373ffffffffffffffffffffffffffffffffffffffff16146119b6576040517ff7251ccf0000000000000000000000000000000000000000000000000000000081526004016119ad90612eec565b60405180910390fd5b600082101580156119cb575060048054905082105b6119d457600080fd5b600482815481106119e8576119e7612fd9565b5b90600052602060002090600702016040518060e001604052908160008201548152602001600182018054611a1b90612f3b565b80601f0160208091040260200160405190810160405280929190818152602001828054611a4790612f3b565b8015611a945780601f10611a6957610100808354040283529160200191611a94565b820191906000526020600020905b815481529060010190602001808311611a7757829003601f168201915b5050505050815260200160028201548152602001600382015481526020016004820154815260200160058201805480602002602001604051908101604052809291908181526020016000905b82821015611cbd578382906000526020600020906004020160405180608001604052908160008201548152602001600182018054611b1d90612f3b565b80601f0160208091040260200160405190810160405280929190818152602001828054611b4990612f3b565b8015611b965780601f10611b6b57610100808354040283529160200191611b96565b820191906000526020600020905b815481529060010190602001808311611b7957829003601f168201915b505050505081526020016002820154815260200160038201805480602002602001604051908101604052809291908181526020016000905b82821015611ca6578382906000526020600020906003020160405180606001604052908160008201548152602001600182018054611c0b90612f3b565b80601f0160208091040260200160405190810160405280929190818152602001828054611c3790612f3b565b8015611c845780601f10611c5957610100808354040283529160200191611c84565b820191906000526020600020905b815481529060010190602001808311611c6757829003601f168201915b5050505050815260200160028201548152505081526020019060010190611bce565b505050508152505081526020019060010190611ae0565b50505050815260200160068201805480602002602001604051908101604052809291908181526020016000905b82821015611dcc578382906000526020600020906004020160405180608001604052908160008201548152602001600182018054611d2790612f3b565b80601f0160208091040260200160405190810160405280929190818152602001828054611d5390612f3b565b8015611da05780601f10611d7557610100808354040283529160200191611da0565b820191906000526020600020905b815481529060010190602001808311611d8357829003601f168201915b505050505081526020016002820154815260200160038201548152505081526020019060010190611cea565b50505050815250509050919050565b600560009054906101000a900473ffffffffffffffffffffffffffffffffffffffff1673ffffffffffffffffffffffffffffffffffffffff163373ffffffffffffffffffffffffffffffffffffffff1614611e6b576040517ff7251ccf000000000000000000000000000000000000000000000000000000008152600401611e6290612eec565b60405180910390fd5b60006004805490501480611ea757506000600460035481548110611e9257611e91612fd9565b5b90600052602060002090600702016002015414155b15611ee7576040517f5d2d8a4c000000000000000000000000000000000000000000000000000000008152600401611ede90613100565b60405180910390fd5b6004805480611ef957611ef8613120565b5b6001900381819060005260206000209060070201600080820160009055600182016000611f26919061203f565b600282016000905560038201600090556004820160009055600582016000611f4e919061207f565b600682016000611f5e91906120a3565b5050905560036000815480929190611f759061314f565b9190505550565b6040518060e00160405280600081526020016060815260200160008152602001600081526020016000815260200160608152602001606081525090565b828054611fc590612f3b565b90600052602060002090601f016020900481019282611fe7576000855561202e565b82601f1061200057805160ff191683800117855561202e565b8280016001018555821561202e579182015b8281111561202d578251825591602001919060010190612012565b5b50905061203b91906120c7565b5090565b50805461204b90612f3b565b6000825580601f1061205d575061207c565b601f01602090049060005260206000209081019061207b91906120c7565b5b50565b50805460008255600402906000526020600020908101906120a091906120e4565b50565b50805460008255600402906000526020600020908101906120c4919061212b565b50565b5b808211156120e05760008160009055506001016120c8565b5090565b5b8082111561212757600080820160009055600182016000612106919061203f565b600282016000905560038201600061211e919061216a565b506004016120e5565b5090565b5b808211156121665760008082016000905560018201600061214d919061203f565b600282016000905560038201600090555060040161212c565b5090565b508054600082556003029060005260206000209081019061218b919061218e565b50565b5b808211156121c1576000808201600090556001820160006121b0919061203f565b60028201600090555060030161218f565b5090565b600081519050919050565b600082825260208201905092915050565b6000819050602082019050919050565b6000819050919050565b612204816121f1565b82525050565b600081519050919050565b600082825260208201905092915050565b60005b83811015612244578082015181840152602081019050612229565b83811115612253576000848401525b50505050565b6000601f19601f8301169050919050565b60006122758261220a565b61227f8185612215565b935061228f818560208601612226565b61229881612259565b840191505092915050565b600081519050919050565b600082825260208201905092915050565b6000819050602082019050919050565b600081519050919050565b600082825260208201905092915050565b6000819050602082019050919050565b600060608301600083015161231360008601826121fb565b506020830151848203602086015261232b828261226a565b915050604083015161234060408601826121fb565b508091505092915050565b600061235783836122fb565b905092915050565b6000602082019050919050565b6000612377826122cf565b61238181856122da565b935083602082028501612393856122eb565b8060005b858110156123cf57848403895281516123b0858261234b565b94506123bb8361235f565b925060208a01995050600181019050612397565b50829750879550505050505092915050565b60006080830160008301516123f960008601826121fb565b5060208301518482036020860152612411828261226a565b915050604083015161242660408601826121fb565b506060830151848203606086015261243e828261236c565b9150508091505092915050565b600061245783836123e1565b905092915050565b6000602082019050919050565b6000612477826122a3565b61248181856122ae565b935083602082028501612493856122bf565b8060005b858110156124cf57848403895281516124b0858261244b565b94506124bb8361245f565b925060208a01995050600181019050612497565b50829750879550505050505092915050565b600081519050919050565b600082825260208201905092915050565b6000819050602082019050919050565b600060808301600083015161252560008601826121fb565b506020830151848203602086015261253d828261226a565b915050604083015161255260408601826121fb565b50606083015161256560608601826121fb565b508091505092915050565b600061257c838361250d565b905092915050565b6000602082019050919050565b600061259c826124e1565b6125a681856124ec565b9350836020820285016125b8856124fd565b8060005b858110156125f457848403895281516125d58582612570565b94506125e083612584565b925060208a019950506001810190506125bc565b50829750879550505050505092915050565b600060e08301600083015161261e60008601826121fb565b5060208301518482036020860152612636828261226a565b915050604083015161264b60408601826121fb565b50606083015161265e60608601826121fb565b50608083015161267160808601826121fb565b5060a083015184820360a0860152612689828261246c565b91505060c083015184820360c08601526126a38282612591565b9150508091505092915050565b60006126bc8383612606565b905092915050565b6000602082019050919050565b60006126dc826121c5565b6126e681856121d0565b9350836020820285016126f8856121e1565b8060005b85811015612734578484038952815161271585826126b0565b9450612720836126c4565b925060208a019950506001810190506126fc565b50829750879550505050505092915050565b6000602082019050818103600083015261276081846126d1565b905092915050565b600060e08301600083015161278060008601826121fb565b5060208301518482036020860152612798828261226a565b91505060408301516127ad60408601826121fb565b5060608301516127c060608601826121fb565b5060808301516127d360808601826121fb565b5060a083015184820360a08601526127eb828261246c565b91505060c083015184820360c08601526128058282612591565b9150508091505092915050565b6000602082019050818103600083015261282c8184612768565b905092915050565b6000604051905090565b600080fd5b600080fd5b600080fd5b600080fd5b7f4e487b7100000000000000000000000000000000000000000000000000000000600052604160045260246000fd5b61288a82612259565b810181811067ffffffffffffffff821117156128a9576128a8612852565b5b80604052505050565b60006128bc612834565b90506128c88282612881565b919050565b600067ffffffffffffffff8211156128e8576128e7612852565b5b6128f182612259565b9050602081019050919050565b82818337600083830152505050565b600061292061291b846128cd565b6128b2565b90508281526020810184848401111561293c5761293b61284d565b5b6129478482856128fe565b509392505050565b600082601f83011261296457612963612848565b5b813561297484826020860161290d565b91505092915050565b6000602082840312156129935761299261283e565b5b600082013567ffffffffffffffff8111156129b1576129b0612843565b5b6129bd8482850161294f565b91505092915050565b6129cf816121f1565b82525050565b60006020820190506129ea60008301846129c6565b92915050565b600067ffffffffffffffff821115612a0b57612a0a612852565b5b602082029050602081019050919050565b600080fd5b6000612a34612a2f846129f0565b6128b2565b90508083825260208201905060208402830185811115612a5757612a56612a1c565b5b835b81811015612a9e57803567ffffffffffffffff811115612a7c57612a7b612848565b5b808601612a89898261294f565b85526020850194505050602081019050612a59565b5050509392505050565b600082601f830112612abd57612abc612848565b5b8135612acd848260208601612a21565b91505092915050565b600060208284031215612aec57612aeb61283e565b5b600082013567ffffffffffffffff811115612b0a57612b09612843565b5b612b1684828501612aa8565b91505092915050565b600067ffffffffffffffff821115612b3a57612b39612852565b5b602082029050602081019050919050565b600067ffffffffffffffff821115612b6657612b65612852565b5b602082029050602081019050919050565b612b80816121f1565b8114612b8b57600080fd5b50565b600081359050612b9d81612b77565b92915050565b6000612bb6612bb184612b4b565b6128b2565b90508083825260208201905060208402830185811115612bd957612bd8612a1c565b5b835b81811015612c025780612bee8882612b8e565b845260208401935050602081019050612bdb565b5050509392505050565b600082601f830112612c2157612c20612848565b5b8135612c31848260208601612ba3565b91505092915050565b6000612c4d612c4884612b1f565b6128b2565b90508083825260208201905060208402830185811115612c7057612c6f612a1c565b5b835b81811015612cb757803567ffffffffffffffff811115612c9557612c94612848565b5b808601612ca28982612c0c565b85526020850194505050602081019050612c72565b5050509392505050565b600082601f830112612cd657612cd5612848565b5b8135612ce6848260208601612c3a565b91505092915050565b600060208284031215612d0557612d0461283e565b5b600082013567ffffffffffffffff811115612d2357612d22612843565b5b612d2f84828501612cc1565b91505092915050565b600067ffffffffffffffff821115612d5357612d52612852565b5b602082029050602081019050919050565b6000612d77612d7284612d38565b6128b2565b90508083825260208201905060208402830185811115612d9a57612d99612a1c565b5b835b81811015612de157803567ffffffffffffffff811115612dbf57612dbe612848565b5b808601612dcc8982612aa8565b85526020850194505050602081019050612d9c565b5050509392505050565b600082601f830112612e0057612dff612848565b5b8135612e10848260208601612d64565b91505092915050565b600060208284031215612e2f57612e2e61283e565b5b600082013567ffffffffffffffff811115612e4d57612e4c612843565b5b612e5984828501612deb565b91505092915050565b600060208284031215612e7857612e7761283e565b5b6000612e8684828501612b8e565b91505092915050565b600082825260208201905092915050565b7f4f6e6c79204f776e6572204d61792043616c6c2046756e6374696f6e00000000600082015250565b6000612ed6601c83612e8f565b9150612ee182612ea0565b602082019050919050565b60006020820190508181036000830152612f0581612ec9565b9050919050565b7f4e487b7100000000000000000000000000000000000000000000000000000000600052602260045260246000fd5b60006002820490506001821680612f5357607f821691505b60208210811415612f6757612f66612f0c565b5b50919050565b7f4e6f2042616c6c6f7420486173204265656e2043726561746564000000000000600082015250565b6000612fa3601a83612e8f565b9150612fae82612f6d565b602082019050919050565b60006020820190508181036000830152612fd281612f96565b9050919050565b7f4e487b7100000000000000000000000000000000000000000000000000000000600052603260045260246000fd5b7f4e487b7100000000000000000000000000000000000000000000000000000000600052601160045260246000fd5b6000613042826121f1565b91507fffffffffffffffffffffffffffffffffffffffffffffffffffffffffffffffff82141561307557613074613008565b5b600182019050919050565b600061308b826121f1565b9150613096836121f1565b9250828210156130a9576130a8613008565b5b828203905092915050565b7f42616c6c6f74204d75737420426520436c6f7365640000000000000000000000600082015250565b60006130ea601583612e8f565b91506130f5826130b4565b602082019050919050565b60006020820190508181036000830152613119816130dd565b9050919050565b7f4e487b7100000000000000000000000000000000000000000000000000000000600052603160045260246000fd5b600061315a826121f1565b9150600082141561316e5761316d613008565b5b60018203905091905056fea264697066735822122006192047ce145663dbb1fab2a7fbe233f25adc79abce9d6dc86a32769bf9a0a064736f6c634300080b0033",
  "immutableReferences": {},
  "source": "// SPDX-License-Identifier: MIT\npragma solidity ^0.8.11;\n//pragma experimental ABIEncoderV2;\n\nimport \"./Voters.sol\";\nimport \"./Ballots.sol\";\n\n//import \"./Election.sol\";\n\ncontract VotingContract {\n\tstruct Administrator {\n\t\t/// @notice Address for the administrator\n\t\taddress adminAddress;\n\t}\n\n\t/// @notice Owner of voting contract\n    Administrator administrator;\n\n\t/// @notice List of ballots\n\tBallots ballots;\n\n\t/// @notice Voter storage and functions\n\tVoters voters;\n\n\tconstructor() {\n\t\t/// @notice On creation set administrator to creator address\n\t\tadministrator.adminAddress = msg.sender;\n\n\t\tvoters = new Voters();\n\n\t\tballots = new Ballots();\n\n\t}\n\n\t// Error Messages\n\terror NotAdmin(string message);\n\terror BallotNotClosed(string message);\n\n\t\n\t// Modifiers\n\tmodifier onlyOwner() {\n\t\tif (msg.sender != administrator.adminAddress) {\n\t\t\trevert NotAdmin(\"Only Administrator May Call Function\");\n\t\t}\n\t\t_;\n\t}\n\n\t/*\n\tmodifier ballotIsClosed() {\n\t\tif (currentBallotStatus() != 0) {\n\t\t\trevert BallotNotClosed(\"Ballot Must Be Created And Closed\");\n\t\t}\n\t\t_;\n\t}\n\t*/\n\t\n\t// Events\n\tevent TestEvent(\n\t\tstring message\n\t);\n\n\t// Info Functions ===============================================\n\n\t// Get current ballot status\n\tfunction getCurrentBallotStatus() public view returns (uint) {\n\t\treturn ballots.getCurrentBallotStatus();\n\t}\n\n\t// Get current ballot info\n\tfunction getCurrentBallot() public view returns (Ballots.Ballot memory) {\n\t\treturn ballots.getCurrentBallot();\n\t}\n\n\t// List all ballot ids and names\n\tfunction getAllBallots() public view returns (Ballots.Ballot[] memory) {\n\t\treturn ballots.getAllBallots();\n\t}\n\n\t// Get ballot info by id\n\tfunction getBallotById(uint _id) external view returns (Ballots.Ballot memory) {\n\t\treturn ballots.getBallotById(_id);\n\t}\n\n\t/// @notice Gets the total voter count in voter roll\n\t/// @return Total voter count\n\tfunction getVoterCount() public view returns (uint) {\n\t\treturn voters.getVoterCount();\n\t}\n\n\t/// @notice Returns a boolean for whether or not given address is in voter roll\n\t/// @return True or false if voter address is valid\n\tfunction isVoter(address voterAddress) public view returns (bool) {\n\t\treturn voters.isVoter(voterAddress);\n\t}\n\n\tfunction hasVoterVoted() public view returns (bool) {\n\t\treturn voters.hasVoterVoted(msg.sender);\n\t}\n\n\t// ==============================================================\n\n\n\n\t// Admin Voter Functions ========================================\n\n\t/// @notice Adds voter to voting roll & increases total voter count\n\t/// @param voterAddress Address of voter to add to voter roll\n\tfunction addVoter(address voterAddress) public onlyOwner {\n\t\tvoters.addVoter(voterAddress);\n\t}\n\n\t/// @notice Adds multiple voters to voting roll & increases total voter count\n\t/// @param voterAddresses Addresses of voters to add to voter roll\n\tfunction addMultipleVoters(address[] memory voterAddresses) public onlyOwner {\n\t\tvoters.addMultipleVoters(voterAddresses);\n\t}\n\n\t/// @notice Removes voter from voting roll & reduces total voter count\n\t/// @param voterAddress Address of voter to remove from voter roll\n\tfunction removeVoter(address voterAddress) public onlyOwner {\n\t\tvoters.removeVoter(voterAddress);\n\t}\n\n\t/// @notice Removes multiple voters from voting roll & reduces total voter count\n\t/// @param voterAddresses Addresses of voters to remove from voter roll\n\tfunction removeMultipleVoters(address[] memory voterAddresses) public onlyOwner {\n\t\tvoters.removeMultipleVoters(voterAddresses);\n\t}\n\n\t// ==============================================================\n\n\n\n\t// Admin Ballot Functions =======================================\n\n\t// Create ballot\n\tfunction createBallot(string memory _name) public onlyOwner {\n\t\tballots.createBallot(_name);\n\t}\n\n\t// Delete ballot\n\tfunction deleteBallot() public onlyOwner {\n\t\tballots.deleteBallot();\n\t}\n\n\t// Open ballot, close ballot\n\tfunction openCloseBallot() public onlyOwner {\n\t\tballots.openCloseBallot();\n\t}\n\n\t// ==============================================================\n\n\n\n\t// Admin Election Functions =====================================\n\n\t// Add election\n\tfunction addElections(string[][] memory elections) public onlyOwner {\n\t\tballots.addElections(elections);\n\t}\n\n\t// ==============================================================\n\n\n\n\t// Admin Issue Functions ========================================\n\n\t// Add issue\n\tfunction addIssues(string[] memory issues) public onlyOwner {\n\t\tballots.addIssues(issues);\n\t}\n\n\t// ==============================================================\n\n\n\n\t// Voter Functions ==============================================\n\n\t// Vote for all\n\tfunction vote(uint[][] memory votes) public {\n\t\trequire(voters.hasVoterVoted(msg.sender) == false);\n\n\t\tballots.vote(votes);\n\n\t\tvoters.updateHasVoted(msg.sender);\n\t}\n\n\t// ==============================================================\n\n\n\n\t// Admin Ownership Functions ====================================\n\n\t// ==============================================================\n\n\n\n\t// Other Functions ==============================================\n\n\t// ==============================================================\n\n}\n",
  "sourcePath": "/Users/hubertkdayssi/Documents/CS_Projects/voting_app/contracts/VotingContract.sol",
  "compiler": {
    "name": "solc",
    "version": "0.8.11+commit.d7f03943.Emscripten.clang"
  },
  "schemaVersion": "3.4.5",
  "updatedAt": "2022-02-23T15:35:15.255Z",
  "networkType": "ethereum",
  "devdoc": {
    "kind": "dev",
    "methods": {
      "addMultipleVoters(address[])": {
        "params": {
          "voterAddresses": "Addresses of voters to add to voter roll"
        }
      },
      "addVoter(address)": {
        "params": {
          "voterAddress": "Address of voter to add to voter roll"
        }
      },
      "getVoterCount()": {
        "returns": {
          "_0": "Total voter count"
        }
      },
      "isVoter(address)": {
        "returns": {
          "_0": "True or false if voter address is valid"
        }
      },
      "removeMultipleVoters(address[])": {
        "params": {
          "voterAddresses": "Addresses of voters to remove from voter roll"
        }
      },
      "removeVoter(address)": {
        "params": {
          "voterAddress": "Address of voter to remove from voter roll"
        }
      }
    },
    "version": 1
  },
  "userdoc": {
    "kind": "user",
    "methods": {
      "addMultipleVoters(address[])": {
        "notice": "Adds multiple voters to voting roll & increases total voter count"
      },
      "addVoter(address)": {
        "notice": "Adds voter to voting roll & increases total voter count"
      },
      "getVoterCount()": {
        "notice": "Gets the total voter count in voter roll"
      },
      "isVoter(address)": {
        "notice": "Returns a boolean for whether or not given address is in voter roll"
      },
      "removeMultipleVoters(address[])": {
        "notice": "Removes multiple voters from voting roll & reduces total voter count"
      },
      "removeVoter(address)": {
        "notice": "Removes voter from voting roll & reduces total voter count"
      }
    },
    "version": 1
  }
}