{
  "contractName": "VotingContract",
  "abi": [
    {
      "inputs": [],
      "stateMutability": "nonpayable",
      "type": "constructor"
    },
    {
      "inputs": [
        {
          "internalType": "string",
          "name": "message",
          "type": "string"
        }
      ],
      "name": "BallotNotClosed",
      "type": "error"
    },
    {
      "inputs": [
        {
          "internalType": "string",
          "name": "message",
          "type": "string"
        }
      ],
      "name": "NotAdmin",
      "type": "error"
    },
    {
      "anonymous": false,
      "inputs": [
        {
          "indexed": false,
          "internalType": "string",
          "name": "message",
          "type": "string"
        }
      ],
      "name": "TestEvent",
      "type": "event"
    },
    {
      "inputs": [],
      "name": "getCurrentBallotStatus",
      "outputs": [
        {
          "internalType": "uint256",
          "name": "",
          "type": "uint256"
        }
      ],
      "stateMutability": "view",
      "type": "function"
    },
    {
      "inputs": [
        {
          "internalType": "uint256",
          "name": "_id",
          "type": "uint256"
        }
      ],
      "name": "getBallotById",
      "outputs": [
        {
          "components": [
            {
              "internalType": "uint256",
              "name": "id",
              "type": "uint256"
            },
            {
              "internalType": "string",
              "name": "name",
              "type": "string"
            },
            {
              "internalType": "uint256",
              "name": "status",
              "type": "uint256"
            },
            {
              "internalType": "uint256",
              "name": "currentElectionId",
              "type": "uint256"
            },
            {
              "internalType": "uint256",
              "name": "currentIssueId",
              "type": "uint256"
            },
            {
              "components": [
                {
                  "internalType": "uint256",
                  "name": "id",
                  "type": "uint256"
                },
                {
                  "internalType": "string",
                  "name": "name",
                  "type": "string"
                },
                {
                  "internalType": "uint256",
                  "name": "currentCandidateId",
                  "type": "uint256"
                },
                {
                  "components": [
                    {
                      "internalType": "uint256",
                      "name": "id",
                      "type": "uint256"
                    },
                    {
                      "internalType": "string",
                      "name": "name",
                      "type": "string"
                    },
                    {
                      "internalType": "uint256",
                      "name": "votes",
                      "type": "uint256"
                    }
                  ],
                  "internalType": "struct Ballots.Candidate[]",
                  "name": "candidates",
                  "type": "tuple[]"
                }
              ],
              "internalType": "struct Ballots.Election[]",
              "name": "elections",
              "type": "tuple[]"
            },
            {
              "components": [
                {
                  "internalType": "uint256",
                  "name": "id",
                  "type": "uint256"
                },
                {
                  "internalType": "string",
                  "name": "name",
                  "type": "string"
                },
                {
                  "internalType": "uint256",
                  "name": "forVotes",
                  "type": "uint256"
                },
                {
                  "internalType": "uint256",
                  "name": "againstVotes",
                  "type": "uint256"
                }
              ],
              "internalType": "struct Ballots.Issue[]",
              "name": "issues",
              "type": "tuple[]"
            }
          ],
          "internalType": "struct Ballots.Ballot",
          "name": "",
          "type": "tuple"
        }
      ],
      "stateMutability": "view",
      "type": "function"
    },
    {
      "inputs": [],
      "name": "getVoterCount",
      "outputs": [
        {
          "internalType": "uint256",
          "name": "",
          "type": "uint256"
        }
      ],
      "stateMutability": "view",
      "type": "function"
    },
    {
      "inputs": [
        {
          "internalType": "address",
          "name": "voterAddress",
          "type": "address"
        }
      ],
      "name": "isVoter",
      "outputs": [
        {
          "internalType": "bool",
          "name": "",
          "type": "bool"
        }
      ],
      "stateMutability": "view",
      "type": "function"
    },
    {
      "inputs": [
        {
          "internalType": "address",
          "name": "voterAddress",
          "type": "address"
        }
      ],
      "name": "addVoter",
      "outputs": [],
      "stateMutability": "nonpayable",
      "type": "function"
    },
    {
      "inputs": [
        {
          "internalType": "address[]",
          "name": "voterAddresses",
          "type": "address[]"
        }
      ],
      "name": "addMultipleVoters",
      "outputs": [],
      "stateMutability": "nonpayable",
      "type": "function"
    },
    {
      "inputs": [
        {
          "internalType": "address",
          "name": "voterAddress",
          "type": "address"
        }
      ],
      "name": "removeVoter",
      "outputs": [],
      "stateMutability": "nonpayable",
      "type": "function"
    },
    {
      "inputs": [
        {
          "internalType": "address[]",
          "name": "voterAddresses",
          "type": "address[]"
        }
      ],
      "name": "removeMultipleVoters",
      "outputs": [],
      "stateMutability": "nonpayable",
      "type": "function"
    },
    {
      "inputs": [
        {
          "internalType": "string",
          "name": "_name",
          "type": "string"
        }
      ],
      "name": "createBallot",
      "outputs": [],
      "stateMutability": "nonpayable",
      "type": "function"
    },
    {
      "inputs": [],
      "name": "deleteBallot",
      "outputs": [],
      "stateMutability": "nonpayable",
      "type": "function"
    },
    {
      "inputs": [],
      "name": "openCloseBallot",
      "outputs": [],
      "stateMutability": "nonpayable",
      "type": "function"
    },
    {
      "inputs": [
        {
          "internalType": "string[][]",
          "name": "elections",
          "type": "string[][]"
        }
      ],
      "name": "addElections",
      "outputs": [],
      "stateMutability": "nonpayable",
      "type": "function"
    },
    {
      "inputs": [
        {
          "internalType": "string[]",
          "name": "issues",
          "type": "string[]"
        }
      ],
      "name": "addIssues",
      "outputs": [],
      "stateMutability": "nonpayable",
      "type": "function"
    },
    {
      "inputs": [],
      "name": "popStruct",
      "outputs": [],
      "stateMutability": "nonpayable",
      "type": "function"
    },
    {
      "inputs": [
        {
          "internalType": "uint256",
          "name": "_id",
          "type": "uint256"
        },
        {
          "internalType": "string",
          "name": "_name",
          "type": "string"
        },
        {
          "internalType": "string",
          "name": "_message",
          "type": "string"
        }
      ],
      "name": "createTest",
      "outputs": [],
      "stateMutability": "nonpayable",
      "type": "function"
    },
    {
      "inputs": [
        {
          "internalType": "uint256",
          "name": "_id",
          "type": "uint256"
        }
      ],
      "name": "getTest",
      "outputs": [
        {
          "components": [
            {
              "internalType": "uint256",
              "name": "id",
              "type": "uint256"
            },
            {
              "internalType": "string",
              "name": "name",
              "type": "string"
            },
            {
              "internalType": "string",
              "name": "message",
              "type": "string"
            }
          ],
          "internalType": "struct VotingContract.TestStruct",
          "name": "",
          "type": "tuple"
        }
      ],
      "stateMutability": "view",
      "type": "function"
    },
    {
      "inputs": [],
      "name": "populate",
      "outputs": [],
      "stateMutability": "nonpayable",
      "type": "function"
    },
    {
      "inputs": [
        {
          "internalType": "string",
          "name": "item",
          "type": "string"
        }
      ],
      "name": "addItem",
      "outputs": [],
      "stateMutability": "nonpayable",
      "type": "function"
    },
    {
      "inputs": [
        {
          "internalType": "uint256",
          "name": "aNum",
          "type": "uint256"
        }
      ],
      "name": "deleteItem",
      "outputs": [],
      "stateMutability": "nonpayable",
      "type": "function"
    },
    {
      "inputs": [
        {
          "internalType": "uint256",
          "name": "aNum",
          "type": "uint256"
        }
      ],
      "name": "deleteCustom",
      "outputs": [],
      "stateMutability": "nonpayable",
      "type": "function"
    },
    {
      "inputs": [],
      "name": "getArray",
      "outputs": [
        {
          "internalType": "string[]",
          "name": "",
          "type": "string[]"
        }
      ],
      "stateMutability": "view",
      "type": "function"
    }
  ],
  "bytecode": "0x60806040523480156200001157600080fd5b50336000800160006101000a81548173ffffffffffffffffffffffffffffffffffffffff021916908373ffffffffffffffffffffffffffffffffffffffff160217905550604051620000639062000133565b604051809103906000f08015801562000080573d6000803e3d6000fd5b50600260006101000a81548173ffffffffffffffffffffffffffffffffffffffff021916908373ffffffffffffffffffffffffffffffffffffffff160217905550604051620000cf9062000141565b604051809103906000f080158015620000ec573d6000803e3d6000fd5b50600160006101000a81548173ffffffffffffffffffffffffffffffffffffffff021916908373ffffffffffffffffffffffffffffffffffffffff1602179055506200014f565b610ce380620034ec83390190565b611ee180620041cf83390190565b61338d806200015f6000396000f3fe608060405234801561001057600080fd5b50600436106101375760003560e01c806386758e54116100b8578063d504ea1d1161007c578063d504ea1d146102d4578063d7627ad1146102f2578063edef019d14610322578063f4ab9adf14610352578063f809f2051461036e578063fdad211f1461037857610137565b806386758e541461023457806386c1ff6814610250578063a7771ee31461026c578063b0c2a23b1461029c578063c11296cc146102b857610137565b806342d7f28e116100ff57806342d7f28e146101b857806346a86576146101c2578063654fc833146101de57806376b7729d146101fa57806379df360a1461021657610137565b806311174a291461013c578063228f1c341461015a57806327e9f29414610176578063385704d6146101925780633cfe7fa7146101ae575b600080fd5b610144610382565b6040516101519190611b0b565b60405180910390f35b610174600480360381019061016f9190611cac565b61041a565b005b610190600480360381019061018b9190611d37565b6104b1565b005b6101ac60048036038101906101a79190611ea6565b6104f0565b005b6101b6610612565b005b6101c0610728565b005b6101dc60048036038101906101d79190611d37565b610901565b005b6101f860048036038101906101f39190611eef565b610a23565b005b610214600480360381019061020f9190611eef565b610a50565b005b61021e610ae8565b60405161022b9190611b0b565b60405180910390f35b61024e60048036038101906102499190611ea6565b610c12565b005b61026a60048036038101906102659190611f1c565b610d34565b005b61028660048036038101906102819190611f1c565b610e56565b6040516102939190611f64565b60405180910390f35b6102b660048036038101906102b19190612060565b610efb565b005b6102d260048036038101906102cd919061218a565b61101d565b005b6102dc61113f565b6040516102e9919061231d565b60405180910390f35b61030c60048036038101906103079190611eef565b611218565b604051610319919061275b565b60405180910390f35b61033c60048036038101906103379190611eef565b61135a565b60405161034991906127d4565b60405180910390f35b61036c60048036038101906103679190611f1c565b6114c4565b005b6103766115e6565b005b61038061180e565b005b6000600260009054906101000a900473ffffffffffffffffffffffffffffffffffffffff1673ffffffffffffffffffffffffffffffffffffffff166311174a296040518163ffffffff1660e01b8152600401602060405180830381865afa1580156103f1573d6000803e3d6000fd5b505050506040513d601f19601f82011682018060405250810190610415919061280b565b905090565b60006040518060600160405280858152602001848152602001838152509050600681908060018154018082558091505060019003906000526020600020906003020160009091909190915060008201518160000155602082015181600101908051906020019061048b929190611924565b5060408201518160020190805190602001906104a8929190611924565b50505050505050565b6007819080600181540180825580915050600190039060005260206000200160009091909190915090805190602001906104ec929190611924565b5050565b6000800160009054906101000a900473ffffffffffffffffffffffffffffffffffffffff1673ffffffffffffffffffffffffffffffffffffffff163373ffffffffffffffffffffffffffffffffffffffff1614610582576040517f7625245e000000000000000000000000000000000000000000000000000000008152600401610579906128bb565b60405180910390fd5b600260009054906101000a900473ffffffffffffffffffffffffffffffffffffffff1673ffffffffffffffffffffffffffffffffffffffff1663385704d6826040518263ffffffff1660e01b81526004016105dd9190612999565b600060405180830381600087803b1580156105f757600080fd5b505af115801561060b573d6000803e3d6000fd5b5050505050565b6000800160009054906101000a900473ffffffffffffffffffffffffffffffffffffffff1673ffffffffffffffffffffffffffffffffffffffff163373ffffffffffffffffffffffffffffffffffffffff16146106a4576040517f7625245e00000000000000000000000000000000000000000000000000000000815260040161069b906128bb565b60405180910390fd5b600160009054906101000a900473ffffffffffffffffffffffffffffffffffffffff1673ffffffffffffffffffffffffffffffffffffffff16633cfe7fa76040518163ffffffff1660e01b8152600401600060405180830381600087803b15801561070e57600080fd5b505af1158015610722573d6000803e3d6000fd5b50505050565b60006004600080815260200190815260200160002090506040518060400160405280600b81526020017f68656c6c6f20776f726c6400000000000000000000000000000000000000000081525081600001908051906020019061078c929190611924565b5060006005600080815260200190815260200160002090506040518060400160405280600281526020017f68690000000000000000000000000000000000000000000000000000000000008152508160000190805190602001906107f1929190611924565b5060006040518060400160405280600581526020017f776f726c6400000000000000000000000000000000000000000000000000000081525090508160010181908060018154018082558091505060019003906000526020600020016000909190919091509080519060200190610869929190611924565b50600060405180602001604052806040518060400160405280600381526020017f6865790000000000000000000000000000000000000000000000000000000000815250815250905082600201819080600181540180825580915050600190039060005260206000200160009091909190915060008201518160000190805190602001906108f8929190611924565b50505050505050565b6000800160009054906101000a900473ffffffffffffffffffffffffffffffffffffffff1673ffffffffffffffffffffffffffffffffffffffff163373ffffffffffffffffffffffffffffffffffffffff1614610993576040517f7625245e00000000000000000000000000000000000000000000000000000000815260040161098a906128bb565b60405180910390fd5b600160009054906101000a900473ffffffffffffffffffffffffffffffffffffffff1673ffffffffffffffffffffffffffffffffffffffff166346a86576826040518263ffffffff1660e01b81526004016109ee91906129f4565b600060405180830381600087803b158015610a0857600080fd5b505af1158015610a1c573d6000803e3d6000fd5b5050505050565b60078181548110610a3757610a36612a16565b5b906000526020600020016000610a4d91906119aa565b50565b60076001600780549050610a649190612a74565b81548110610a7557610a74612a16565b5b9060005260206000200160078281548110610a9357610a92612a16565b5b90600052602060002001908054610aa990612ad7565b610ab49291906119ea565b506007805480610ac757610ac6612b09565b5b600190038181906000526020600020016000610ae391906119aa565b905550565b60008060000160009054906101000a900473ffffffffffffffffffffffffffffffffffffffff1673ffffffffffffffffffffffffffffffffffffffff163373ffffffffffffffffffffffffffffffffffffffff1614610b7c576040517f7625245e000000000000000000000000000000000000000000000000000000008152600401610b73906128bb565b60405180910390fd5b600160009054906101000a900473ffffffffffffffffffffffffffffffffffffffff1673ffffffffffffffffffffffffffffffffffffffff166379df360a6040518163ffffffff1660e01b8152600401602060405180830381865afa158015610be9573d6000803e3d6000fd5b505050506040513d601f19601f82011682018060405250810190610c0d919061280b565b905090565b6000800160009054906101000a900473ffffffffffffffffffffffffffffffffffffffff1673ffffffffffffffffffffffffffffffffffffffff163373ffffffffffffffffffffffffffffffffffffffff1614610ca4576040517f7625245e000000000000000000000000000000000000000000000000000000008152600401610c9b906128bb565b60405180910390fd5b600260009054906101000a900473ffffffffffffffffffffffffffffffffffffffff1673ffffffffffffffffffffffffffffffffffffffff166386758e54826040518263ffffffff1660e01b8152600401610cff9190612999565b600060405180830381600087803b158015610d1957600080fd5b505af1158015610d2d573d6000803e3d6000fd5b5050505050565b6000800160009054906101000a900473ffffffffffffffffffffffffffffffffffffffff1673ffffffffffffffffffffffffffffffffffffffff163373ffffffffffffffffffffffffffffffffffffffff1614610dc6576040517f7625245e000000000000000000000000000000000000000000000000000000008152600401610dbd906128bb565b60405180910390fd5b600260009054906101000a900473ffffffffffffffffffffffffffffffffffffffff1673ffffffffffffffffffffffffffffffffffffffff166386c1ff68826040518263ffffffff1660e01b8152600401610e219190612b47565b600060405180830381600087803b158015610e3b57600080fd5b505af1158015610e4f573d6000803e3d6000fd5b5050505050565b6000600260009054906101000a900473ffffffffffffffffffffffffffffffffffffffff1673ffffffffffffffffffffffffffffffffffffffff1663a7771ee3836040518263ffffffff1660e01b8152600401610eb39190612b47565b602060405180830381865afa158015610ed0573d6000803e3d6000fd5b505050506040513d601f19601f82011682018060405250810190610ef49190612b8e565b9050919050565b6000800160009054906101000a900473ffffffffffffffffffffffffffffffffffffffff1673ffffffffffffffffffffffffffffffffffffffff163373ffffffffffffffffffffffffffffffffffffffff1614610f8d576040517f7625245e000000000000000000000000000000000000000000000000000000008152600401610f84906128bb565b60405180910390fd5b600160009054906101000a900473ffffffffffffffffffffffffffffffffffffffff1673ffffffffffffffffffffffffffffffffffffffff1663b0c2a23b826040518263ffffffff1660e01b8152600401610fe8919061231d565b600060405180830381600087803b15801561100257600080fd5b505af1158015611016573d6000803e3d6000fd5b5050505050565b6000800160009054906101000a900473ffffffffffffffffffffffffffffffffffffffff1673ffffffffffffffffffffffffffffffffffffffff163373ffffffffffffffffffffffffffffffffffffffff16146110af576040517f7625245e0000000000000000000000000000000000000000000000000000000081526004016110a6906128bb565b60405180910390fd5b600160009054906101000a900473ffffffffffffffffffffffffffffffffffffffff1673ffffffffffffffffffffffffffffffffffffffff1663c11296cc826040518263ffffffff1660e01b815260040161110a9190612d03565b600060405180830381600087803b15801561112457600080fd5b505af1158015611138573d6000803e3d6000fd5b5050505050565b60606007805480602002602001604051908101604052809291908181526020016000905b8282101561120f57838290600052602060002001805461118290612ad7565b80601f01602080910402602001604051908101604052809291908181526020018280546111ae90612ad7565b80156111fb5780601f106111d0576101008083540402835291602001916111fb565b820191906000526020600020905b8154815290600101906020018083116111de57829003601f168201915b505050505081526020019060010190611163565b50505050905090565b611220611a77565b6000800160009054906101000a900473ffffffffffffffffffffffffffffffffffffffff1673ffffffffffffffffffffffffffffffffffffffff163373ffffffffffffffffffffffffffffffffffffffff16146112b2576040517f7625245e0000000000000000000000000000000000000000000000000000000081526004016112a9906128bb565b60405180910390fd5b600160009054906101000a900473ffffffffffffffffffffffffffffffffffffffff1673ffffffffffffffffffffffffffffffffffffffff1663d7627ad1836040518263ffffffff1660e01b815260040161130d9190611b0b565b600060405180830381865afa15801561132a573d6000803e3d6000fd5b505050506040513d6000823e3d601f19601f82011682018060405250810190611353919061330e565b9050919050565b611362611ab4565b6006828154811061137657611375612a16565b5b9060005260206000209060030201604051806060016040529081600082015481526020016001820180546113a990612ad7565b80601f01602080910402602001604051908101604052809291908181526020018280546113d590612ad7565b80156114225780601f106113f757610100808354040283529160200191611422565b820191906000526020600020905b81548152906001019060200180831161140557829003601f168201915b5050505050815260200160028201805461143b90612ad7565b80601f016020809104026020016040519081016040528092919081815260200182805461146790612ad7565b80156114b45780601f10611489576101008083540402835291602001916114b4565b820191906000526020600020905b81548152906001019060200180831161149757829003601f168201915b5050505050815250509050919050565b6000800160009054906101000a900473ffffffffffffffffffffffffffffffffffffffff1673ffffffffffffffffffffffffffffffffffffffff163373ffffffffffffffffffffffffffffffffffffffff1614611556576040517f7625245e00000000000000000000000000000000000000000000000000000000815260040161154d906128bb565b60405180910390fd5b600260009054906101000a900473ffffffffffffffffffffffffffffffffffffffff1673ffffffffffffffffffffffffffffffffffffffff1663f4ab9adf826040518263ffffffff1660e01b81526004016115b19190612b47565b600060405180830381600087803b1580156115cb57600080fd5b505af11580156115df573d6000803e3d6000fd5b5050505050565b600780600181540180825580915050600190039060005260206000200160006040518060400160405280600381526020017f4f4e45000000000000000000000000000000000000000000000000000000000081525090919091509080519060200190611653929190611924565b50600780600181540180825580915050600190039060005260206000200160006040518060400160405280600381526020017f54574f0000000000000000000000000000000000000000000000000000000000815250909190915090805190602001906116c1929190611924565b50600780600181540180825580915050600190039060005260206000200160006040518060400160405280600581526020017f54485245450000000000000000000000000000000000000000000000000000008152509091909150908051906020019061172f929190611924565b50600780600181540180825580915050600190039060005260206000200160006040518060400160405280600481526020017f464f5552000000000000000000000000000000000000000000000000000000008152509091909150908051906020019061179d929190611924565b50600780600181540180825580915050600190039060005260206000200160006040518060400160405280600481526020017f46495645000000000000000000000000000000000000000000000000000000008152509091909150908051906020019061180b929190611924565b50565b6000800160009054906101000a900473ffffffffffffffffffffffffffffffffffffffff1673ffffffffffffffffffffffffffffffffffffffff163373ffffffffffffffffffffffffffffffffffffffff16146118a0576040517f7625245e000000000000000000000000000000000000000000000000000000008152600401611897906128bb565b60405180910390fd5b600160009054906101000a900473ffffffffffffffffffffffffffffffffffffffff1673ffffffffffffffffffffffffffffffffffffffff1663fdad211f6040518163ffffffff1660e01b8152600401600060405180830381600087803b15801561190a57600080fd5b505af115801561191e573d6000803e3d6000fd5b50505050565b82805461193090612ad7565b90600052602060002090601f0160209004810192826119525760008555611999565b82601f1061196b57805160ff1916838001178555611999565b82800160010185558215611999579182015b8281111561199857825182559160200191906001019061197d565b5b5090506119a69190611ad5565b5090565b5080546119b690612ad7565b6000825580601f106119c857506119e7565b601f0160209004906000526020600020908101906119e69190611ad5565b5b50565b8280546119f690612ad7565b90600052602060002090601f016020900481019282611a185760008555611a66565b82601f10611a295780548555611a66565b82800160010185558215611a6657600052602060002091601f016020900482015b82811115611a65578254825591600101919060010190611a4a565b5b509050611a739190611ad5565b5090565b6040518060e00160405280600081526020016060815260200160008152602001600081526020016000815260200160608152602001606081525090565b60405180606001604052806000815260200160608152602001606081525090565b5b80821115611aee576000816000905550600101611ad6565b5090565b6000819050919050565b611b0581611af2565b82525050565b6000602082019050611b206000830184611afc565b92915050565b6000604051905090565b600080fd5b600080fd5b611b4381611af2565b8114611b4e57600080fd5b50565b600081359050611b6081611b3a565b92915050565b600080fd5b600080fd5b6000601f19601f8301169050919050565b7f4e487b7100000000000000000000000000000000000000000000000000000000600052604160045260246000fd5b611bb982611b70565b810181811067ffffffffffffffff82111715611bd857611bd7611b81565b5b80604052505050565b6000611beb611b26565b9050611bf78282611bb0565b919050565b600067ffffffffffffffff821115611c1757611c16611b81565b5b611c2082611b70565b9050602081019050919050565b82818337600083830152505050565b6000611c4f611c4a84611bfc565b611be1565b905082815260208101848484011115611c6b57611c6a611b6b565b5b611c76848285611c2d565b509392505050565b600082601f830112611c9357611c92611b66565b5b8135611ca3848260208601611c3c565b91505092915050565b600080600060608486031215611cc557611cc4611b30565b5b6000611cd386828701611b51565b935050602084013567ffffffffffffffff811115611cf457611cf3611b35565b5b611d0086828701611c7e565b925050604084013567ffffffffffffffff811115611d2157611d20611b35565b5b611d2d86828701611c7e565b9150509250925092565b600060208284031215611d4d57611d4c611b30565b5b600082013567ffffffffffffffff811115611d6b57611d6a611b35565b5b611d7784828501611c7e565b91505092915050565b600067ffffffffffffffff821115611d9b57611d9a611b81565b5b602082029050602081019050919050565b600080fd5b600073ffffffffffffffffffffffffffffffffffffffff82169050919050565b6000611ddc82611db1565b9050919050565b611dec81611dd1565b8114611df757600080fd5b50565b600081359050611e0981611de3565b92915050565b6000611e22611e1d84611d80565b611be1565b90508083825260208201905060208402830185811115611e4557611e44611dac565b5b835b81811015611e6e5780611e5a8882611dfa565b845260208401935050602081019050611e47565b5050509392505050565b600082601f830112611e8d57611e8c611b66565b5b8135611e9d848260208601611e0f565b91505092915050565b600060208284031215611ebc57611ebb611b30565b5b600082013567ffffffffffffffff811115611eda57611ed9611b35565b5b611ee684828501611e78565b91505092915050565b600060208284031215611f0557611f04611b30565b5b6000611f1384828501611b51565b91505092915050565b600060208284031215611f3257611f31611b30565b5b6000611f4084828501611dfa565b91505092915050565b60008115159050919050565b611f5e81611f49565b82525050565b6000602082019050611f796000830184611f55565b92915050565b600067ffffffffffffffff821115611f9a57611f99611b81565b5b602082029050602081019050919050565b6000611fbe611fb984611f7f565b611be1565b90508083825260208201905060208402830185811115611fe157611fe0611dac565b5b835b8181101561202857803567ffffffffffffffff81111561200657612005611b66565b5b8086016120138982611c7e565b85526020850194505050602081019050611fe3565b5050509392505050565b600082601f83011261204757612046611b66565b5b8135612057848260208601611fab565b91505092915050565b60006020828403121561207657612075611b30565b5b600082013567ffffffffffffffff81111561209457612093611b35565b5b6120a084828501612032565b91505092915050565b600067ffffffffffffffff8211156120c4576120c3611b81565b5b602082029050602081019050919050565b60006120e86120e3846120a9565b611be1565b9050808382526020820190506020840283018581111561210b5761210a611dac565b5b835b8181101561215257803567ffffffffffffffff8111156121305761212f611b66565b5b80860161213d8982612032565b8552602085019450505060208101905061210d565b5050509392505050565b600082601f83011261217157612170611b66565b5b81356121818482602086016120d5565b91505092915050565b6000602082840312156121a05761219f611b30565b5b600082013567ffffffffffffffff8111156121be576121bd611b35565b5b6121ca8482850161215c565b91505092915050565b600081519050919050565b600082825260208201905092915050565b6000819050602082019050919050565b600081519050919050565b600082825260208201905092915050565b60005b8381101561223957808201518184015260208101905061221e565b83811115612248576000848401525b50505050565b6000612259826121ff565b612263818561220a565b935061227381856020860161221b565b61227c81611b70565b840191505092915050565b6000612293838361224e565b905092915050565b6000602082019050919050565b60006122b3826121d3565b6122bd81856121de565b9350836020820285016122cf856121ef565b8060005b8581101561230b57848403895281516122ec8582612287565b94506122f78361229b565b925060208a019950506001810190506122d3565b50829750879550505050505092915050565b6000602082019050818103600083015261233781846122a8565b905092915050565b61234881611af2565b82525050565b600081519050919050565b600082825260208201905092915050565b6000819050602082019050919050565b600081519050919050565b600082825260208201905092915050565b6000819050602082019050919050565b60006060830160008301516123be600086018261233f565b50602083015184820360208601526123d6828261224e565b91505060408301516123eb604086018261233f565b508091505092915050565b600061240283836123a6565b905092915050565b6000602082019050919050565b60006124228261237a565b61242c8185612385565b93508360208202850161243e85612396565b8060005b8581101561247a578484038952815161245b85826123f6565b94506124668361240a565b925060208a01995050600181019050612442565b50829750879550505050505092915050565b60006080830160008301516124a4600086018261233f565b50602083015184820360208601526124bc828261224e565b91505060408301516124d1604086018261233f565b50606083015184820360608601526124e98282612417565b9150508091505092915050565b6000612502838361248c565b905092915050565b6000602082019050919050565b60006125228261234e565b61252c8185612359565b93508360208202850161253e8561236a565b8060005b8581101561257a578484038952815161255b85826124f6565b94506125668361250a565b925060208a01995050600181019050612542565b50829750879550505050505092915050565b600081519050919050565b600082825260208201905092915050565b6000819050602082019050919050565b60006080830160008301516125d0600086018261233f565b50602083015184820360208601526125e8828261224e565b91505060408301516125fd604086018261233f565b506060830151612610606086018261233f565b508091505092915050565b600061262783836125b8565b905092915050565b6000602082019050919050565b60006126478261258c565b6126518185612597565b935083602082028501612663856125a8565b8060005b8581101561269f5784840389528151612680858261261b565b945061268b8361262f565b925060208a01995050600181019050612667565b50829750879550505050505092915050565b600060e0830160008301516126c9600086018261233f565b50602083015184820360208601526126e1828261224e565b91505060408301516126f6604086018261233f565b506060830151612709606086018261233f565b50608083015161271c608086018261233f565b5060a083015184820360a08601526127348282612517565b91505060c083015184820360c086015261274e828261263c565b9150508091505092915050565b6000602082019050818103600083015261277581846126b1565b905092915050565b6000606083016000830151612795600086018261233f565b50602083015184820360208601526127ad828261224e565b915050604083015184820360408601526127c7828261224e565b9150508091505092915050565b600060208201905081810360008301526127ee818461277d565b905092915050565b60008151905061280581611b3a565b92915050565b60006020828403121561282157612820611b30565b5b600061282f848285016127f6565b91505092915050565b600082825260208201905092915050565b7f4f6e6c792041646d696e6973747261746f72204d61792043616c6c2046756e6360008201527f74696f6e00000000000000000000000000000000000000000000000000000000602082015250565b60006128a5602483612838565b91506128b082612849565b604082019050919050565b600060208201905081810360008301526128d481612898565b9050919050565b600081519050919050565b600082825260208201905092915050565b6000819050602082019050919050565b61291081611dd1565b82525050565b60006129228383612907565b60208301905092915050565b6000602082019050919050565b6000612946826128db565b61295081856128e6565b935061295b836128f7565b8060005b8381101561298c5781516129738882612916565b975061297e8361292e565b92505060018101905061295f565b5085935050505092915050565b600060208201905081810360008301526129b3818461293b565b905092915050565b60006129c6826121ff565b6129d08185612838565b93506129e081856020860161221b565b6129e981611b70565b840191505092915050565b60006020820190508181036000830152612a0e81846129bb565b905092915050565b7f4e487b7100000000000000000000000000000000000000000000000000000000600052603260045260246000fd5b7f4e487b7100000000000000000000000000000000000000000000000000000000600052601160045260246000fd5b6000612a7f82611af2565b9150612a8a83611af2565b925082821015612a9d57612a9c612a45565b5b828203905092915050565b7f4e487b7100000000000000000000000000000000000000000000000000000000600052602260045260246000fd5b60006002820490506001821680612aef57607f821691505b60208210811415612b0357612b02612aa8565b5b50919050565b7f4e487b7100000000000000000000000000000000000000000000000000000000600052603160045260246000fd5b612b4181611dd1565b82525050565b6000602082019050612b5c6000830184612b38565b92915050565b612b6b81611f49565b8114612b7657600080fd5b50565b600081519050612b8881612b62565b92915050565b600060208284031215612ba457612ba3611b30565b5b6000612bb284828501612b79565b91505092915050565b600081519050919050565b600082825260208201905092915050565b6000819050602082019050919050565b600082825260208201905092915050565b6000612c03826121d3565b612c0d8185612be7565b935083602082028501612c1f856121ef565b8060005b85811015612c5b5784840389528151612c3c8582612287565b9450612c478361229b565b925060208a01995050600181019050612c23565b50829750879550505050505092915050565b6000612c798383612bf8565b905092915050565b6000602082019050919050565b6000612c9982612bbb565b612ca38185612bc6565b935083602082028501612cb585612bd7565b8060005b85811015612cf15784840389528151612cd28582612c6d565b9450612cdd83612c81565b925060208a01995050600181019050612cb9565b50829750879550505050505092915050565b60006020820190508181036000830152612d1d8184612c8e565b905092915050565b600080fd5b600080fd5b6000612d42612d3d84611bfc565b611be1565b905082815260208101848484011115612d5e57612d5d611b6b565b5b612d6984828561221b565b509392505050565b600082601f830112612d8657612d85611b66565b5b8151612d96848260208601612d2f565b91505092915050565b600067ffffffffffffffff821115612dba57612db9611b81565b5b602082029050602081019050919050565b600067ffffffffffffffff821115612de657612de5611b81565b5b602082029050602081019050919050565b600060608284031215612e0d57612e0c612d25565b5b612e176060611be1565b90506000612e27848285016127f6565b600083015250602082015167ffffffffffffffff811115612e4b57612e4a612d2a565b5b612e5784828501612d71565b6020830152506040612e6b848285016127f6565b60408301525092915050565b6000612e8a612e8584612dcb565b611be1565b90508083825260208201905060208402830185811115612ead57612eac611dac565b5b835b81811015612ef457805167ffffffffffffffff811115612ed257612ed1611b66565b5b808601612edf8982612df7565b85526020850194505050602081019050612eaf565b5050509392505050565b600082601f830112612f1357612f12611b66565b5b8151612f23848260208601612e77565b91505092915050565b600060808284031215612f4257612f41612d25565b5b612f4c6080611be1565b90506000612f5c848285016127f6565b600083015250602082015167ffffffffffffffff811115612f8057612f7f612d2a565b5b612f8c84828501612d71565b6020830152506040612fa0848285016127f6565b604083015250606082015167ffffffffffffffff811115612fc457612fc3612d2a565b5b612fd084828501612efe565b60608301525092915050565b6000612fef612fea84612d9f565b611be1565b9050808382526020820190506020840283018581111561301257613011611dac565b5b835b8181101561305957805167ffffffffffffffff81111561303757613036611b66565b5b8086016130448982612f2c565b85526020850194505050602081019050613014565b5050509392505050565b600082601f83011261307857613077611b66565b5b8151613088848260208601612fdc565b91505092915050565b600067ffffffffffffffff8211156130ac576130ab611b81565b5b602082029050602081019050919050565b6000608082840312156130d3576130d2612d25565b5b6130dd6080611be1565b905060006130ed848285016127f6565b600083015250602082015167ffffffffffffffff81111561311157613110612d2a565b5b61311d84828501612d71565b6020830152506040613131848285016127f6565b6040830152506060613145848285016127f6565b60608301525092915050565b600061316461315f84613091565b611be1565b9050808382526020820190506020840283018581111561318757613186611dac565b5b835b818110156131ce57805167ffffffffffffffff8111156131ac576131ab611b66565b5b8086016131b989826130bd565b85526020850194505050602081019050613189565b5050509392505050565b600082601f8301126131ed576131ec611b66565b5b81516131fd848260208601613151565b91505092915050565b600060e0828403121561321c5761321b612d25565b5b61322660e0611be1565b90506000613236848285016127f6565b600083015250602082015167ffffffffffffffff81111561325a57613259612d2a565b5b61326684828501612d71565b602083015250604061327a848285016127f6565b604083015250606061328e848285016127f6565b60608301525060806132a2848285016127f6565b60808301525060a082015167ffffffffffffffff8111156132c6576132c5612d2a565b5b6132d284828501613063565b60a08301525060c082015167ffffffffffffffff8111156132f6576132f5612d2a565b5b613302848285016131d8565b60c08301525092915050565b60006020828403121561332457613323611b30565b5b600082015167ffffffffffffffff81111561334257613341611b35565b5b61334e84828501613206565b9150509291505056fea2646970667358221220315101b37778bea196adb6251c79745a87b22dc3b24a403b0458e5f25c59e2d964736f6c634300080b0033608060405234801561001057600080fd5b5033600260006101000a81548173ffffffffffffffffffffffffffffffffffffffff021916908373ffffffffffffffffffffffffffffffffffffffff160217905550610c82806100616000396000f3fe608060405234801561001057600080fd5b506004361061007d5760003560e01c806386758e541161005b57806386758e54146100ec57806386c1ff6814610108578063a7771ee314610124578063f4ab9adf146101545761007d565b806311174a291461008257806327736f85146100a0578063385704d6146100d0575b600080fd5b61008a610170565b60405161009791906107e2565b60405180910390f35b6100ba60048036038101906100b5919061086f565b610179565b6040516100c791906108ab565b60405180910390f35b6100ea60048036038101906100e59190610a1f565b6101b7565b005b61010660048036038101906101019190610a1f565b610367565b005b610122600480360381019061011d919061086f565b6104b2565b005b61013e6004803603810190610139919061086f565b6105c3565b60405161014b9190610a83565b60405180910390f35b61016e6004803603810190610169919061086f565b61066d565b005b60008054905090565b60016020528060005260406000206000915090508060000160009054906101000a900473ffffffffffffffffffffffffffffffffffffffff16905081565b600260009054906101000a900473ffffffffffffffffffffffffffffffffffffffff1673ffffffffffffffffffffffffffffffffffffffff163373ffffffffffffffffffffffffffffffffffffffff1614610247576040517ff7251ccf00000000000000000000000000000000000000000000000000000000815260040161023e90610afb565b60405180910390fd5b60005b8151811015610363576000604051806020016040528084848151811061027357610272610b1b565b5b602002602001015173ffffffffffffffffffffffffffffffffffffffff16815250905080600160008585815181106102ae576102ad610b1b565b5b602002602001015173ffffffffffffffffffffffffffffffffffffffff1673ffffffffffffffffffffffffffffffffffffffff16815260200190815260200160002060008201518160000160006101000a81548173ffffffffffffffffffffffffffffffffffffffff021916908373ffffffffffffffffffffffffffffffffffffffff16021790555090505060016000546103499190610b79565b60008190555050808061035b90610bcf565b91505061024a565b5050565b600260009054906101000a900473ffffffffffffffffffffffffffffffffffffffff1673ffffffffffffffffffffffffffffffffffffffff163373ffffffffffffffffffffffffffffffffffffffff16146103f7576040517ff7251ccf0000000000000000000000000000000000000000000000000000000081526004016103ee90610afb565b60405180910390fd5b60005b81518110156104ae576001600083838151811061041a57610419610b1b565b5b602002602001015173ffffffffffffffffffffffffffffffffffffffff1673ffffffffffffffffffffffffffffffffffffffff168152602001908152602001600020600080820160006101000a81549073ffffffffffffffffffffffffffffffffffffffff0219169055505060016000546104959190610c18565b60008190555080806104a690610bcf565b9150506103fa565b5050565b600260009054906101000a900473ffffffffffffffffffffffffffffffffffffffff1673ffffffffffffffffffffffffffffffffffffffff163373ffffffffffffffffffffffffffffffffffffffff1614610542576040517ff7251ccf00000000000000000000000000000000000000000000000000000000815260040161053990610afb565b60405180910390fd5b600160008273ffffffffffffffffffffffffffffffffffffffff1673ffffffffffffffffffffffffffffffffffffffff168152602001908152602001600020600080820160006101000a81549073ffffffffffffffffffffffffffffffffffffffff0219169055505060016000546105ba9190610c18565b60008190555050565b60008073ffffffffffffffffffffffffffffffffffffffff16600160008473ffffffffffffffffffffffffffffffffffffffff1673ffffffffffffffffffffffffffffffffffffffff16815260200190815260200160002060000160009054906101000a900473ffffffffffffffffffffffffffffffffffffffff1673ffffffffffffffffffffffffffffffffffffffff16146106635760019050610668565b600090505b919050565b600260009054906101000a900473ffffffffffffffffffffffffffffffffffffffff1673ffffffffffffffffffffffffffffffffffffffff163373ffffffffffffffffffffffffffffffffffffffff16146106fd576040517ff7251ccf0000000000000000000000000000000000000000000000000000000081526004016106f490610afb565b60405180910390fd5b600060405180602001604052808373ffffffffffffffffffffffffffffffffffffffff16815250905080600160008473ffffffffffffffffffffffffffffffffffffffff1673ffffffffffffffffffffffffffffffffffffffff16815260200190815260200160002060008201518160000160006101000a81548173ffffffffffffffffffffffffffffffffffffffff021916908373ffffffffffffffffffffffffffffffffffffffff16021790555090505060016000546107bf9190610b79565b6000819055505050565b6000819050919050565b6107dc816107c9565b82525050565b60006020820190506107f760008301846107d3565b92915050565b6000604051905090565b600080fd5b600080fd5b600073ffffffffffffffffffffffffffffffffffffffff82169050919050565b600061083c82610811565b9050919050565b61084c81610831565b811461085757600080fd5b50565b60008135905061086981610843565b92915050565b60006020828403121561088557610884610807565b5b60006108938482850161085a565b91505092915050565b6108a581610831565b82525050565b60006020820190506108c0600083018461089c565b92915050565b600080fd5b6000601f19601f8301169050919050565b7f4e487b7100000000000000000000000000000000000000000000000000000000600052604160045260246000fd5b610914826108cb565b810181811067ffffffffffffffff82111715610933576109326108dc565b5b80604052505050565b60006109466107fd565b9050610952828261090b565b919050565b600067ffffffffffffffff821115610972576109716108dc565b5b602082029050602081019050919050565b600080fd5b600061099b61099684610957565b61093c565b905080838252602082019050602084028301858111156109be576109bd610983565b5b835b818110156109e757806109d3888261085a565b8452602084019350506020810190506109c0565b5050509392505050565b600082601f830112610a0657610a056108c6565b5b8135610a16848260208601610988565b91505092915050565b600060208284031215610a3557610a34610807565b5b600082013567ffffffffffffffff811115610a5357610a5261080c565b5b610a5f848285016109f1565b91505092915050565b60008115159050919050565b610a7d81610a68565b82525050565b6000602082019050610a986000830184610a74565b92915050565b600082825260208201905092915050565b7f4f6e6c79204f776e6572204d61792043616c6c2046756e6374696f6e00000000600082015250565b6000610ae5601c83610a9e565b9150610af082610aaf565b602082019050919050565b60006020820190508181036000830152610b1481610ad8565b9050919050565b7f4e487b7100000000000000000000000000000000000000000000000000000000600052603260045260246000fd5b7f4e487b7100000000000000000000000000000000000000000000000000000000600052601160045260246000fd5b6000610b84826107c9565b9150610b8f836107c9565b9250827fffffffffffffffffffffffffffffffffffffffffffffffffffffffffffffffff03821115610bc457610bc3610b4a565b5b828201905092915050565b6000610bda826107c9565b91507fffffffffffffffffffffffffffffffffffffffffffffffffffffffffffffffff821415610c0d57610c0c610b4a565b5b600182019050919050565b6000610c23826107c9565b9150610c2e836107c9565b925082821015610c4157610c40610b4a565b5b82820390509291505056fea2646970667358221220230884dbd0eeec2746857270bbe4d4c2064a124056f9fa81a5a6779a3f0bec6264736f6c634300080b0033608060405260008055600180556002805534801561001c57600080fd5b5033600560006101000a81548173ffffffffffffffffffffffffffffffffffffffff021916908373ffffffffffffffffffffffffffffffffffffffff160217905550611e748061006d6000396000f3fe608060405234801561001057600080fd5b506004361061007d5760003560e01c8063b0c2a23b1161005b578063b0c2a23b146100c6578063c11296cc146100e2578063d7627ad1146100fe578063fdad211f1461012e5761007d565b80633cfe7fa71461008257806346a865761461008c57806379df360a146100a8575b600080fd5b61008a610138565b005b6100a660048036038101906100a191906113cb565b61025d565b005b6100b06103f4565b6040516100bd919061142d565b60405180910390f35b6100e060048036038101906100db919061152e565b6104c5565b005b6100fc60048036038101906100f79190611658565b6105d4565b005b610118600480360381019061011391906116cd565b6109ca565b6040516101259190611b9e565b60405180910390f35b610136610e87565b005b600560009054906101000a900473ffffffffffffffffffffffffffffffffffffffff1673ffffffffffffffffffffffffffffffffffffffff163373ffffffffffffffffffffffffffffffffffffffff16146101c8576040517ff7251ccf0000000000000000000000000000000000000000000000000000000081526004016101bf90611c1d565b60405180910390fd5b6000546004600354815481106101e1576101e0611c3d565b5b906000526020600020906007020160020154141561022c5760015460046003548154811061021257610211611c3d565b5b90600052602060002090600702016002018190555061025b565b60025460046003548154811061024557610244611c3d565b5b9060005260206000209060070201600201819055505b565b600560009054906101000a900473ffffffffffffffffffffffffffffffffffffffff1673ffffffffffffffffffffffffffffffffffffffff163373ffffffffffffffffffffffffffffffffffffffff16146102ed576040517ff7251ccf0000000000000000000000000000000000000000000000000000000081526004016102e490611c1d565b60405180910390fd5b60006004805490501480610329575060025460046003548154811061031557610314611c3d565b5b906000526020600020906007020160020154145b61033257600080fd5b600060048054905014610358576003600081548092919061035290611c9b565b91905055505b60046001816001815401808255809150500390600052602060002090505060006004600160048054905061038c9190611ce4565b8154811061039d5761039c611c3d565b5b906000526020600020906007020190506003548160000181905550818160010190805190602001906103d0929190611028565b50600054816002018190555060008160030181905550600081600401819055505050565b6000600560009054906101000a900473ffffffffffffffffffffffffffffffffffffffff1673ffffffffffffffffffffffffffffffffffffffff163373ffffffffffffffffffffffffffffffffffffffff1614610486576040517ff7251ccf00000000000000000000000000000000000000000000000000000000815260040161047d90611c1d565b60405180910390fd5b60006004805490501161049857600080fd5b6004600354815481106104ae576104ad611c3d565b5b906000526020600020906007020160020154905090565b600560009054906101000a900473ffffffffffffffffffffffffffffffffffffffff1673ffffffffffffffffffffffffffffffffffffffff163373ffffffffffffffffffffffffffffffffffffffff1614610555576040517ff7251ccf00000000000000000000000000000000000000000000000000000000815260040161054c90611c1d565b60405180910390fd5b600060048054905014806105915750600060046003548154811061057c5761057b611c3d565b5b90600052602060002090600702016002015414155b156105d1576040517f5d2d8a4c0000000000000000000000000000000000000000000000000000000081526004016105c890611d64565b60405180910390fd5b50565b600560009054906101000a900473ffffffffffffffffffffffffffffffffffffffff1673ffffffffffffffffffffffffffffffffffffffff163373ffffffffffffffffffffffffffffffffffffffff1614610664576040517ff7251ccf00000000000000000000000000000000000000000000000000000000815260040161065b90611c1d565b60405180910390fd5b600060048054905014806106a05750600060046003548154811061068b5761068a611c3d565b5b90600052602060002090600702016002015414155b156106e0576040517f5d2d8a4c0000000000000000000000000000000000000000000000000000000081526004016106d790611d64565b60405180910390fd5b60005b81518110156109c657600060046003548154811061070457610703611c3d565b5b9060005260206000209060070201600501805490501461075c5760046003548154811061073457610733611c3d565b5b9060005260206000209060070201600301600081548092919061075690611c9b565b91905055505b60046003548154811061077257610771611c3d565b5b90600052602060002090600702016005016001816001815401808255809150500390600052602060002090505060006004600354815481106107b7576107b6611c3d565b5b906000526020600020906007020160050160016004600354815481106107e0576107df611c3d565b5b9060005260206000209060070201600501805490506107ff9190611ce4565b815481106108105761080f611c3d565b5b9060005260206000209060040201905060046003548154811061083657610835611c3d565b5b906000526020600020906007020160030154816000018190555082828151811061086357610862611c3d565b5b602002602001015160008151811061087e5761087d611c3d565b5b602002602001015181600101908051906020019061089d929190611028565b50600081600201819055506000600190505b8383815181106108c2576108c1611c3d565b5b6020026020010151518110156109b15760008260030180549050146108fc578160020160008154809291906108f690611c9b565b91905055505b816003016001816001815401808255809150500390600052602060002090505060008260030160018361092f9190611ce4565b815481106109405761093f611c3d565b5b9060005260206000209060030201905084848151811061096357610962611c3d565b5b6020026020010151828151811061097d5761097c611c3d565b5b602002602001015181600101908051906020019061099c929190611028565b505080806109a990611c9b565b9150506108af565b505080806109be90611c9b565b9150506106e3565b5050565b6109d26110ae565b600560009054906101000a900473ffffffffffffffffffffffffffffffffffffffff1673ffffffffffffffffffffffffffffffffffffffff163373ffffffffffffffffffffffffffffffffffffffff1614610a62576040517ff7251ccf000000000000000000000000000000000000000000000000000000008152600401610a5990611c1d565b60405180910390fd5b60008210158015610a77575060048054905082105b610a8057600080fd5b60048281548110610a9457610a93611c3d565b5b90600052602060002090600702016040518060e001604052908160008201548152602001600182018054610ac790611db3565b80601f0160208091040260200160405190810160405280929190818152602001828054610af390611db3565b8015610b405780601f10610b1557610100808354040283529160200191610b40565b820191906000526020600020905b815481529060010190602001808311610b2357829003601f168201915b5050505050815260200160028201548152602001600382015481526020016004820154815260200160058201805480602002602001604051908101604052809291908181526020016000905b82821015610d69578382906000526020600020906004020160405180608001604052908160008201548152602001600182018054610bc990611db3565b80601f0160208091040260200160405190810160405280929190818152602001828054610bf590611db3565b8015610c425780601f10610c1757610100808354040283529160200191610c42565b820191906000526020600020905b815481529060010190602001808311610c2557829003601f168201915b505050505081526020016002820154815260200160038201805480602002602001604051908101604052809291908181526020016000905b82821015610d52578382906000526020600020906003020160405180606001604052908160008201548152602001600182018054610cb790611db3565b80601f0160208091040260200160405190810160405280929190818152602001828054610ce390611db3565b8015610d305780601f10610d0557610100808354040283529160200191610d30565b820191906000526020600020905b815481529060010190602001808311610d1357829003601f168201915b5050505050815260200160028201548152505081526020019060010190610c7a565b505050508152505081526020019060010190610b8c565b50505050815260200160068201805480602002602001604051908101604052809291908181526020016000905b82821015610e78578382906000526020600020906004020160405180608001604052908160008201548152602001600182018054610dd390611db3565b80601f0160208091040260200160405190810160405280929190818152602001828054610dff90611db3565b8015610e4c5780601f10610e2157610100808354040283529160200191610e4c565b820191906000526020600020905b815481529060010190602001808311610e2f57829003601f168201915b505050505081526020016002820154815260200160038201548152505081526020019060010190610d96565b50505050815250509050919050565b600560009054906101000a900473ffffffffffffffffffffffffffffffffffffffff1673ffffffffffffffffffffffffffffffffffffffff163373ffffffffffffffffffffffffffffffffffffffff1614610f17576040517ff7251ccf000000000000000000000000000000000000000000000000000000008152600401610f0e90611c1d565b60405180910390fd5b60006004805490501480610f5357506000600460035481548110610f3e57610f3d611c3d565b5b90600052602060002090600702016002015414155b15610f93576040517f5d2d8a4c000000000000000000000000000000000000000000000000000000008152600401610f8a90611d64565b60405180910390fd5b6004805480610fa557610fa4611de5565b5b6001900381819060005260206000209060070201600080820160009055600182016000610fd291906110eb565b600282016000905560038201600090556004820160009055600582016000610ffa919061112b565b60068201600061100a919061114f565b505090556003600081548092919061102190611e14565b9190505550565b82805461103490611db3565b90600052602060002090601f016020900481019282611056576000855561109d565b82601f1061106f57805160ff191683800117855561109d565b8280016001018555821561109d579182015b8281111561109c578251825591602001919060010190611081565b5b5090506110aa9190611173565b5090565b6040518060e00160405280600081526020016060815260200160008152602001600081526020016000815260200160608152602001606081525090565b5080546110f790611db3565b6000825580601f106111095750611128565b601f0160209004906000526020600020908101906111279190611173565b5b50565b508054600082556004029060005260206000209081019061114c9190611190565b50565b508054600082556004029060005260206000209081019061117091906111d7565b50565b5b8082111561118c576000816000905550600101611174565b5090565b5b808211156111d3576000808201600090556001820160006111b291906110eb565b60028201600090556003820160006111ca9190611216565b50600401611191565b5090565b5b80821115611212576000808201600090556001820160006111f991906110eb565b60028201600090556003820160009055506004016111d8565b5090565b5080546000825560030290600052602060002090810190611237919061123a565b50565b5b8082111561126d5760008082016000905560018201600061125c91906110eb565b60028201600090555060030161123b565b5090565b6000604051905090565b600080fd5b600080fd5b600080fd5b600080fd5b6000601f19601f8301169050919050565b7f4e487b7100000000000000000000000000000000000000000000000000000000600052604160045260246000fd5b6112d88261128f565b810181811067ffffffffffffffff821117156112f7576112f66112a0565b5b80604052505050565b600061130a611271565b905061131682826112cf565b919050565b600067ffffffffffffffff821115611336576113356112a0565b5b61133f8261128f565b9050602081019050919050565b82818337600083830152505050565b600061136e6113698461131b565b611300565b90508281526020810184848401111561138a5761138961128a565b5b61139584828561134c565b509392505050565b600082601f8301126113b2576113b1611285565b5b81356113c284826020860161135b565b91505092915050565b6000602082840312156113e1576113e061127b565b5b600082013567ffffffffffffffff8111156113ff576113fe611280565b5b61140b8482850161139d565b91505092915050565b6000819050919050565b61142781611414565b82525050565b6000602082019050611442600083018461141e565b92915050565b600067ffffffffffffffff821115611463576114626112a0565b5b602082029050602081019050919050565b600080fd5b600061148c61148784611448565b611300565b905080838252602082019050602084028301858111156114af576114ae611474565b5b835b818110156114f657803567ffffffffffffffff8111156114d4576114d3611285565b5b8086016114e1898261139d565b855260208501945050506020810190506114b1565b5050509392505050565b600082601f83011261151557611514611285565b5b8135611525848260208601611479565b91505092915050565b6000602082840312156115445761154361127b565b5b600082013567ffffffffffffffff81111561156257611561611280565b5b61156e84828501611500565b91505092915050565b600067ffffffffffffffff821115611592576115916112a0565b5b602082029050602081019050919050565b60006115b66115b184611577565b611300565b905080838252602082019050602084028301858111156115d9576115d8611474565b5b835b8181101561162057803567ffffffffffffffff8111156115fe576115fd611285565b5b80860161160b8982611500565b855260208501945050506020810190506115db565b5050509392505050565b600082601f83011261163f5761163e611285565b5b813561164f8482602086016115a3565b91505092915050565b60006020828403121561166e5761166d61127b565b5b600082013567ffffffffffffffff81111561168c5761168b611280565b5b6116988482850161162a565b91505092915050565b6116aa81611414565b81146116b557600080fd5b50565b6000813590506116c7816116a1565b92915050565b6000602082840312156116e3576116e261127b565b5b60006116f1848285016116b8565b91505092915050565b61170381611414565b82525050565b600081519050919050565b600082825260208201905092915050565b60005b83811015611743578082015181840152602081019050611728565b83811115611752576000848401525b50505050565b600061176382611709565b61176d8185611714565b935061177d818560208601611725565b6117868161128f565b840191505092915050565b600081519050919050565b600082825260208201905092915050565b6000819050602082019050919050565b600081519050919050565b600082825260208201905092915050565b6000819050602082019050919050565b600060608301600083015161180160008601826116fa565b50602083015184820360208601526118198282611758565b915050604083015161182e60408601826116fa565b508091505092915050565b600061184583836117e9565b905092915050565b6000602082019050919050565b6000611865826117bd565b61186f81856117c8565b935083602082028501611881856117d9565b8060005b858110156118bd578484038952815161189e8582611839565b94506118a98361184d565b925060208a01995050600181019050611885565b50829750879550505050505092915050565b60006080830160008301516118e760008601826116fa565b50602083015184820360208601526118ff8282611758565b915050604083015161191460408601826116fa565b506060830151848203606086015261192c828261185a565b9150508091505092915050565b600061194583836118cf565b905092915050565b6000602082019050919050565b600061196582611791565b61196f818561179c565b935083602082028501611981856117ad565b8060005b858110156119bd578484038952815161199e8582611939565b94506119a98361194d565b925060208a01995050600181019050611985565b50829750879550505050505092915050565b600081519050919050565b600082825260208201905092915050565b6000819050602082019050919050565b6000608083016000830151611a1360008601826116fa565b5060208301518482036020860152611a2b8282611758565b9150506040830151611a4060408601826116fa565b506060830151611a5360608601826116fa565b508091505092915050565b6000611a6a83836119fb565b905092915050565b6000602082019050919050565b6000611a8a826119cf565b611a9481856119da565b935083602082028501611aa6856119eb565b8060005b85811015611ae25784840389528151611ac38582611a5e565b9450611ace83611a72565b925060208a01995050600181019050611aaa565b50829750879550505050505092915050565b600060e083016000830151611b0c60008601826116fa565b5060208301518482036020860152611b248282611758565b9150506040830151611b3960408601826116fa565b506060830151611b4c60608601826116fa565b506080830151611b5f60808601826116fa565b5060a083015184820360a0860152611b77828261195a565b91505060c083015184820360c0860152611b918282611a7f565b9150508091505092915050565b60006020820190508181036000830152611bb88184611af4565b905092915050565b600082825260208201905092915050565b7f4f6e6c79204f776e6572204d61792043616c6c2046756e6374696f6e00000000600082015250565b6000611c07601c83611bc0565b9150611c1282611bd1565b602082019050919050565b60006020820190508181036000830152611c3681611bfa565b9050919050565b7f4e487b7100000000000000000000000000000000000000000000000000000000600052603260045260246000fd5b7f4e487b7100000000000000000000000000000000000000000000000000000000600052601160045260246000fd5b6000611ca682611414565b91507fffffffffffffffffffffffffffffffffffffffffffffffffffffffffffffffff821415611cd957611cd8611c6c565b5b600182019050919050565b6000611cef82611414565b9150611cfa83611414565b925082821015611d0d57611d0c611c6c565b5b828203905092915050565b7f42616c6c6f74204d75737420426520436c6f7365640000000000000000000000600082015250565b6000611d4e601583611bc0565b9150611d5982611d18565b602082019050919050565b60006020820190508181036000830152611d7d81611d41565b9050919050565b7f4e487b7100000000000000000000000000000000000000000000000000000000600052602260045260246000fd5b60006002820490506001821680611dcb57607f821691505b60208210811415611ddf57611dde611d84565b5b50919050565b7f4e487b7100000000000000000000000000000000000000000000000000000000600052603160045260246000fd5b6000611e1f82611414565b91506000821415611e3357611e32611c6c565b5b60018203905091905056fea264697066735822122085bc9d92284b7b0a5a4efcc174826606b5deb2cbf6dbcddc6febcd90540d37eb64736f6c634300080b0033",
  "immutableReferences": {},
  "source": "// SPDX-License-Identifier: MIT\npragma solidity ^0.8.11;\n//pragma experimental ABIEncoderV2;\n\nimport \"./Voters.sol\";\nimport \"./Ballots.sol\";\n\n//import \"./Election.sol\";\n\ncontract VotingContract {\n\tstruct Administrator {\n\t\t/// @notice Address for the administrator\n\t\taddress adminAddress;\n\t}\n\n\t/// @notice Owner of voting contract\n    Administrator administrator;\n\n\t/// @notice List of ballots\n\tBallots ballots;\n\n\t/// @notice Voter storage and functions\n\tVoters voters;\n\n\tconstructor() {\n\t\t/// @notice On creation set administrator to creator address\n\t\tadministrator.adminAddress = msg.sender;\n\n\t\tvoters = new Voters();\n\n\t\tballots = new Ballots();\n\n\t}\n\n\t// Error Messages\n\terror NotAdmin(string message);\n\terror BallotNotClosed(string message);\n\n\t\n\t// Modifiers\n\tmodifier onlyOwner() {\n\t\tif (msg.sender != administrator.adminAddress) {\n\t\t\trevert NotAdmin(\"Only Administrator May Call Function\");\n\t\t}\n\t\t_;\n\t}\n\n\t/*\n\tmodifier ballotIsClosed() {\n\t\tif (currentBallotStatus() != 0) {\n\t\t\trevert BallotNotClosed(\"Ballot Must Be Created And Closed\");\n\t\t}\n\t\t_;\n\t}\n\t*/\n\t\n\t// Events\n\tevent TestEvent(\n\t\tstring message\n\t);\n\n\t// Info Functions ===============================================\n\n\t// Get current ballot status\n\tfunction getCurrentBallotStatus() public view onlyOwner returns (uint) {\n\t\treturn ballots.getCurrentBallotStatus();\n\t}\n\n\t// Get current ballot info\n\n\t// List all ballot ids and names\n\n\t// Get ballot info by id\n\tfunction getBallotById(uint _id) external view onlyOwner returns (Ballots.Ballot memory) {\n\t\treturn ballots.getBallotById(_id);\n\t}\n\n\t/// @notice Gets the total voter count in voter roll\n\t/// @return Total voter count\n\tfunction getVoterCount() public view returns (uint) {\n\t\treturn voters.getVoterCount();\n\t}\n\n\t/// @notice Returns a boolean for whether or not given address is in voter roll\n\t/// @return True or false if voter address is valid\n\tfunction isVoter(address voterAddress) public view returns (bool) {\n\t\treturn voters.isVoter(voterAddress);\n\t}\n\n\t// ==============================================================\n\n\n\n\t// Admin Voter Functions ========================================\n\n\t/// @notice Adds voter to voting roll & increases total voter count\n\t/// @param voterAddress Address of voter to add to voter roll\n\tfunction addVoter(address voterAddress) public onlyOwner {\n\t\tvoters.addVoter(voterAddress);\n\t}\n\n\t/// @notice Adds multiple voters to voting roll & increases total voter count\n\t/// @param voterAddresses Addresses of voters to add to voter roll\n\tfunction addMultipleVoters(address[] memory voterAddresses) public onlyOwner {\n\t\tvoters.addMultipleVoters(voterAddresses);\n\t}\n\n\t/// @notice Removes voter from voting roll & reduces total voter count\n\t/// @param voterAddress Address of voter to remove from voter roll\n\tfunction removeVoter(address voterAddress) public onlyOwner {\n\t\tvoters.removeVoter(voterAddress);\n\t}\n\n\t/// @notice Removes multiple voters from voting roll & reduces total voter count\n\t/// @param voterAddresses Addresses of voters to remove from voter roll\n\tfunction removeMultipleVoters(address[] memory voterAddresses) public onlyOwner {\n\t\tvoters.removeMultipleVoters(voterAddresses);\n\t}\n\n\t// ==============================================================\n\n\n\n\t// Admin Ballot Functions =======================================\n\n\t// Create ballot\n\tfunction createBallot(string memory _name) public onlyOwner {\n\t\tballots.createBallot(_name);\n\t}\n\n\t// Delete ballot\n\tfunction deleteBallot() public onlyOwner {\n\t\tballots.deleteBallot();\n\t}\n\n\t// Open ballot, close ballot\n\tfunction openCloseBallot() public onlyOwner {\n\t\tballots.openCloseBallot();\n\t}\n\n\t// ==============================================================\n\n\n\n\t// Admin Election Functions =====================================\n\n\t// Add election\n\tfunction addElections(string[][] memory elections) public onlyOwner {\n\t\tballots.addElections(elections);\n\t}\n\n\t// ==============================================================\n\n\n\n\t// Admin Issue Functions ========================================\n\n\t// Add issue\n\tfunction addIssues(string[] memory issues) public onlyOwner {\n\t\tballots.addIssues(issues);\n\t}\n\n\t// ==============================================================\n\n\n\n\t// Voter Functions ==============================================\n\n\t// Vote status (to see if voter has voted on each issue & election)\n\n\t// Vote for issue\n\n\t// Vote for election\n\n\t// Vote for all\n\n\t// ==============================================================\n\n\n\n\t// Admin Ownership Functions ====================================\n\n\t// ==============================================================\n\n\n\n\t// Other Functions ==============================================\n\n\t// ==============================================================\n\n\n\n\t// Testing ======================================================\n\t\n\t// ==============================================================\n\n\tstruct Election2 {\n\t\tstring name;\n\t}\n\n\tstruct Issue2 {\n\t\tstring name;\n\t}\n\n\tstruct Ballot2 { \n\t\tstring name;\n\t\tmapping (uint => Issue2) issues;\n\t}\n\n\tstruct Ballot3 {\n\t\tstring name;\n\t\tstring[] messages;\n\t\tIssue2[] issues;\n\t}\n\n\tuint ballotId;\n\n\t//Ballot2[] ballots2;\n\tmapping (uint => Ballot2) ballots2;\n\tmapping (uint => Ballot3) ballots3;\n\n\tfunction popStruct() public {\n\t\tBallot2 storage newBallot2 = ballots2[0];\n\t\tnewBallot2.name = \"hello world\";\n\n\t\tBallot3 storage newBallot3 = ballots3[0];\n\t\tnewBallot3.name = \"hi\";\n\n\t\tstring memory aString = \"world\";\n\t\tnewBallot3.messages.push(aString);\n\n\t\tIssue2 memory newIssue2 = Issue2(\"hey\");\n\t\tnewBallot3.issues.push(newIssue2);\n\n\t}\n\n\n\t\n\tstruct TestStruct {\n\t\tuint id;\n\t\tstring name;\n\t\tstring message;\n\t}\n\n\tTestStruct[] testStructs;\n\n\tfunction createTest(uint _id, string memory _name, string memory _message) public {\n\t\tTestStruct memory newTestStruct = TestStruct(_id, _name, _message);\n\t\ttestStructs.push(newTestStruct);\n\t}\n\n\tfunction getTest(uint _id) public view returns (TestStruct memory) {\n\t\treturn testStructs[_id];\n\t}\n\n\n\tstring[] testArray;\n\n\tfunction populate() public {\n\t\ttestArray.push('ONE');\n\t\ttestArray.push('TWO');\n\t\ttestArray.push('THREE');\n\t\ttestArray.push('FOUR');\n\t\ttestArray.push('FIVE');\n\t}\n\n\tfunction addItem(string memory item) public {\n\t\ttestArray.push(item);\n\t}\n\n\tfunction deleteItem(uint aNum) public {\n\t\tdelete testArray[aNum];\n\t}\n\n\tfunction deleteCustom(uint aNum) public {\n\t\ttestArray[aNum] = testArray[testArray.length - 1];\n\t\ttestArray.pop();\n\t}\n\n\tfunction getArray() public view returns (string[] memory) {\n\t\treturn testArray;\n\t}\n\n}\n",
  "sourcePath": "/Users/hubertkdayssi/Documents/CS_Projects/voting_app/contracts/VotingContract.sol",
  "compiler": {
    "name": "solc",
    "version": "0.8.11+commit.d7f03943.Emscripten.clang"
  },
  "schemaVersion": "3.4.5",
  "updatedAt": "2022-02-23T12:27:11.222Z",
  "devdoc": {
    "kind": "dev",
    "methods": {
      "addMultipleVoters(address[])": {
        "params": {
          "voterAddresses": "Addresses of voters to add to voter roll"
        }
      },
      "addVoter(address)": {
        "params": {
          "voterAddress": "Address of voter to add to voter roll"
        }
      },
      "getVoterCount()": {
        "returns": {
          "_0": "Total voter count"
        }
      },
      "isVoter(address)": {
        "returns": {
          "_0": "True or false if voter address is valid"
        }
      },
      "removeMultipleVoters(address[])": {
        "params": {
          "voterAddresses": "Addresses of voters to remove from voter roll"
        }
      },
      "removeVoter(address)": {
        "params": {
          "voterAddress": "Address of voter to remove from voter roll"
        }
      }
    },
    "version": 1
  },
  "userdoc": {
    "kind": "user",
    "methods": {
      "addMultipleVoters(address[])": {
        "notice": "Adds multiple voters to voting roll & increases total voter count"
      },
      "addVoter(address)": {
        "notice": "Adds voter to voting roll & increases total voter count"
      },
      "getVoterCount()": {
        "notice": "Gets the total voter count in voter roll"
      },
      "isVoter(address)": {
        "notice": "Returns a boolean for whether or not given address is in voter roll"
      },
      "removeMultipleVoters(address[])": {
        "notice": "Removes multiple voters from voting roll & reduces total voter count"
      },
      "removeVoter(address)": {
        "notice": "Removes voter from voting roll & reduces total voter count"
      }
    },
    "version": 1
  }
}