{
  "contractName": "VotingContract",
  "abi": [
    {
      "inputs": [],
      "stateMutability": "nonpayable",
      "type": "constructor"
    },
    {
      "inputs": [
        {
          "internalType": "string",
          "name": "message",
          "type": "string"
        }
      ],
      "name": "BallotNotClosed",
      "type": "error"
    },
    {
      "inputs": [
        {
          "internalType": "string",
          "name": "message",
          "type": "string"
        }
      ],
      "name": "NotAdmin",
      "type": "error"
    },
    {
      "anonymous": false,
      "inputs": [
        {
          "indexed": false,
          "internalType": "string",
          "name": "message",
          "type": "string"
        }
      ],
      "name": "TestEvent",
      "type": "event"
    },
    {
      "inputs": [],
      "name": "getCurrentBallotStatus",
      "outputs": [
        {
          "internalType": "uint256",
          "name": "",
          "type": "uint256"
        }
      ],
      "stateMutability": "view",
      "type": "function"
    },
    {
      "inputs": [],
      "name": "getCurrentBallot",
      "outputs": [
        {
          "components": [
            {
              "internalType": "uint256",
              "name": "id",
              "type": "uint256"
            },
            {
              "internalType": "string",
              "name": "name",
              "type": "string"
            },
            {
              "internalType": "uint256",
              "name": "status",
              "type": "uint256"
            },
            {
              "internalType": "uint256",
              "name": "currentElectionId",
              "type": "uint256"
            },
            {
              "internalType": "uint256",
              "name": "currentIssueId",
              "type": "uint256"
            },
            {
              "components": [
                {
                  "internalType": "uint256",
                  "name": "id",
                  "type": "uint256"
                },
                {
                  "internalType": "string",
                  "name": "name",
                  "type": "string"
                },
                {
                  "internalType": "uint256",
                  "name": "currentCandidateId",
                  "type": "uint256"
                },
                {
                  "components": [
                    {
                      "internalType": "uint256",
                      "name": "id",
                      "type": "uint256"
                    },
                    {
                      "internalType": "string",
                      "name": "name",
                      "type": "string"
                    },
                    {
                      "internalType": "uint256",
                      "name": "votes",
                      "type": "uint256"
                    }
                  ],
                  "internalType": "struct BallotStorage.Candidate[]",
                  "name": "candidates",
                  "type": "tuple[]"
                }
              ],
              "internalType": "struct BallotStorage.Election[]",
              "name": "elections",
              "type": "tuple[]"
            },
            {
              "components": [
                {
                  "internalType": "uint256",
                  "name": "id",
                  "type": "uint256"
                },
                {
                  "internalType": "string",
                  "name": "name",
                  "type": "string"
                },
                {
                  "internalType": "uint256",
                  "name": "forVotes",
                  "type": "uint256"
                },
                {
                  "internalType": "uint256",
                  "name": "againstVotes",
                  "type": "uint256"
                }
              ],
              "internalType": "struct BallotStorage.Issue[]",
              "name": "issues",
              "type": "tuple[]"
            }
          ],
          "internalType": "struct BallotStorage.Ballot",
          "name": "",
          "type": "tuple"
        }
      ],
      "stateMutability": "view",
      "type": "function"
    },
    {
      "inputs": [],
      "name": "getAllBallots",
      "outputs": [
        {
          "components": [
            {
              "internalType": "uint256",
              "name": "id",
              "type": "uint256"
            },
            {
              "internalType": "string",
              "name": "name",
              "type": "string"
            },
            {
              "internalType": "uint256",
              "name": "status",
              "type": "uint256"
            },
            {
              "internalType": "uint256",
              "name": "currentElectionId",
              "type": "uint256"
            },
            {
              "internalType": "uint256",
              "name": "currentIssueId",
              "type": "uint256"
            },
            {
              "components": [
                {
                  "internalType": "uint256",
                  "name": "id",
                  "type": "uint256"
                },
                {
                  "internalType": "string",
                  "name": "name",
                  "type": "string"
                },
                {
                  "internalType": "uint256",
                  "name": "currentCandidateId",
                  "type": "uint256"
                },
                {
                  "components": [
                    {
                      "internalType": "uint256",
                      "name": "id",
                      "type": "uint256"
                    },
                    {
                      "internalType": "string",
                      "name": "name",
                      "type": "string"
                    },
                    {
                      "internalType": "uint256",
                      "name": "votes",
                      "type": "uint256"
                    }
                  ],
                  "internalType": "struct BallotStorage.Candidate[]",
                  "name": "candidates",
                  "type": "tuple[]"
                }
              ],
              "internalType": "struct BallotStorage.Election[]",
              "name": "elections",
              "type": "tuple[]"
            },
            {
              "components": [
                {
                  "internalType": "uint256",
                  "name": "id",
                  "type": "uint256"
                },
                {
                  "internalType": "string",
                  "name": "name",
                  "type": "string"
                },
                {
                  "internalType": "uint256",
                  "name": "forVotes",
                  "type": "uint256"
                },
                {
                  "internalType": "uint256",
                  "name": "againstVotes",
                  "type": "uint256"
                }
              ],
              "internalType": "struct BallotStorage.Issue[]",
              "name": "issues",
              "type": "tuple[]"
            }
          ],
          "internalType": "struct BallotStorage.Ballot[]",
          "name": "",
          "type": "tuple[]"
        }
      ],
      "stateMutability": "view",
      "type": "function"
    },
    {
      "inputs": [
        {
          "internalType": "uint256",
          "name": "_id",
          "type": "uint256"
        }
      ],
      "name": "getBallotById",
      "outputs": [
        {
          "components": [
            {
              "internalType": "uint256",
              "name": "id",
              "type": "uint256"
            },
            {
              "internalType": "string",
              "name": "name",
              "type": "string"
            },
            {
              "internalType": "uint256",
              "name": "status",
              "type": "uint256"
            },
            {
              "internalType": "uint256",
              "name": "currentElectionId",
              "type": "uint256"
            },
            {
              "internalType": "uint256",
              "name": "currentIssueId",
              "type": "uint256"
            },
            {
              "components": [
                {
                  "internalType": "uint256",
                  "name": "id",
                  "type": "uint256"
                },
                {
                  "internalType": "string",
                  "name": "name",
                  "type": "string"
                },
                {
                  "internalType": "uint256",
                  "name": "currentCandidateId",
                  "type": "uint256"
                },
                {
                  "components": [
                    {
                      "internalType": "uint256",
                      "name": "id",
                      "type": "uint256"
                    },
                    {
                      "internalType": "string",
                      "name": "name",
                      "type": "string"
                    },
                    {
                      "internalType": "uint256",
                      "name": "votes",
                      "type": "uint256"
                    }
                  ],
                  "internalType": "struct BallotStorage.Candidate[]",
                  "name": "candidates",
                  "type": "tuple[]"
                }
              ],
              "internalType": "struct BallotStorage.Election[]",
              "name": "elections",
              "type": "tuple[]"
            },
            {
              "components": [
                {
                  "internalType": "uint256",
                  "name": "id",
                  "type": "uint256"
                },
                {
                  "internalType": "string",
                  "name": "name",
                  "type": "string"
                },
                {
                  "internalType": "uint256",
                  "name": "forVotes",
                  "type": "uint256"
                },
                {
                  "internalType": "uint256",
                  "name": "againstVotes",
                  "type": "uint256"
                }
              ],
              "internalType": "struct BallotStorage.Issue[]",
              "name": "issues",
              "type": "tuple[]"
            }
          ],
          "internalType": "struct BallotStorage.Ballot",
          "name": "",
          "type": "tuple"
        }
      ],
      "stateMutability": "view",
      "type": "function"
    },
    {
      "inputs": [],
      "name": "getVoterCount",
      "outputs": [
        {
          "internalType": "uint256",
          "name": "",
          "type": "uint256"
        }
      ],
      "stateMutability": "view",
      "type": "function"
    },
    {
      "inputs": [
        {
          "internalType": "address",
          "name": "voterAddress",
          "type": "address"
        }
      ],
      "name": "isVoter",
      "outputs": [
        {
          "internalType": "bool",
          "name": "",
          "type": "bool"
        }
      ],
      "stateMutability": "view",
      "type": "function"
    },
    {
      "inputs": [],
      "name": "hasVoterVoted",
      "outputs": [
        {
          "internalType": "bool",
          "name": "",
          "type": "bool"
        }
      ],
      "stateMutability": "view",
      "type": "function"
    },
    {
      "inputs": [
        {
          "internalType": "string",
          "name": "_name",
          "type": "string"
        }
      ],
      "name": "createBallot",
      "outputs": [],
      "stateMutability": "nonpayable",
      "type": "function"
    },
    {
      "inputs": [],
      "name": "deleteBallot",
      "outputs": [],
      "stateMutability": "nonpayable",
      "type": "function"
    },
    {
      "inputs": [],
      "name": "openCloseBallot",
      "outputs": [],
      "stateMutability": "nonpayable",
      "type": "function"
    },
    {
      "inputs": [
        {
          "internalType": "string[][]",
          "name": "elections",
          "type": "string[][]"
        }
      ],
      "name": "addElections",
      "outputs": [],
      "stateMutability": "nonpayable",
      "type": "function"
    },
    {
      "inputs": [
        {
          "internalType": "string[]",
          "name": "issues",
          "type": "string[]"
        }
      ],
      "name": "addIssues",
      "outputs": [],
      "stateMutability": "nonpayable",
      "type": "function"
    },
    {
      "inputs": [
        {
          "internalType": "address",
          "name": "voterAddress",
          "type": "address"
        }
      ],
      "name": "addVoter",
      "outputs": [],
      "stateMutability": "nonpayable",
      "type": "function"
    },
    {
      "inputs": [
        {
          "internalType": "address[]",
          "name": "voterAddresses",
          "type": "address[]"
        }
      ],
      "name": "addMultipleVoters",
      "outputs": [],
      "stateMutability": "nonpayable",
      "type": "function"
    },
    {
      "inputs": [
        {
          "internalType": "address",
          "name": "voterAddress",
          "type": "address"
        }
      ],
      "name": "removeVoter",
      "outputs": [],
      "stateMutability": "nonpayable",
      "type": "function"
    },
    {
      "inputs": [
        {
          "internalType": "address[]",
          "name": "voterAddresses",
          "type": "address[]"
        }
      ],
      "name": "removeMultipleVoters",
      "outputs": [],
      "stateMutability": "nonpayable",
      "type": "function"
    },
    {
      "inputs": [
        {
          "internalType": "uint256[][]",
          "name": "votes",
          "type": "uint256[][]"
        }
      ],
      "name": "vote",
      "outputs": [],
      "stateMutability": "nonpayable",
      "type": "function"
    }
  ],
  "bytecode": "0x60806040526000805560018055600280553480156200001d57600080fd5b5033600560000160006101000a81548173ffffffffffffffffffffffffffffffffffffffff021916908373ffffffffffffffffffffffffffffffffffffffff1602179055506040516200007090620000d4565b604051809103906000f0801580156200008d573d6000803e3d6000fd5b50600660006101000a81548173ffffffffffffffffffffffffffffffffffffffff021916908373ffffffffffffffffffffffffffffffffffffffff160217905550620000e2565b610fb78062003da583390190565b613cb380620000f26000396000f3fe608060405234801561001057600080fd5b506004361061010b5760003560e01c806386c1ff68116100a2578063c11296cc11610071578063c11296cc1461026a578063d7627ad114610286578063db5f971e146102b6578063f4ab9adf146102d4578063fdad211f146102f05761010b565b806386c1ff68146101e6578063a7771ee314610202578063b0c2a23b14610232578063bb58b0441461024e5761010b565b80633cfe7fa7116100de5780633cfe7fa71461018657806346a865761461019057806379df360a146101ac57806386758e54146101ca5761010b565b80630b8710e41461011057806311174a291461012e57806322d043d91461014c578063385704d61461016a575b600080fd5b6101186102fa565b6040516101259190612eb2565b60405180910390f35b61013661072c565b6040516101439190612ee3565b60405180910390f35b6101546107c4565b6040516101619190612fa8565b60405180910390f35b610184600480360381019061017f9190613184565b610c1b565b005b61018e610d3e565b005b6101aa60048036038101906101a59190613282565b610e66565b005b6101b4611000565b6040516101c19190612ee3565b60405180910390f35b6101e460048036038101906101df9190613184565b611076565b005b61020060048036038101906101fb91906132cb565b611199565b005b61021c600480360381019061021791906132cb565b6112bc565b6040516102299190613313565b60405180910390f35b61024c6004803603810190610247919061340f565b611361565b005b61026860048036038101906102639190613628565b61163f565b005b610284600480360381019061027f9190613752565b611ae0565b005b6102a0600480360381019061029b919061379b565b611ed9565b6040516102ad9190612fa8565b60405180910390f35b6102be6122f9565b6040516102cb9190613313565b60405180910390f35b6102ee60048036038101906102e991906132cb565b61239c565b005b6102f86124bf565b005b60606004805480602002602001604051908101604052809291908181526020016000905b8282101561072357838290600052602060002090600702016040518060e00160405290816000820154815260200160018201805461035b906137f7565b80601f0160208091040260200160405190810160405280929190818152602001828054610387906137f7565b80156103d45780601f106103a9576101008083540402835291602001916103d4565b820191906000526020600020905b8154815290600101906020018083116103b757829003601f168201915b5050505050815260200160028201548152602001600382015481526020016004820154815260200160058201805480602002602001604051908101604052809291908181526020016000905b828210156105fd57838290600052602060002090600402016040518060800160405290816000820154815260200160018201805461045d906137f7565b80601f0160208091040260200160405190810160405280929190818152602001828054610489906137f7565b80156104d65780601f106104ab576101008083540402835291602001916104d6565b820191906000526020600020905b8154815290600101906020018083116104b957829003601f168201915b505050505081526020016002820154815260200160038201805480602002602001604051908101604052809291908181526020016000905b828210156105e657838290600052602060002090600302016040518060600160405290816000820154815260200160018201805461054b906137f7565b80601f0160208091040260200160405190810160405280929190818152602001828054610577906137f7565b80156105c45780601f10610599576101008083540402835291602001916105c4565b820191906000526020600020905b8154815290600101906020018083116105a757829003601f168201915b505050505081526020016002820154815250508152602001906001019061050e565b505050508152505081526020019060010190610420565b50505050815260200160068201805480602002602001604051908101604052809291908181526020016000905b8282101561070c578382906000526020600020906004020160405180608001604052908160008201548152602001600182018054610667906137f7565b80601f0160208091040260200160405190810160405280929190818152602001828054610693906137f7565b80156106e05780601f106106b5576101008083540402835291602001916106e0565b820191906000526020600020905b8154815290600101906020018083116106c357829003601f168201915b50505050508152602001600282015481526020016003820154815250508152602001906001019061062a565b50505050815250508152602001906001019061031e565b50505050905090565b6000600660009054906101000a900473ffffffffffffffffffffffffffffffffffffffff1673ffffffffffffffffffffffffffffffffffffffff166311174a296040518163ffffffff1660e01b8152600401602060405180830381865afa15801561079b573d6000803e3d6000fd5b505050506040513d601f19601f820116820180604052508101906107bf919061383e565b905090565b6107cc6126e8565b600060048054905011610814576040517f08c379a000000000000000000000000000000000000000000000000000000000815260040161080b906138c8565b60405180910390fd5b60046003548154811061082a576108296138e8565b5b90600052602060002090600702016040518060e00160405290816000820154815260200160018201805461085d906137f7565b80601f0160208091040260200160405190810160405280929190818152602001828054610889906137f7565b80156108d65780601f106108ab576101008083540402835291602001916108d6565b820191906000526020600020905b8154815290600101906020018083116108b957829003601f168201915b5050505050815260200160028201548152602001600382015481526020016004820154815260200160058201805480602002602001604051908101604052809291908181526020016000905b82821015610aff57838290600052602060002090600402016040518060800160405290816000820154815260200160018201805461095f906137f7565b80601f016020809104026020016040519081016040528092919081815260200182805461098b906137f7565b80156109d85780601f106109ad576101008083540402835291602001916109d8565b820191906000526020600020905b8154815290600101906020018083116109bb57829003601f168201915b505050505081526020016002820154815260200160038201805480602002602001604051908101604052809291908181526020016000905b82821015610ae8578382906000526020600020906003020160405180606001604052908160008201548152602001600182018054610a4d906137f7565b80601f0160208091040260200160405190810160405280929190818152602001828054610a79906137f7565b8015610ac65780601f10610a9b57610100808354040283529160200191610ac6565b820191906000526020600020905b815481529060010190602001808311610aa957829003601f168201915b5050505050815260200160028201548152505081526020019060010190610a10565b505050508152505081526020019060010190610922565b50505050815260200160068201805480602002602001604051908101604052809291908181526020016000905b82821015610c0e578382906000526020600020906004020160405180608001604052908160008201548152602001600182018054610b69906137f7565b80601f0160208091040260200160405190810160405280929190818152602001828054610b95906137f7565b8015610be25780601f10610bb757610100808354040283529160200191610be2565b820191906000526020600020905b815481529060010190602001808311610bc557829003601f168201915b505050505081526020016002820154815260200160038201548152505081526020019060010190610b2c565b5050505081525050905090565b600560000160009054906101000a900473ffffffffffffffffffffffffffffffffffffffff1673ffffffffffffffffffffffffffffffffffffffff163373ffffffffffffffffffffffffffffffffffffffff1614610cae576040517f7625245e000000000000000000000000000000000000000000000000000000008152600401610ca590613989565b60405180910390fd5b600660009054906101000a900473ffffffffffffffffffffffffffffffffffffffff1673ffffffffffffffffffffffffffffffffffffffff1663385704d6826040518263ffffffff1660e01b8152600401610d099190613a67565b600060405180830381600087803b158015610d2357600080fd5b505af1158015610d37573d6000803e3d6000fd5b5050505050565b600560000160009054906101000a900473ffffffffffffffffffffffffffffffffffffffff1673ffffffffffffffffffffffffffffffffffffffff163373ffffffffffffffffffffffffffffffffffffffff1614610dd1576040517f7625245e000000000000000000000000000000000000000000000000000000008152600401610dc890613989565b60405180910390fd5b600054600460035481548110610dea57610de96138e8565b5b9060005260206000209060070201600201541415610e3557600154600460035481548110610e1b57610e1a6138e8565b5b906000526020600020906007020160020181905550610e64565b600254600460035481548110610e4e57610e4d6138e8565b5b9060005260206000209060070201600201819055505b565b600560000160009054906101000a900473ffffffffffffffffffffffffffffffffffffffff1673ffffffffffffffffffffffffffffffffffffffff163373ffffffffffffffffffffffffffffffffffffffff1614610ef9576040517f7625245e000000000000000000000000000000000000000000000000000000008152600401610ef090613989565b60405180910390fd5b60006004805490501480610f355750600254600460035481548110610f2157610f206138e8565b5b906000526020600020906007020160020154145b610f3e57600080fd5b600060048054905014610f645760036000815480929190610f5e90613ab8565b91905055505b600460018160018154018082558091505003906000526020600020905050600060046001600480549050610f989190613b01565b81548110610fa957610fa86138e8565b5b90600052602060002090600702019050600354816000018190555081816001019080519060200190610fdc929190612725565b50600054816002018190555060008160030181905550600081600401819055505050565b60008060048054905011611049576040517f08c379a0000000000000000000000000000000000000000000000000000000008152600401611040906138c8565b60405180910390fd5b60046003548154811061105f5761105e6138e8565b5b906000526020600020906007020160020154905090565b600560000160009054906101000a900473ffffffffffffffffffffffffffffffffffffffff1673ffffffffffffffffffffffffffffffffffffffff163373ffffffffffffffffffffffffffffffffffffffff1614611109576040517f7625245e00000000000000000000000000000000000000000000000000000000815260040161110090613989565b60405180910390fd5b600660009054906101000a900473ffffffffffffffffffffffffffffffffffffffff1673ffffffffffffffffffffffffffffffffffffffff166386758e54826040518263ffffffff1660e01b81526004016111649190613a67565b600060405180830381600087803b15801561117e57600080fd5b505af1158015611192573d6000803e3d6000fd5b5050505050565b600560000160009054906101000a900473ffffffffffffffffffffffffffffffffffffffff1673ffffffffffffffffffffffffffffffffffffffff163373ffffffffffffffffffffffffffffffffffffffff161461122c576040517f7625245e00000000000000000000000000000000000000000000000000000000815260040161122390613989565b60405180910390fd5b600660009054906101000a900473ffffffffffffffffffffffffffffffffffffffff1673ffffffffffffffffffffffffffffffffffffffff166386c1ff68826040518263ffffffff1660e01b81526004016112879190613b44565b600060405180830381600087803b1580156112a157600080fd5b505af11580156112b5573d6000803e3d6000fd5b5050505050565b6000600660009054906101000a900473ffffffffffffffffffffffffffffffffffffffff1673ffffffffffffffffffffffffffffffffffffffff1663a7771ee3836040518263ffffffff1660e01b81526004016113199190613b44565b602060405180830381865afa158015611336573d6000803e3d6000fd5b505050506040513d601f19601f8201168201806040525081019061135a9190613b8b565b9050919050565b600560000160009054906101000a900473ffffffffffffffffffffffffffffffffffffffff1673ffffffffffffffffffffffffffffffffffffffff163373ffffffffffffffffffffffffffffffffffffffff16146113f4576040517f7625245e0000000000000000000000000000000000000000000000000000000081526004016113eb90613989565b60405180910390fd5b600060048054905014806114305750600060046003548154811061141b5761141a6138e8565b5b90600052602060002090600702016002015414155b15611470576040517f5d2d8a4c00000000000000000000000000000000000000000000000000000000815260040161146790613c04565b60405180910390fd5b60005b815181101561163b576000600460035481548110611494576114936138e8565b5b906000526020600020906007020160060180549050146114ec576004600354815481106114c4576114c36138e8565b5b906000526020600020906007020160040160008154809291906114e690613ab8565b91905055505b600460035481548110611502576115016138e8565b5b9060005260206000209060070201600601600181600181540180825580915050039060005260206000209050506000600460035481548110611547576115466138e8565b5b906000526020600020906007020160060160016004600354815481106115705761156f6138e8565b5b90600052602060002090600702016006018054905061158f9190613b01565b815481106115a05761159f6138e8565b5b906000526020600020906004020190506004600354815481106115c6576115c56138e8565b5b90600052602060002090600702016004015481600001819055508282815181106115f3576115f26138e8565b5b6020026020010151816001019080519060200190611612929190612725565b50600081600201819055506000816003018190555050808061163390613ab8565b915050611473565b5050565b600560000160009054906101000a900473ffffffffffffffffffffffffffffffffffffffff1673ffffffffffffffffffffffffffffffffffffffff163373ffffffffffffffffffffffffffffffffffffffff16146116d2576040517f7625245e0000000000000000000000000000000000000000000000000000000081526004016116c990613989565b60405180910390fd5b60016116dc611000565b148015611788575060001515600660009054906101000a900473ffffffffffffffffffffffffffffffffffffffff1673ffffffffffffffffffffffffffffffffffffffff1663fd11f97a336040518263ffffffff1660e01b81526004016117439190613b44565b602060405180830381865afa158015611760573d6000803e3d6000fd5b505050506040513d601f19601f820116820180604052508101906117849190613b8b565b1515145b61179157600080fd5b60005b8151811015611a4f5760008282815181106117b2576117b16138e8565b5b60200260200101516000815181106117cd576117cc6138e8565b5b602002602001015114156118cd576004600354815481106117f1576117f06138e8565b5b9060005260206000209060070201600501828281518110611815576118146138e8565b5b60200260200101516001815181106118305761182f6138e8565b5b602002602001015181548110611849576118486138e8565b5b906000526020600020906004020160030182828151811061186d5761186c6138e8565b5b6020026020010151600281518110611888576118876138e8565b5b6020026020010151815481106118a1576118a06138e8565b5b906000526020600020906003020160020160008154809291906118c390613ab8565b9190505550611a3c565b60018282815181106118e2576118e16138e8565b5b60200260200101516002815181106118fd576118fc6138e8565b5b602002602001015114156119a557600460035481548110611921576119206138e8565b5b9060005260206000209060070201600601828281518110611945576119446138e8565b5b60200260200101516001815181106119605761195f6138e8565b5b602002602001015181548110611979576119786138e8565b5b9060005260206000209060040201600201600081548092919061199b90613ab8565b9190505550611a3b565b6004600354815481106119bb576119ba6138e8565b5b90600052602060002090600702016006018282815181106119df576119de6138e8565b5b60200260200101516001815181106119fa576119f96138e8565b5b602002602001015181548110611a1357611a126138e8565b5b90600052602060002090600402016003016000815480929190611a3590613ab8565b91905055505b5b8080611a4790613ab8565b915050611794565b50600660009054906101000a900473ffffffffffffffffffffffffffffffffffffffff1673ffffffffffffffffffffffffffffffffffffffff1663da62a6b4336040518263ffffffff1660e01b8152600401611aab9190613b44565b600060405180830381600087803b158015611ac557600080fd5b505af1158015611ad9573d6000803e3d6000fd5b5050505050565b600560000160009054906101000a900473ffffffffffffffffffffffffffffffffffffffff1673ffffffffffffffffffffffffffffffffffffffff163373ffffffffffffffffffffffffffffffffffffffff1614611b73576040517f7625245e000000000000000000000000000000000000000000000000000000008152600401611b6a90613989565b60405180910390fd5b60006004805490501480611baf57506000600460035481548110611b9a57611b996138e8565b5b90600052602060002090600702016002015414155b15611bef576040517f5d2d8a4c000000000000000000000000000000000000000000000000000000008152600401611be690613c04565b60405180910390fd5b60005b8151811015611ed5576000600460035481548110611c1357611c126138e8565b5b90600052602060002090600702016005018054905014611c6b57600460035481548110611c4357611c426138e8565b5b90600052602060002090600702016003016000815480929190611c6590613ab8565b91905055505b600460035481548110611c8157611c806138e8565b5b9060005260206000209060070201600501600181600181540180825580915050039060005260206000209050506000600460035481548110611cc657611cc56138e8565b5b90600052602060002090600702016005016001600460035481548110611cef57611cee6138e8565b5b906000526020600020906007020160050180549050611d0e9190613b01565b81548110611d1f57611d1e6138e8565b5b90600052602060002090600402019050600460035481548110611d4557611d446138e8565b5b9060005260206000209060070201600301548160000181905550828281518110611d7257611d716138e8565b5b6020026020010151600081518110611d8d57611d8c6138e8565b5b6020026020010151816001019080519060200190611dac929190612725565b50600081600201819055506000600190505b838381518110611dd157611dd06138e8565b5b602002602001015151811015611ec0576000826003018054905014611e0b57816002016000815480929190611e0590613ab8565b91905055505b8160030160018160018154018082558091505003906000526020600020905050600082600301600183611e3e9190613b01565b81548110611e4f57611e4e6138e8565b5b90600052602060002090600302019050848481518110611e7257611e716138e8565b5b60200260200101518281518110611e8c57611e8b6138e8565b5b6020026020010151816001019080519060200190611eab929190612725565b50508080611eb890613ab8565b915050611dbe565b50508080611ecd90613ab8565b915050611bf2565b5050565b611ee16126e8565b6004805490508210611ef257600080fd5b60048281548110611f0657611f056138e8565b5b90600052602060002090600702016040518060e001604052908160008201548152602001600182018054611f39906137f7565b80601f0160208091040260200160405190810160405280929190818152602001828054611f65906137f7565b8015611fb25780601f10611f8757610100808354040283529160200191611fb2565b820191906000526020600020905b815481529060010190602001808311611f9557829003601f168201915b5050505050815260200160028201548152602001600382015481526020016004820154815260200160058201805480602002602001604051908101604052809291908181526020016000905b828210156121db57838290600052602060002090600402016040518060800160405290816000820154815260200160018201805461203b906137f7565b80601f0160208091040260200160405190810160405280929190818152602001828054612067906137f7565b80156120b45780601f10612089576101008083540402835291602001916120b4565b820191906000526020600020905b81548152906001019060200180831161209757829003601f168201915b505050505081526020016002820154815260200160038201805480602002602001604051908101604052809291908181526020016000905b828210156121c4578382906000526020600020906003020160405180606001604052908160008201548152602001600182018054612129906137f7565b80601f0160208091040260200160405190810160405280929190818152602001828054612155906137f7565b80156121a25780601f10612177576101008083540402835291602001916121a2565b820191906000526020600020905b81548152906001019060200180831161218557829003601f168201915b50505050508152602001600282015481525050815260200190600101906120ec565b505050508152505081526020019060010190611ffe565b50505050815260200160068201805480602002602001604051908101604052809291908181526020016000905b828210156122ea578382906000526020600020906004020160405180608001604052908160008201548152602001600182018054612245906137f7565b80601f0160208091040260200160405190810160405280929190818152602001828054612271906137f7565b80156122be5780601f10612293576101008083540402835291602001916122be565b820191906000526020600020905b8154815290600101906020018083116122a157829003601f168201915b505050505081526020016002820154815260200160038201548152505081526020019060010190612208565b50505050815250509050919050565b6000600660009054906101000a900473ffffffffffffffffffffffffffffffffffffffff1673ffffffffffffffffffffffffffffffffffffffff1663fd11f97a336040518263ffffffff1660e01b81526004016123569190613b44565b602060405180830381865afa158015612373573d6000803e3d6000fd5b505050506040513d601f19601f820116820180604052508101906123979190613b8b565b905090565b600560000160009054906101000a900473ffffffffffffffffffffffffffffffffffffffff1673ffffffffffffffffffffffffffffffffffffffff163373ffffffffffffffffffffffffffffffffffffffff161461242f576040517f7625245e00000000000000000000000000000000000000000000000000000000815260040161242690613989565b60405180910390fd5b600660009054906101000a900473ffffffffffffffffffffffffffffffffffffffff1673ffffffffffffffffffffffffffffffffffffffff1663f4ab9adf826040518263ffffffff1660e01b815260040161248a9190613b44565b600060405180830381600087803b1580156124a457600080fd5b505af11580156124b8573d6000803e3d6000fd5b5050505050565b600560000160009054906101000a900473ffffffffffffffffffffffffffffffffffffffff1673ffffffffffffffffffffffffffffffffffffffff163373ffffffffffffffffffffffffffffffffffffffff1614612552576040517f7625245e00000000000000000000000000000000000000000000000000000000815260040161254990613989565b60405180910390fd5b6000600480549050148061258e57506000600460035481548110612579576125786138e8565b5b90600052602060002090600702016002015414155b156125ce576040517f5d2d8a4c0000000000000000000000000000000000000000000000000000000081526004016125c590613c04565b60405180910390fd5b6004600354815481106125e4576125e36138e8565b5b906000526020600020906007020160008082016000905560018201600061260b91906127ab565b60028201600090556003820160009055600482016000905560058201600061263391906127eb565b600682016000612643919061280f565b5050600480548061265757612656613c24565b5b600190038181906000526020600020906007020160008082016000905560018201600061268491906127ab565b6002820160009055600382016000905560048201600090556005820160006126ac91906127eb565b6006820160006126bc919061280f565b505090556000600480549050146126e657600360008154809291906126e090613c53565b91905055505b565b6040518060e00160405280600081526020016060815260200160008152602001600081526020016000815260200160608152602001606081525090565b828054612731906137f7565b90600052602060002090601f016020900481019282612753576000855561279a565b82601f1061276c57805160ff191683800117855561279a565b8280016001018555821561279a579182015b8281111561279957825182559160200191906001019061277e565b5b5090506127a79190612833565b5090565b5080546127b7906137f7565b6000825580601f106127c957506127e8565b601f0160209004906000526020600020908101906127e79190612833565b5b50565b508054600082556004029060005260206000209081019061280c9190612850565b50565b50805460008255600402906000526020600020908101906128309190612897565b50565b5b8082111561284c576000816000905550600101612834565b5090565b5b808211156128935760008082016000905560018201600061287291906127ab565b600282016000905560038201600061288a91906128d6565b50600401612851565b5090565b5b808211156128d2576000808201600090556001820160006128b991906127ab565b6002820160009055600382016000905550600401612898565b5090565b50805460008255600302906000526020600020908101906128f791906128fa565b50565b5b8082111561292d5760008082016000905560018201600061291c91906127ab565b6002820160009055506003016128fb565b5090565b600081519050919050565b600082825260208201905092915050565b6000819050602082019050919050565b6000819050919050565b6129708161295d565b82525050565b600081519050919050565b600082825260208201905092915050565b60005b838110156129b0578082015181840152602081019050612995565b838111156129bf576000848401525b50505050565b6000601f19601f8301169050919050565b60006129e182612976565b6129eb8185612981565b93506129fb818560208601612992565b612a04816129c5565b840191505092915050565b600081519050919050565b600082825260208201905092915050565b6000819050602082019050919050565b600081519050919050565b600082825260208201905092915050565b6000819050602082019050919050565b6000606083016000830151612a7f6000860182612967565b5060208301518482036020860152612a9782826129d6565b9150506040830151612aac6040860182612967565b508091505092915050565b6000612ac38383612a67565b905092915050565b6000602082019050919050565b6000612ae382612a3b565b612aed8185612a46565b935083602082028501612aff85612a57565b8060005b85811015612b3b5784840389528151612b1c8582612ab7565b9450612b2783612acb565b925060208a01995050600181019050612b03565b50829750879550505050505092915050565b6000608083016000830151612b656000860182612967565b5060208301518482036020860152612b7d82826129d6565b9150506040830151612b926040860182612967565b5060608301518482036060860152612baa8282612ad8565b9150508091505092915050565b6000612bc38383612b4d565b905092915050565b6000602082019050919050565b6000612be382612a0f565b612bed8185612a1a565b935083602082028501612bff85612a2b565b8060005b85811015612c3b5784840389528151612c1c8582612bb7565b9450612c2783612bcb565b925060208a01995050600181019050612c03565b50829750879550505050505092915050565b600081519050919050565b600082825260208201905092915050565b6000819050602082019050919050565b6000608083016000830151612c916000860182612967565b5060208301518482036020860152612ca982826129d6565b9150506040830151612cbe6040860182612967565b506060830151612cd16060860182612967565b508091505092915050565b6000612ce88383612c79565b905092915050565b6000602082019050919050565b6000612d0882612c4d565b612d128185612c58565b935083602082028501612d2485612c69565b8060005b85811015612d605784840389528151612d418582612cdc565b9450612d4c83612cf0565b925060208a01995050600181019050612d28565b50829750879550505050505092915050565b600060e083016000830151612d8a6000860182612967565b5060208301518482036020860152612da282826129d6565b9150506040830151612db76040860182612967565b506060830151612dca6060860182612967565b506080830151612ddd6080860182612967565b5060a083015184820360a0860152612df58282612bd8565b91505060c083015184820360c0860152612e0f8282612cfd565b9150508091505092915050565b6000612e288383612d72565b905092915050565b6000602082019050919050565b6000612e4882612931565b612e52818561293c565b935083602082028501612e648561294d565b8060005b85811015612ea05784840389528151612e818582612e1c565b9450612e8c83612e30565b925060208a01995050600181019050612e68565b50829750879550505050505092915050565b60006020820190508181036000830152612ecc8184612e3d565b905092915050565b612edd8161295d565b82525050565b6000602082019050612ef86000830184612ed4565b92915050565b600060e083016000830151612f166000860182612967565b5060208301518482036020860152612f2e82826129d6565b9150506040830151612f436040860182612967565b506060830151612f566060860182612967565b506080830151612f696080860182612967565b5060a083015184820360a0860152612f818282612bd8565b91505060c083015184820360c0860152612f9b8282612cfd565b9150508091505092915050565b60006020820190508181036000830152612fc28184612efe565b905092915050565b6000604051905090565b600080fd5b600080fd5b600080fd5b7f4e487b7100000000000000000000000000000000000000000000000000000000600052604160045260246000fd5b61301b826129c5565b810181811067ffffffffffffffff8211171561303a57613039612fe3565b5b80604052505050565b600061304d612fca565b90506130598282613012565b919050565b600067ffffffffffffffff82111561307957613078612fe3565b5b602082029050602081019050919050565b600080fd5b600073ffffffffffffffffffffffffffffffffffffffff82169050919050565b60006130ba8261308f565b9050919050565b6130ca816130af565b81146130d557600080fd5b50565b6000813590506130e7816130c1565b92915050565b60006131006130fb8461305e565b613043565b905080838252602082019050602084028301858111156131235761312261308a565b5b835b8181101561314c578061313888826130d8565b845260208401935050602081019050613125565b5050509392505050565b600082601f83011261316b5761316a612fde565b5b813561317b8482602086016130ed565b91505092915050565b60006020828403121561319a57613199612fd4565b5b600082013567ffffffffffffffff8111156131b8576131b7612fd9565b5b6131c484828501613156565b91505092915050565b600080fd5b600067ffffffffffffffff8211156131ed576131ec612fe3565b5b6131f6826129c5565b9050602081019050919050565b82818337600083830152505050565b6000613225613220846131d2565b613043565b905082815260208101848484011115613241576132406131cd565b5b61324c848285613203565b509392505050565b600082601f83011261326957613268612fde565b5b8135613279848260208601613212565b91505092915050565b60006020828403121561329857613297612fd4565b5b600082013567ffffffffffffffff8111156132b6576132b5612fd9565b5b6132c284828501613254565b91505092915050565b6000602082840312156132e1576132e0612fd4565b5b60006132ef848285016130d8565b91505092915050565b60008115159050919050565b61330d816132f8565b82525050565b60006020820190506133286000830184613304565b92915050565b600067ffffffffffffffff82111561334957613348612fe3565b5b602082029050602081019050919050565b600061336d6133688461332e565b613043565b905080838252602082019050602084028301858111156133905761338f61308a565b5b835b818110156133d757803567ffffffffffffffff8111156133b5576133b4612fde565b5b8086016133c28982613254565b85526020850194505050602081019050613392565b5050509392505050565b600082601f8301126133f6576133f5612fde565b5b813561340684826020860161335a565b91505092915050565b60006020828403121561342557613424612fd4565b5b600082013567ffffffffffffffff81111561344357613442612fd9565b5b61344f848285016133e1565b91505092915050565b600067ffffffffffffffff82111561347357613472612fe3565b5b602082029050602081019050919050565b600067ffffffffffffffff82111561349f5761349e612fe3565b5b602082029050602081019050919050565b6134b98161295d565b81146134c457600080fd5b50565b6000813590506134d6816134b0565b92915050565b60006134ef6134ea84613484565b613043565b905080838252602082019050602084028301858111156135125761351161308a565b5b835b8181101561353b578061352788826134c7565b845260208401935050602081019050613514565b5050509392505050565b600082601f83011261355a57613559612fde565b5b813561356a8482602086016134dc565b91505092915050565b600061358661358184613458565b613043565b905080838252602082019050602084028301858111156135a9576135a861308a565b5b835b818110156135f057803567ffffffffffffffff8111156135ce576135cd612fde565b5b8086016135db8982613545565b855260208501945050506020810190506135ab565b5050509392505050565b600082601f83011261360f5761360e612fde565b5b813561361f848260208601613573565b91505092915050565b60006020828403121561363e5761363d612fd4565b5b600082013567ffffffffffffffff81111561365c5761365b612fd9565b5b613668848285016135fa565b91505092915050565b600067ffffffffffffffff82111561368c5761368b612fe3565b5b602082029050602081019050919050565b60006136b06136ab84613671565b613043565b905080838252602082019050602084028301858111156136d3576136d261308a565b5b835b8181101561371a57803567ffffffffffffffff8111156136f8576136f7612fde565b5b80860161370589826133e1565b855260208501945050506020810190506136d5565b5050509392505050565b600082601f83011261373957613738612fde565b5b813561374984826020860161369d565b91505092915050565b60006020828403121561376857613767612fd4565b5b600082013567ffffffffffffffff81111561378657613785612fd9565b5b61379284828501613724565b91505092915050565b6000602082840312156137b1576137b0612fd4565b5b60006137bf848285016134c7565b91505092915050565b7f4e487b7100000000000000000000000000000000000000000000000000000000600052602260045260246000fd5b6000600282049050600182168061380f57607f821691505b60208210811415613823576138226137c8565b5b50919050565b600081519050613838816134b0565b92915050565b60006020828403121561385457613853612fd4565b5b600061386284828501613829565b91505092915050565b600082825260208201905092915050565b7f4e6f2042616c6c6f7420486173204265656e2043726561746564000000000000600082015250565b60006138b2601a8361386b565b91506138bd8261387c565b602082019050919050565b600060208201905081810360008301526138e1816138a5565b9050919050565b7f4e487b7100000000000000000000000000000000000000000000000000000000600052603260045260246000fd5b7f4f6e6c792041646d696e6973747261746f72204d61792043616c6c2046756e6360008201527f74696f6e00000000000000000000000000000000000000000000000000000000602082015250565b600061397360248361386b565b915061397e82613917565b604082019050919050565b600060208201905081810360008301526139a281613966565b9050919050565b600081519050919050565b600082825260208201905092915050565b6000819050602082019050919050565b6139de816130af565b82525050565b60006139f083836139d5565b60208301905092915050565b6000602082019050919050565b6000613a14826139a9565b613a1e81856139b4565b9350613a29836139c5565b8060005b83811015613a5a578151613a4188826139e4565b9750613a4c836139fc565b925050600181019050613a2d565b5085935050505092915050565b60006020820190508181036000830152613a818184613a09565b905092915050565b7f4e487b7100000000000000000000000000000000000000000000000000000000600052601160045260246000fd5b6000613ac38261295d565b91507fffffffffffffffffffffffffffffffffffffffffffffffffffffffffffffffff821415613af657613af5613a89565b5b600182019050919050565b6000613b0c8261295d565b9150613b178361295d565b925082821015613b2a57613b29613a89565b5b828203905092915050565b613b3e816130af565b82525050565b6000602082019050613b596000830184613b35565b92915050565b613b68816132f8565b8114613b7357600080fd5b50565b600081519050613b8581613b5f565b92915050565b600060208284031215613ba157613ba0612fd4565b5b6000613baf84828501613b76565b91505092915050565b7f42616c6c6f74204d75737420426520436c6f7365640000000000000000000000600082015250565b6000613bee60158361386b565b9150613bf982613bb8565b602082019050919050565b60006020820190508181036000830152613c1d81613be1565b9050919050565b7f4e487b7100000000000000000000000000000000000000000000000000000000600052603160045260246000fd5b6000613c5e8261295d565b91506000821415613c7257613c71613a89565b5b60018203905091905056fea264697066735822122053305f41c04a98c4838f158ee78704679eb548c37697f8f5cc53e5b18b7b2a7764736f6c634300080b0033608060405234801561001057600080fd5b5033600260006101000a81548173ffffffffffffffffffffffffffffffffffffffff021916908373ffffffffffffffffffffffffffffffffffffffff160217905550610f56806100616000396000f3fe608060405234801561001057600080fd5b50600436106100935760003560e01c806386c1ff681161006657806386c1ff681461011f578063a7771ee31461013b578063da62a6b41461016b578063f4ab9adf14610187578063fd11f97a146101a357610093565b806311174a291461009857806327736f85146100b6578063385704d6146100e757806386758e5414610103575b600080fd5b6100a06101d3565b6040516100ad9190610aa8565b60405180910390f35b6100d060048036038101906100cb9190610b35565b6101dc565b6040516100de929190610b8c565b60405180910390f35b61010160048036038101906100fc9190610d0e565b61022d565b005b61011d60048036038101906101189190610d0e565b610406565b005b61013960048036038101906101349190610b35565b610565565b005b61015560048036038101906101509190610b35565b61068a565b6040516101629190610d57565b60405180910390f35b61018560048036038101906101809190610b35565b610734565b005b6101a1600480360381019061019c9190610b35565b610821565b005b6101bd60048036038101906101b89190610b35565b6109a6565b6040516101ca9190610d57565b60405180910390f35b60008054905090565b60016020528060005260406000206000915090508060000160009054906101000a900473ffffffffffffffffffffffffffffffffffffffff16908060000160149054906101000a900460ff16905082565b600260009054906101000a900473ffffffffffffffffffffffffffffffffffffffff1673ffffffffffffffffffffffffffffffffffffffff163373ffffffffffffffffffffffffffffffffffffffff16146102bd576040517ff7251ccf0000000000000000000000000000000000000000000000000000000081526004016102b490610dcf565b60405180910390fd5b60005b815181101561040257600060405180604001604052808484815181106102e9576102e8610def565b5b602002602001015173ffffffffffffffffffffffffffffffffffffffff168152602001600015158152509050806001600085858151811061032d5761032c610def565b5b602002602001015173ffffffffffffffffffffffffffffffffffffffff1673ffffffffffffffffffffffffffffffffffffffff16815260200190815260200160002060008201518160000160006101000a81548173ffffffffffffffffffffffffffffffffffffffff021916908373ffffffffffffffffffffffffffffffffffffffff16021790555060208201518160000160146101000a81548160ff02191690831515021790555090505060016000546103e89190610e4d565b6000819055505080806103fa90610ea3565b9150506102c0565b5050565b600260009054906101000a900473ffffffffffffffffffffffffffffffffffffffff1673ffffffffffffffffffffffffffffffffffffffff163373ffffffffffffffffffffffffffffffffffffffff1614610496576040517ff7251ccf00000000000000000000000000000000000000000000000000000000815260040161048d90610dcf565b60405180910390fd5b60005b815181101561056157600160008383815181106104b9576104b8610def565b5b602002602001015173ffffffffffffffffffffffffffffffffffffffff1673ffffffffffffffffffffffffffffffffffffffff168152602001908152602001600020600080820160006101000a81549073ffffffffffffffffffffffffffffffffffffffff02191690556000820160146101000a81549060ff0219169055505060016000546105489190610eec565b600081905550808061055990610ea3565b915050610499565b5050565b600260009054906101000a900473ffffffffffffffffffffffffffffffffffffffff1673ffffffffffffffffffffffffffffffffffffffff163373ffffffffffffffffffffffffffffffffffffffff16146105f5576040517ff7251ccf0000000000000000000000000000000000000000000000000000000081526004016105ec90610dcf565b60405180910390fd5b600160008273ffffffffffffffffffffffffffffffffffffffff1673ffffffffffffffffffffffffffffffffffffffff168152602001908152602001600020600080820160006101000a81549073ffffffffffffffffffffffffffffffffffffffff02191690556000820160146101000a81549060ff0219169055505060016000546106819190610eec565b60008190555050565b60008073ffffffffffffffffffffffffffffffffffffffff16600160008473ffffffffffffffffffffffffffffffffffffffff1673ffffffffffffffffffffffffffffffffffffffff16815260200190815260200160002060000160009054906101000a900473ffffffffffffffffffffffffffffffffffffffff1673ffffffffffffffffffffffffffffffffffffffff161461072a576001905061072f565b600090505b919050565b600260009054906101000a900473ffffffffffffffffffffffffffffffffffffffff1673ffffffffffffffffffffffffffffffffffffffff163373ffffffffffffffffffffffffffffffffffffffff16146107c4576040517ff7251ccf0000000000000000000000000000000000000000000000000000000081526004016107bb90610dcf565b60405180910390fd5b60018060008373ffffffffffffffffffffffffffffffffffffffff1673ffffffffffffffffffffffffffffffffffffffff16815260200190815260200160002060000160146101000a81548160ff02191690831515021790555050565b600260009054906101000a900473ffffffffffffffffffffffffffffffffffffffff1673ffffffffffffffffffffffffffffffffffffffff163373ffffffffffffffffffffffffffffffffffffffff16146108b1576040517ff7251ccf0000000000000000000000000000000000000000000000000000000081526004016108a890610dcf565b60405180910390fd5b600060405180604001604052808373ffffffffffffffffffffffffffffffffffffffff16815260200160001515815250905080600160008473ffffffffffffffffffffffffffffffffffffffff1673ffffffffffffffffffffffffffffffffffffffff16815260200190815260200160002060008201518160000160006101000a81548173ffffffffffffffffffffffffffffffffffffffff021916908373ffffffffffffffffffffffffffffffffffffffff16021790555060208201518160000160146101000a81548160ff021916908315150217905550905050600160005461099c9190610e4d565b6000819055505050565b6000600260009054906101000a900473ffffffffffffffffffffffffffffffffffffffff1673ffffffffffffffffffffffffffffffffffffffff163373ffffffffffffffffffffffffffffffffffffffff1614610a38576040517ff7251ccf000000000000000000000000000000000000000000000000000000008152600401610a2f90610dcf565b60405180910390fd5b600160008373ffffffffffffffffffffffffffffffffffffffff1673ffffffffffffffffffffffffffffffffffffffff16815260200190815260200160002060000160149054906101000a900460ff169050919050565b6000819050919050565b610aa281610a8f565b82525050565b6000602082019050610abd6000830184610a99565b92915050565b6000604051905090565b600080fd5b600080fd5b600073ffffffffffffffffffffffffffffffffffffffff82169050919050565b6000610b0282610ad7565b9050919050565b610b1281610af7565b8114610b1d57600080fd5b50565b600081359050610b2f81610b09565b92915050565b600060208284031215610b4b57610b4a610acd565b5b6000610b5984828501610b20565b91505092915050565b610b6b81610af7565b82525050565b60008115159050919050565b610b8681610b71565b82525050565b6000604082019050610ba16000830185610b62565b610bae6020830184610b7d565b9392505050565b600080fd5b6000601f19601f8301169050919050565b7f4e487b7100000000000000000000000000000000000000000000000000000000600052604160045260246000fd5b610c0382610bba565b810181811067ffffffffffffffff82111715610c2257610c21610bcb565b5b80604052505050565b6000610c35610ac3565b9050610c418282610bfa565b919050565b600067ffffffffffffffff821115610c6157610c60610bcb565b5b602082029050602081019050919050565b600080fd5b6000610c8a610c8584610c46565b610c2b565b90508083825260208201905060208402830185811115610cad57610cac610c72565b5b835b81811015610cd65780610cc28882610b20565b845260208401935050602081019050610caf565b5050509392505050565b600082601f830112610cf557610cf4610bb5565b5b8135610d05848260208601610c77565b91505092915050565b600060208284031215610d2457610d23610acd565b5b600082013567ffffffffffffffff811115610d4257610d41610ad2565b5b610d4e84828501610ce0565b91505092915050565b6000602082019050610d6c6000830184610b7d565b92915050565b600082825260208201905092915050565b7f4f6e6c79204f776e6572204d61792043616c6c2046756e6374696f6e00000000600082015250565b6000610db9601c83610d72565b9150610dc482610d83565b602082019050919050565b60006020820190508181036000830152610de881610dac565b9050919050565b7f4e487b7100000000000000000000000000000000000000000000000000000000600052603260045260246000fd5b7f4e487b7100000000000000000000000000000000000000000000000000000000600052601160045260246000fd5b6000610e5882610a8f565b9150610e6383610a8f565b9250827fffffffffffffffffffffffffffffffffffffffffffffffffffffffffffffffff03821115610e9857610e97610e1e565b5b828201905092915050565b6000610eae82610a8f565b91507fffffffffffffffffffffffffffffffffffffffffffffffffffffffffffffffff821415610ee157610ee0610e1e565b5b600182019050919050565b6000610ef782610a8f565b9150610f0283610a8f565b925082821015610f1557610f14610e1e565b5b82820390509291505056fea26469706673582212209becb88941678a38d6212b17463252e15d377b56d971ed7f1d2ec631c9dafdc364736f6c634300080b0033",
  "immutableReferences": {},
  "source": "// SPDX-License-Identifier: MIT\npragma solidity ^0.8.11;\n//pragma experimental ABIEncoderV2;\n\nimport \"./Voters.sol\";\nimport \"./BallotStorage.sol\";\n\ncontract VotingContract is BallotStorage {\n\t\n\tstruct Administrator {\n\t\t/// @notice Address for the administrator\n\t\taddress adminAddress;\n\t}\n\n\t/// @notice Owner of voting contract\n    Administrator administrator;\n\n\t/// @notice Voter storage and functions\n\tVoters voters;\n\n\tconstructor() {\n\t\t/// @notice On creation set administrator to creator address\n\t\tadministrator.adminAddress = msg.sender;\n\n\t\tvoters = new Voters();\n\t}\n\t\n\n\n\t// Error Messages\n\terror NotAdmin(string message);\n\terror BallotNotClosed(string message);\n\n\t\n\t// Modifiers\n\tmodifier onlyOwner() {\n\t\tif (msg.sender != administrator.adminAddress) {\n\t\t\trevert NotAdmin(\"Only Administrator May Call Function\");\n\t\t}\n\t\t_;\n\t}\n\n\tmodifier ballotClosed() {\n\t\tif (ballotsList.length == 0 || ballotsList[currentBallotId].status != 0) {\n\t\t\trevert BallotNotClosed(\"Ballot Must Be Closed\");\n\t\t}\n\t\t_;\n\t}\n\n\n\t\n\t// Events\n\tevent TestEvent(\n\t\tstring message\n\t);\n\n\n\n\t// Get Information Functions ====================================\n\n\t// Get current ballot status\n\tfunction getCurrentBallotStatus() public view returns (uint) {\n\t\trequire(ballotsList.length > 0, \"No Ballot Has Been Created\");\n\t\treturn ballotsList[currentBallotId].status;\n\t}\n\n\t// Get current ballot info\n\tfunction getCurrentBallot() public view returns (Ballot memory) {\n\t\trequire (ballotsList.length > 0, \"No Ballot Has Been Created\");\n\t\treturn ballotsList[currentBallotId];\n\t} \n\n\t// List all ballot ids and names\n\tfunction getAllBallots() public view returns (Ballot[] memory) {\n\t\treturn ballotsList;\n\t}\n\n\t// Get ballot info by id\n\tfunction getBallotById(uint _id) public view returns (Ballot memory) {\n\t\trequire (_id < ballotsList.length);\n\t\treturn (ballotsList[_id]);\n\t} \n\n\t/// @notice Gets the total voter count in voter roll\n\t/// @return Total voter count\n\tfunction getVoterCount() public view returns (uint) {\n\t\treturn voters.getVoterCount();\n\t}\n\n\t/// @notice Returns a boolean for whether or not given address is in voter roll\n\t/// @return True or false if voter address is valid\n\tfunction isVoter(address voterAddress) public view returns (bool) {\n\t\treturn voters.isVoter(voterAddress);\n\t}\n\n\tfunction hasVoterVoted() public view returns (bool) {\n\t\treturn voters.hasVoterVoted(msg.sender);\n\t}\n\n\t// ==============================================================\n\n\n\n\t// Admin Functions ==============================================\n\n\t// Create ballot\n\tfunction createBallot(string memory _name) public onlyOwner {\n\t\trequire(ballotsList.length == 0 || ballotsList[currentBallotId].status == COMPLETE);\n\t\tif(ballotsList.length != 0) { currentBallotId++; }\n\t\tballotsList.push();\n\t\tBallot storage newBallot = ballotsList[ballotsList.length - 1];\n\n\t\tnewBallot.id = currentBallotId;\n\t\tnewBallot.name = _name;\n\t\tnewBallot.status = CLOSED;\n\t\tnewBallot.currentElectionId = 0;\n\t\tnewBallot.currentIssueId = 0;\n\t}\n\n\t// Delete ballot\n\tfunction deleteBallot() public onlyOwner ballotClosed {\n\t\tdelete ballotsList[currentBallotId];\n\t\tballotsList.pop();\n\t\tif (ballotsList.length != 0) {\n\t\t\tcurrentBallotId--;\n\t\t}\n\t}\n\n\t// Open ballot, close ballot\n\tfunction openCloseBallot() public onlyOwner {\n\t\tif(ballotsList[currentBallotId].status == CLOSED) {\n\t\t\tballotsList[currentBallotId].status = OPEN;\n\t\t} else {\n\t\t\tballotsList[currentBallotId].status = COMPLETE;\n\t\t}\n\t}\n\n\t// Add election\n\tfunction addElections(string[][] memory elections) public onlyOwner ballotClosed {\n\t\tfor (uint i = 0; i < elections.length; i++) {\n\t\t\tif (ballotsList[currentBallotId].elections.length != 0) { ballotsList[currentBallotId].currentElectionId++; }\n\t\t\tballotsList[currentBallotId].elections.push();\n\t\t\tElection storage newElection = ballotsList[currentBallotId].elections[ballotsList[currentBallotId].elections.length - 1];\n\t\t\t\n\t\t\tnewElection.id = ballotsList[currentBallotId].currentElectionId;\n\t\t\tnewElection.name = elections[i][0];\n\t\t\tnewElection.currentCandidateId = 0;\n\n\t\t\tfor (uint c = 1; c < elections[i].length; c++) {\n\t\t\t\tif (newElection.candidates.length != 0) { newElection.currentCandidateId++; }\n\t\t\t\tnewElection.candidates.push();\n\t\t\t\tCandidate storage newCandidate = newElection.candidates[c - 1];\n\t\t\t\tnewCandidate.name = elections[i][c];\n\t\t\t}\n\t\t}\n\t}\n\n\tfunction addIssues(string[] memory issues) public onlyOwner ballotClosed {\n\t\tfor (uint i = 0; i < issues.length; i++) {\n\t\t\tif (ballotsList[currentBallotId].issues.length != 0) { ballotsList[currentBallotId].currentIssueId++; }\n\t\t\tballotsList[currentBallotId].issues.push();\n\t\t\tIssue storage newIssue = ballotsList[currentBallotId].issues[ballotsList[currentBallotId].issues.length - 1];\n\n\t\t\tnewIssue.id = ballotsList[currentBallotId].currentIssueId;\n\t\t\tnewIssue.name = issues[i];\n\t\t\tnewIssue.forVotes = 0;\n\t\t\tnewIssue.againstVotes = 0;\n\t\t}\n\t}\n\t\n\t// ==============================================================\n\n\t// Admin Voter Functions ========================================\n\t\n\t/// @notice Adds voter to voting roll & increases total voter count\n\t/// @param voterAddress Address of voter to add to voter roll\n\tfunction addVoter(address voterAddress) public onlyOwner {\n\t\tvoters.addVoter(voterAddress);\n\t}\n\n\t/// @notice Adds multiple voters to voting roll & increases total voter count\n\t/// @param voterAddresses Addresses of voters to add to voter roll\n\tfunction addMultipleVoters(address[] memory voterAddresses) public onlyOwner {\n\t\tvoters.addMultipleVoters(voterAddresses);\n\t}\n\n\t/// @notice Removes voter from voting roll & reduces total voter count\n\t/// @param voterAddress Address of voter to remove from voter roll\n\tfunction removeVoter(address voterAddress) public onlyOwner {\n\t\tvoters.removeVoter(voterAddress);\n\t}\n\n\t/// @notice Removes multiple voters from voting roll & reduces total voter count\n\t/// @param voterAddresses Addresses of voters to remove from voter roll\n\tfunction removeMultipleVoters(address[] memory voterAddresses) public onlyOwner {\n\t\tvoters.removeMultipleVoters(voterAddresses);\n\t}\n\n\t// ==============================================================\n\n\n\t// Voter Functions ==============================================\n\n\t// Vote for all\n\t// [ [ TYPE , ID , VOTE ]   ]\n\t// [ [ ELECTION , 0 , VOTE ] ]\n\t// Election = 0, Issue = 1\n\t// uint AGAINST = 0;\n\t// uint FOR = 1;\n\tfunction vote(uint[][] memory votes) public onlyOwner {\n\t\trequire(getCurrentBallotStatus() == 1 && voters.hasVoterVoted(msg.sender) == false);\n\n\t\tfor (uint i = 0; i < votes.length; i++) {\n\t\t\t// Vote for election or issue\n\t\t\tif (votes[i][0] == 0) {\n\t\t\t\tballotsList[currentBallotId].elections[votes[i][1]].candidates[votes[i][2]].votes++;\n\t\t\t} else {\n\t\t\t\t// Vote for or against issue\n\t\t\t\tif (votes[i][2] == 1) {\n\t\t\t\t\tballotsList[currentBallotId].issues[votes[i][1]].forVotes++;\n\t\t\t\t} else {\n\t\t\t\t\tballotsList[currentBallotId].issues[votes[i][1]].againstVotes++;\n\t\t\t\t}\n\t\t\t}\n\t\t}\n\t\tvoters.updateHasVoted(msg.sender);\n\t}\n\n\t// ==============================================================\n\n\n\n\n\t// ==============================================================\n\n\t// ==============================================================\n\n}\n",
  "sourcePath": "/Users/hubertkdayssi/Documents/CS_Projects/voting_app/contracts/VotingContract.sol",
  "compiler": {
    "name": "solc",
    "version": "0.8.11+commit.d7f03943.Emscripten.clang"
  },
  "schemaVersion": "3.4.5",
  "updatedAt": "2022-02-23T17:46:49.360Z",
  "devdoc": {
    "kind": "dev",
    "methods": {
      "addMultipleVoters(address[])": {
        "params": {
          "voterAddresses": "Addresses of voters to add to voter roll"
        }
      },
      "addVoter(address)": {
        "params": {
          "voterAddress": "Address of voter to add to voter roll"
        }
      },
      "getVoterCount()": {
        "returns": {
          "_0": "Total voter count"
        }
      },
      "isVoter(address)": {
        "returns": {
          "_0": "True or false if voter address is valid"
        }
      },
      "removeMultipleVoters(address[])": {
        "params": {
          "voterAddresses": "Addresses of voters to remove from voter roll"
        }
      },
      "removeVoter(address)": {
        "params": {
          "voterAddress": "Address of voter to remove from voter roll"
        }
      }
    },
    "version": 1
  },
  "userdoc": {
    "kind": "user",
    "methods": {
      "addMultipleVoters(address[])": {
        "notice": "Adds multiple voters to voting roll & increases total voter count"
      },
      "addVoter(address)": {
        "notice": "Adds voter to voting roll & increases total voter count"
      },
      "getVoterCount()": {
        "notice": "Gets the total voter count in voter roll"
      },
      "isVoter(address)": {
        "notice": "Returns a boolean for whether or not given address is in voter roll"
      },
      "removeMultipleVoters(address[])": {
        "notice": "Removes multiple voters from voting roll & reduces total voter count"
      },
      "removeVoter(address)": {
        "notice": "Removes voter from voting roll & reduces total voter count"
      }
    },
    "version": 1
  }
}